:020000040C00EE
:100000000008001001020008C9020008CB02000825
:10001000CD020008CF020008D10200080000000055
:10002000000000000000000000000000D3020008F3
:10003000D502000800000000D7020008D90200081D
:10004000DB020008DD020008DF020008E102000810
:10005000E3020008E5020008E7020008E9020008E0
:10006000EB0200080000000000000000000000009B
:10007000ED02000800000000EF020008F102000895
:10008000790B0008F5020008F7020008F9020008E1
:10009000FB020008FD020008FF020008010300083F
:1000A000030300080503000807030008090300080C
:1000B0000B0300080D0300080F03000811030008DC
:1000C00013030008150300081703000819030008AC
:1000D0001B0300081D0300081F030008210300087C
:1000E000230300082503000827030008290300084C
:1000F0002B0300082D0300082F030008310300081C
:1001000033030008350300083703000839030008EB
:100110003B0300083D0300083F03000841030008BB
:10012000430300084503000847030008490300088B
:100130004B0300084D0300084F030008510300085B
:10014000530300085503000857030008590300082B
:100150005B0300085D0300085F03000861030008FB
:10016000000000000000000000000000000000008F
:1001700063030008650300086703000869030008BB
:100180006B0300086D0300086F030008710300088B
:10019000730300087503000877030008790300085B
:1001A0007B0300087D0300087F030008810300082B
:1001B00083030008850300088703000889030008FB
:1001C0008B0300088D0300088F03000891030008CB
:1001D000930300089503000897030008000000003F
:1001E000990300089B0300089D0300089F03000873
:1001F000A103000800000000A303000800000000A5
:10020000DFF80CD0034880470348804700F017B858
:10021000000800101D04000879190008002A00F0E9
:100220000D804FEA920203680B60013A00F00680ED
:1002300000F1040001F10401FFF7F5BF7047144815
:100240001449154AFFF7EAFF14481549154AFFF704
:10025000E5FF15481549002900F00C804FEA91018F
:100260004FF000020260013900F0048000F1040048
:10027000FFF7F8BF0E480F4908600F488047DFF8C6
:100280003CD04FF000004FF00001DFF834F00000E8
:10029000B02F000C0000002014000000C42F000C40
:1002A000000800100000000014000020B40000004E
:1002B0000000000808ED00E0E12D00080008001033
:1002C000F50B000800BF7047FEE7FEE7FEE7FEE71C
:1002D000FEE7FEE7FEE7FEE7FEE7FEE7FEE7FEE7F6
:1002E000FEE7FEE7FEE7FEE7FEE7FEE7FEE7FEE7E6
:1002F000FEE7FEE7FEE7FEE7FEE7FEE7FEE7FEE7D6
:10030000FEE7FEE7FEE7FEE7FEE7FEE7FEE7FEE7C5
:10031000FEE7FEE7FEE7FEE7FEE7FEE7FEE7FEE7B5
:10032000FEE7FEE7FEE7FEE7FEE7FEE7FEE7FEE7A5
:10033000FEE7FEE7FEE7FEE7FEE7FEE7FEE7FEE795
:10034000FEE7FEE7FEE7FEE7FEE7FEE7FEE7FEE785
:10035000FEE7FEE7FEE7FEE7FEE7FEE7FEE7FEE775
:10036000FEE7FEE7FEE7FEE7FEE7FEE7FEE7FEE765
:10037000FEE7FEE7FEE7FEE7FEE7FEE7FEE7FEE755
:10038000FEE7FEE7FEE7FEE7FEE7FEE7FEE7FEE745
:10039000FEE7FEE7FEE7FEE7FEE7FEE7FEE7FEE735
:1003A000FEE7FEE74FF0010070470000164AD368F1
:1003B000B3F5803F30B522D1144B1868410721D5E1
:1003C0009C689868C4F303614C1CC0F30621481C68
:1003D0009968DB68D268C1F30641013113F0010F5F
:1003E00014BF0B4D0B4D0C4BB5FBF4F46043B0FB4D
:1003F000F1F0D1B24A1CB0FBF2F0186030BD0448F5
:100400000549086030BD00BF00460050104700504D
:1004100000366E01001BB70000000020734BD3F8BC
:10042000882042F4700010B5C3F88800596921F0A3
:1004300008025A616E4B586820F0010159606D4BFB
:100440005A6922F00F0040F00301596101F0EAFB04
:10045000002800F0C780684B684A586802402AB1FB
:10046000596821F4803020F002025A60644B5968C8
:1004700011F0300F04D1604B1868400731D5B1E05E
:10048000586820F0F0025A60596841F40030586012
:10049000594BDA6822F00101D9605868594920F4B3
:1004A00000325A60584B00200522596098601A604B
:1004B000514B1968544B01F46070B0F5607F03D064
:1004C0009A68B2F5FA7FF3D2196821F0010018603A
:1004D000494B1A6802F46071B1F5607F40F0828088
:1004E000C9E74A4AD168C90303D5D06820F48031EE
:1004F000D1605A6842F0010058605968444841F0A0
:1005000010025A609860596841F040025A60586879
:1005100020F0100159605A683A4942F4802058602E
:10052000394B0022052059609A601860324B1968D7
:10053000354B11F0040F03D19A68B2F5FA7FF5D26A
:100540001968314821F001021A602B4B19684A07DB
:1005500048D55C6824F001025A602C4A00211161E0
:1005600051611162D46844F48034D4605A6822F036
:1005700040025A6040F245534360816005210160AA
:1005800021488268632AFBD803681B4A23F00101D3
:10059000204B016040F61B41936041600023052120
:1005A0008360016018488368632BFBD8016821F0E1
:1005B0000103194903609160002341F223320521B0
:1005C00042608360016010488268632AFBD8036838
:1005D00023F00101084B01601048A3F5B661052224
:1005E0009860CA60BDE81040FFF7E0BE00ED00E093
:1005F0000080005000200058104700500200010009
:1006000000470050A34B4C0010E000E000460050B3
:10061000014F1301014F0701014F0401014F030175
:1006200010F1FF3001D300BFFAE770472DE9F04128
:10063000002580462C46204848FA04F313F0010FA9
:100640004268467801D0012101E04FF480311B4B14
:1006500001FA06F757605F785E684FF4803000FA61
:1006600007F070604FF49670FFF7DAFF14494A689C
:100670004B78506A20FA03F111F0010F4FF001029C
:1006800008BF02FA04F002FA07F708BF05437760D3
:100690004FF496700134FFF7C3FF082CCBD1064806
:1006A00043784268012101FA03F050606420FFF7AB
:1006B000B7FF2846BDE8F081EC2E0008FC2E0008AC
:1006C000BC2E0008174B70B5174D58785A686B78D8
:1006D0006E68012404FA00F11448516004FA03F230
:1006E0007260467845684FF4803101FA06F169601E
:1006F0004FF49670FFF794FF2046FFF797FF4220D4
:10070000FFF794FF0A4B18700020FFF78FFF0020BF
:10071000FFF78CFF04FA06F40020FFF787FF6C60F8
:1007200070BD00BFEC2E0008FC2E0008F42E00085F
:10073000A4000020194B70B5194D58785A686B7891
:100740006E68012404FA00F11648516004FA03F2BD
:100750007260467845684FF4803101FA06F16960AD
:100760004FF49670FFF75CFF2046FFF75FFF4220D3
:10077000FFF75CFF0C4C20700020FFF757FF0024B0
:100780000020FFF753FF094B18510434182CF7D100
:10079000012202FA06F66E6070BD00BFEC2E000862
:1007A000FC2E0008F42E0008A4000020AC0000205D
:1007B0001C4B70B51C4D58785A686B786E680124D4
:1007C00004FA00F11948516004FA03F272604678A5
:1007D00045684FF4803101FA06F169604FF4967074
:1007E000FFF71EFF2046FFF721FF4320FFF71EFF04
:1007F0000020FFF71BFF0020FFF718FF5A20FFF72C
:1008000015FF5A20FFF712FF5A20FFF70FFF5A205B
:10081000FFF70CFF04FA06F45A20FFF707FF6C609D
:1008200070BD00BFEC2E0008FC2E0008F42E00085E
:100830001C4B70B51C4D58785A686B786E68012453
:1008400004FA00F11948516004FA03F27260467824
:1008500045684FF4803101FA06F169604FF49670F3
:10086000FFF7DEFE2046FFF7E1FE4420FFF7DEFE45
:100870000020FFF7DBFE2046FFF7D8FE0320FFF73E
:10088000D5FE0020FFF7D2FE0020FFF7CFFE0020AC
:10089000FFF7CCFE04FA06F40020FFF7C7FE6C60F9
:1008A00070BD00BFEC2E0008FC2E0008F42E0008DE
:1008B000164B70B5164D58785A686B786E680124DF
:1008C00004FA00F11348516004FA03F272604678AA
:1008D00045684FF4803101FA06F169604FF4967073
:1008E000FFF79EFE2046FFF7A1FE4320FFF79EFE86
:1008F0000020FFF79BFE2046FFF798FE04FA06F45F
:100900000020FFF793FE6C6070BD00BFEC2E000866
:10091000FC2E0008F42E000808B5FFF7C9FFFFF70A
:1009200087FFBDE80840FFF743BF000038B54FF42C
:100930009670FFF775FE084B5D785C68012000FA41
:1009400005F060604FF49670FFF76AFE4FF4803157
:1009500001FA05F5656038BDE42E0008F8B52A4BAC
:100960005F785E68012000FA07F070604FF47A70DB
:10097000FFF756FE07250724244B0122E85C244B91
:1009800002FA04F1014205D05978586802FA01F2DE
:10099000426006E058785A684FF4803101FA00F35B
:1009A0005360FFF7C3FF14F1FF34E5D2013D022D80
:1009B000E1D100250724174B0122E95C02FA04F07B
:1009C0000842134805D04378416802FA03F24A60AE
:1009D00006E0437842684FF4803101FA03F050603A
:1009E000FFF7A4FF14F1FF34E5D20135052DE1D165
:1009F0004FF4803202FA07F741F288307760BDE8A1
:100A0000F840FFF70DBE00BFCC2E00089400002078
:100A1000DC2E0008A5000020F8B5294BC4224F2089
:100A2000A3211A70587099700020EE24DD25CC2681
:100A3000BB27AA222821DC701D715E719F71DA71BB
:100A4000187258729872D8721873987359731D4B34
:100A50001D4A5D785C684FF4803606FA05F76760DA
:100A600057785668012000FA07F070600E250724B9
:100A7000134B0122E85C154B02FA04F1014205D048
:100A80005978586802FA01F2426006E058785A68CC
:100A90004FF4803101FA00F35360FFF747FF14F180
:100AA000FF34E5D215F1FF35E1D24FF4803202FA7E
:100AB00007F74CF250307760BDE8F840FFF7B0BD63
:100AC00094000020CC2E0008042F0008DC2E000823
:100AD000F8B5164B5F785E684FF4803000FA07F087
:100AE00070604CF25030FFF79BFD00250724104941
:100AF0004A684B78506A20FA03F1CB0704D50122EB
:100B000002FA04F21543EDB2FFF710FF14F1FF34BF
:100B1000EDD208480123057003FA07F74CF2503074
:100B20007760BDE8F840FFF77BBD00BFCC2E000822
:100B3000DC2E0008040000200A2370B5B0FBF3F49B
:100B4000E5B2B5FBF3F1B1FBF3F60A4A06FB131667
:100B500003FB140003FB1151126830363031303082
:100B6000F6B2C9B2C3B2C2F88061C2F88011C2F84D
:100B7000803170BD842E00080148024901F050BE4A
:100B80004C2F0008C4000020194B5A78D8785979A6
:100B90001A70DA799870587A19719A71D97A5A7BE1
:100BA0001872D87B99721A73597CDA7C9873587DC5
:100BB00019749A74D97D5A7E1875D87E99751A76EB
:100BC000597FDA7F9876002019779A775870D87015
:100BD0005871D8715872D8725873D8735874D874C1
:100BE0005875D8755876D8765877D877704700BF3B
:100BF00014000020F8B58D4B5A6F22F4404058671E
:100C0000596F596700F094FEFFF706FFFFF75AFD92
:100C1000FFF782FE864D874E3C242C70FFF78AFD3D
:100C200037788C2FF2D1844C23681D0705D5834A71
:100C3000106A10B10121517780472568E90705D571
:100C40007E4E776A17B10124F477B8477A4D6B6806
:100C5000DA0705D5794A906A10B10121D170804731
:100C60006E68730705D5754FFC6A14B101257D7058
:100C7000A047714E33685F0705D5704A106B10B1FD
:100C800001215171804777683E0705D56B4C656B34
:100C900015B10126E671A847674F7B689D0705D50A
:100CA000664A906B10B10121517280473C68A107E0
:100CB00005D5624DEE6B16B10127EF72B0475E4C61
:100CC00063681A0605D55D4A106C10B10121D17315
:100CD00080476568EB0605D5584E776C17B101243F
:100CE0007474B847544D6B689F0605D5534A906C91
:100CF00010B10121D17480476E68760605D54F4F3B
:100D0000FC6C14B101257D73A0474B4E33681D0662
:100D100005D54A4A106D10B10121517580473768D9
:100D2000BC0605D5454C656D15B10126E675A8478D
:100D3000414F3B68D90605D5404A906D10B101215D
:100D4000517680473C68620605D53C4DEE6D16B184
:100D50000127EF76B0473848394B4169C468002213
:100D60001A70364B7F398DB27F3C93F86010A4B275
:100D7000AFB2A6B200293BD13BB213F11E0F04DB88
:100D80001E2B4FF0010302DC00E00B46012132B2C2
:100D900012F11E0F04DB1E2A4FF0010203DC00E0FB
:100DA0000022012000E000203FB2002F01DD6D0095
:100DB00002E06FF001077D431D4F97F800E0204FE0
:100DC000ADB215FB0EF54FF0640C36B295FBFCF599
:100DD000002E7D7001DD640002E06FF001056C43C0
:100DE000A4B214FB0EF6642596FBF5F4BC7048E043
:100DF00030B21E2805DC10F11E034FF0010303DBA7
:100E000000E01346012100E011463AB21E2A08DC38
:100E100012F11E0FB4BF00200120002A12DD0122B2
:100E200001E0002201206F00BDB210E00080024806
:100E3000A3000020A4000020AC000020140000202B
:100E4000A50000206FF001077D43ADB20122174FCE
:100E500097F800E0164F15FB0EF54FF0640C36B214
:100E600095FBFCF5002EBD7001DD640002E06FF023
:100E700001056C43A4B214FB0EF6642596FBF5F451
:100E80007C700C4D0A4F6C88520142EA001041F010
:100E9000020140EA010646EAC3032209FB703A71E7
:100EA000FFF75CFDFFF770FEB4E600BFA300002073
:100EB000A5000020C4000020014B5F221A7070477B
:100EC000A3000020014B28221A707047A3000020C5
:100ED000044B93F86020D2F1010038BF002083F862
:100EE00060007047140000204FF0FF3070474FF053
:100EF000FF307047002070474FF0FF3070474FF0D1
:100F0000FF30704700290CBF6FF001004FF0FF3039
:100F10007047814214BF6FF001004FF0FF307047FF
:100F20004FF0FF30704700000A4B1A6822B90A4A96
:100F30000A491A6052185A601A685B68D11D08186D
:100F400020F0070199423ABF024B19600022104677
:100F5000704700BF78000020C800002038FF000064
:100F60004FF0FF3070474FF0FF3070474FF0FF30C9
:100F700070474FF0FF3070474FF0FF307047FEE78B
:100F800070474FF0FF30704703681A6C22F002017F
:100F900010B51964DC6844F00302DA601969028D47
:100FA00041F400441C611969940541EA94511961A6
:100FB00090F830205C691102828D920202F4F842AE
:100FC00001F4407111432143448D324A24042240EC
:100FD000114359615C6B44F481725A63828B596B83
:100FE0001404120604F47C1402F0706222430A43D3
:100FF0005A63996B41F4A0629A63427DD96B5200A7
:1010000041F0010102F002020A43C18D090201F41C
:10101000F8510A43DA6390F824201AB1D96B41F0F1
:101020002002DA6390F8251019B1DA6B42F0400122
:10103000D96390F826201AB1D96B41F08002DA63A7
:10104000817F51B190F82020D3F80811120202F4E8
:101050007C520A43C3F8082103E09A6C42F4005121
:101060009964C17F59B1D3F80C2142F0805190F8B6
:101070002120120202F47C521143C3F80C111A6CA5
:10108000807D42F00201020202F4407001431964C3
:1010900010BD00BF0000FF0310B54368027A596815
:1010A000012404FA02F20A435A60007A032808D89D
:1010B000C20019690332182000FA02F20A431A61C9
:1010C00010BD011F032908D8C8005A69C11C182087
:1010D00000FA01F11143596110BDA0F10801032983
:1010E00008D8C9009A690331182000FA01F11143A8
:1010F000996110BD0C38032807D8C200D9690332A2
:10110000182000FA02F20A43DA6110BD07EE900AD5
:10111000F5EEC07AF1EE10FA48BFF1EE677A17EEFD
:10112000900A704705EE900ADFED657AF8EE656A81
:101130002DE9F04FC6EEA70A95B042F6C653B7EEBA
:10114000000AF4EEC00AF1EE10FACCBF1C460446C9
:10115000D8BF1846D4BF002701270490012008906B
:10116000002000940C908446804614AB03EB880A60
:1011700001305AF8404C5AF8505C00F0030603EB7B
:101180008603B5FBF4F904FB1955012843F8504CCC
:1011900043F8109C43F8405C03D1119B0D900993D8
:1011A00012E014AC04EB8C0B5AF8305C5BF8304C5A
:1011B00005FB094543F8305C5BF8204C5AF8205C8D
:1011C00005FB094543F8205C0DF1500909EB860544
:1011D00055F8203CB3F5806F56D909EB8C0009EB2C
:1011E000880350F8200C53F8204C53F8305CC0F5BD
:1011F000806806F1FF33B8FBF4FC09EB860609EBC7
:10120000830856F8386C58F8303C03FB0C6358F8E8
:10121000206C06FB0C002FB11E46034630462E46BE
:1012200025463446002C3FD0002D3DD0C0B3BBB383
:1012300001EE105A06EE104A03EE103A04EE100AC0
:10124000B8EE417AF8EE461AF8EE433AF8EE444A20
:1012500087EE212A83EEA45A70EEC22A70EEC55A98
:10126000F5EEC02AF1EE10FAF5EEC05A48BFF1EEE5
:10127000622AF1EE10FA48BFF1EE655AF4EEE52A63
:10128000F1EE10FA0CDD0FE055F8404CC4460CB1FD
:10129000B0466AE755F8304C2FB91846234603E0AC
:1012A00020462B4600E0204640F2FF34A34294BF84
:1012B00013601460421E0A6015B0BDE8F08F00BFD5
:1012C0000018374610B5084800F002F9074B1868B7
:1012D000027D012A1C4601D1FFF7DEFE2068BDE831
:1012E0001040FFF751BE00BF800000100800002032
:1012F00070470000F7B5046816461F46A26CA36C41
:10130000C3F34003002503201A420095019539D00C
:10131000206C20F002022264084601AA6946FFF709
:1013200001FF216921F47F7323F0030020610199FB
:1013300022698B0542EA935020616269009822F08D
:101340007F7121F4403363610F49626903041940DE
:1013500011436161E26B22F00200E063E36B7F0006
:1013600007F002071F43E763216C21F440722264F7
:10137000206C360240F0020306F4407143EA010695
:1013800026642846FEBD00BF0000FF0310B50368B9
:10139000C07F70B10020D3F8144114F0080F0BD1B6
:1013A000904205D0D3F81C4121F810400130F2E7FB
:1013B00010BD5A6D01200A8010BD10B50368C07FB2
:1013C00068B10020D3F8144114F0080F0AD19042FC
:1013D00004D0D3F81C410C540130F3E710BD5A6D12
:1013E00001200A7010BD10B50368807F70B1002025
:1013F000D3F8144114F4805F0FD1904205D031F836
:1014000010400130C3F88041F2E710BD9A6B12061C
:1014100003D40888C3F88000012010BD10B503680C
:10142000807F68B10020D3F8144114F4805F0ED19E
:10143000904204D00C5C0130C3F88041F3E710BD4A
:101440009A6B120603D40878C3F88000012010BDFF
:101450000F29036806D89B6C012202FA01F101EA08
:1014600003000CE01229D3F814314FF0010294BFAD
:10147000A1F11000A1F10B0002FA00F018400028C1
:1014800014BF0220012070470F29036806D8DA6CC8
:10149000012000FA01F11143D96470471229D3F8F1
:1014A00018014FF0010201D8103900E00B3902FA9F
:1014B00001F20243C3F8182170470000030F0C2209
:1014C0005A43024920F07040505070471044005079
:1014D000030F0C225A43024920F0704050507047CD
:1014E00014440050014B1868C0B2704700440050CB
:1014F00020F070420C23000F584303494058024229
:101500000CBF0020012070470C440050024B9A6829
:1015100042F001009860704700440050F0B5204A46
:10152000204BD1681B68C1F3022218785E7893F8CB
:1015300002C0C2F10707C5B2062F28BF062702B1B5
:10154000013A012404FA02F104FA07F4013C0139DA
:10155000344004FA02F201EA0C0111436AB2002A93
:101560004FEA810106DA104A00F00F008018C9B274
:10157000017606E002F16042C8B202F5614181F8ED
:101580000003DA78012A09D11B7859B2480903F01F
:101590001F03064902FA03F241F82020F0BD00BF04
:1015A00000ED00E00C000020FCEC00E000E100E0B9
:1015B000434B5A6800205060516C21F0070353647C
:1015C000516C41F004035364916991613D4A536841
:1015D0005860196C21F007021A64196C41F004027A
:1015E0001A6419691961384B5A685060516C21F0BE
:1015F00070035364516C41F04003536491699161ED
:10160000324A53685860596C21F007025A64596C89
:1016100041F004025A64996999612D4B5A685060EF
:10162000116C21F4E0031364116C41F48003136422
:1016300051695161274A53685860196C21F4E022BE
:101640001A64196C41F480221A6459695961224B59
:101650005A685060116C21F4E0431364116C41F43A
:1016600080431364116941F0C05313611B4A5368EE
:101670005860196C21F4E0621A64196C41F48062BC
:101680001A6419691961164B5A685060116C21F07F
:1016900070031364116C41F040031364116911610C
:1016A000104A51684860086C20F0E0430B640A6CF3
:1016B00042F0804008644B6943F080524A617047B1
:1016C000042F0008FC2E0008F42E0008EC2E000861
:1016D000E42E0008DC2E0008D42E0008CC2E0008D2
:1016E000C42E0008BC2E000810B54378032B11D877
:1016F0004268DB00146903331F2000FA03F024EA78
:1017000000001061106901F01F0101FA03F30343A7
:10171000136110BD1A1FD2B2032A11D84368D0003A
:101720005C69C21C1F2000FA02F024EA0000586124
:10173000586901F01F0101FA02F202435A6110BD1B
:10174000A3F10802D2B2032A11D84368D2009C69DF
:1017500003321F2000FA02F024EA00009861986921
:1017600001F01F0101FA02F202439A6110BD0C3B25
:10177000DBB2032B10D84268D800D469C31C1F20E9
:1017800000FA03F024EA0000D061D06901F01F01E3
:1017900001FA03F30343D36110BD10B54378032B63
:1017A00011D84268DB00146903331F2000FA03F0EC
:1017B00024EA00001061106901F01F0101FA03F32F
:1017C0000343136110BD1A1FD2B2032A11D8436814
:1017D000D0005C69C21C1F2000FA02F024EA00005D
:1017E0005861586901F01F0101FA02F202435A617F
:1017F00010BDA3F10802D2B2032A11D84368D20067
:101800009C6903321F2000FA02F024EA000098616C
:10181000986901F01F0101FA02F202439A6110BDBA
:101820000C3BDBB2032B10D84268D800D469C31C30
:101830001F2000FA03F024EA0000D061D06901F013
:101840001F0101FA03F30343D36110BD044B586831
:10185000026E22F00101016603690361704700BF57
:101860000C2F000810B5436842781C6E012000FA66
:1018700002F024EA0000032A186610D8D0001C6980
:10188000C21C1F2000FA02F024EA00001861186947
:1018900001F01F0101FA02F202431A6110BD101F8C
:1018A000C0B2032810D8C0005C69C21C1F2000FA17
:1018B00002F024EA00005861586901F01F0101FAA2
:1018C00002F202435A6110BDA2F10800C0B203281F
:1018D00010D8C0009C69C21C1F2000FA02F024EA44
:1018E00000009861986901F01F0101FA02F20243B9
:1018F0009A6110BD0C3AD2B2032A0FD8D000DC692D
:10190000C21C1F2000FA02F024EA0000D861D86946
:1019100001F01F0101FA02F20243DA6110BD4368CF
:101920004278196E012000FA02F20A431A667047E3
:101930000F49104808B5CB684FF6FF021A4042EA3B
:101940000003CB6000F08AF8FFF732FE00F096F853
:10195000FFF7B8FC00F002FC00F014FAFFF776FF86
:1019600000F0BAFEFFF7DAFDBDE8084000F006B867
:1019700000ED00E00001FA0500F080B8364B1A6C6B
:10198000196C21F00F001864D96921F0070040F0AC
:101990000101D961D3F8080120F0E06121F03F0096
:1019A00040F0807141F00200C3F80801D3F80C1137
:1019B00021F0E06020F03F0141F08070C3F80C019D
:1019C000196C02F00F0221F00F0040EA02011964C5
:1019D00003F50043586F20F440325A67996941F08B
:1019E0008000986103F580731A6942F080011961E3
:1019F000186940F400421A61996941F40040986105
:101A0000D3F8102142F40001C3F81011D3F81401E7
:101A100040F08002C3F81421D3F8141141F40040BF
:101A2000C3F81401D3F8182142F08001C3F818114B
:101A3000D3F81C0120F4380242F41001C3F81C1141
:101A40004FF04023D3F8400120F4702242F40031DB
:101A5000C3F84011704700BF00000248704782B0D1
:101A600000220192019B834206D200BF00BF00BF4B
:101A700000BF01994A1CF4E702B0704738B55C4BCF
:101A80005C485A681040002800F09E805A490C6853
:101A9000E20703D44D6845F001034B6057480268E4
:101AA000920503D5816841F400748460504D6B68E1
:101AB00023F4801068606420FFF7D1FF6A6842F465
:101AC000002164206960FFF7CAFF6C684C4924F468
:101AD000803323F0020068604A6812F0300F1CD097
:101AE0004C6824F030034B60486840F440324A6050
:101AF000E96821F00104EC606B6823F40030686051
:101B000044F250643A4D0A20FFF7A9FF2A6802F414
:101B10006071B1F5607F5BD12B68354B1868450764
:101B20002DD4384D3849132485E812005A68374DB2
:101B300042F0010159605C6844F0100058609D60FB
:101B40005A6842F0400159605C6824F01000586007
:101B50005D6845F480225A6044F250640A20FFF721
:101B60007EFF234B196811F0040F184633D002682A
:101B70001F4D500703D56B6823F0010169602448AD
:101B80002149C46844F48035194CC56062681D4D14
:101B900022F04003636064202960FFF760FF1D4866
:101BA000A0606420FFF75BFF1B4B042296206A6055
:101BB000A360FFF754FF1949A160A06810F0706F8F
:101BC0000CD0174A0521D160BDE83840FEF7EEBBC6
:101BD000013C97D1A0E7013CC0D1C8E7A268C2F39D
:101BE0000623272BEDD1A068410608BFA068E8E7CF
:101BF0001047005002000100004200500044005015
:101C0000004700508400002000389C1C002713006F
:101C100000460050002707000027040000270300AB
:101C2000604100500020704700F10C010EC970B5F2
:101C30000C78002C7FD104784678D2F8805010348C
:101C400006FA04F425F4803504F480342C43C2F8F9
:101C50008040D3F88020C47A22F0030204F0030508
:101C600045EA0204C3F880408278D3F88050D4015A
:101C7000E2B225F080052A43C3F88020D3F8B820CB
:101C8000848822F47F62250522F00F0444EA15556A
:101C9000C3F8B850C288D3F8B8401504264A24F0D7
:101CA0007F6424F470242A402243C3F8B820D3F878
:101CB000F02142F00044427A02F007022243047A03
:101CC000240704F080542243847AA40604F040647C
:101CD0002243C3F8F021827ED3F8A04002F01F0215
:101CE0002243047E240204F4E0642243047F240699
:101CF00004F0E0642243847F240404F4F8142243B3
:101D0000C3F8A020C27ED3F8A44002F01F022243F1
:101D1000447E240204F4E0642243447FC07F24060E
:101D200004F0E0640004224300F4F8100243C3F816
:101D3000A42001230B7070BD0000FF0FC268016971
:101D400043691078012814D1D1F8800020F4803044
:101D5000C1F8800000204FF00041C3F88000C3F8B4
:101D6000B800C3F8F011C3F8A000C3F8A4001070C5
:101D70007047012070474269D2F88030DB00FBD405
:101D80000020704708B500F0E9F90648FFF74CFF5E
:101D900000F08CFA20B90348BDE80840FFF7EBBF1C
:101DA00008BD00BF142F0008C368426918780128D5
:101DB0000FD1B1F5805F0ED8D2F8B83023F47F6030
:101DC00020F00F03090543EA1151C2F8B8100020B2
:101DD000704701207047022070470000C3684269C5
:101DE0001878012810D1B1F5805F0FD8D2F8B8006B
:101DF000074B090420F07F600B4020F470210B4357
:101E0000C2F8B830002070470120704702207047A8
:101E10000000FF0FC26843691278012A10D103291C
:101E200010D8D3F8C80102FA01F120EA0102C3F880
:101E3000C821D3F8C8010143C3F8C8110020704776
:101E40000120704702207047C26843691278012A56
:101E50000BD103290BD8D3F8C80102FA01F220EA0A
:101E60000201C3F8C811002070470120704702200A
:101E70007047C26843691278012A11D1032911D829
:101E8000D3F8C801083102FA01F120EA0102C3F8CF
:101E9000C821D3F8C8010143C3F8C8110020704716
:101EA0000120704702207047C26843691278012AF6
:101EB0000CD103290CD8D3F8C801083102FA01F279
:101EC00020EA0201C3F8C8110020704701207047C2
:101ED00002207047C2684369107801280CD1082994
:101EE0000CD8D3F8F02101F0070122F007000143DC
:101EF000C3F8F0110020704701207047022070479E
:101F0000C26843691078012807D141B1D3F8F03194
:101F100003F007020A70002070470120704702207A
:101F20007047C2684369107801280DD120290DD867
:101F3000D3F8F021090401F4F81022F4F812104348
:101F4000C3F8F0010020704701207047022070475D
:101F5000C2684369107801280FD103290FD8D3F83C
:101F6000F021890622F0406040F0004201F040601C
:101F70000243C3F8F021002070470120704702207F
:101F80007047C2684369107801280FD101290FD822
:101F9000D3F8F021090722F0805040F0004201F010
:101FA00080500243C3F8F0210020704701207047A1
:101FB00002207047C2684369107801280AD11F299E
:101FC0000AD8D3F8A02022F01F000143C3F8A010C4
:101FD000002070470120704702207047C2684369A3
:101FE000107801280AD11F290AD8D3F8A42022F09A
:101FF0001F000143C3F8A410002070470120704760
:1020000002207047C2684369107801280DD11F294A
:102010000DD8D3F8A020090401F4F81022F4F81226
:102020001043C3F8A0000020704701207047022031
:102030007047C2684369107801280DD11F290DD857
:10204000D3F8A420090401F4F81022F4F812104384
:10205000C3F8A40000207047012070470220704799
:10206000C2684369107801280FD1022901D90529D6
:102070000DD1D3F8A020090201F4E06022F4E0625F
:102080001043C3F8A00000207047012070470220D1
:102090007047C2684369107801280FD1022901D91D
:1020A00005290DD1D3F8A420090201F4E06022F43F
:1020B000E0621043C3F8A40000207047012070477D
:1020C00002207047C2684369107801280FD10229A5
:1020D00001D905290DD1D3F8A020090601F0E0604F
:1020E00022F0E0621043C3F8A000002070470120F6
:1020F000704702207047C2684369107801280FD1E9
:10210000022901D905290DD1D3F8A420090601F02F
:10211000E06022F0E0621043C3F8A40000207047A2
:102120000120704702207047C26843691078012877
:102130000FD101290FD8D3F8F021490722F0005020
:1021400040F0004201F000500243C3F8F0210020AB
:1021500070470120704702207047000038B52A4CB4
:1021600065682B78002B4DD10120FFF7B1F920686D
:10217000237B026822F0010103F01F02637B0160F0
:1021800042F400411A0202F440731943C0F880106F
:10219000D0F88020217D22F400430A06217CC0F87B
:1021A000803002F0E0630A0402F4F811A27B0B43D2
:1021B00002F01F01A27C0B43110201F4E062134301
:1021C000C0F8A030637D627C190601F0E063110461
:1021D00001F4F812E17B134301F01F02E17C134389
:1021E0000A0202F4E0610B43C0F8A4306389074A95
:1021F000190423890A40190542EA1152C0F8B8208F
:102200000120287038BD00BF342F00080000FF0FE8
:1022100042681378012B19D10068016821F001038D
:102220000B490360C0F88010D0F8803023F40041DF
:10223000084BC0F880104FF0F021C0F8A030C0F873
:10224000A430C0F8B810002010707047012070470B
:1022500060FCFFFFE0F8E0F843681978012906D137
:102260000068026842F0010303600020704701200B
:10227000704743681978012906D10068026822F086
:1022800001030360002070470120704743681978FC
:10229000012908D10068D0F8802042F00043C0F83E
:1022A000803000207047012070470000094B5A68B9
:1022B000107801280AD1997D012909D11B68D3F82A
:1022C000802042F00040C3F8800001E00120704708
:1022D00000207047342F000843681978012906D17F
:1022E0000068026822F008030360002070470120A4
:1022F000704743681978012906D10068026842F0E6
:1023000008030360002070470120704743681A7873
:10231000012A10D1022901D905290ED10068D0F86F
:10232000A030090223F4E06201F4E0611143C0F837
:10233000A0100020704701207047022070474368BA
:102340001A78012A0BD11F290BD80068D0F8A030C9
:1023500023F01F021143C0F8A01000207047012095
:1023600070470220704743681A78012A10D1022969
:1023700001D905290ED10068D0F8A030090623F054
:10238000E06201F0E0611143C0F8A0100020704746
:10239000012070470220704743681A78012A0ED145
:1023A0001F290ED80068D0F8A030090423F4F812D1
:1023B00001F4F8111143C0F8A0100020704701206B
:1023C00070470220704743681A78012A10D1022909
:1023D00001D905290ED10068D0F8A430090223F4F0
:1023E000E06201F4E0611143C0F8A41000207047DE
:1023F000012070470220704743681A78012A0BD1E8
:102400001F290BD80068D0F8A43023F01F02114315
:10241000C0F8A410002070470120704702207047C8
:1024200043681A78012A10D1022901D905290ED151
:102430000068D0F8A430090623F0E06201F0E06102
:102440001143C0F8A41000207047012070470220FB
:10245000704743681A78012A0ED11F290ED80068E8
:10246000D0F8A430090423F4F81201F4F811114350
:10247000C0F8A41000207047012070470220704768
:1024800043681A78012A06D100680368C3F3400242
:102490000A70002070470120704743681A78012AAB
:1024A00004D10068836800200B60704701207047EA
:1024B00043681A78012A1DD10F291DD80068D0F869
:1024C000603123F4004222F0F00343F40042C0F8EC
:1024D0006021D0F86031090143F40042CBB21A43C5
:1024E000C0F86021D0F8601121F40043C0F86031D9
:1024F0000020704701207047022070474368197818
:1025000001290ED10068D0F8602142F40143C0F8DF
:102510006031D0F8601121F40042C0F86021002041
:1025200070470120704743681A78012A1CD103299B
:102530001CD80068D0F8603123F4064242F400430E
:10254000C0F86031D0F86021490242F4004301F440
:10255000C0621343C0F86031D0F8601121F400422A
:10256000C0F86021002070470120704702207047AA
:102570004368197801290ED10068D0F8602142F42F
:102580000103C0F86031D0F8601121F40002C0F8F6
:10259000602100207047012070470000F0B5046DF5
:1025A000C56B436C816CC26C85B003942C7900932D
:1025B00001910292036C002C40F08A804178A14284
:1025C0002AD9444E56F824703A7804A901EB8206C1
:1025D000797856F8102C90F83A60803106F00306AE
:1025E00052F8217027F00307374342F8217052F860
:1025F000216046F4801742F8217052F8216026F4D9
:10260000001790F83760760506F400163E43013453
:1026100042F82160E4B2D1E790F83420D3F8801278
:10262000120621F0807102F080720A43C3F8802202
:10263000D3F8802290F8381022F0004242EAC171AB
:10264000C3F880128278C3F88021C178C3F884115E
:102650000279C3F888214179C3F88C11D3F800229C
:1026600090F8311042F4004242EA4132C3F80022AD
:10267000D3F8042290F833100A4390F8321042EA5B
:10268000810290F8361042EA011290F8391042EABD
:10269000C102C3F804220023C11891F82A20012A9C
:1026A00011D15DF8232090F8351090F82E60D2F803
:1026B0008440C90241EA8661214390F8304041EAF2
:1026C0000421C2F884100133042BE5D101202871C4
:1026D00005B0F0BD1000002008B5FFF73FFD02482F
:1026E000BDE80840FFF75ABF4C2F00087FB5436C88
:1026F000816C00930191036DC16B03930B79C26CE4
:10270000012B0292026C01D0012033E000234478B7
:102710009C4210D9184D55F823402578647804AEB2
:1027200006EB8505803455F8105C0026013345F82A
:102730002460DBB2EBE7114C0023C2F88032C2F810
:102740008031C2F88431C2F88831C2F88C31C2F8C5
:102750000042C2F80432C21892F82A20012A04D199
:102760005DF823200024C2F884400133042BF2D109
:102770000020087104B070BD1000002000808000AF
:1027800030B5436C826C85B00093C36C01920293A8
:10279000026DC36B03921A79012A1FD18B1E012B84
:1027A00001D902201BE0002342789A4214D90D4C33
:1027B00054F823402278647804AD05EB820280341B
:1027C00052F8102C52F8245025F003050D43013324
:1027D00042F82450DBB2E7E7002000E0012005B01A
:1027E00030BD00BF10000020C26B036C107938B1FF
:1027F000D3F8801241F00042C3F8802200207047D5
:1028000001207047C26B036C107938B1D3F8801285
:1028100021F00042C3F88022002070470120704759
:10282000C26B036C107901280DD171B1D3F800335C
:10283000002B0CDAC3F30450C3F3034248700A7050
:102840004B80002070470120704702207047032012
:102850007047036CD3F8000380B27047C26B036CFF
:10286000107938B141B1D3F8E030C3F300220A70D7
:10287000002070470120704702207047C26B036C34
:10288000107938B1D3F8E01041F48072C3F8E02039
:102890000020704701207047C26B036C107938B17B
:1028A000D3F8E01041F08072C3F8E02000207047B8
:1028B000012070471FB5436C0093836C0193C36C78
:1028C0000293036D0393C36B1B79012B21D112B3C8
:1028D00009B314785378032C1DD8072B1BD8021981
:1028E00092F82A20012A16D100EBC400C218927A6D
:1028F000012A10D104A800EB840402FA03F254F870
:10290000100CD0F88001024022FA03F30B70002073
:1029100002E0012000E0022004B010BD84B0436C4E
:10292000826C0093C36C01920293026DC36B03929D
:102930001A79012A1FD101B30B784A78032B1CD8CE
:10294000072A1AD8C11891F82A10012915D100EBCD
:10295000C3008118897A01290FD104A800EB8303F1
:1029600001FA02F253F8103CD3F880010243C3F895
:102970008021002002E0012000E0022004B0704726
:1029800084B0436C826C0093C36C01920293026D1D
:10299000C36B03921A79012A1FD101B30B784A78CD
:1029A000032B1CD8072A1AD8C11891F82A1001291C
:1029B00015D100EBC3008118897A01290FD104A831
:1029C00000EB830301FA02F253F8103CD3F89001B4
:1029D0000243C3F89021002002E0012000E0022021
:1029E00004B07047C26B036C107938B1D3F804128D
:1029F00041F00802C3F8042200207047012070470C
:102A0000C26B036C107938B1D3F8041221F00802BC
:102A1000C3F804220020704701207047C26B036C8A
:102A20001079012807D141B1D3F8E03003F0010259
:102A30000A70002070470120704702207047C26B67
:102A4000036C107938B1D3F8E01041F00102C3F8FB
:102A5000E0200020704701207047C26B036C1079A2
:102A600038B1D3F8E01041F48032C3F8E020002000
:102A7000704701207047C26B036C1079012807D1A1
:102A8000D3F8041241F48072C3F804220020704786
:102A900001207047C26B036C1079012807D1D3F86D
:102AA000041241F40072C3F8042200207047012090
:102AB0007047C26B036C107901280AD103290AD828
:102AC000D3F8042222F003000143C3F804120020CB
:102AD00070470120704702207047C26B036C107969
:102AE000012807D141B1D3F80432C3F3C0120A70F0
:102AF000002070470120704702207047C26B036CB2
:102B00001079012817D1032917D8D3F8042211B955
:102B100022F0040001E042F00400C3F80402D3F8FC
:102B2000002222F4C04040F4004242EA4131C3F89E
:102B30000012002070470120704702207047C26BCE
:102B4000036C1079012807D1D3F8041241F0040274
:102B5000C3F804220020704701207047C26B036C49
:102B60001079012807D1D3F8041221F00402C3F828
:102B70000422002070470120704784B0816CC26C31
:102B80000191C16B436C02920A790093036D012A93
:102B9000039312D10023C11891F82A20012A07D1EA
:102BA0005DF82320D2F8841041F08061C2F88410CF
:102BB0000133042BEFD1002000E0012004B0704766
:102BC00084B0816CC26C0191C16B436C02920A7932
:102BD0000093036D012A039312D10023C11891F8C9
:102BE0002A20012A07D15DF82320D2F8841021F091
:102BF0008061C2F884100133042BEFD1002000E083
:102C0000012004B07047C26B036C107901280FD10A
:102C100021B9D3F8040220F0200205E0012909D1EE
:102C2000D3F8041241F02002C3F8042200207047B8
:102C30000120704702207047C36B1A79012A30B512
:102C4000046C1BD1E1B10B784A78C11800EBC300CA
:102C500091F82A508118042B897A11D8082A0FD8A4
:102C6000012D0DD101290BD1703301FA02F254F874
:102C70002300024344F82320002030BD012030BD52
:102C8000022030BDC36B1A79012A30B5046C1CD107
:102C9000E9B10B784A78C11800EBC30091F82A50CB
:102CA0008118042B897A12D8082A10D8012D0ED148
:102CB00001290CD1703301FA02F254F8230020EA02
:102CC000020144F82310002030BD012030BD022055
:102CD00030BDC36B1A79012A30B5046C1BD1E1B148
:102CE0000B784A78C11800EBC30091F82A5081187C
:102CF000042B897A11D8082A0FD8012D0DD101296A
:102D00000BD1603301FA02F254F82300024344F875
:102D10002320002030BD012030BD022030BDC36B18
:102D20001A79012A30B5046C1CD1E9B10B784A78C4
:102D3000C11800EBC30091F82A508118042B897A3E
:102D400012D8082A10D8012D0ED101290CD16033D8
:102D500001FA02F254F8230020EA020144F8231099
:102D6000002030BD012030BD022030BD1FB5436CB6
:102D70000093836C0193C36C0293036D0393C36B45
:102D80001B79012B26D139B30B784978C41800EB95
:102D9000C3004018042B94F82A40807A1CD80829D4
:102DA0001AD8012C18D1012816D10AB1032A13D13F
:102DB00004A800EB8303803153F8103C53F8210042
:102DC000120220F4407002F44072024343F82120C2
:102DD000002002E0012000E0022004B010BD00004D
:102DE000F8B5204F204C381B871017D07A1E236867
:102DF000012502F001069847AF420FD02EB154F8DA
:102E0000041F02258847AF4208D06068804702351A
:102E1000A268261D90470834AF42F6D1134F144CD8
:102E2000FEF7AEF83B1B9F1018D07D1E216805F001
:102E3000010601258847AF4211D02EB154F8040F86
:102E400002258047AF420BD0626890470235A368E5
:102E5000261D98470834AF42F6D1F8BDF8BDF8BD3D
:102E6000F8BD00BF742E0008742E0008742E0008F0
:042E7000742E0008B4
:102E74008CD3FF7F01000000C2D3FF7F010000005C
:102E840000000248008202480E0000000080024850
:102E9400050000000000000080250000070001017B
:102EA4000100010100000000A101FC01090006006D
:102EB40000000000103F00010007000000800248ED
:102EC4000101000000810248020200000082024861
:102ED400020300000082024802040000008202484B
:102EE4000205000000820248000800000080024839
:102EF400010900000081024801000000008102482D
:102F040002080000008202480E000000008E024801
:102F14000000000000000000000000038C000020FE
:102F24000040004000440040020200000202000091
:102F3400004000408D00002000000000030000005D
:102F44000000020202020100000101000000010071
:102F5400000001000000000000000000000000006C
:102F6400000000000000000000000000000000005D
:102F74000000010000000100000000010100010048
:102F8400010002008E000020004000400044004088
:102F940000480040004C0040005000400000010088
:102FB000000E270730000000842E0008B82E0008FD
:042FC000A02F000836
:0400000508000201EC
:00000001FF
