:020000040C00EE
:100000000008001001020008CB020008DB02000813
:10001000EB020008FB0200080B03000800000000D0
:100020000000000000000000000000001B030008AA
:100030002B030008000000003B0300084B030008EE
:100040005B0300086B0300087B0300088B030008B8
:100050009B030008AB030008BB030008CB030008A8
:10006000DB030008000000000000000000000000AA
:10007000EB03000800000000FB0300080B0400086D
:100080001B0400082B0400083B0400084B04000874
:100090005B0400086B0400087B0400088B04000864
:1000A0009B040008AB040008BB040008CB04000854
:1000B000DB040008EB040008FB0400080B05000843
:1000C0001B0500082B0500083B0500084B05000830
:1000D0005B0500086B0500087B0500088B05000820
:1000E0009B050008AB050008BB050008CB05000810
:1000F000DB050008EB050008FB0500080B060008FF
:100100001B060008290600083706000845060008F7
:1001100053060008610600086F0600087D06000807
:100120008B06000899060008A7060008B506000817
:10013000C3060008D1060008DF060008ED06000827
:10014000FB06000809070008170700082507000834
:1001500033070008410700084F0700085D07000843
:10016000000000000000000000000000000000008F
:100170006B07000879070008870700089507000843
:10018000A3070008B1070008BF070008CD07000853
:10019000DB070008E9070008F70700080508000862
:1001A00013080008210800082F0800083D0800086F
:1001B0004B0800085908000867080008750800087F
:1001C00083080008910800089F080008AD0800088F
:1001D000BB080008C9080008D70800080000000094
:1001E000E5080008F3080008010900080F090008E5
:1001F0001D090008000000002B0900080000000095
:10020000DFF80CD0034880470348804700F017B858
:1002100000080010650B0008E91B0008002A00F028
:100220000D804FEA920203680B60013A00F00680ED
:1002300000F1040001F10401FFF7F5BF7047144815
:100240001449154AFFF7EAFF14481549154AFFF704
:10025000E5FF15481549002900F00C804FEA91018F
:100260004FF000020260013900F0048000F1040048
:10027000FFF7F8BF0E480F4908600F488047DFF8C6
:100280003CD04FF000004FF00001DFF834F00000E8
:10029000B01F000C000000200C000000BC1F000C70
:1002A00000080010000000000C0000207800000092
:1002B0000000000808ED00E0811E000800080010A2
:1002C0006110000800BF7047FEE7DFF8700600B558
:1002D00081B0804701B000BDFEE7DFF8640600B5DD
:1002E00081B0804701B000BDFEE7DFF8580600B5D9
:1002F00081B0804701B000BDFEE7DFF84C0600B5D5
:1003000081B0804701B000BDFEE7DFF8400600B5D0
:1003100081B0804701B000BDFEE7DFF8340600B5CC
:1003200081B0804701B000BDFEE7DFF8280600B5C8
:1003300081B0804701B000BDFEE7DFF81C0600B5C4
:1003400081B0804701B000BDFEE7DFF8100600B5C0
:1003500081B0804701B000BDFEE7DFF8040600B5BC
:1003600081B0804701B000BDFEE7DFF8F80500B5B9
:1003700081B0804701B000BDFEE7DFF8EC0500B5B5
:1003800081B0804701B000BDFEE7DFF8E00500B5B1
:1003900081B0804701B000BDFEE7DFF8D40500B5AD
:1003A00081B0804701B000BDFEE7DFF8C80500B5A9
:1003B00081B0804701B000BDFEE7DFF8BC0500B5A5
:1003C00081B0804701B000BDFEE7DFF8B00500B5A1
:1003D00081B0804701B000BDFEE7DFF8A40500B59D
:1003E00081B0804701B000BDFEE7DFF8980500B599
:1003F00081B0804701B000BDFEE7DFF88C0500B595
:1004000081B0804701B000BDFEE7DFF8800500B590
:1004100081B0804701B000BDFEE7DFF8740500B58C
:1004200081B0804701B000BDFEE7DFF8680500B588
:1004300081B0804701B000BDFEE7DFF85C0500B584
:1004400081B0804701B000BDFEE7DFF8500500B580
:1004500081B0804701B000BDFEE7DFF8440500B57C
:1004600081B0804701B000BDFEE7DFF8380500B578
:1004700081B0804701B000BDFEE7DFF82C0500B574
:1004800081B0804701B000BDFEE7DFF8200500B570
:1004900081B0804701B000BDFEE7DFF8140500B56C
:1004A00081B0804701B000BDFEE7DFF8080500B568
:1004B00081B0804701B000BDFEE7DFF8FC0400B565
:1004C00081B0804701B000BDFEE7DFF8F00400B561
:1004D00081B0804701B000BDFEE7DFF8E40400B55D
:1004E00081B0804701B000BDFEE7DFF8D80400B559
:1004F00081B0804701B000BDFEE7DFF8CC0400B555
:1005000081B0804701B000BDFEE7DFF8C00400B550
:1005100081B0804701B000BDFEE7DFF8B40400B54C
:1005200081B0804701B000BDFEE7DFF8A80400B548
:1005300081B0804701B000BDFEE7DFF89C0400B544
:1005400081B0804701B000BDFEE7DFF8900400B540
:1005500081B0804701B000BDFEE7DFF8840400B53C
:1005600081B0804701B000BDFEE7DFF8780400B538
:1005700081B0804701B000BDFEE7DFF86C0400B534
:1005800081B0804701B000BDFEE7DFF8600400B530
:1005900081B0804701B000BDFEE7DFF8540400B52C
:1005A00081B0804701B000BDFEE7DFF8480400B528
:1005B00081B0804701B000BDFEE7DFF83C0400B524
:1005C00081B0804701B000BDFEE7DFF8300400B520
:1005D00081B0804701B000BDFEE7DFF8240400B51C
:1005E00081B0804701B000BDFEE7DFF8180400B518
:1005F00081B0804701B000BDFEE7DFF80C0400B514
:1006000081B0804701B000BDFEE7DFF8000400B50F
:1006100081B0804701B000BDFEE7FD4800B581B064
:10062000804701B000BDFEE7FA4800B581B08047C1
:1006300001B000BDFEE7F84800B581B0804701B0C9
:1006400000BDFEE7F54800B581B0804701B000BDB0
:10065000FEE7F34800B581B0804701B000BDFEE77A
:10066000F04800B581B0804701B000BDFEE7EE481C
:1006700000B581B0804701B000BDFEE7EB4800B592
:1006800081B0804701B000BDFEE7E94800B581B008
:10069000804701B000BDFEE7E64800B581B0804765
:1006A00001B000BDFEE7E44800B581B0804701B06D
:1006B00000BDFEE7E14800B581B0804701B000BD54
:1006C000FEE7DF4800B581B0804701B000BDFEE71E
:1006D000DC4800B581B0804701B000BDFEE7DA48D4
:1006E00000B581B0804701B000BDFEE7D74800B536
:1006F00081B0804701B000BDFEE7D54800B581B0AC
:10070000804701B000BDFEE7D24800B581B0804708
:1007100001B000BDFEE7D04800B581B0804701B010
:1007200000BDFEE7CD4800B581B0804701B000BDF7
:10073000FEE7CB4800B581B0804701B000BDFEE7C1
:10074000C84800B581B0804701B000BDFEE7C6488B
:1007500000B581B0804701B000BDFEE7C34800B5D9
:1007600081B0804701B000BDFEE7C14800B581B04F
:10077000804701B000BDFEE7BE4800B581B08047AC
:1007800001B000BDFEE7BC4800B581B0804701B0B4
:1007900000BDFEE7B94800B581B0804701B000BD9B
:1007A000FEE7B74800B581B0804701B000BDFEE765
:1007B000B44800B581B0804701B000BDFEE7B24843
:1007C00000B581B0804701B000BDFEE7AF4800B57D
:1007D00081B0804701B000BDFEE7AD4800B581B0F3
:1007E000804701B000BDFEE7AA4800B581B0804750
:1007F00001B000BDFEE7A84800B581B0804701B058
:1008000000BDFEE7A54800B581B0804701B000BD3E
:10081000FEE7A34800B581B0804701B000BDFEE708
:10082000A04800B581B0804701B000BDFEE79E48FA
:1008300000B581B0804701B000BDFEE79B4800B520
:1008400081B0804701B000BDFEE7994800B581B096
:10085000804701B000BDFEE7964800B581B08047F3
:1008600001B000BDFEE7944800B581B0804701B0FB
:1008700000BDFEE7914800B581B0804701B000BDE2
:10088000FEE78F4800B581B0804701B000BDFEE7AC
:100890008C4800B581B0804701B000BDFEE78A48B2
:1008A00000B581B0804701B000BDFEE7874800B5C4
:1008B00081B0804701B000BDFEE7854800B581B03A
:1008C000804701B000BDFEE7824800B581B0804797
:1008D00001B000BDFEE7804800B581B0804701B09F
:1008E00000BDFEE77D4800B581B0804701B000BD86
:1008F000FEE77B4800B581B0804701B000BDFEE750
:10090000784800B581B0804701B000BDFEE7764869
:1009100000B581B0804701B000BDFEE7734800B567
:1009200081B0804701B000BDFEE7714800B581B0DD
:10093000804701B000BD4FF001007047C9020008B8
:10094000D9020008E9020008F902000809030008BA
:1009500019030008290300083903000849030008A7
:100960005903000869030008790300088903000897
:1009700099030008A9030008B9030008C903000887
:10098000D9030008E9030008F90300080904000876
:100990001904000829040008390400084904000863
:1009A0005904000869040008790400088904000853
:1009B00099040008A9040008B9040008C904000843
:1009C000D9040008E9040008F90400080905000832
:1009D000190500082905000839050008490500081F
:1009E000590500086905000879050008890500080F
:1009F00099050008A9050008B9050008C9050008FF
:100A0000D9050008E9050008F905000809060008ED
:100A100019060008270600083506000843060008E6
:100A2000510600085F0600086D0600087B060008F6
:100A30008906000897060008A5060008B306000806
:100A4000C1060008CF060008DD060008EB06000816
:100A5000F906000807070008150700082307000823
:100A6000310700083F0700084D0700085B07000832
:100A70006907000877070008850700089307000842
:100A8000A1070008AF070008BD070008CB07000852
:100A9000D9070008E7070008F50700080308000861
:100AA000110800081F0800082D0800083B0800086E
:100AB000490800085708000865080008730800087E
:100AC000810800088F0800089D080008AB0800088E
:100AD000B9080008C7080008D5080008E30800089E
:100AE000F1080008FF0800080D0900081B090008AC
:100AF00029090008164AD368B3F5803F30B522D1E2
:100B0000144B1868410721D59C689868C4F30361A9
:100B10004C1CC0F30621481C9968DB68D268C1F3FD
:100B20000641013113F0010F14BF0B4D0B4D0C4B5F
:100B3000B5FBF4F46043B0FBF1F0D1B24A1CB0FB5A
:100B4000F2F0186030BD04480549086030BD00BFB0
:100B5000004600501047005000366E01001BB700E1
:100B600000000020734BD3F8882042F4700010B5C9
:100B7000C3F88800596921F008025A616E4B586821
:100B800020F0010159606D4B5A6922F00F0040F0CE
:100B90000301596101F072F9002800F0C780684B29
:100BA000684A586802402AB1596821F4803020F020
:100BB00002025A60644B596811F0300F04D1604B47
:100BC0001868400731D5B1E0586820F0F0025A604B
:100BD000596841F400305860594BDA6822F001013D
:100BE000D9605868594920F400325A60584B0020A7
:100BF0000522596098601A60514B1968544B01F4F2
:100C00006070B0F5607F03D09A68B2F5FA7FF3D2D6
:100C1000196821F001001860494B1A6802F46071EC
:100C2000B1F5607F40F08280C9E74A4AD168C903C4
:100C300003D5D06820F48031D1605A6842F00100B9
:100C400058605968444841F010025A6098605968E9
:100C500041F040025A60586820F0100159605A680B
:100C60003A4942F480205860394B002205205960EF
:100C70009A601860324B1968354B11F0040F03D19C
:100C80009A68B2F5FA7FF5D21968314821F001026D
:100C90001A602B4B19684A0748D55C6824F001029A
:100CA0005A602C4A0021116151611162D46844F4E8
:100CB0008034D4605A6822F040025A6040F24553B2
:100CC000436081600521016021488268632AFBD866
:100CD00003681B4A23F00101204B016040F61B41D1
:100CE0009360416000230521836001601848836898
:100CF000632BFBD8016821F001031949036091605F
:100D0000002341F2233205214260836001601048D4
:100D10008268632AFBD8036823F00101084B016055
:100D20001048A3F5B66105229860CA60BDE810407E
:100D3000FFF7E0BE00ED00E000800050002000580A
:100D4000104700500200010000470050A34B4C0028
:100D500010E000E000460050014F1301014F070171
:100D6000014F0401014F030110F1FF3001D300BF17
:100D7000FAE77047F8B500242546154B5F785E68A2
:100D80004FF4803000FA07F070604FF49670FFF770
:100D9000EBFF10494A684B78506A20FA03F111F0D2
:100DA000010F4FF0010208BF02FA04F002FA07F740
:100DB00008BF054377604FF496700134FFF7D4FF06
:100DC000082CDAD16420FFF7CFFF2846F8BD00BF1A
:100DD000A01F0008581F00082DE9F041804600249C
:100DE000184848FA04F313F0010F4268457801D01F
:100DF000012101E04FF48031134F01FA05F67D68BF
:100E00007F7856604FF4803303FA07F301266B6056
:100E10004FF4967006FA07F7FFF7A6FFA4196F6064
:100E20004FF49670FFF7A0FF082CD9D10548417800
:100E3000426806FA01F664205660BDE8F041FFF70B
:100E400093BF00BF901F0008A01F0008174B70B58C
:100E5000174D58785A686B786E68012404FA00F1CF
:100E60001448516004FA03F27260467845684FF402
:100E7000803101FA06F169604FF49670FFF774FF54
:100E80002046FFF7A9FF4220FFF7A6FF0020FFF74B
:100E9000A3FF0024FFF76EFF074B18510434182CF2
:100EA000F8D1012202FA06F66E6070BD901F0008AC
:100EB000A01F0008981F00086C00002038B54FF4F0
:100EC0009670FFF751FF084B5D785C68012000FACF
:100ED00005F060604FF49670FFF746FF4FF48031E5
:100EE00001FA05F5656038BD881F0008F8B52A4B82
:100EF0005F785E68012000FA07F070604FF47A7046
:100F0000FFF732FF07250724244B0122E85C244B1E
:100F100002FA04F1014205D05978586802FA01F248
:100F2000426006E058785A684FF4803101FA00F3C5
:100F30005360FFF7C3FF14F1FF34E5D2013D022DEA
:100F4000E1D100250724174B0122E95C02FA04F0E5
:100F50000842134805D04378416802FA03F24A6018
:100F600006E0437842684FF4803101FA03F05060A4
:100F7000FFF7A4FF14F1FF34E5D20135042DE1D1D0
:100F80004FF4803202FA07F741F288307760BDE80B
:100F9000F840FFF7E9BE00BF701F000858000020AE
:100FA000801F000867000020F8B5294BC4224F209D
:100FB000A3211A70587099700020EE24DD25CC26EC
:100FC000BB27AA222021DC701D715E719F71DA712E
:100FD000187258729872D8721873987359731D4B9F
:100FE0001D4A5D785C684FF4803606FA05F7676045
:100FF00057785668012000FA07F070600E25072424
:10100000134B0122E85C154B02FA04F1014205D0B2
:101010005978586802FA01F2426006E058785A6836
:101020004FF4803101FA00F35360FFF747FF14F1EA
:10103000FF34E5D215F1FF35E1D24FF4803202FAE8
:1010400007F74CF250307760BDE8F840FFF78CBEF0
:1010500058000020701F0008A81F0008801F00080B
:101060002DE9F04100F0A6FD684DFFF79DFF684BAC
:101070006F7859786E685A68012000FA01F400FA16
:1010800007F054607060FFF7E1FE00252C46FFF783
:10109000DDFE604B5A68C2F3C00825B9B8F1000FF5
:1010A00001D084F001045C485E69AD2101701EB975
:1010B000584FFB68002BEAD0564DEA687F3E7F3AD6
:1010C000B6B295B21FFA86FEAFB20021002C48D10D
:1010D0000FFA8EF313F11E0F04DB1E2B4FF00103EA
:1010E00003DC00E02346012100E021463AB212F180
:1010F0001E0F04DB1E2A4FF0010203DC00E0002279
:10110000012000E000200FFA8EFCBCF1000FD6BFDA
:101110006FF0010C4FEA460C0CFB06FC1FFA8CFE2C
:101120000FFA8EFE4FEA8E0C4FEA8E1ECCEB0E0E9F
:10113000394E4FF0640C3FB29EFBFCFE002F86F848
:1011400001E001DD6D0002E06FF001077D43ADB20B
:101150002DB2AF00AD01ED1B642795FBF7F5B5701F
:1011600045E038B21E2805DC10F11E034FF00103E4
:1011700002DB00E00B4601210FFA8EF21E2A08DC8A
:1011800012F11E0FB4BF00200120002A08DD012249
:1011900001E0002201204FEA46061FFA86FE06E023
:1011A0006FF0010C0CFB06F61FFA86FE01220FFA07
:1011B0008EFE4FEA8E0C4FEA8E1ECCEB0E0E164EB4
:1011C0004FF0640C3FB29EFBFCFE002F86F802E05D
:1011D00001DD6D0002E06FF001077D43ADB22DB27D
:1011E000AF00AD01ED1B642795FBF7F5757052015B
:1011F00042EA001041F0020140EA0106064F46EAC9
:10120000C303FB704546FFF771FE40E7601F00080F
:10121000681F00086C00002067000020F8B5164B1E
:101220005F785E684FF4803000FA07F070604CF22F
:101230005030FFF799FD0025072410494A684B7884
:10124000506A20FA03F1CB0704D5012202FA04F216
:101250001543EDB2FFF732FE14F1FF34EDD208482A
:101260000123057003FA07F74CF250307760BDE8B0
:10127000F840FFF779BD00BF701F0008801F00080D
:10128000040000200A2370B5B0FBF3F4E5B2B5FB0F
:10129000F3F1B1FBF3F60A4A06FB131603FB140045
:1012A00003FB11511268303630313030F6B2C9B21A
:1012B000C3B2C2F88061C2F88011C2F8803170BD3B
:1012C000241F00084FF0FF3070474FF0FF30704789
:1012D000002070474FF0FF3070474FF0FF307047ED
:1012E00000290CBF6FF001004FF0FF3070478142C2
:1012F00014BF6FF001004FF0FF3070474FF0FF3028
:10130000704700000A4B1A6822B90A4A0A491A6053
:1013100052185A601A685B68D11D081820F007013E
:1013200099423ABF024B196000221046704700BF35
:1013300044000020840000207CFF00004FF0FF30BC
:1013400070474FF0FF3070474FF0FF3070474FF05D
:10135000FF3070474FF0FF307047FEE770474FF0A7
:10136000FF30704703681A6C22F0020110B519644F
:10137000DC6844F00302DA601969028D41F400442C
:101380001C611969940541EA9451196190F8302063
:101390005C691102828D920202F4F84201F44071FC
:1013A00011432143448D324A2404224011435961A0
:1013B0005C6B44F481725A63828B596B140412067D
:1013C00004F47C1402F0706222430A435A63996B5E
:1013D00041F4A0629A63427DD96B520041F0010151
:1013E00002F002020A43C18D090201F4F8510A43D6
:1013F000DA6390F824201AB1D96B41F02002DA6345
:1014000090F8251019B1DA6B42F04001D96390F8D9
:1014100026201AB1D96B41F08002DA63817F51B185
:1014200090F82020D3F80811120202F47C520A43EB
:10143000C3F8082103E09A6C42F400519964C17F1B
:1014400059B1D3F80C2142F0805190F821201202BA
:1014500002F47C521143C3F80C111A6C807D42F0E7
:101460000201020202F440700143196410BD00BF82
:101470000000FF0310B54368027A5968012404FA9A
:1014800002F20A435A60007A032808D8C200196998
:101490000332182000FA02F20A431A6110BD011F3C
:1014A000032908D8C8005A69C11C182000FA01F1A4
:1014B0001143596110BDA0F10801032908D8C900E2
:1014C0009A690331182000FA01F11143996110BDA6
:1014D0000C38032807D8C200D9690332182000FA53
:1014E00002F20A43DA6110BD07EE900AF5EEC07A07
:1014F000F1EE10FA48BFF1EE677A17EE900A7047E6
:1015000005EE900ADFED657AF8EE656A2DE9F04F99
:10151000C6EEA70A95B042F6C653B7EE000AF4EE3F
:10152000C00AF1EE10FACCBF1C460446D8BF1846DC
:10153000D4BF0027012704900120089000200094C8
:101540000C908446804614AB03EB880A01305AF8AD
:10155000404C5AF8505C00F0030603EB8603B5FBE1
:10156000F4F904FB1955012843F8504C43F8109C3A
:1015700043F8405C03D1119B0D90099312E014AC29
:1015800004EB8C0B5AF8305C5BF8304C05FB0945DA
:1015900043F8305C5BF8204C5AF8205C05FB0945A9
:1015A00043F8205C0DF1500909EB860555F8203C05
:1015B000B3F5806F56D909EB8C0009EB880350F81E
:1015C000200C53F8204C53F8305CC0F5806806F1CD
:1015D000FF33B8FBF4FC09EB860609EB830856F8E9
:1015E000386C58F8303C03FB0C6358F8206C06FB51
:1015F0000C002FB11E46034630462E462546344683
:10160000002C3FD0002D3DD0C0B3BBB301EE105A2B
:1016100006EE104A03EE103A04EE100AB8EE417AD4
:10162000F8EE461AF8EE433AF8EE444A87EE212ADD
:1016300083EEA45A70EEC22A70EEC55AF5EEC02AA7
:10164000F1EE10FAF5EEC05A48BFF1EE622AF1EE63
:1016500010FA48BFF1EE655AF4EEE52AF1EE10FA01
:101660000CDD0FE055F8404CC4460CB1B0466AE7BB
:1016700055F8304C2FB91846234603E020462B4638
:1016800000E0204640F2FF34A34294BF1360146090
:10169000421E0A6015B0BDE8F08F00BF0018374643
:1016A00010B5084800F002F9074B1868027D012ABE
:1016B0001C4601D1FFF7DEFE2068BDE81040FFF7B1
:1016C00051BE00BF800000100800002070470000DD
:1016D000F7B5046816461F46A26CA36CC3F340031B
:1016E000002503201A420095019539D0206C20F086
:1016F00002022264084601AA6946FFF701FF216938
:1017000021F47F7323F003002061019922698B0586
:1017100042EA935020616269009822F07F7121F4BF
:10172000403363610F4962690304194011436161E9
:10173000E26B22F00200E063E36B7F0007F0020738
:101740001F43E763216C21F440722264206C36024F
:1017500040F0020306F4407143EA0106266428467D
:10176000FEBD00BF0000FF0310B50368C07F70B16D
:101770000020D3F8144114F0080F0BD1904205D08B
:10178000D3F81C4121F810400130F2E710BD5A6D2A
:1017900001200A8010BD10B50368C07F68B1002029
:1017A000D3F8144114F0080F0AD1904204D0D3F8B2
:1017B0001C410C540130F3E710BD5A6D01200A7032
:1017C00010BD10B50368807F70B10020D3F81441BC
:1017D00014F4805F0FD1904205D031F810400130F1
:1017E000C3F88041F2E710BD9A6B120603D4088853
:1017F000C3F88000012010BD10B50368807F68B178
:101800000020D3F8144114F4805F0ED1904204D02C
:101810000C5C0130C3F88041F3E710BD9A6B1206EF
:1018200003D40878C3F88000012010BD0F29036895
:1018300006D89B6C012202FA01F101EA03000CE0D8
:101840001229D3F814314FF0010294BFA1F1100016
:10185000A1F10B0002FA00F01840002814BF02208A
:10186000012070470F29036806D8DA6C012000FABE
:1018700001F11143D96470471229D3F818014FF0D0
:10188000010201D8103900E00B3902FA01F20243DB
:10189000C3F8182170470000030F0C225A43024975
:1018A00020F070405050704710440050030F0C223D
:1018B0005A43024920F07040505070471444005081
:1018C000014B1868C0B270470044005020F07042CD
:1018D0000C23000F58430349405802420CBF00201C
:1018E000012070470C440050024B9A6842F00100FE
:1018F00098607047004400504A4B5A68002050607E
:10190000116C21F4E0231364116C41F480231364FF
:1019100051695161444A53685860196C21F00702BB
:101920001A64196C41F004021A64196919613F4B79
:101930005A685060116C21F007031364116C41F078
:101940000403136411691161394A53685860196CB2
:1019500021F070021A64196C41F040021A6419698E
:101960001961344B5A685060116C21F4E0631364C0
:10197000116C41F480631364116911612E4A53683C
:101980005860196C21F0E0621A64196C41F08062B1
:101990001A6459695961294B5A685060516C21F495
:1019A000E0235364516C41F480235364D16941F0C6
:1019B0001803D361224A53685860196C21F4E0225D
:1019C0001A64196C41F480221A64596959611D4BDB
:1019D0005A685060116C21F007031364116C41F0D8
:1019E0000403136411691161174A53685860196C34
:1019F00021F070021A64196C41F040021A641969EE
:101A00001961124B5A685060106C20F4E061116447
:101A1000136C43F480601064116941F48013136106
:101A2000704700BFA81F0008A01F0008981F0008EB
:101A3000901F0008881F0008801F0008781F0008FA
:101A4000701F0008681F0008601F0008581F00086A
:101A500010B54378032B11D84268DB0014690333B7
:101A60001F2000FA03F024EA00001061106901F061
:101A70001F0101FA03F30343136110BD1A1FD2B211
:101A8000032A11D84368D0005C69C21C1F2000FAE9
:101A900002F024EA00005861586901F01F0101FAC0
:101AA00002F202435A6110BDA3F10802D2B2032A26
:101AB00011D84368D2009C6903321F2000FA02F05B
:101AC00024EA00009861986901F01F0101FA02F20E
:101AD00002439A6110BD0C3BDBB2032B10D8426865
:101AE000D800D469C31C1F2000FA03F024EA0000C8
:101AF000D061D06901F01F0101FA03F30343D36100
:101B000010BD10B54378032B11D84268DB0014696F
:101B100003331F2000FA03F024EA0000106110696B
:101B200001F01F0101FA03F30343136110BD1A1FF3
:101B3000D2B2032A11D84368D0005C69C21C1F20AE
:101B400000FA02F024EA00005861586901F01F0110
:101B500001FA02F202435A6110BDA3F10802D2B2A7
:101B6000032A11D84368D2009C6903321F2000FA6F
:101B700002F024EA00009861986901F01F0101FA5F
:101B800002F202439A6110BD0C3BDBB2032B10D86A
:101B90004268D800D469C31C1F2000FA03F024EA6D
:101BA0000000D061D06901F01F0101FA03F3034383
:101BB000D36110BD0A490B4808B5CB684FF6FF0248
:101BC0001A4042EA0003CB6000F074F8FFF794FE7D
:101BD00000F080F8FFF764FDBDE8084000F006B8AB
:101BE00000ED00E00001FA0500F074B8304B1A6C0B
:101BF000196C21F00F001864D96921F0070040F03A
:101C00000101D961D3F8080120F0E06121F03F0023
:101C100040F0807141F00200C3F80801D3F80C11C4
:101C200021F0E06020F03F0141F08070C3F80C012A
:101C3000196C02F00F0221F00F0040EA0201196452
:101C400003F50043186940F080021A61196941F4F4
:101C5000004018611A6942F400011961586940F0A6
:101C600080025A61596941F400005861D3F810218B
:101C700042F08001C3F81011D3F8100140F4004283
:101C8000C3F81021D3F81C1221F4380040F41002DC
:101C9000C3F81C22D3F8101341F08000C3F81003DE
:101CA000D3F8142342F08001C3F81413704700BF27
:101CB00000000248704782B000220192019B8342DB
:101CC00006D200BF00BF00BF00BF01994A1CF4E765
:101CD00002B0704738B55C4B5C485A681040002829
:101CE00000F09E805A490C68E20703D44D6845F025
:101CF00001034B6057480268920503D5816841F49F
:101D000000748460504D6B6823F480106860642018
:101D1000FFF7D1FF6A6842F4002164206960FFF791
:101D2000CAFF6C684C4924F4803323F002006860D9
:101D30004A6812F0300F1CD04C6824F030034B601E
:101D4000486840F440324A60E96821F00104EC60E0
:101D50006B6823F40030686044F250643A4D0A2006
:101D6000FFF7A9FF2A6802F46071B1F5607F5BD1CB
:101D70002B68354B186845072DD4384D3849132446
:101D800085E812005A68374D42F0010159605C68DD
:101D900044F0100058609D605A6842F0400159605C
:101DA0005C6824F0100058605D6845F480225A6039
:101DB00044F250640A20FFF77EFF234B196811F0AC
:101DC000040F184633D002681F4D500703D56B68C7
:101DD00023F00101696024482149C46844F4803536
:101DE000194CC56062681D4D22F040036360642099
:101DF0002960FFF760FF1D48A0606420FFF75BFFCC
:101E00001B4B042296206A60A360FFF754FF194918
:101E1000A160A06810F0706F0CD0174A0521D16046
:101E2000BDE83840FEF766BE013C97D1A0E7013C13
:101E3000C0D1C8E7A268C2F30623272BEDD1A06862
:101E4000410608BFA068E8E7104700500200010003
:101E50000042005000440050004700505000002055
:101E600000389C1C00271300004600500027070084
:101E70000027040000270300604100500020704745
:101E8000F8B5204F204C381B871017D07A1E2368D6
:101E9000012502F001069847AF420FD02EB154F849
:101EA000041F02258847AF4208D06068804702358A
:101EB000A268261D90470834AF42F6D1134F144C48
:101EC000FFF74CFA3B1B9F1018D07D1E216805F0D0
:101ED000010601258847AF4211D02EB154F8040FF6
:101EE00002258047AF420BD0626890470235A36855
:101EF000261D98470834AF42F6D1F8BDF8BDF8BDAD
:101F0000F8BD00BF141F0008141F0008141F0008AC
:041F1000141F000892
:101F1400ECE2FF7F0100000022E3FF7F01000000EC
:101F240000000248008202480E00000000800248BF
:101F340005000000000000008025000007000101EA
:101F44000100010100000000A101FC0109000600DC
:101F540000000000030200000083024801010000A9
:101F640000810248010000000081024803040000CF
:101F740000830248000C00000080024800060000B4
:101F840000800248000200000080024800010000B6
:101F940000800248030000000083024800000000A3
:0C1FA40000800248000400000080024899
:0C1FB000000E270730000000241F00086E
:0400000508000201EC
:00000001FF
