:020000040C00EE
:100000000008001001020008CB020008DB02000813
:10001000EB020008FB0200080B03000800000000D0
:100020000000000000000000000000001B030008AA
:100030002B030008000000003B0300084B030008EE
:100040005B0300086B0300087B0300088B030008B8
:100050009B030008AB030008BB030008CB030008A8
:10006000DB030008000000000000000000000000AA
:10007000EB03000800000000FB0300080B0400086D
:100080001B0400082B0400083B0400084B04000874
:100090005B0400086B0400087B0400088B04000864
:1000A0009B040008AB040008BB040008CB04000854
:1000B000DB040008EB040008FB0400080B05000843
:1000C0001B0500082B0500083B0500084B05000830
:1000D0005B0500086B0500087B0500088B05000820
:1000E0009B050008AB050008BB050008CB05000810
:1000F000DB050008EB050008FB0500080B060008FF
:100100001B060008290600083706000845060008F7
:1001100053060008610600086F0600087D06000807
:100120008B06000899060008A7060008B506000817
:10013000C3060008D1060008DF060008ED06000827
:10014000FB06000809070008170700082507000834
:1001500033070008410700084F0700085D07000843
:10016000000000000000000000000000000000008F
:100170006B07000879070008870700089507000843
:10018000A3070008B1070008BF070008CD07000853
:10019000DB070008E9070008F70700080508000862
:1001A00013080008210800082F0800083D0800086F
:1001B0004B0800085908000867080008750800087F
:1001C00083080008910800089F080008AD0800088F
:1001D000BB080008C9080008D70800080000000094
:1001E000E5080008F3080008010900080F090008E5
:1001F0001D090008000000002B0900080000000095
:10020000DFF80CD0034880470348804700F017B858
:1002100000080010F50A0008C9190008002A00F0BB
:100220000D804FEA920203680B60013A00F00680ED
:1002300000F1040001F10401FFF7F5BF7047144815
:100240001449154AFFF7EAFF14481549154AFFF704
:10025000E5FF15481549002900F00C804FEA91018F
:100260004FF000020260013900F0048000F1040048
:10027000FFF7F8BF0E480F4908600F488047DFF8C6
:100280003CD04FF000004FF00001DFF834F00000E8
:100290001047000C000000200C0000001C47000C60
:1002A00000080010000000000C00002028000000E2
:1002B0000000000808ED00E0D1450008000800102B
:1002C000A511000800BF7047FEE7DFF8700600B513
:1002D00081B0804701B000BDFEE7DFF8640600B5DD
:1002E00081B0804701B000BDFEE7DFF8580600B5D9
:1002F00081B0804701B000BDFEE7DFF84C0600B5D5
:1003000081B0804701B000BDFEE7DFF8400600B5D0
:1003100081B0804701B000BDFEE7DFF8340600B5CC
:1003200081B0804701B000BDFEE7DFF8280600B5C8
:1003300081B0804701B000BDFEE7DFF81C0600B5C4
:1003400081B0804701B000BDFEE7DFF8100600B5C0
:1003500081B0804701B000BDFEE7DFF8040600B5BC
:1003600081B0804701B000BDFEE7DFF8F80500B5B9
:1003700081B0804701B000BDFEE7DFF8EC0500B5B5
:1003800081B0804701B000BDFEE7DFF8E00500B5B1
:1003900081B0804701B000BDFEE7DFF8D40500B5AD
:1003A00081B0804701B000BDFEE7DFF8C80500B5A9
:1003B00081B0804701B000BDFEE7DFF8BC0500B5A5
:1003C00081B0804701B000BDFEE7DFF8B00500B5A1
:1003D00081B0804701B000BDFEE7DFF8A40500B59D
:1003E00081B0804701B000BDFEE7DFF8980500B599
:1003F00081B0804701B000BDFEE7DFF88C0500B595
:1004000081B0804701B000BDFEE7DFF8800500B590
:1004100081B0804701B000BDFEE7DFF8740500B58C
:1004200081B0804701B000BDFEE7DFF8680500B588
:1004300081B0804701B000BDFEE7DFF85C0500B584
:1004400081B0804701B000BDFEE7DFF8500500B580
:1004500081B0804701B000BDFEE7DFF8440500B57C
:1004600081B0804701B000BDFEE7DFF8380500B578
:1004700081B0804701B000BDFEE7DFF82C0500B574
:1004800081B0804701B000BDFEE7DFF8200500B570
:1004900081B0804701B000BDFEE7DFF8140500B56C
:1004A00081B0804701B000BDFEE7DFF8080500B568
:1004B00081B0804701B000BDFEE7DFF8FC0400B565
:1004C00081B0804701B000BDFEE7DFF8F00400B561
:1004D00081B0804701B000BDFEE7DFF8E40400B55D
:1004E00081B0804701B000BDFEE7DFF8D80400B559
:1004F00081B0804701B000BDFEE7DFF8CC0400B555
:1005000081B0804701B000BDFEE7DFF8C00400B550
:1005100081B0804701B000BDFEE7DFF8B40400B54C
:1005200081B0804701B000BDFEE7DFF8A80400B548
:1005300081B0804701B000BDFEE7DFF89C0400B544
:1005400081B0804701B000BDFEE7DFF8900400B540
:1005500081B0804701B000BDFEE7DFF8840400B53C
:1005600081B0804701B000BDFEE7DFF8780400B538
:1005700081B0804701B000BDFEE7DFF86C0400B534
:1005800081B0804701B000BDFEE7DFF8600400B530
:1005900081B0804701B000BDFEE7DFF8540400B52C
:1005A00081B0804701B000BDFEE7DFF8480400B528
:1005B00081B0804701B000BDFEE7DFF83C0400B524
:1005C00081B0804701B000BDFEE7DFF8300400B520
:1005D00081B0804701B000BDFEE7DFF8240400B51C
:1005E00081B0804701B000BDFEE7DFF8180400B518
:1005F00081B0804701B000BDFEE7DFF80C0400B514
:1006000081B0804701B000BDFEE7DFF8000400B50F
:1006100081B0804701B000BDFEE7FD4800B581B064
:10062000804701B000BDFEE7FA4800B581B08047C1
:1006300001B000BDFEE7F84800B581B0804701B0C9
:1006400000BDFEE7F54800B581B0804701B000BDB0
:10065000FEE7F34800B581B0804701B000BDFEE77A
:10066000F04800B581B0804701B000BDFEE7EE481C
:1006700000B581B0804701B000BDFEE7EB4800B592
:1006800081B0804701B000BDFEE7E94800B581B008
:10069000804701B000BDFEE7E64800B581B0804765
:1006A00001B000BDFEE7E44800B581B0804701B06D
:1006B00000BDFEE7E14800B581B0804701B000BD54
:1006C000FEE7DF4800B581B0804701B000BDFEE71E
:1006D000DC4800B581B0804701B000BDFEE7DA48D4
:1006E00000B581B0804701B000BDFEE7D74800B536
:1006F00081B0804701B000BDFEE7D54800B581B0AC
:10070000804701B000BDFEE7D24800B581B0804708
:1007100001B000BDFEE7D04800B581B0804701B010
:1007200000BDFEE7CD4800B581B0804701B000BDF7
:10073000FEE7CB4800B581B0804701B000BDFEE7C1
:10074000C84800B581B0804701B000BDFEE7C6488B
:1007500000B581B0804701B000BDFEE7C34800B5D9
:1007600081B0804701B000BDFEE7C14800B581B04F
:10077000804701B000BDFEE7BE4800B581B08047AC
:1007800001B000BDFEE7BC4800B581B0804701B0B4
:1007900000BDFEE7B94800B581B0804701B000BD9B
:1007A000FEE7B74800B581B0804701B000BDFEE765
:1007B000B44800B581B0804701B000BDFEE7B24843
:1007C00000B581B0804701B000BDFEE7AF4800B57D
:1007D00081B0804701B000BDFEE7AD4800B581B0F3
:1007E000804701B000BDFEE7AA4800B581B0804750
:1007F00001B000BDFEE7A84800B581B0804701B058
:1008000000BDFEE7A54800B581B0804701B000BD3E
:10081000FEE7A34800B581B0804701B000BDFEE708
:10082000A04800B581B0804701B000BDFEE79E48FA
:1008300000B581B0804701B000BDFEE79B4800B520
:1008400081B0804701B000BDFEE7994800B581B096
:10085000804701B000BDFEE7964800B581B08047F3
:1008600001B000BDFEE7944800B581B0804701B0FB
:1008700000BDFEE7914800B581B0804701B000BDE2
:10088000FEE78F4800B581B0804701B000BDFEE7AC
:100890008C4800B581B0804701B000BDFEE78A48B2
:1008A00000B581B0804701B000BDFEE7874800B5C4
:1008B00081B0804701B000BDFEE7854800B581B03A
:1008C000804701B000BDFEE7824800B581B0804797
:1008D00001B000BDFEE7804800B581B0804701B09F
:1008E00000BDFEE77D4800B581B0804701B000BD86
:1008F000FEE77B4800B581B0804701B000BDFEE750
:10090000784800B581B0804701B000BDFEE7764869
:1009100000B581B0804701B000BDFEE7734800B567
:1009200081B0804701B000BDFEE7714800B581B0DD
:10093000804701B000BD4FF001007047C9020008B8
:10094000D9020008E9020008F902000809030008BA
:1009500019030008290300083903000849030008A7
:100960005903000869030008790300088903000897
:1009700099030008A9030008B9030008C903000887
:10098000D9030008E9030008F90300080904000876
:10099000BD110008290400083904000849040008B2
:1009A0005904000869040008790400088904000853
:1009B00099040008A9040008B9040008C904000843
:1009C000D9040008E9040008F90400080905000832
:1009D000190500082905000839050008490500081F
:1009E000590500086905000879050008890500080F
:1009F00099050008A9050008B9050008C9050008FF
:100A0000D9050008E9050008F905000809060008ED
:100A100019060008270600083506000843060008E6
:100A2000510600085F0600086D0600087B060008F6
:100A30008906000897060008A5060008B306000806
:100A4000C1060008CF060008DD060008EB06000816
:100A5000F906000807070008150700082307000823
:100A6000310700083F0700084D0700085B07000832
:100A70006907000877070008850700089307000842
:100A8000A1070008AF070008BD070008CB07000852
:100A9000D9070008E7070008F50700080308000861
:100AA000110800081F0800082D0800083B0800086E
:100AB000490800085708000865080008730800087E
:100AC000810800088F0800089D080008AB0800088E
:100AD000B9080008C7080008D5080008E30800089E
:100AE000F1080008FF0800080D0900081B090008AC
:100AF0002909000880B582B000AF4FF46D43CEF2F3
:100B000000034FF46D42CEF20002D2F8882042F486
:100B10007002C3F888204FF46D43CEF200034FF407
:100B20006D42CEF20002526922F008025A614FF47F
:100B30000043C5F200034FF40042C5F200025268C0
:100B400022F001025A604FF48053C5F6000303F50A
:100B5000805303F114031B687B607B6823F00F0351
:100B60007B607B6843F003037B604FF48053C5F6E2
:100B700000037A6803F5805303F114031A6000F050
:100B8000ABF800F005F807F10807BD4680BD00BFCF
:100B900080B485B000AF4FF48C43C5F20003DB682E
:100BA000B3F5803F40F0898044F21073C5F2000332
:100BB0001B6803F00403002B00F0888044F21073DC
:100BC000C5F200039B6803F070634FEA136303F1FF
:100BD0000103FB6044F21073C5F200039B6803F449
:100BE000FE434FEA132303F10103BB6044F2107389
:100BF000C5F200039B6803F4FE034FEA134303F1BD
:100C000001037B6044F21073C5F20003DB6803F05C
:100C10000103002B28D04FF45853C0F26E13FA682A
:100C2000B3FBF2F3BA6802FB03F33B603A687B68FC
:100C3000B2FBF3F240F20003C2F200031A6040F28A
:100C40000003C2F200031A684FF48C43C5F200039C
:100C5000DB68DBB203F10103B2FBF3F240F2000305
:100C6000C2F200031A6031E04FF4D853C0F2B70368
:100C7000FA68B3FBF2F3BA6802FB03F33B603A682D
:100C80007B68B2FBF3F240F20003C2F200031A6089
:100C900040F20003C2F200031A684FF48C43C5F21D
:100CA0000003DB68DBB203F10103B2FBF3F240F2B5
:100CB0000003C2F200031A6008E040F20003C2F22F
:100CC00000034FF45852C0F26E121A6007F1140775
:100CD000BD4680BC704700BF80B582B000AF01F058
:100CE00039F90346002B00F0558244F21073C5F227
:100CF00000035A684FF00203C0F201031340002BB7
:100D00000DD044F21073C5F2000344F21072C5F224
:100D10000002526822F4803222F002025A604FF43C
:100D20008E43C5F200035B6803F03003002B72D0E2
:100D30004FF48E43C5F200034FF48E42C5F2000219
:100D4000526822F0F0025A604FF48E43C5F200035D
:100D50004FF48E42C5F20002526842F400325A60EB
:100D600044F21073C5F2000344F21072C5F200029F
:100D7000D26822F00102DA6044F21073C5F2000377
:100D800044F21072C5F20002526822F400325A6036
:100D90004EF21003CEF2000344F6A332C0F24C022E
:100DA0005A604EF21003CEF200034FF000029A6038
:100DB0004EF21003CEF200034FF005021A6044F227
:100DC0001073C5F200031B6803F46073B3F5607F12
:100DD00008D04EF21003CEF200039A6840F2F313EB
:100DE0009A42ECD84EF21003CEF200034EF21002FB
:100DF000CEF20002126822F001021A6044F210736F
:100E0000C5F200031B6803F46073B3F5607F02D082
:100E10004FF00003C0E144F21073C5F200031B68F9
:100E200003F00403002B40F0B5814FF48C43C5F26E
:100E30000003DB6803F48033002B0BD04FF48C43AA
:100E4000C5F200034FF48C42C5F20002D26822F4CE
:100E50008032DA604FF46053C1F69C437B607A685D
:100E600049F68173C1F25E63A3FB02134FEA535349
:100E700003F1FF333B6044F21073C5F2000344F208
:100E80001072C5F20002526842F001025A6044F248
:100E90001073C5F2000344F21072C5F200025268EA
:100EA00042F010025A6044F21072C5F200023B6830
:100EB0004FEA034144F60173C0F200130B43936001
:100EC00044F21073C5F2000344F21072C5F200023E
:100ED000526842F040025A6044F21073C5F20003B7
:100EE00044F21072C5F20002526822F010025A60F9
:100EF00044F21073C5F2000344F21072C5F200020E
:100F0000526842F480225A604EF21003CEF200037F
:100F100044F6A332C0F24C025A604EF21003CEF2F5
:100F200000034FF000029A604EF21003CEF200036D
:100F30004FF005021A6000BF44F21073C5F20003BF
:100F40001B6803F00403002B08D14EF21003CEF20D
:100F500000039A6840F2F3139A42EDD84EF2100360
:100F6000CEF200034EF21002CEF20002126822F01E
:100F700001021A6044F21073C5F200031B6803F00B
:100F80000403002B4ED044F21073C5F2000344F268
:100F90001072C5F20002526822F001025A604FF44A
:100FA0008C43C5F200034FF000021A614FF48C43EA
:100FB000C5F200034FF000025A614FF48C43C5F2B2
:100FC00000034FF000021A624FF48C43C5F2000395
:100FD0004FF48C42C5F20002D26842F48032DA60EB
:100FE00044F21073C5F2000344F21072C5F200021D
:100FF000526822F040025A604EF21003CEF2000313
:1010000040F245525A604EF21003CEF200034FF008
:1010100000029A604EF21003CEF200034FF0050278
:101020001A6002E04FF00003B6E04EF21003CEF279
:1010300000039B68632BF8D84EF21003CEF2000336
:101040004EF21002CEF20002126822F001021A6083
:101050004FF46053C1F69C437B607B684FEA1322D8
:1010600045F2C743C0F21E13A3FB02134FEA9323BA
:1010700003F1FF333B6044F21072C5F200023B689B
:101080004FEA034144F60173C0F200130B4393602F
:101090004EF21003CEF2000340F61B425A604EF2AD
:1010A0001003CEF200034FF000029A604EF21003DC
:1010B000CEF200034FF005021A6000BF4EF210039B
:1010C000CEF200039B68632BF8D84EF21003CEF2E9
:1010D00000034EF21002CEF20002126822F001026A
:1010E0001A604FF46053C1F69C437B607B684FEA03
:1010F000D3124EF22F33C0F2BE03A3FB02134FEA0A
:10110000D32303F1FF333B6044F21072C5F20002B7
:101110003B684FEA034144F60173C0F200130B43EE
:1011200093604EF21003CEF2000341F223325A6074
:101130004EF21003CEF200034FF000029A604EF21E
:101140001003CEF200034FF005021A6000BF4EF20A
:101150001003CEF200039B68632BF8D84EF2100305
:10116000CEF200034EF21002CEF20002126822F01C
:1011700001021A6044F21073C5F2000344F60172D2
:10118000C0F203129A6044F26013C5F200034FF0FC
:101190000502DA604FF00103184607F10807BD4663
:1011A00080BD00BF80B500AF00F0F6FB44F2BC602C
:1011B000C0F6000002F03EFEFEE700BF80B500AFC3
:1011C00044F2BC60C0F6000040F23001C2F20001FF
:1011D00002F056FB80BD00BF80B485B000AFF86060
:1011E000B9607A604FF0FF33184607F11407BD4627
:1011F00080BC704780B485B000AFF860B9607A6099
:101200004FF0FF33184607F11407BD4680BC704706
:1012100080B485B000AFF860B9607A604FF0000329
:10122000184607F11407BD4680BC704780B485B0EE
:1012300000AFF860B9607A604FF0FF33184607F1ED
:101240001407BD4680BC704780B400AF4FF0FF3339
:101250001846BD4680BC704780B483B000AF78604C
:1012600039603B68002B02D04FF0FF3301E06FF094
:101270000103184607F10C07BD4680BC704700BF4C
:1012800080B483B000AF786039607A683B689A4276
:1012900002D14FF0FF3301E06FF00103184607F170
:1012A0000C07BD4680BC704780B483B000AF786047
:1012B0004FF0FF33184607F10C07BD4680BC70475E
:1012C00080B487B000AF78604FF6CC73C0F20003F3
:1012D0007B6140F21003C2F200031B68002B14D1A3
:1012E00040F21003C2F2000340F23402C2F20002E4
:1012F0001A6040F21003C2F200031A687B69D21828
:1013000040F21403C2F200031A6040F21003C2F26A
:1013100000031B683B6140F21003C2F200031B682C
:101320001A467B68D31803F1070323F00703FB6019
:1013300040F21403C2F200031B68FA689A4202D317
:101340004FF0000306E040F21003C2F20003FA6817
:101350001A603B69184607F11C07BD4680BC704700
:1013600080B483B000AF78604FF0FF33184607F1C8
:101370000C07BD4680BC704780B483B000AF786076
:101380004FF0FF33184607F10C07BD4680BC70478D
:1013900080B483B000AF786039604FF0FF331846F7
:1013A00007F10C07BD4680BC704700BF80B400AF9A
:1013B0004FF0FF331846BD4680BC704780B400AF85
:1013C0004FF0FF331846BD4680BC704780B483B0F1
:1013D00000AF7860FEE700BF80B400AFBD4680BCC0
:1013E000704700BF80B483B000AF78604FF0FF3328
:1013F000184607F10C07BD4680BC704780B487B023
:1014000000AF78604FF000037B614FF000033B6159
:101410004FF48843C5F20003FB607B684FEA137307
:101420007B61FB6803F1100319467A6913464FEAA2
:1014300043039B184FEA8303CB183B617B6823F07F
:1014400070423B691A6007F11C07BD4680BC7047BB
:1014500080B487B000AF78604FF000037B614FF03D
:1014600000033B614FF48843C5F20003FB607B68D7
:101470004FEA13737B61FB6803F1140319467A6921
:1014800013464FEA43039B184FEA8303CB183B6193
:101490007B6823F070423B691A6007F11C07BD4668
:1014A00080BC704780B483B000AF4FF48843C5F26E
:1014B00000037B604FF00003FB707B681B68FB70D0
:1014C000FB78184607F10C07BD4680BC704700BF8B
:1014D00080B489B000AF78604FF00F03FB614FF02C
:1014E0000003BB614FF000037B614FF000033B61E1
:1014F0004FF48843C5F20003FB607B684FEA137327
:10150000BB61FB6803F10C031946BA6913464FEA45
:1015100043039B184FEA8303CB187B617B691A68EE
:101520007B68134023F070433B613B69002B03D081
:101530004FF00103FB6102E04FF00003FB61FB6928
:10154000184607F12407BD4680BC704780B483B0BD
:1015500000AF4FF48843C5F200037B607B689B6853
:1015600043F001027B689A6007F10C07BD4680BC1E
:10157000704700BF80B400AF4FF46D43CEF200035C
:10158000DB6803F4E0634FEA13231846BD4680BCD2
:10159000704700BF80B483B000AF0346FB714FF4C7
:1015A0006143CEF2000397F907204FEA5212F9790E
:1015B00001F01F014FF0010000FA01F143F8221081
:1015C00007F10C07BD4680BC704700BF80B483B0F4
:1015D00000AF03463960FB7197F90730002B10DA32
:1015E0004FF46D43CEF20003FA7902F00F02A2F13C
:1015F00004013A68D2B24FEA8202D2B25B181A767C
:101600000DE04FF46143CEF2000397F907103A68FA
:10161000D2B24FEA8202D2B25B1883F8002307F1FC
:101620000C07BD4680BC704780B489B000AFF8603D
:10163000B9607A60FB6803F00703FB61FB69C3F1E3
:101640000703062B28BF0623BB61FB6903F10603D2
:10165000062B03D9FB6903F1FF3301E04FF00003D0
:101660007B61BB694FF0010202FA03F303F1FF3320
:101670001A46BB681A407B6902FA03F27B694FF095
:10168000010101FA03F303F1FF3319467B680B40B4
:101690001343184607F12407BD4680BC704700BFBE
:1016A00080B582B000AF78607B681B78DBB25BB23C
:1016B0001846FFF76FFF07F10807BD4680BD00BF62
:1016C00080B582B000AF4FF000037B600DE040F2C8
:1016D0000403C2F200037A6853F82230184600F07F
:1016E0000BF87B6803F101037B607B68002BEED075
:1016F00007F10807BD4680BD90B583B000AF7860A4
:101700007B681B78DCB2FFF735FF01467B685B78AE
:101710001A467B689B78084611461A46FFF784FFF5
:10172000034662B210461946FFF750FF7B68DB782C
:10173000012B02D17868FFF7B3FF07F10C07BD4614
:1017400090BD00BF80B400AF44F27863C0F60003E0
:101750005A6844F27863C0F600035B681B6E23F09E
:101760000203136644F27863C0F600035A6844F239
:101770007863C0F600035B681B691361BD4680BCDB
:10178000704700BF80B485B000AF78600B46FB7037
:101790007B685B78FB737B685B687A685268116E64
:1017A000FA7B4FF0010000FA02F26FEA02020A40EF
:1017B0001A66FB7B032B23D87B685B687A685268C8
:1017C0001169FA7B4FEAC20202F103024FF01F00D7
:1017D00000FA02F26FEA02020A401A617B685B6853
:1017E0007A6852681169FA7802F01F00FA7B4FEAB2
:1017F000C20202F1030200FA02F20A431A6188E00F
:10180000FB7B032B2AD9FB7B072B27D8FB7BA3F180
:101810000403FB737B685B687A6852685169FA7BE2
:101820004FEAC20202F103024FF01F0000FA02F277
:101830006FEA02020A405A617B685B687A68526804
:101840005169FA7802F01F00FA7B4FEAC20202F1F6
:10185000030200FA02F20A435A615AE0FB7B072BAB
:101860002AD9FB7B0B2B27D8FB7BA3F10803FB7347
:101870007B685B687A6852689169FA7B4FEAC202BA
:1018800002F103024FF01F0000FA02F26FEA0202B7
:101890000A409A617B685B687A6852689169FA7855
:1018A00002F01F00FA7B4FEAC20202F1030200FAC3
:1018B00002F20A439A612CE0FB7B0B2B29D9FB7BBC
:1018C0000F2B26D8FB7BA3F10C03FB737B685B68B3
:1018D0007A685268D169FA7B4FEAC20202F10302C8
:1018E0004FF01F0000FA02F26FEA02020A40DA61CA
:1018F0007B685B687A685268D169FA7802F01F00E9
:10190000FA7B4FEAC20202F1030200FA02F20A4332
:10191000DA6107F11407BD4680BC704780B483B01C
:1019200000AF78607B685B687A685268116E7A688D
:1019300052784FF0010000FA02F20A431A6607F1EA
:101940000C07BD4680BC704780B485B000AF78609E
:101950007B6803F00703FB604FF46D43CEF2000396
:10196000DB68BB60BA684FF6FF031340BB60FB68DF
:101970004FEA0322BB68134343F0BF6343F40033D1
:10198000BB604FF46D43CEF20003BA68DA6007F132
:101990001407BD4680BC704780B500AF4FF0010012
:1019A000FFF7D2FF00F038F8FFF78AFE00F0BAFA2E
:1019B00001F022F800F0D6FAFFF7C4FE01F0AAFC0D
:1019C00000F008F880BD00BF80B500AF00F0AAFAB3
:1019D00080BD00BF80B400AF4FF48843C4F2000361
:1019E0004FF48842C4F20002D2F8B02022F01F0265
:1019F00042F00102C3F8B0204FF040234FF04022E4
:101A0000D2F8402122F4702242F40032C3F840217F
:101A1000BD4680BC704700BF80B400AFBD4680BCEF
:101A2000704700BF80B485B000AF78604FF000030E
:101A3000FB6007E000BF00BF00BF00BFFB6803F111
:101A40000103FB60FA687B689A42F3D307F114073D
:101A5000BD4680BC704700BF80B483B000AF4FF07C
:101A600001037B6044F21073C5F200035A684FF023
:101A70000203C0F201031340002B02D04FF0000319
:101A80007B607B68184607F10C07BD4680BC704739
:101A900080B500AF4FF48443C5F200031B6803F028
:101AA0000103002B0BD14FF48443C5F200034FF424
:101AB0008442C5F20002526842F001025A604FF4BB
:101AC0008843C5F200031B6803F40073002B0BD09E
:101AD0004FF48843C5F200034FF48842C5F2000278
:101AE000926842F400729A6044F21073C5F20003E7
:101AF00044F21072C5F20002526822F480125A6059
:101B00004FF06400FFF78EFF44F21073C5F200033C
:101B100044F21072C5F20002526842F400225A6088
:101B200080BD00BF80B582B000AF4FF001037B6085
:101B300044F21073C5F2000344F21072C5F20002C1
:101B4000526822F4803222F002025A604FF48E432F
:101B5000C5F200035B6803F03003002B54D04FF450
:101B60008E43C5F200034FF48E42C5F20002526864
:101B700022F030025A604FF48E43C5F200034FF456
:101B80008E42C5F20002526842F440325A6044F27A
:101B90001073C5F2000344F21072C5F20002D2685D
:101BA00022F00102DA6044F21073C5F2000344F23D
:101BB0001072C5F20002526822F400325A6044F2F8
:101BC00050633B604FF00A00FFF72CFF3B6803F1C6
:101BD000FF333B6044F21073C5F200031B6803F44B
:101BE0006073B3F5607F02D03B68002BEAD144F20A
:101BF0001073C5F200031B6803F46073B3F5607FD4
:101C000002D04FF000037B607B68184607F108079D
:101C1000BD4680BD80B582B000AF4FF001037B6050
:101C200044F21073C5F200031B6803F00403002B99
:101C300040F0978040F21803C2F200034FF4605264
:101C4000C1F69C421A6040F21803C2F200031A68FF
:101C500049F68173C1F25E63A3FB02134FEA53534B
:101C600003F1FF3240F21C03C2F200031A6044F297
:101C70001073C5F2000344F21072C5F200025268FC
:101C800042F001025A6044F21073C5F2000344F2BC
:101C90001072C5F20002526842F010025A6044F21B
:101CA0001073C5F2000340F21C02C2F20002126877
:101CB0004FEA024242F41C529A6044F21073C5F299
:101CC000000344F21072C5F20002526842F0400272
:101CD0005A6044F21073C5F2000344F21072C5F268
:101CE0000002526822F010025A6044F21073C5F2EA
:101CF000000344F21072C5F20002526842F48022DE
:101D00005A6044F250633B604FF00A00FFF78AFECE
:101D10003B6803F1FF333B6044F21073C5F20003EC
:101D20001B6803F00403002B02D13B68002BEBD1AE
:101D300044F21073C5F200031B6803F00403002B88
:101D40000CD044F21073C5F2000344F21072C5F2D5
:101D50000002526822F001025A6002E04FF00003D4
:101D60007B607B68184607F10807BD4680BD00BF51
:101D700080B582B000AF4FF001037B6044F2107376
:101D8000C5F2000344F21072C5F20002526822F05C
:101D900040025A6040F21803C2F200034FF460524E
:101DA000C1F69C421A604FF06400FFF73BFE40F220
:101DB0001803C2F200031B684FEA132245F2C7431F
:101DC000C0F21E13A3FB02134FEA932303F1FF3269
:101DD00040F21C03C2F200031A6044F21073C5F211
:101DE000000340F21C02C2F2000212684FEA0242F3
:101DF00042F41C529A604FF06400FFF713FE40F269
:101E00001803C2F200031B684FEAD3124EF22F33BD
:101E1000C0F2BE03A3FB02134FEAD32303F1FF3248
:101E200040F21C03C2F200031A6044F21073C5F2C0
:101E3000000340F21C02C2F2000212684FEA0242A2
:101E400042F41C529A604FF09600FFF7EBFD44F20B
:101E50001073C5F200034FF41C52C0F203029A60E3
:101E600044F21073C5F200039B6803F070634FEAFD
:101E70001363002B1ED144F21073C5F200039B685C
:101E800003F4FE434FEA1323272B13D144F21073BC
:101E9000C5F200039B6803F07F03002B0AD144F2D4
:101EA0001073C5F200039B6803F4FE034FEA13436B
:101EB000032B02D04FF000037B6044F26013C5F2A5
:101EC00000034FF00502DA607B68184607F1080747
:101ED000BD4680BD80B582B000AF4FF001037B608E
:101EE000FFF7D6FD4FF06400FFF79CFDFFF71AFEE9
:101EF0007860FFF78FFE78604FF48C43C5F20003E3
:101F00004FF48C42C5F20002D26842F48032DA60AB
:101F1000FFF72EFF78607B68184607F10807BD467B
:101F200080BD00BF80B582B000AF4FF000037B6082
:101F3000FFF792FD0346002B05D1FFF7CBFF0346C9
:101F40007A6813437B60FEF723FE07F10807BD465E
:101F500080BD00BF80B400AF4FF000031846BD46FF
:101F600080BC704780B500AF00F046FD44F2806051
:101F7000C0F6000000F00CF800F0BEFE0346002B97
:101F800005D144F28060C0F6000000F013F980BD76
:101F900080B487B000AF78604FF001037B617B684D
:101FA0001B693B617B685B69FB607B68DB681B7856
:101FB000002B40F0B7807B685B781A467B681B7803
:101FC00003F1100302FA03F303F480323B69D3F800
:101FD000803023F480331A433B69C3F880207B6848
:101FE0009B784FEAC313DAB2FB68D3F8803023F052
:101FF00080031A43FB68C3F880207B689B884FEA04
:1020000003524FEA1252FB68D3F8B83023F47F63CF
:1020100023F00F031A43FB68C3F8B8207B68DB8802
:102020004FEA03424FF00003C0F6FF731340FA6813
:10203000D2F8B82022F07F6222F470221A43FB68A3
:10204000C3F8B820FB68D3F8F0217B681B7A4FEA0D
:10205000037303F080517B685B7A03F00703194335
:102060007B689B7A4FEA836303F040630B4313431F
:1020700043F00042FB68C3F8F021FB68D3F8A020CE
:102080007B681B7E4FEA032303F4E0617B681B7FC0
:102090004FEA036303F0E06319437B689B7E03F020
:1020A0001F0319437B689B7F4FEA034303F4F81334
:1020B0000B431A43FB68C3F8A020FB68D3F8A420A5
:1020C0007B685B7E4FEA032303F4E0617B685B7F00
:1020D0004FEA036303F0E06319437B68DB7E03F0A0
:1020E0001F0319437B68DB7F4FEA034303F4F813B4
:1020F0000B431A43FB68C3F8A4207B68DB7A03F028
:102100000302FB68D3F8803023F003031A43FB6813
:10211000C3F880207B68DB684FF001021A704FF033
:1021200000037B6107F11C07BD4680BC704700BF00
:1021300080B487B000AF78604FF001037B617B68AB
:102140001B693B617B685B69FB607B68DB681B78B4
:10215000012B28D13B69D3F8803023F480323B69CE
:10216000C3F88020FB684FF00002C3F88020FB68B2
:102170004FF00002C3F8B820FB684FF00042C3F8EC
:10218000F021FB684FF00002C3F8A020FB684FF07D
:102190000002C3F8A4207B68DB684FF000021A70CD
:1021A0004FF000037B617B69184607F11C07BD46B1
:1021B00080BC704780B485B000AF78604FF00103F9
:1021C000FB607B685B69D3F8803003F080534FEA93
:1021D0001373FB60FB68012BF3D0FB68184607F113
:1021E0001407BD4680BC704780B485B000AF7860EE
:1021F0000B467B804FF00103FB607B685B69BB6033
:102200007B68DB681B78012B1AD17B88B3F5805F74
:1022100013D87B884FEA03524FEA1252BB68D3F8B7
:10222000B83023F47F6323F00F031A43BB68C3F86D
:10223000B8204FF00003FB6002E04FF00203FB60A8
:10224000FB68184607F11407BD4680BC704700BF05
:1022500080B485B000AF78600B467B804FF00103FF
:10226000FB607B685B69BB607B68DB681B78012B6C
:102270001DD17B88B3F5805F16D87B884FEA034277
:102280004FF00003C0F6FF731340BA68D2F8B820CD
:1022900022F07F6222F470221A43BB68C3F8B82090
:1022A0004FF00003FB6002E04FF00203FB60FB68AD
:1022B000184607F11407BD4680BC704780B485B04E
:1022C00000AF78600B46FB704FF00103FB607B684A
:1022D0005B69BB607B68DB681B78012B23D1FB78D3
:1022E000032B1DD8BB68D3F8C821FB784FF0010140
:1022F00001FA03F36FEA03031A40BB68C3F8C8216D
:10230000BB68D3F8C821FB784FF0010101FA03F351
:102310001A43BB68C3F8C8214FF00003FB6002E01A
:102320004FF00203FB60FB68184607F11407BD4637
:1023300080BC704780B485B000AF78600B46FB70FE
:102340004FF00103FB607B685B69BB607B68DB6807
:102350001B78012B17D1FB78032B11D8BB68D3F85E
:10236000C821FB784FF0010101FA03F36FEA030380
:102370001A40BB68C3F8C8214FF00003FB6002E0BD
:102380004FF00203FB60FB68184607F11407BD46D7
:1023900080BC704780B485B000AF78600B46FB709E
:1023A0004FF00103FB607B685B69BB607B68DB68A7
:1023B0001B78012B27D1FB78032B21D8BB68D3F8DE
:1023C000C821FB7803F108034FF0010101FA03F380
:1023D0006FEA03031A40BB68C3F8C821BB68D3F88F
:1023E000C821FB7803F108034FF0010101FA03F360
:1023F0001A43BB68C3F8C8214FF00003FB6002E03A
:102400004FF00203FB60FB68184607F11407BD4656
:1024100080BC704780B485B000AF78600B46FB701D
:102420004FF00103FB607B685B69BB607B68DB6826
:102430001B78012B19D1FB78032B13D8BB68D3F879
:10244000C821FB7803F108034FF0010101FA03F3FF
:102450006FEA03031A40BB68C3F8C8214FF00003BA
:10246000FB6002E04FF00203FB60FB68184607F1D7
:102470001407BD4680BC704780B485B000AF78605B
:102480000B46FB704FF00103FB607B685B69BB6030
:102490007B68DB681B78012B15D1FB78082B0FD8E4
:1024A000FB7803F00702BB68D3F8F03123F0070391
:1024B0001A43BB68C3F8F0214FF00003FB6002E051
:1024C0004FF00203FB60FB68184607F11407BD4696
:1024D00080BC704780B485B000AF786039604FF041
:1024E0000103FB607B685B69BB607B68DB681B7812
:1024F000012B12D13B68002B0CD0BB68D3F8F03114
:10250000DBB203F00703DAB23B681A704FF0000346
:10251000FB6002E04FF00203FB60FB68184607F126
:102520001407BD4680BC704780B485B000AF7860AA
:102530000B46FB704FF00103FB607B685B69BB607F
:102540007B68DB681B78012B17D1FB78202B11D817
:10255000FB784FEA034303F4F812BB68D3F8F03179
:1025600023F4F8131A43BB68C3F8F0214FF00003BB
:10257000FB6002E04FF00203FB60FB68184607F1C6
:102580001407BD4680BC704780B487B000AF786048
:102590000B46FB704FF001037B617B685B693B611D
:1025A0007B68DB681B78012B1FD1FB78032B19D8C4
:1025B0003B69D3F8F031FB60FB6823F04063FB60BC
:1025C000FB784FEA836303F04062FB68134343F0F8
:1025D0000043FB603B69FA68C3F8F0214FF0000349
:1025E0007B6102E04FF002037B617B69184607F1D3
:1025F0001C07BD4680BC704780B487B000AF7860D0
:102600000B46FB704FF001037B614FF000033B6111
:102610007B685B69FB607B68DB681B78012B1FD1E3
:10262000FB78012B19D8FB68D3F8F0313B613B698B
:1026300023F080533B61FB784FEA037303F0805231
:102640003B69134343F000433B61FB683A69C3F8BD
:10265000F0214FF000037B6102E04FF002037B6149
:102660007B69184607F11C07BD4680BC704700BF58
:1026700080B485B000AF78600B46FB704FF001036B
:10268000FB607B685B69BB607B68DB681B78012B48
:1026900015D1FB781F2B0FD8FB7803F01F02BB6806
:1026A000D3F8A03023F01F031A43BB68C3F8A0205F
:1026B0004FF00003FB6002E04FF00203FB60FB6899
:1026C000184607F11407BD4680BC704780B485B03A
:1026D00000AF78600B46FB704FF00103FB607B6836
:1026E0005B69BB607B68DB681B78012B15D1FB78CD
:1026F0001F2B0FD8FB7803F01F02BB68D3F8A43060
:1027000023F01F031A43BB68C3F8A4204FF0000353
:10271000FB6002E04FF00203FB60FB68184607F124
:102720001407BD4680BC704780B485B000AF7860A8
:102730000B46FB704FF00103FB607B685B69BB607D
:102740007B68DB681B78012B17D1FB781F2B11D816
:10275000FB784FEA034303F4F812BB68D3F8A030C8
:1027600023F4F8131A43BB68C3F8A0204FF000030A
:10277000FB6002E04FF00203FB60FB68184607F1C4
:102780001407BD4680BC704780B485B000AF786048
:102790000B46FB704FF00103FB607B685B69BB601D
:1027A0007B68DB681B78012B17D1FB781F2B11D8B6
:1027B000FB784FEA034303F4F812BB68D3F8A43064
:1027C00023F4F8131A43BB68C3F8A4204FF00003A6
:1027D000FB6002E04FF00203FB60FB68184607F164
:1027E0001407BD4680BC704780B485B000AF7860E8
:1027F0000B46FB704FF00103FB607B685B69BB60BD
:102800007B68DB681B78012B1AD1FB78022B02D97D
:10281000FB78052B11D1FB784FEA032303F4E06228
:10282000BB68D3F8A03023F4E0631A43BB68C3F855
:10283000A0204FF00003FB6002E04FF00203FB60BA
:10284000FB68184607F11407BD4680BC704700BFFF
:1028500080B485B000AF78600B46FB704FF0010389
:10286000FB607B685B69BB607B68DB681B78012B66
:102870001AD1FB78022B02D9FB78052B11D1FB78FA
:102880004FEA032303F4E062BB68D3F8A43023F4D7
:10289000E0631A43BB68C3F8A4204FF00003FB6059
:1028A00002E04FF00203FB60FB68184607F11407D3
:1028B000BD4680BC704700BF80B485B000AF786073
:1028C0000B46FB704FF00103FB607B685B69BB60EC
:1028D0007B68DB681B78012B1AD1FB78022B02D9AD
:1028E000FB78052B11D1FB784FEA036303F0E0621C
:1028F000BB68D3F8A03023F0E0631A43BB68C3F889
:10290000A0204FF00003FB6002E04FF00203FB60E9
:10291000FB68184607F11407BD4680BC704700BF2E
:1029200080B485B000AF78600B46FB704FF00103B8
:10293000FB607B685B69BB607B68DB681B78012B95
:102940001AD1FB78022B02D9FB78052B11D1FB7829
:102950004FEA036303F0E062BB68D3F8A43023F0CE
:10296000E0631A43BB68C3F8A4204FF00003FB6088
:1029700002E04FF00203FB60FB68184607F1140702
:10298000BD4680BC704700BF80B487B000AF7860A0
:102990000B46FB704FF001037B617B685B693B6119
:1029A0007B68DB681B78012B1FD1FB78012B19D8C2
:1029B0003B69D3F8F031FB60FB6823F00053FB6008
:1029C000FB784FEA437303F00052FB68134343F074
:1029D0000043FB603B69FA68C3F8F0214FF0000345
:1029E0007B6102E04FF002037B617B69184607F1CF
:1029F0001C07BD4680BC704780B582B000AF4FF069
:102A000001037B6044F2A063C0F600035B681B789F
:102A1000002B40F0C5804FF00100FEF719FD44F295
:102A2000A063C0F600031A6844F2A063C0F6000376
:102A30001B681B6823F00103136044F2A063C0F617
:102A400000031A6844F2A063C0F600035B7B4FEA00
:102A5000032303F4407144F2A063C0F60003DB7D5E
:102A60004FEAC313DBB2194344F2A063C0F600037C
:102A70001B7B03F01F030B4343F40043C2F8803079
:102A800044F2A063C0F600031A6844F2A063C0F6E3
:102A900000031B68D3F8803023F40043C2F8803071
:102AA00044F2A063C0F600031A6844F2A063C0F6C3
:102AB00000031B7D4FEA036303F0E06144F2A0636F
:102AC000C0F600031B7C4FEA034303F4F8131943D9
:102AD00044F2A063C0F600039B7C4FEA032303F497
:102AE000E063194344F2A063C0F600039B7B03F04C
:102AF0001F030B43C2F8A03044F2A063C0F60003EA
:102B00001A6844F2A063C0F600035B7D4FEA0363DA
:102B100003F0E06144F2A063C0F600035B7C4FEA7F
:102B2000034303F4F813194344F2A063C0F600030F
:102B3000DB7C4FEA032303F4E063194344F2A06310
:102B4000C0F60003DB7B03F01F030B43C2F8A43085
:102B500044F2A063C0F60003196844F2A063C0F613
:102B600000035B894FEA03424FF00003C0F6FF7396
:102B7000134044F2A062C0F6000212894FEA0252EA
:102B80004FEA12521343C1F8B83044F2A063C0F6C2
:102B900000035B684FF001021A704FF000037B6086
:102BA00007F10807BD4680BD80B485B000AF7860EE
:102BB0004FF00103FB607B685B681B78012B37D10A
:102BC0007B681B687A681268126822F001021A603A
:102BD0007B681A684FF66043CFF6FF73C2F8803007
:102BE0007B681B687A681268D2F8802022F4004261
:102BF000C3F880207B681A684FF6E003CFF6E00345
:102C0000C2F8A0307B681A684FF6E003CFF6E00305
:102C1000C2F8A4307B681B684FF0F022C3F8B820DC
:102C20007B685B684FF000021A704FF00003FB6096
:102C3000FB68184607F11407BD4680BC704700BF0B
:102C400080B485B000AF78604FF00103FB607B6813
:102C50005B681B78012B0AD17B681B687A68126855
:102C6000126842F001021A604FF00003FB60FB683B
:102C7000184607F11407BD4680BC704780B485B084
:102C800000AF78604FF00103FB607B685B681B78E6
:102C9000012B0AD17B681B687A681268126822F0DF
:102CA00001021A604FF00003FB60FB68184607F151
:102CB0001407BD4680BC704780B485B000AF786013
:102CC0004FF00103FB607B685B681B78012B0CD124
:102CD0007B681B687A681268D2F8802042F0004254
:102CE000C3F880204FF00003FB60FB68184607F133
:102CF0001407BD4680BC704780B483B000AF4FF06E
:102D000001037B6044F2A063C0F600035B681B789C
:102D1000012B19D144F2A063C0F600039B7D012B67
:102D20000FD144F2A063C0F600031A6844F2A06316
:102D3000C0F600031B68D3F8803043F00043C2F8AC
:102D400080304FF000037B607B68184607F10C076A
:102D5000BD4680BC704700BF80B485B000AF7860CE
:102D60004FF00103FB607B685B681B78012B0AD185
:102D70007B681B687A681268126822F008021A6081
:102D80004FF00003FB60FB68184607F11407BD46CF
:102D900080BC704780B485B000AF78604FF001030D
:102DA000FB607B685B681B78012B0AD17B681B6822
:102DB0007A681268126842F008021A604FF0000345
:102DC000FB60FB68184607F11407BD4680BC7047DE
:102DD00080B485B000AF78600B46FB704FF0010304
:102DE000FB607B685B681B78012B1CD1FB78022B96
:102DF00002D9FB78052B13D17B681B68FA784FEA60
:102E0000022202F4E0617A681268D2F8A02022F46B
:102E1000E0620A43C3F8A0204FF00003FB6002E029
:102E20004FF00203FB60FB68184607F11407BD462C
:102E300080BC704780B485B000AF78600B46FB70F3
:102E40004FF00103FB607B685B681B78012B17D197
:102E5000FB781F2B11D87B681B68FA7802F01F01E2
:102E60007A681268D2F8A02022F01F020A43C3F841
:102E7000A0204FF00003FB6002E04FF00203FB6074
:102E8000FB68184607F11407BD4680BC704700BFB9
:102E900080B485B000AF78600B46FB704FF0010343
:102EA000FB607B685B681B78012B1CD1FB78022BD5
:102EB00002D9FB78052B13D17B681B68FA784FEA9F
:102EC000026202F0E0617A681268D2F8A02022F073
:102ED000E0620A43C3F8A0204FF00003FB6002E069
:102EE0004FF00203FB60FB68184607F11407BD466C
:102EF00080BC704780B485B000AF78600B46FB7033
:102F00004FF00103FB607B685B681B78012B19D1D4
:102F1000FB781F2B13D87B681B68FA784FEA0242B4
:102F200002F4F8117A681268D2F8A02022F4F8129C
:102F30000A43C3F8A0204FF00003FB6002E04FF00B
:102F40000203FB60FB68184607F11407BD4680BC0E
:102F5000704700BF80B485B000AF78600B46FB704F
:102F60004FF00103FB607B685B681B78012B1CD171
:102F7000FB78022B02D9FB78052B13D17B681B68E9
:102F8000FA784FEA022202F4E0617A681268D2F815
:102F9000A42022F4E0620A43C3F8A4204FF0000307
:102FA000FB6002E04FF00203FB60FB68184607F18C
:102FB0001407BD4680BC704780B485B000AF786010
:102FC0000B46FB704FF00103FB607B685B681B786E
:102FD000012B17D1FB781F2B11D87B681B68FA785F
:102FE00002F01F017A681268D2F8A42022F01F02B2
:102FF0000A43C3F8A4204FF00003FB6002E04FF047
:103000000203FB60FB68184607F11407BD4680BC4D
:10301000704700BF80B485B000AF78600B46FB708E
:103020004FF00103FB607B685B681B78012B1CD1B0
:10303000FB78022B02D9FB78052B13D17B681B6828
:10304000FA784FEA026202F0E0617A681268D2F818
:10305000A42022F0E0620A43C3F8A4204FF000034A
:10306000FB6002E04FF00203FB60FB68184607F1CB
:103070001407BD4680BC704780B485B000AF78604F
:103080000B46FB704FF00103FB607B685B681B78AD
:10309000012B19D1FB781F2B13D87B681B68FA789A
:1030A0004FEA024202F4F8117A681268D2F8A420BA
:1030B00022F4F8120A43C3F8A4204FF00003FB6087
:1030C00002E04FF00203FB60FB68184607F11407AB
:1030D000BD4680BC704700BF80B485B000AF78604B
:1030E00039604FF00103FB607B685B681B78012B44
:1030F0000CD17B681B681B6803F002034FEA530383
:10310000DAB23B681A704FF00003FB60FB681846A8
:1031100007F11407BD4680BC704700BF80B485B07E
:1031200000AF786039604FF00103FB607B685B683B
:103130001B78012B07D17B681B689A683B681A6073
:103140004FF00003FB60FB68184607F11407BD460B
:1031500080BC704780B485B000AF78600B46FB70D0
:103160004FF00103FB607B685B681B78012B30D15B
:10317000FB780F2B2AD87B681A687B681B68D3F80A
:10318000603123F4004323F0F00343F40043C2F81A
:1031900060317B681B687A681268D2F86011FA782F
:1031A0004FEA0212D2B20A4342F40042C3F860214D
:1031B0007B681B687A681268D2F8602122F40042AA
:1031C000C3F860214FF00003FB6002E04FF0020300
:1031D000FB60FB68184607F11407BD4680BC7047CA
:1031E00080B485B000AF78604FF00103FB607B686E
:1031F0005B681B78012B16D17B681B687A681268A4
:10320000D2F8602142F40142C3F860217B681B6858
:103210007A681268D2F8602122F40042C3F8602173
:103220004FF00003FB60FB68184607F11407BD462A
:1032300080BC704780B485B000AF78600B46FB70EF
:103240004FF00103FB607B685B681B78012B2FD17B
:10325000FB78032B29D87B681B687A681268D2F840
:10326000602122F4064242F40042C3F860217B68E8
:103270001B687A681268D2F86011FA784FEA422225
:1032800002F4C0620A4342F40042C3F860217B6842
:103290001B687A681268D2F8602122F40042C3F8F1
:1032A00060214FF00003FB6002E04FF00203FB607F
:1032B000FB68184607F11407BD4680BC704700BF85
:1032C00080B485B000AF78604FF00103FB607B688D
:1032D0005B681B78012B16D17B681B687A681268C3
:1032E000D2F8602142F40102C3F860217B681B68B8
:1032F0007A681268D2F8602122F40002C3F86021D3
:103300004FF00003FB60FB68184607F11407BD4649
:1033100080BC704780B500AFFFF76EFB44F2BC6025
:10332000C0F6000000F002F880BD00BF90B48AB083
:1033300000AF78604FF001033B627B685B6CBB6061
:103340007B689B6CFB607B68DB6C3B617B681B6D07
:103350007B617B681B6CFB617B68DB6B1B79002BE3
:1033600040F02F814FF0000387F827307BE097F87B
:10337000272040F20803C2F2000353F822301B78E2
:10338000FB7697F8272040F20803C2F2000353F8B7
:1033900022305B78BB76FB7E4FEA830307F128017E
:1033A000CB1853F8202CB87E7B6893F83A3003F0A2
:1033B0000301FB7E4FEA830307F1280C634453F8B3
:1033C000203CBC7E04F1800453F8243023F0030336
:1033D000194300F1800342F82310FB7E4FEA830378
:1033E00007F12801CB1853F8202CB87EFB7E4FEA5A
:1033F000830307F1280C634453F8203CB97E01F1A4
:10340000800153F8213043F4801100F1800342F829
:103410002310FB7E4FEA830307F12801CB1853F8F2
:10342000202CB87E7B6893F837304FEA435303F47F
:103430000011FB7E4FEA830307F1280C634453F825
:10344000203CBC7E04F1800453F8243023F40013A4
:10345000194300F1800342F8231097F8273003F155
:10346000010387F827307B685B7897F827209A421A
:10347000FFF47DAF7B6893F834304FEA036303F0C9
:103480008072FB69D3F8803223F080731A43FB69A2
:10349000C3F880227B6893F838304FEAC372FB6927
:1034A000D3F8803223F000431A43FB69C3F880222B
:1034B0007B689B781A46FB69C3F880217B68DB78C0
:1034C0001A46FB69C3F884217B681B791A46FB699D
:1034D000C3F888217B685B791A46FB69C3F88C21A5
:1034E000FB69D3F800227B6893F831304FEA43330D
:1034F000134343F40042FB69C3F80022FB69D3F88D
:1035000004227B6893F832304FEA83017B6893F89A
:10351000333019437B6893F836304FEA031319436D
:103520007B6893F839304FEAC3030B431A43FB69B6
:10353000C3F804224FF0000387F8263035E097F8EF
:1035400026307A68D31893F82A30012B27D197F8C0
:1035500026304FEA830307F12801CB1853F8202CBB
:1035600097F826304FEA830307F1280C634453F899
:10357000203CD3F884107B6893F82E304FEA8360A8
:103580007B6893F835304FEAC32318437B6893F880
:1035900030304FEA032303430B43C2F8843097F8DB
:1035A000263003F1010387F8263097F82630032BE5
:1035B000C5D97B68DB6B4FF001021A714FF0000335
:1035C0003B6207F12807BD4690BC704780B48BB0C2
:1035D00000AF78604FF001037B627B685B6CBB607F
:1035E0007B689B6CFB607B68DB6C3B617B681B6D65
:1035F0007B617B681B6CFB617B68DB6B1B79012B40
:1036000040F085804FF0000387F8233028E097F8DA
:10361000232040F20803C2F2000353F822301B7843
:10362000FB7697F8232040F20803C2F2000353F818
:1036300022305B78BB76FB7E4FEA830307F12802DA
:10364000D31853F8203CBA7E02F180024FF00001FB
:1036500043F8221097F8233003F1010387F8233051
:103660007B685B7897F823209A42D0D3FB694FF0B0
:103670000002C3F88022FB694FF00002C3F88021EA
:10368000FB694FF00002C3F88421FB694FF0000290
:10369000C3F88821FB694FF00002C3F88C21FA6956
:1036A0004FF40043C0F28003C2F80032FB694FF0D0
:1036B0000002C3F804224FF0000387F822301AE01A
:1036C00097F822307A68D31893F82A30012B0CD15E
:1036D00097F822304FEA830307F12802D31853F8F2
:1036E000203C4FF00002C3F8842097F8223003F109
:1036F000010387F8223097F82230032BE0D94FF0EE
:1037000000037B627B68DB6B4FF000021A717B6AFF
:10371000184607F12C07BD4680BC704790B488B0AE
:1037200000AF78600B46FB704FF00103FB617B68D4
:103730005B6CBB607B689B6CFB607B68DB6C3B619C
:103740007B681B6D7B617B68DB6B1B79012B4BD12D
:10375000FB78022B02D0FB78032B42D14FF0000301
:10376000FB7635E0FA7E40F20803C2F2000353F81C
:1037700022301B78BB76FA7E40F20803C2F20003C7
:1037800053F822305B787B76BB7E4FEA830307F1E8
:103790002002D31853F8182C787EFB7803F003012D
:1037A000BB7E4FEA830307F1200C634453F8183CB7
:1037B0007C7E04F1800453F8243023F00303194382
:1037C00000F1800342F82310FB7E03F10103FB7636
:1037D0007B685B78FA7E9A42C4D34FF00003FB61AA
:1037E00002E04FF00203FB61FB69184607F1200776
:1037F000BD4690BC704700BF80B485B000AF786014
:103800004FF00103FB607B681B6CBB607B68DB6B6C
:103810001B79002B0AD0BB68D3F8803243F00042FA
:10382000BB68C3F880224FF00003FB60FB681846BA
:1038300007F11407BD4680BC704700BF80B485B057
:1038400000AF78604FF00103FB607B681B6CBB60CE
:103850007B68DB6B1B79002B0AD0BB68D3F8803206
:1038600023F00042BB68C3F880224FF00003FB60E6
:10387000FB68184607F11407BD4680BC704700BFBF
:1038800080B487B000AF786039604FF001037B618E
:103890007B681B6C3B617B68DB6B1B79012B2AD13E
:1038A0003B68002B24D03B69D3F80033FB60FB68F6
:1038B0004FEAD373012B17D1FB6803F470234FEA4F
:1038C0001343DAB23B681A70FB6803F0F8734FEAEF
:1038D0001353DAB23B685A70FB689AB23B685A805D
:1038E0004FF000037B6106E04FF003037B6102E0D1
:1038F0004FF002037B617B69184607F11C07BD4648
:1039000080BC704780B485B000AF78607B681B6C6A
:10391000FB60FB68D3F800339BB2184607F114072D
:10392000BD4680BC704700BF80B485B000AF7860F2
:1039300039604FF00103FB607B681B6CBB607B68E8
:10394000DB6B1B79002B13D03B68002B0DD0BB68C1
:10395000D3F8E03003F480734FEA1323DAB23B6804
:103960001A704FF00003FB6002E04FF00203FB60AF
:10397000FB68184607F11407BD4680BC704700BFBE
:1039800080B485B000AF78604FF00103FB607B68C6
:103990001B6CBB607B68DB6B1B79002B0AD0BB68A0
:1039A000D3F8E03043F48072BB68C3F8E0204FF0F6
:1039B0000003FB60FB68184607F11407BD4680BC96
:1039C000704700BF80B485B000AF78604FF001034E
:1039D000FB607B681B6CBB607B68DB6B1B79002B1F
:1039E0000AD0BB68D3F8E03043F08072BB68C3F8FC
:1039F000E0204FF00003FB60FB68184607F1140756
:103A0000BD4680BC704700BF80B48BB000AFF8608B
:103A1000B9607A604FF001037B62FB685B6C3B61CD
:103A2000FB689B6C7B61FB68DB6CBB61FB681B6D9F
:103A3000FB61FB68DB6B1B79012B4FD17B68002B93
:103A400049D0BB68002B46D07B681B7887F82330B1
:103A50007B685B7887F8223097F82330032B36D8C1
:103A600097F82230072B32D897F82330FA68D3180A
:103A700093F82A30012B2AD197F8232097F8223087
:103A8000F9684FEAC2028A18D31803F108039B7839
:103A9000012B1CD197F823304FEA830307F128024A
:103AA000D31853F8183CD3F8802197F822304FF000
:103AB000010101FA03F31A4097F8223022FA03F3C6
:103AC000DAB2BB681A704FF000037B6206E04FF079
:103AD00002037B6202E04FF002037B627B6A1846BE
:103AE00007F12C07BD4680BC704700BF80B489B089
:103AF00000AF786039604FF00103FB617B685B6C5D
:103B0000BB607B689B6CFB607B68DB6C3B617B68AC
:103B10001B6D7B617B68DB6B1B79012B46D13B689E
:103B2000002B40D03B681B78FB763B685B78BB760C
:103B3000FB7E032B33D8BB7E072B30D8FB7E7A6805
:103B4000D31893F82A30012B29D1FA7EBB7E7968ED
:103B50004FEAC2028A18D31803F108039B78012B9D
:103B60001DD1FB7E4FEA830307F12001CB1853F8E8
:103B7000182CFB7E4FEA830307F12001CB1853F882
:103B8000183CD3F88011BB7E4FF0010000FA03F31C
:103B90000B43C2F880314FF00003FB6106E04FF0A9
:103BA0000203FB6102E04FF00203FB61FB69184670
:103BB00007F12407BD4680BC704700BF80B489B0C0
:103BC00000AF786039604FF00103FB617B685B6C8C
:103BD000BB607B689B6CFB607B68DB6C3B617B68DC
:103BE0001B6D7B617B68DB6B1B79012B46D13B68CE
:103BF000002B40D03B681B78FB763B685B78BB763C
:103C0000FB7E032B33D8BB7E072B30D8FB7E7A6834
:103C1000D31893F82A30012B29D1FA7EBB7E79681C
:103C20004FEAC2028A18D31803F108039B78012BCC
:103C30001DD1FB7E4FEA830307F12001CB1853F817
:103C4000182CFB7E4FEA830307F12001CB1853F8B1
:103C5000183CD3F89011BB7E4FF0010000FA03F33B
:103C60000B43C2F890314FF00003FB6106E04FF0C8
:103C70000203FB6102E04FF00203FB61FB6918469F
:103C800007F12407BD4680BC704700BF80B485B0F3
:103C900000AF78604FF00103FB607B681B6CBB607A
:103CA0007B68DB6B1B79002B0AD0BB68D3F804322E
:103CB00043F00802BB68C3F804224FF00003FB6026
:103CC000FB68184607F11407BD4680BC704700BF6B
:103CD00080B485B000AF78604FF00103FB607B6873
:103CE0001B6CBB607B68DB6B1B79002B0AD0BB684D
:103CF000D3F8043223F00802BB68C3F804224FF063
:103D00000003FB60FB68184607F11407BD4680BC42
:103D1000704700BF80B485B000AF786039604FF065
:103D20000103FB607B681B6CBB607B68DB6B1B79F2
:103D3000012B12D13B68002B0CD0BB68D3F8E030CC
:103D4000DBB203F00103DAB23B681A704FF00003F4
:103D5000FB6002E04FF00203FB60FB68184607F1CE
:103D60001407BD4680BC704780B485B000AF786052
:103D70004FF00103FB607B681B6CBB607B68DB6BF7
:103D80001B79002B0AD0BB68D3F8E03043F0010266
:103D9000BB68C3F8E0204FF00003FB60FB681846E7
:103DA00007F11407BD4680BC704700BF80B485B0E2
:103DB00000AF78604FF00103FB607B681B6CBB6059
:103DC0007B68DB6B1B79002B0AD0BB68D3F8E03033
:103DD00043F48032BB68C3F8E0204FF00003FB607F
:103DE000FB68184607F11407BD4680BC704700BF4A
:103DF00080B485B000AF78604FF00103FB607B6852
:103E00001B6CBB607B68DB6B1B79012B0AD1BB6829
:103E1000D3F8043243F48072BB68C3F804224FF035
:103E20000003FB60FB68184607F11407BD4680BC21
:103E3000704700BF80B485B000AF78604FF00103D9
:103E4000FB607B681B6CBB607B68DB6B1B79012BA9
:103E50000AD1BB68D3F8043243F40072BB68C3F8DC
:103E600004224FF00003FB60FB68184607F11407BB
:103E7000BD4680BC704700BF80B485B000AF78609D
:103E80000B46FB704FF00103FB607B681B6CBB6053
:103E90007B68DB6B1B79012B15D1FB78032B0FD8CB
:103EA000FB7803F00302BB68D3F8043223F003036A
:103EB0001A43BB68C3F804224FF00003FB6002E022
:103EC0004FF00203FB60FB68184607F11407BD467C
:103ED00080BC704780B485B000AF786039604FF027
:103EE0000103FB607B681B6CBB607B68DB6B1B7931
:103EF000012B13D13B68002B0DD0BB68D3F80432E3
:103F000003F080034FEAD313DAB23B681A704FF024
:103F10000003FB6002E04FF00203FB60FB68184601
:103F200007F11407BD4680BC704700BF80B487B05E
:103F300000AF78600B46FB704FF001037B617B683C
:103F40001B6C3B617B68DB6B1B79012B31D1FB78F0
:103F5000032B2BD8FB78002B08D13B69D3F8043214
:103F600023F004023B69C3F8042207E03B69D3F85D
:103F7000043243F004023B69C3F804223B69D3F8DE
:103F80000032FB60FB6823F4C043FB60FB784FEA20
:103F90004332FB68134343F40043FB603B69FA6818
:103FA000C3F800224FF000037B6102E04FF00203F0
:103FB0007B617B69184607F11C07BD4680BC7047D2
:103FC00080B485B000AF78604FF00103FB607B6880
:103FD0001B6CBB607B68DB6B1B79012B0AD1BB6858
:103FE000D3F8043243F00402BB68C3F804224FF054
:103FF0000003FB60FB68184607F11407BD4680BC50
:10400000704700BF80B485B000AF78604FF0010307
:10401000FB607B681B6CBB607B68DB6B1B79012BD7
:104020000AD1BB68D3F8043223F00402BB68C3F89A
:1040300004224FF00003FB60FB68184607F11407E9
:10404000BD4680BC704700BF80B489B000AF7860C7
:104050004FF00103FB617B685B6CBB607B689B6C12
:10406000FB607B68DB6C3B617B681B6D7B617B6805
:10407000DB6B1B79012B2AD14FF00003FB7620E08C
:10408000FB7E7A68D31893F82A30012B15D1FB7E7A
:104090004FEA830307F12001CB1853F8182CFB7E5D
:1040A0004FEA830307F12001CB1853F8183CD3F8EB
:1040B000843043F08063C2F88430FB7E03F1010357
:1040C000FB76FB7E032BDBD94FF00003FB61FB6922
:1040D000184607F12407BD4680BC704780B489B0FC
:1040E00000AF78604FF00103FB617B685B6CBB60E5
:1040F0007B689B6CFB607B68DB6C3B617B681B6D4A
:104100007B617B68DB6B1B79012B2AD14FF00003AD
:10411000FB7620E0FB7E7A68D31893F82A30012BD7
:1041200015D1FB7E4FEA830307F12001CB1853F82A
:10413000182CFB7E4FEA830307F12001CB1853F8BC
:10414000183CD3F8843023F08063C2F88430FB7EBF
:1041500003F10103FB76FB7E032BDBD94FF0000359
:10416000FB61FB69184607F12407BD4680BC704718
:1041700080B485B000AF78600B46FB704FF0010350
:10418000FB607B681B6CBB607B68DB6B1B79012B66
:1041900020D1FB78002B0BD1BB68D3F8043223F07D
:1041A0002002BB68C3F804224FF00003FB6011E05B
:1041B000FB78012B0BD1BB68D3F8043243F020020B
:1041C000BB68C3F804224FF00003FB6002E04FF02D
:1041D0000203FB60FB68184607F11407BD4680BC6C
:1041E000704700BF80B487B000AF786039604FF08F
:1041F00001037B617B681B6C3B617B68DB6B1B791C
:10420000012B42D13B68002B3CD03B681B78FB73F1
:104210003B685B78BB73FB7B7A68D31893F82A30D2
:104220007B73FA7BBB7B79684FEAC2028A18D3188A
:1042300003F108039B783B73FB7B042B1ED8BB7BED
:10424000082B1BD87B7B012B18D13B7B012B15D175
:10425000FA7BF97B3B6901F1700153F82110BB7BBC
:104260004FF0010000FA03F319433B6902F17002B9
:1042700043F822104FF000037B6106E04FF0020389
:104280007B6102E04FF002037B617B69184607F116
:104290001C07BD4680BC704780B487B000AF786013
:1042A00039604FF001037B617B681B6C3B617B686D
:1042B000DB6B1B79012B44D13B68002B3ED03B6864
:1042C0001B78FB733B685B78BB73FB7B7A68D31806
:1042D00093F82A307B73FA7BBB7B79684FEAC20282
:1042E0008A18D31803F108039B783B73FB7B042BDC
:1042F00020D8BB7B082B1DD87B7B012B1AD13B7BA5
:10430000012B17D1FA7BF97B3B6901F1700153F85E
:104310002110BB7B4FF0010000FA03F36FEA0303A7
:1043200019403B6902F1700243F822104FF000037C
:104330007B6106E04FF002037B6102E04FF0020375
:104340007B617B69184607F11C07BD4680BC70473E
:1043500080B487B000AF786039604FF001037B61B3
:104360007B681B6C3B617B68DB6B1B79012B42D14B
:104370003B68002B3CD03B681B78FB733B685B7849
:10438000BB73FB7B7A68D31893F82A307B73FA7B74
:10439000BB7B79684FEAC2028A18D31803F108037D
:1043A0009B783B73FB7B042B1ED8BB7B082B1BD855
:1043B0007B7B012B18D13B7B012B15D1FA7BF97B41
:1043C0003B6901F1600153F82110BB7B4FF0010004
:1043D00000FA03F319433B6902F1600243F822102B
:1043E0004FF000037B6106E04FF002037B6102E0C7
:1043F0004FF002037B617B69184607F11C07BD463D
:1044000080BC704780B487B000AF786039604FF0EF
:1044100001037B617B681B6C3B617B68DB6B1B79F9
:10442000012B44D13B68002B3ED03B681B78FB73CB
:104430003B685B78BB73FB7B7A68D31893F82A30B0
:104440007B73FA7BBB7B79684FEAC2028A18D31868
:1044500003F108039B783B73FB7B042B20D8BB7BC9
:10446000082B1DD87B7B012B1AD13B7B012B17D14D
:10447000FA7BF97B3B6901F1600153F82110BB7BAA
:104480004FF0010000FA03F36FEA030319403B69A0
:1044900002F1600243F822104FF000037B6106E056
:1044A0004FF002037B6102E04FF002037B617B6906
:1044B000184607F11C07BD4680BC704790B48AB00F
:1044C00000AFF860B9601346FB714FF001037B62E7
:1044D000FB685B6C3B61FB689B6C7B61FB68DB6C26
:1044E000BB61FB681B6DFB61FB68DB6B1B79012B00
:1044F00067D1BB68002B61D0BB681B7887F823307D
:10450000BB685B7887F8223097F82330FA68D318B5
:1045100093F82A3087F8213097F8232097F8223033
:10452000F9684FEAC2028A18D31803F108039B788E
:1045300087F8203097F82330042B3BD897F82230A7
:10454000082B37D897F82130012B33D197F820303A
:10455000012B2FD1FB79002B02D0FB79032B29D122
:1045600097F823304FEA830307F12802D31853F852
:10457000182C97F82200FB794FEA032303F44071CB
:1045800097F823304FEA830307F1280C634453F86C
:10459000183C97F8224004F1800453F8243023F4A7
:1045A0004073194300F1800342F823104FF00003D9
:1045B0007B6206E04FF002037B6202E04FF00203F1
:1045C0007B627B6A184607F12807BD4690BC70479E
:1045D000F8B5204F204C381B871017D07A1E23685F
:1045E000012502F001069847AF420FD02EB154F8D2
:1045F000041F02258847AF4208D060688047023513
:10460000A268261D90470834AF42F6D1134F144CD0
:10461000FCF7E2FE3B1B9F1018D07D1E216805F0C1
:10462000010601258847AF4211D02EB154F8040F7E
:1046300002258047AF420BD0626890470235A368DD
:10464000261D98470834AF42F6D1F8BDF8BDF8BD35
:10465000F8BD00BF644600086446000864460008D0
:0446600064460008A4
:104664009CBBFF7F01000000D2BBFF7F0100000064
:10467400103F00010E010000008E024800000000FF
:104684000000000000000003200000200040004063
:104694000044004000000000000000000040004012
:1046A40024000020000000000300000000000000BF
:1046B40000000100000001000001010000000100F1
:1046C40000000100000000000000000000000000E5
:1046D40000000000000000000000000000000000D6
:1046E40000000100000001000000000101000100C1
:1046F4000100020028000020004000400044004067
:0C47040000480040004C00400050004005
:0C471000000E270774460008B846000899
:0400000508000201EC
:00000001FF
