:020000040C00EE
:100000000008001001020008CB020008DB02000813
:10001000EB020008FB0200080B03000800000000D0
:100020000000000000000000000000001B030008AA
:100030002B030008000000003B0300084B030008EE
:100040005B0300086B0300087B0300088B030008B8
:100050009B030008AB030008BB030008CB030008A8
:10006000DB030008000000000000000000000000AA
:10007000EB03000800000000FB0300080B0400086D
:100080001B0400082B0400083B0400084B04000874
:100090005B0400086B0400087B0400088B04000864
:1000A0009B040008AB040008BB040008CB04000854
:1000B000DB040008EB040008FB0400080B05000843
:1000C0001B0500082B0500083B0500084B05000830
:1000D0005B0500086B0500087B0500088B05000820
:1000E0009B050008AB050008BB050008CB05000810
:1000F000DB050008EB050008FB0500080B060008FF
:100100001B060008290600083706000845060008F7
:1001100053060008610600086F0600087D06000807
:100120008B06000899060008A7060008B506000817
:10013000C3060008D1060008DF060008ED06000827
:10014000FB06000809070008170700082507000834
:1001500033070008410700084F0700085D07000843
:10016000000000000000000000000000000000008F
:100170006B07000879070008870700089507000843
:10018000A3070008B1070008BF070008CD07000853
:10019000DB070008E9070008F70700080508000862
:1001A00013080008210800082F0800083D0800086F
:1001B0004B0800085908000867080008750800087F
:1001C00083080008910800089F080008AD0800088F
:1001D000BB080008C9080008D70800080000000094
:1001E000E5080008F3080008010900080F090008E5
:1001F0001D090008000000002B0900080000000095
:10020000DFF80CD0034880470348804700F017B858
:1002100000080010F50A0008C5020008002A00F0D6
:100220000D804FEA920203680B60013A00F00680ED
:1002300000F1040001F10401FFF7F5BF7047144815
:100240001449154AFFF7EAFF14481549154AFFF704
:10025000E5FF15481549002900F00C804FEA91018F
:100260004FF000020260013900F0048000F1040048
:10027000FFF7F8BF0E480F4908600F488047DFF8C6
:100280003CD04FF000004FF00001DFF834F00000E8
:100290007025000C00000020140000008425000CD4
:1002A0000008001000000000140000200C000000F6
:1002B0000000000808ED00E04924000800080010D4
:1002C000A511000800BF7047FEE7DFF8700600B513
:1002D00081B0804701B000BDFEE7DFF8640600B5DD
:1002E00081B0804701B000BDFEE7DFF8580600B5D9
:1002F00081B0804701B000BDFEE7DFF84C0600B5D5
:1003000081B0804701B000BDFEE7DFF8400600B5D0
:1003100081B0804701B000BDFEE7DFF8340600B5CC
:1003200081B0804701B000BDFEE7DFF8280600B5C8
:1003300081B0804701B000BDFEE7DFF81C0600B5C4
:1003400081B0804701B000BDFEE7DFF8100600B5C0
:1003500081B0804701B000BDFEE7DFF8040600B5BC
:1003600081B0804701B000BDFEE7DFF8F80500B5B9
:1003700081B0804701B000BDFEE7DFF8EC0500B5B5
:1003800081B0804701B000BDFEE7DFF8E00500B5B1
:1003900081B0804701B000BDFEE7DFF8D40500B5AD
:1003A00081B0804701B000BDFEE7DFF8C80500B5A9
:1003B00081B0804701B000BDFEE7DFF8BC0500B5A5
:1003C00081B0804701B000BDFEE7DFF8B00500B5A1
:1003D00081B0804701B000BDFEE7DFF8A40500B59D
:1003E00081B0804701B000BDFEE7DFF8980500B599
:1003F00081B0804701B000BDFEE7DFF88C0500B595
:1004000081B0804701B000BDFEE7DFF8800500B590
:1004100081B0804701B000BDFEE7DFF8740500B58C
:1004200081B0804701B000BDFEE7DFF8680500B588
:1004300081B0804701B000BDFEE7DFF85C0500B584
:1004400081B0804701B000BDFEE7DFF8500500B580
:1004500081B0804701B000BDFEE7DFF8440500B57C
:1004600081B0804701B000BDFEE7DFF8380500B578
:1004700081B0804701B000BDFEE7DFF82C0500B574
:1004800081B0804701B000BDFEE7DFF8200500B570
:1004900081B0804701B000BDFEE7DFF8140500B56C
:1004A00081B0804701B000BDFEE7DFF8080500B568
:1004B00081B0804701B000BDFEE7DFF8FC0400B565
:1004C00081B0804701B000BDFEE7DFF8F00400B561
:1004D00081B0804701B000BDFEE7DFF8E40400B55D
:1004E00081B0804701B000BDFEE7DFF8D80400B559
:1004F00081B0804701B000BDFEE7DFF8CC0400B555
:1005000081B0804701B000BDFEE7DFF8C00400B550
:1005100081B0804701B000BDFEE7DFF8B40400B54C
:1005200081B0804701B000BDFEE7DFF8A80400B548
:1005300081B0804701B000BDFEE7DFF89C0400B544
:1005400081B0804701B000BDFEE7DFF8900400B540
:1005500081B0804701B000BDFEE7DFF8840400B53C
:1005600081B0804701B000BDFEE7DFF8780400B538
:1005700081B0804701B000BDFEE7DFF86C0400B534
:1005800081B0804701B000BDFEE7DFF8600400B530
:1005900081B0804701B000BDFEE7DFF8540400B52C
:1005A00081B0804701B000BDFEE7DFF8480400B528
:1005B00081B0804701B000BDFEE7DFF83C0400B524
:1005C00081B0804701B000BDFEE7DFF8300400B520
:1005D00081B0804701B000BDFEE7DFF8240400B51C
:1005E00081B0804701B000BDFEE7DFF8180400B518
:1005F00081B0804701B000BDFEE7DFF80C0400B514
:1006000081B0804701B000BDFEE7DFF8000400B50F
:1006100081B0804701B000BDFEE7FD4800B581B064
:10062000804701B000BDFEE7FA4800B581B08047C1
:1006300001B000BDFEE7F84800B581B0804701B0C9
:1006400000BDFEE7F54800B581B0804701B000BDB0
:10065000FEE7F34800B581B0804701B000BDFEE77A
:10066000F04800B581B0804701B000BDFEE7EE481C
:1006700000B581B0804701B000BDFEE7EB4800B592
:1006800081B0804701B000BDFEE7E94800B581B008
:10069000804701B000BDFEE7E64800B581B0804765
:1006A00001B000BDFEE7E44800B581B0804701B06D
:1006B00000BDFEE7E14800B581B0804701B000BD54
:1006C000FEE7DF4800B581B0804701B000BDFEE71E
:1006D000DC4800B581B0804701B000BDFEE7DA48D4
:1006E00000B581B0804701B000BDFEE7D74800B536
:1006F00081B0804701B000BDFEE7D54800B581B0AC
:10070000804701B000BDFEE7D24800B581B0804708
:1007100001B000BDFEE7D04800B581B0804701B010
:1007200000BDFEE7CD4800B581B0804701B000BDF7
:10073000FEE7CB4800B581B0804701B000BDFEE7C1
:10074000C84800B581B0804701B000BDFEE7C6488B
:1007500000B581B0804701B000BDFEE7C34800B5D9
:1007600081B0804701B000BDFEE7C14800B581B04F
:10077000804701B000BDFEE7BE4800B581B08047AC
:1007800001B000BDFEE7BC4800B581B0804701B0B4
:1007900000BDFEE7B94800B581B0804701B000BD9B
:1007A000FEE7B74800B581B0804701B000BDFEE765
:1007B000B44800B581B0804701B000BDFEE7B24843
:1007C00000B581B0804701B000BDFEE7AF4800B57D
:1007D00081B0804701B000BDFEE7AD4800B581B0F3
:1007E000804701B000BDFEE7AA4800B581B0804750
:1007F00001B000BDFEE7A84800B581B0804701B058
:1008000000BDFEE7A54800B581B0804701B000BD3E
:10081000FEE7A34800B581B0804701B000BDFEE708
:10082000A04800B581B0804701B000BDFEE79E48FA
:1008300000B581B0804701B000BDFEE79B4800B520
:1008400081B0804701B000BDFEE7994800B581B096
:10085000804701B000BDFEE7964800B581B08047F3
:1008600001B000BDFEE7944800B581B0804701B0FB
:1008700000BDFEE7914800B581B0804701B000BDE2
:10088000FEE78F4800B581B0804701B000BDFEE7AC
:100890008C4800B581B0804701B000BDFEE78A48B2
:1008A00000B581B0804701B000BDFEE7874800B5C4
:1008B00081B0804701B000BDFEE7854800B581B03A
:1008C000804701B000BDFEE7824800B581B0804797
:1008D00001B000BDFEE7804800B581B0804701B09F
:1008E00000BDFEE77D4800B581B0804701B000BD86
:1008F000FEE77B4800B581B0804701B000BDFEE750
:10090000784800B581B0804701B000BDFEE7764869
:1009100000B581B0804701B000BDFEE7734800B567
:1009200081B0804701B000BDFEE7714800B581B0DD
:10093000804701B000BD4FF001007047C9020008B8
:10094000D9020008E9020008F902000809030008BA
:1009500019030008290300083903000849030008A7
:100960005903000869030008790300088903000897
:1009700055120008A9030008B9030008C9030008BC
:10098000D9030008E9030008F90300080904000876
:100990001904000829040008390400084904000863
:1009A0005904000869040008790400088904000853
:1009B00099040008A9040008B9040008C904000843
:1009C000D9040008E9040008F90400080905000832
:1009D000190500082905000839050008490500081F
:1009E000590500086905000879050008890500080F
:1009F00099050008A9050008B9050008C9050008FF
:100A0000D9050008E9050008F905000809060008ED
:100A100019060008270600083506000843060008E6
:100A2000510600085F0600086D0600087B060008F6
:100A30008906000897060008A5060008B306000806
:100A4000C1060008CF060008DD060008EB06000816
:100A5000F906000807070008150700082307000823
:100A6000310700083F0700084D0700085B07000832
:100A70006907000877070008850700089307000842
:100A8000A1070008AF070008BD070008CB07000852
:100A9000D9070008E7070008F50700080308000861
:100AA000110800081F0800082D0800083B0800086E
:100AB000490800085708000865080008730800087E
:100AC000810800088F0800089D080008AB0800088E
:100AD000B9080008C7080008D5080008E30800089E
:100AE000F1080008FF0800080D0900081B090008AC
:100AF0002909000880B582B000AF4FF46D43CEF2F3
:100B000000034FF46D42CEF20002D2F8882042F486
:100B10007002C3F888204FF46D43CEF200034FF407
:100B20006D42CEF20002526922F008025A614FF47F
:100B30000043C5F200034FF40042C5F200025268C0
:100B400022F001025A604FF48053C5F6000303F50A
:100B5000805303F114031B687B607B6823F00F0351
:100B60007B607B6843F003037B604FF48053C5F6E2
:100B700000037A6803F5805303F114031A6000F050
:100B8000ABF800F005F807F10807BD4680BD00BFCF
:100B900080B485B000AF4FF48C43C5F20003DB682E
:100BA000B3F5803F40F0898044F21073C5F2000332
:100BB0001B6803F00403002B00F0888044F21073DC
:100BC000C5F200039B6803F070634FEA136303F1FF
:100BD0000103FB6044F21073C5F200039B6803F449
:100BE000FE434FEA132303F10103BB6044F2107389
:100BF000C5F200039B6803F4FE034FEA134303F1BD
:100C000001037B6044F21073C5F20003DB6803F05C
:100C10000103002B28D04FF45853C0F26E13FA682A
:100C2000B3FBF2F3BA6802FB03F33B603A687B68FC
:100C3000B2FBF3F240F20003C2F200031A6040F28A
:100C40000003C2F200031A684FF48C43C5F200039C
:100C5000DB68DBB203F10103B2FBF3F240F2000305
:100C6000C2F200031A6031E04FF4D853C0F2B70368
:100C7000FA68B3FBF2F3BA6802FB03F33B603A682D
:100C80007B68B2FBF3F240F20003C2F200031A6089
:100C900040F20003C2F200031A684FF48C43C5F21D
:100CA0000003DB68DBB203F10103B2FBF3F240F2B5
:100CB0000003C2F200031A6008E040F20003C2F22F
:100CC00000034FF45852C0F26E121A6007F1140775
:100CD000BD4680BC704700BF80B582B000AFFFF753
:100CE0002AFE0346002B00F0558244F21073C5F231
:100CF00000035A684FF00203C0F201031340002BB7
:100D00000DD044F21073C5F2000344F21072C5F224
:100D10000002526822F4803222F002025A604FF43C
:100D20008E43C5F200035B6803F03003002B72D0E2
:100D30004FF48E43C5F200034FF48E42C5F2000219
:100D4000526822F0F0025A604FF48E43C5F200035D
:100D50004FF48E42C5F20002526842F400325A60EB
:100D600044F21073C5F2000344F21072C5F200029F
:100D7000D26822F00102DA6044F21073C5F2000377
:100D800044F21072C5F20002526822F400325A6036
:100D90004EF21003CEF2000344F6A332C0F24C022E
:100DA0005A604EF21003CEF200034FF000029A6038
:100DB0004EF21003CEF200034FF005021A6044F227
:100DC0001073C5F200031B6803F46073B3F5607F12
:100DD00008D04EF21003CEF200039A6840F2F313EB
:100DE0009A42ECD84EF21003CEF200034EF21002FB
:100DF000CEF20002126822F001021A6044F210736F
:100E0000C5F200031B6803F46073B3F5607F02D082
:100E10004FF00003C0E144F21073C5F200031B68F9
:100E200003F00403002B40F0B5814FF48C43C5F26E
:100E30000003DB6803F48033002B0BD04FF48C43AA
:100E4000C5F200034FF48C42C5F20002D26822F4CE
:100E50008032DA604FF46053C1F69C437B607A685D
:100E600049F68173C1F25E63A3FB02134FEA535349
:100E700003F1FF333B6044F21073C5F2000344F208
:100E80001072C5F20002526842F001025A6044F248
:100E90001073C5F2000344F21072C5F200025268EA
:100EA00042F010025A6044F21072C5F200023B6830
:100EB0004FEA034144F60173C0F200130B43936001
:100EC00044F21073C5F2000344F21072C5F200023E
:100ED000526842F040025A6044F21073C5F20003B7
:100EE00044F21072C5F20002526822F010025A60F9
:100EF00044F21073C5F2000344F21072C5F200020E
:100F0000526842F480225A604EF21003CEF200037F
:100F100044F6A332C0F24C025A604EF21003CEF2F5
:100F200000034FF000029A604EF21003CEF200036D
:100F30004FF005021A6000BF44F21073C5F20003BF
:100F40001B6803F00403002B08D14EF21003CEF20D
:100F500000039A6840F2F3139A42EDD84EF2100360
:100F6000CEF200034EF21002CEF20002126822F01E
:100F700001021A6044F21073C5F200031B6803F00B
:100F80000403002B4ED044F21073C5F2000344F268
:100F90001072C5F20002526822F001025A604FF44A
:100FA0008C43C5F200034FF000021A614FF48C43EA
:100FB000C5F200034FF000025A614FF48C43C5F2B2
:100FC00000034FF000021A624FF48C43C5F2000395
:100FD0004FF48C42C5F20002D26842F48032DA60EB
:100FE00044F21073C5F2000344F21072C5F200021D
:100FF000526822F040025A604EF21003CEF2000313
:1010000040F245525A604EF21003CEF200034FF008
:1010100000029A604EF21003CEF200034FF0050278
:101020001A6002E04FF00003B6E04EF21003CEF279
:1010300000039B68632BF8D84EF21003CEF2000336
:101040004EF21002CEF20002126822F001021A6083
:101050004FF46053C1F69C437B607B684FEA1322D8
:1010600045F2C743C0F21E13A3FB02134FEA9323BA
:1010700003F1FF333B6044F21072C5F200023B689B
:101080004FEA034144F60173C0F200130B4393602F
:101090004EF21003CEF2000340F61B425A604EF2AD
:1010A0001003CEF200034FF000029A604EF21003DC
:1010B000CEF200034FF005021A6000BF4EF210039B
:1010C000CEF200039B68632BF8D84EF21003CEF2E9
:1010D00000034EF21002CEF20002126822F001026A
:1010E0001A604FF46053C1F69C437B607B684FEA03
:1010F000D3124EF22F33C0F2BE03A3FB02134FEA0A
:10110000D32303F1FF333B6044F21072C5F20002B7
:101110003B684FEA034144F60173C0F200130B43EE
:1011200093604EF21003CEF2000341F223325A6074
:101130004EF21003CEF200034FF000029A604EF21E
:101140001003CEF200034FF005021A6000BF4EF20A
:101150001003CEF200039B68632BF8D84EF2100305
:10116000CEF200034EF21002CEF20002126822F01C
:1011700001021A6044F21073C5F2000344F60172D2
:10118000C0F203129A6044F26013C5F200034FF0FC
:101190000502DA604FF00103184607F10807BD4663
:1011A00080BD00BF80B500AF01F0ECF842F2F04323
:1011B000C0F600035A6842F2F043C0F600035B78C1
:1011C0004FF4803101FA03F3536000F023F842F248
:1011D000F843C0F600035A6842F2F843C0F6000331
:1011E0005B784FF0010101FA03F3536000F012F84D
:1011F00042F2F043C0F600035A6842F2F043C0F6F0
:1012000000035B784FF0010101FA03F3536000F033
:1012100001F8CBE780B483B000AF4FF000037B60F0
:101220000EE04FF000033B6003E03B6803F1010375
:101230003B603B68632BF8D97B6803F101037B605B
:101240007A6842F20F739A42EBD907F10C07BD4658
:1012500080BC704780B582B000AF42F25C53C0F6EC
:1012600000031A6842F25C53C0F600031B7903F1D5
:10127000040352F8233003F080034FEAD3137B605A
:101280007B68002B16D042F2F843C0F600035A6880
:1012900042F2F843C0F600035B784FF4803101FA64
:1012A00003F3536042F25C53C0F6000393E8070077
:1012B00001F026F807F10807BD4680BD80B485B06F
:1012C00000AFF860B9607A604FF0FF33184607F15D
:1012D0001407BD4680BC704780B485B000AFF8608D
:1012E000B9607A604FF0FF33184607F11407BD4626
:1012F00080BC704780B485B000AFF860B9607A6098
:101300004FF00003184607F11407BD4680BC704734
:1013100080B485B000AFF860B9607A604FF0FF33F9
:10132000184607F11407BD4680BC704780B400AF73
:101330004FF0FF331846BD4680BC704780B483B081
:1013400000AF786039603B68002B02D04FF0FF336C
:1013500001E06FF00103184607F10C07BD4680BCA1
:10136000704700BF80B483B000AF786039607A689E
:101370003B689A4202D14FF0FF3301E06FF0010366
:10138000184607F10C07BD4680BC704780B483B097
:1013900000AF78604FF0FF33184607F10C07BD46E9
:1013A00080BC704780B487B000AF78604FF6E073C0
:1013B000C0F200037B6140F21803C2F200031B6815
:1013C000002B14D140F21803C2F2000340F22002B5
:1013D000C2F200021A6040F21803C2F200031A6857
:1013E0007B69D21840F21C03C2F200031A6040F27B
:1013F0001803C2F200031B683B6140F21803C2F2FB
:1014000000031B681A467B68D31803F1070323F017
:101410000703FB6040F21C03C2F200031B68FA687A
:101420009A4202D34FF0000306E040F21803C2F2E2
:101430000003FA681A603B69184607F11C07BD46AD
:1014400080BC704780B483B000AF78604FF0FF334A
:10145000184607F10C07BD4680BC704780B483B0C6
:1014600000AF78604FF0FF33184607F10C07BD4618
:1014700080BC704780B483B000AF786039604FF0B3
:10148000FF33184607F10C07BD4680BC704700BF0C
:1014900080B400AF4FF0FF331846BD4680BC7047A4
:1014A00080B400AF4FF0FF331846BD4680BC704794
:1014B00080B483B000AF7860FEE700BF80B400AFB7
:1014C000BD4680BC704700BF80B483B000AF786079
:1014D0004FF0FF33184607F10C07BD4680BC70473C
:1014E00080B487B000AF78604FF000037B614FF0AD
:1014F00000033B614FF48843C5F20003FB607B6847
:101500004FEA13737B61FB6803F1100319467A6994
:1015100013464FEA43039B184FEA8303CB183B6102
:101520007B6823F070423B691A6007F11C07BD46D7
:1015300080BC704780B487B000AF78604FF0000384
:101540007B614FF000033B614FF48843C5F2000319
:10155000FB607B684FEA13737B61FB6803F1140344
:1015600019467A6913464FEA43039B184FEA8303EF
:10157000CB183B617B6823F070423B691A6007F12E
:101580001C07BD4680BC704780B483B000AF4FF4E9
:101590008843C5F200037B604FF00003FB707B685B
:1015A0001B68FB70FB78184607F10C07BD4680BC32
:1015B000704700BF80B489B000AF78604FF00F0370
:1015C000FB614FF00003BB614FF000037B614FF004
:1015D00000033B614FF48843C5F20003FB607B6866
:1015E0004FEA1373BB61FB6803F10C031946BA6938
:1015F00013464FEA43039B184FEA8303CB187B61E2
:101600007B691A687B68134023F070433B613B6938
:10161000002B03D04FF00103FB6102E04FF0000309
:10162000FB61FB69184607F12407BD4680BC704783
:1016300080B483B000AF4FF48843C5F200037B60F1
:101640007B689B6843F001027B689A6007F10C0796
:10165000BD4680BC704700BF80B400AF4FF46D43FF
:10166000CEF20003DB6803F4E0634FEA132318466D
:10167000BD4680BC704700BF80B483B000AF034656
:10168000FB714FF46143CEF2000397F907204FEA54
:101690005212F97901F01F014FF0010000FA01F137
:1016A00043F8221007F10C07BD4680BC704700BF0D
:1016B00080B483B000AF03463960FB7197F90730FF
:1016C000002B10DA4FF46D43CEF20003FA7902F0EA
:1016D0000F02A2F104013A68D2B24FEA8202D2B2FA
:1016E0005B181A760DE04FF46143CEF2000397F9D0
:1016F00007103A68D2B24FEA8202D2B25B1883F87E
:10170000002307F10C07BD4680BC704780B489B048
:1017100000AFF860B9607A60FB6803F00703FB6113
:10172000FB69C3F10703062B28BF0623BB61FB69D6
:1017300003F10603062B03D9FB6903F1FF3301E034
:101740004FF000037B61BB694FF0010202FA03F323
:1017500003F1FF331A46BB681A407B6902FA03F2B1
:101760007B694FF0010101FA03F303F1FF331946DE
:101770007B680B401343184607F12407BD4680BC25
:10178000704700BF80B582B000AF78607B681B787F
:10179000DBB25BB21846FFF76FFF07F10807BD46E3
:1017A00080BD00BF80B582B000AF4FF000037B600A
:1017B0000DE040F20403C2F200037A6853F82230CD
:1017C000184600F00BF87B6803F101037B607B682F
:1017D000002BEED007F10807BD4680BD90B583B061
:1017E00000AF78607B681B78DCB2FFF735FF0146FD
:1017F0007B685B781A467B689B78084611461A46D8
:10180000FFF784FF034662B210461946FFF750FF08
:101810007B68DB78012B02D17868FFF7B3FF07F113
:101820000C07BD4690BD00BF80B400AF42F2F0434C
:10183000C0F600035B684FF040025A6042F2F0438A
:10184000C0F600035A6842F2F043C0F600035B683A
:101850001B6C23F0E063136442F2F043C0F6000314
:101860005A6842F2F043C0F600035B681B6C43F019
:101870008063136442F2F043C0F600035A6842F2F8
:10188000F043C0F600035B685B69536142F2F843C2
:10189000C0F600035B684FF400725A6042F2F843EE
:1018A000C0F600035A6842F2F843C0F600035B68D2
:1018B0005B6C23F07003536442F2F843C0F60003FC
:1018C0005A6842F2F843C0F600035B685B6C43F071
:1018D0004003536442F2F843C0F600035A6842F2F0
:1018E000F843C0F600035B689B699361BD4680BC0A
:1018F000704700BF80B485B000AF78600B46FB70C6
:101900007B685B78FB73FB7B032B23D87B685B686E
:101910007A6852681169FA7B4FEAC20202F1030247
:101920004FF01F0000FA02F26FEA02020A401A6149
:101930007B685B687A6852681169FA7802F01F0068
:10194000FA7B4FEAC20202F1030200FA02F20A43F2
:101950001A6188E0FB7B032B2AD9FB7B072B27D856
:10196000FB7BA3F10403FB737B685B687A685268B6
:101970005169FA7B4FEAC20202F103024FF01F00E5
:1019800000FA02F26FEA02020A405A617B685B6861
:101990007A6852685169FA7802F01F00FA7B4FEAC0
:1019A000C20202F1030200FA02F20A435A615AE04B
:1019B000FB7B072B2AD9FB7B0B2B27D8FB7BA3F1C7
:1019C0000803FB737B685B687A6852689169FA7BED
:1019D0004FEAC20202F103024FF01F0000FA02F2C6
:1019E0006FEA02020A409A617B685B687A68526813
:1019F0009169FA7802F01F00FA7B4FEAC20202F105
:101A0000030200FA02F20A439A612CE0FB7B0B2BE3
:101A100029D9FB7B0F2B26D8FB7BA3F10C03FB738F
:101A20007B685B687A685268D169FA7B4FEAC202C8
:101A300002F103024FF01F0000FA02F26FEA020205
:101A40000A40DA617B685B687A685268D169FA7823
:101A500002F01F00FA7B4FEAC20202F1030200FA11
:101A600002F20A43DA6107F11407BD4680BC7047F1
:101A700080B485B000AF78600B46FB707B685B7804
:101A8000FB73FB7B032B23D87B685B687A68526807
:101A90001169FA7B4FEAC20202F103024FF01F0004
:101AA00000FA02F26FEA02020A401A617B685B6880
:101AB0007A6852681169FA7802F01F00FA7B4FEADF
:101AC000C20202F1030200FA02F20A431A6188E03C
:101AD000FB7B032B2AD9FB7B072B27D8FB7BA3F1AE
:101AE0000403FB737B685B687A6852685169FA7B10
:101AF0004FEAC20202F103024FF01F0000FA02F2A5
:101B00006FEA02020A405A617B685B687A68526831
:101B10005169FA7802F01F00FA7B4FEAC20202F123
:101B2000030200FA02F20A435A615AE0FB7B072BD8
:101B30002AD9FB7B0B2B27D8FB7BA3F10803FB7374
:101B40007B685B687A6852689169FA7B4FEAC202E7
:101B500002F103024FF01F0000FA02F26FEA0202E4
:101B60000A409A617B685B687A6852689169FA7882
:101B700002F01F00FA7B4FEAC20202F1030200FAF0
:101B800002F20A439A612CE0FB7B0B2B29D9FB7BE9
:101B90000F2B26D8FB7BA3F10C03FB737B685B68E0
:101BA0007A685268D169FA7B4FEAC20202F10302F5
:101BB0004FF01F0000FA02F26FEA02020A40DA61F7
:101BC0007B685B687A685268D169FA7802F01F0016
:101BD000FA7B4FEAC20202F1030200FA02F20A4360
:101BE000DA6107F11407BD4680BC704780B584B048
:101BF00000AF78607B685B78FB607B68DB69012BFA
:101C000007D17B681B6C7A685168FA6801FA02F2A6
:101C10005A607868F96800F025F87B68DB68012B6A
:101C20000BD17B681B6C7A68126C516FFA684FF0AD
:101C3000020000FA02F20A435A677B68DB69012B53
:101C400003D17868F96800F05DF87B68DB69002BE8
:101C500003D17868F96800F0C3F807F11007BD46B2
:101C600080BD00BF80B483B000AF786039607B680E
:101C7000DB69012B41D13B68072B1FD87B685B6C6C
:101C8000002B3AD07B685B6C7A68526C11687A687A
:101C9000926A6FEA02020A401A607B685B6C7A689B
:101CA000526C11687A6890687A68D26A00FA02F019
:101CB0007A68926A02400A431A601EE07B689B6C55
:101CC000002B1AD07B689B6C7A68926C11687A68DA
:101CD000126B6FEA02020A401A607B689B6C7A689A
:101CE000926C11687A6890687A68526B00FA02F018
:101CF0007A68126B02400A431A6007F10C07BD466E
:101D000080BC704780B483B000AF786039603B68B6
:101D1000032B10D87B681B6C7A68126C11697A6887
:101D2000506A3A684FEAC20202F1030200FA02F274
:101D30000A431A614FE03B68032B17D93B68072B16
:101D400014D83B68A3F104033B607B681B6C7A6882
:101D5000126C51697A68506A3A684FEAC20202F11D
:101D6000030200FA02F20A435A6134E03B68072B8F
:101D700017D93B680B2B14D83B68A3F108033B60D1
:101D80007B681B6C7A68126C91697A68506A3A6851
:101D90004FEAC20202F1030200FA02F20A439A6118
:101DA00019E03B680B2B16D93B680F2B13D83B6807
:101DB000A3F10C033B607B681B6C7A68126CD169E1
:101DC0007A68506A3A684FEAC20202F1030200FAE6
:101DD00002F20A43DA6107F10C07BD4680BC704786
:101DE00080B483B000AF786039603B68032B10D8B3
:101DF0007B681B6C7A68126C11697A6850693A6862
:101E00004FEAC20202F1030200FA02F20A431A6127
:101E10004FE03B68032B17D93B68072B14D83B686E
:101E2000A3F104033B607B681B6C7A68126C5169F8
:101E30007A6850693A684FEAC20202F1030200FA76
:101E400002F20A435A6134E03B68072B17D93B681A
:101E50000B2B14D83B68A3F108033B607B681B6C19
:101E60007A68126C91697A6850693A684FEAC202DE
:101E700002F1030200FA02F20A439A6119E03B6898
:101E80000B2B16D93B680F2B13D83B68A3F10C031F
:101E90003B607B681B6C7A68126CD1697A68506908
:101EA0003A684FEAC20202F1030200FA02F20A4360
:101EB000DA6107F10C07BD4680BC704780B582B07F
:101EC00000AF4FF000037B600DE040F20803C2F268
:101ED00000037A6853F822301846FFF787FE7B68C4
:101EE00003F101037B607B68002BEED007F108074C
:101EF000BD4680BD84B080B400AF07F1040C8CE80F
:101F00000F007B6C5A6A7B7922FA03F303F001031A
:101F10001846BD4680BC04B0704700BF84B080B492
:101F200000AF07F1040C8CE80F007B6C7A794FF05E
:101F3000010101FA02F25A60BD4680BC04B070474C
:101F400084B080B400AF07F1040C8CE80F007B6C08
:101F50007A794FF4803101FA02F25A60BD4680BCB2
:101F600004B0704784B080B400AF07F1040C8CE873
:101F70000F003B6D002B07D07B6C7A794FF001018D
:101F800001FA02F25A6006E07B6C7A794FF48031F4
:101F900001FA02F25A60BD4680BC04B0704700BF2F
:101FA00084B080B400AF07F1040C8CE80F007B6CA8
:101FB0007A794FF0011101FA02F25A60BD4680BCF5
:101FC00004B0704780B483B000AF78600B46FB70FC
:101FD00007F10C07BD4680BC704700BF80B483B0DA
:101FE00000AF78600B46FB7007F10C07BD4680BC64
:101FF000704700BF80B582B000AF4FF000037B6038
:102000000DE040F20C03C2F200037A6853F822306C
:10201000184600F00BF87B6803F101037B607B68D6
:10202000002BEED007F10807BD4680BD90B583B008
:1020300000AF78607B681A684FF48043C4F20403F1
:102040009A420AD14FF48030FFF7B4FA0346012BCD
:1020500003D14FF48030FFF76DFA7B681B687A6814
:102060005268796809687868406800F1080051F89A
:102070002000796889684FEA011101F0300479681D
:10208000C9684FEA810101F004012143014302F1D3
:10209000080243F8221007F10C07BD4690BD00BFAF
:1020A00080B485B000AF786039604FF00003FB600A
:1020B0007B681B68BB603B68032B1AD8BB68002B8E
:1020C00017D07B685A683B6803F003017B68586847
:1020D000BB6800F1080053F8203023F003031943D4
:1020E000BB6802F1080243F822104FF00103FB60C5
:1020F00002E04FF00F03FB60FB68184607F114077E
:10210000BD4680BC704700BF90B486B000AF3C466F
:1021100084E80F003B687A6802F1080253F8223025
:1021200003F008034FEAD3037B617B69184607F18C
:102130001807BD4690BC704780B483B000AF78608C
:102140007B68002B11D07B681B687A6852687968BD
:1021500009687868406800F1080051F8201041F0E3
:10216000040102F1080243F8221007F10C07BD46F2
:1021700080BC704780B483B000AF78607B68002B70
:1021800011D07B681B687A6852687968096878683A
:10219000406800F1080051F8201021F0040102F11C
:1021A000080243F8221007F10C07BD4680BC7047B7
:1021B00090B482B000AF78600B46FB707B68002B58
:1021C00017D07B681B687A685268F9784FEA01116A
:1021D00001F03000796809687C68646804F10804DB
:1021E00051F8241021F03001014302F1080243F8B4
:1021F000221007F10807BD4690BC704780B584B037
:1022000000AF78604FF00003FB607B681A684FF402
:102210008043C4F204039A420AD14FF48030FFF79E
:10222000C9F90346012B03D14FF48030FFF782F93F
:102230007B685B794FEA430303F00203FA681343B8
:10224000FB607B689B794FEA830303F00403FA6821
:102250001343FB607B68DB794FEAC30303F0080399
:10226000FA681343FB607B681B7A4FEA032303F48D
:102270004073FA681343FB607B685B7A4FEA832301
:1022800003F48063FA681343FB607B689B7A4FEA30
:10229000C32303F40063FA681343FB607B681B6885
:1022A0007A681279796809687868007900F1040021
:1022B00051F82000F968014302F1040243F82210AA
:1022C00007F11007BD4680BD80B582B000AF4FF06A
:1022D00000037B600DE040F21003C2F200037A6855
:1022E00053F822301846FFF789FF7B6803F101039A
:1022F0007B607B68002BEED007F10807BD4680BDF0
:1023000080B485B000AF07F1040383E807007B6861
:102310003A7A7968387A00F1040051F8201021F0F7
:10232000800102F1040243F8221007F11407BD46B0
:1023300080BC704780B485B000AF78607B6803F0E4
:102340000703FB604FF46D43CEF20003DB68BB6014
:10235000BA684FF6FF031340BB60FB684FEA0322E5
:10236000BB68134343F0BF6343F40033BB604FF4D7
:102370006D43CEF20003BA68DA6007F11407BD4678
:1023800080BC704780B500AF4FF00100FFF7D2FF6F
:1023900000F054F8FFF798FFFFF72CFEFFF744FA20
:1023A000FFF78CFDFFF7FEF900F002F880BD00BFDB
:1023B00080B400AF4FF49043C5F200034FF4904255
:1023C000C5F20002126822F4405242F480521A60B0
:1023D0004FF49043C5F200034FF49042C5F200025F
:1023E000D26942F00102DA614FF49043C5F2000372
:1023F0004FF49042C5F20002D26922F0700242F01E
:102400003002DA614FF40143C4F602034FF4014293
:10241000C4F60202526942F400025A614FF40343C7
:10242000C4F602034FF40342C4F60202926942F476
:1024300000429A61BD4680BC704700BF80B400AFC7
:10244000BD4680BC704700BFF8B5204F204C381BFC
:10245000871017D07A1E2368012502F001069847DD
:10246000AF420FD02EB154F8041F02258847AF4267
:1024700008D0606880470235A268261D904708345E
:10248000AF42F6D1134F144CFFF718F83B1B9F10C7
:1024900018D07D1E216805F0010601258847AF424E
:1024A00011D02EB154F8040F02258047AF420BD053
:1024B000626890470235A368261D98470834AF42EA
:1024C000F6D1F8BDF8BDF8BDF8BD00BFDC240008AA
:0C24D000DC240008DC240008DC240008E8
:1024DC0024DDFF7F010000005ADDFF7F01000000BA
:1024EC00043F0001010600000081024803090000BE
:1024FC0000830248030600000000000004000000F6
:10250C0000000000000000000000000000000000BF
:10251C0000000000000000000000000000000007A8
:10252C001800000000000000000000000000000087
:10253C0000000000008302484083024800000000B5
:10254C0000480050030000000100000000000000E3
:0C255C00004800500301010100000000D5
:10257000000E2707EC240008002500084C25000861
:042580005C250008CE
:0400000508000201EC
:00000001FF
