:020000040C00EE
:100000000008001001020008CB020008DB02000813
:10001000EB020008FB0200080B03000800000000D0
:100020000000000000000000000000001B030008AA
:100030002B030008000000003B0300084B030008EE
:100040005B0300086B0300087B0300088B030008B8
:100050009B030008AB030008BB030008CB030008A8
:10006000DB030008000000000000000000000000AA
:10007000EB03000800000000FB0300080B0400086D
:100080001B0400082B0400083B0400084B04000874
:100090005B0400086B0400087B0400088B04000864
:1000A0009B040008AB040008BB040008CB04000854
:1000B000DB040008EB040008FB0400080B05000843
:1000C0001B0500082B0500083B0500084B05000830
:1000D0005B0500086B0500087B0500088B05000820
:1000E0009B050008AB050008BB050008CB05000810
:1000F000DB050008EB050008FB0500080B060008FF
:100100001B060008290600083706000845060008F7
:1001100053060008610600086F0600087D06000807
:100120008B06000899060008A7060008B506000817
:10013000C3060008D1060008DF060008ED06000827
:10014000FB06000809070008170700082507000834
:1001500033070008410700084F0700085D07000843
:10016000000000000000000000000000000000008F
:100170006B07000879070008870700089507000843
:10018000A3070008B1070008BF070008CD07000853
:10019000DB070008E9070008F70700080508000862
:1001A00013080008210800082F0800083D0800086F
:1001B0004B0800085908000867080008750800087F
:1001C00083080008910800089F080008AD0800088F
:1001D000BB080008C9080008D70800080000000094
:1001E000E5080008F3080008010900080F090008E5
:1001F0001D090008000000002B0900080000000095
:10020000DFF80CD0034880470348804700F017B858
:1002100000080010650B000879140008002A00F09F
:100220000D804FEA920203680B60013A00F00680ED
:1002300000F1040001F10401FFF7F5BF7047144815
:100240001449154AFFF7EAFF14481549154AFFF704
:10025000E5FF15481549002900F00C804FEA91018F
:100260004FF000020260013900F0048000F1040048
:10027000FFF7F8BF0E480F4908600F488047DFF8C6
:100280003CD04FF000004FF00001DFF834F00000E8
:10029000501B000C0000002010000000601B000C30
:1002A00000080010000000001000002028040000DA
:1002B0000000000808ED00E0891A0008000800109E
:1002C000110E000800BF7047FEE7DFF8700600B5AA
:1002D00081B0804701B000BDFEE7DFF8640600B5DD
:1002E00081B0804701B000BDFEE7DFF8580600B5D9
:1002F00081B0804701B000BDFEE7DFF84C0600B5D5
:1003000081B0804701B000BDFEE7DFF8400600B5D0
:1003100081B0804701B000BDFEE7DFF8340600B5CC
:1003200081B0804701B000BDFEE7DFF8280600B5C8
:1003300081B0804701B000BDFEE7DFF81C0600B5C4
:1003400081B0804701B000BDFEE7DFF8100600B5C0
:1003500081B0804701B000BDFEE7DFF8040600B5BC
:1003600081B0804701B000BDFEE7DFF8F80500B5B9
:1003700081B0804701B000BDFEE7DFF8EC0500B5B5
:1003800081B0804701B000BDFEE7DFF8E00500B5B1
:1003900081B0804701B000BDFEE7DFF8D40500B5AD
:1003A00081B0804701B000BDFEE7DFF8C80500B5A9
:1003B00081B0804701B000BDFEE7DFF8BC0500B5A5
:1003C00081B0804701B000BDFEE7DFF8B00500B5A1
:1003D00081B0804701B000BDFEE7DFF8A40500B59D
:1003E00081B0804701B000BDFEE7DFF8980500B599
:1003F00081B0804701B000BDFEE7DFF88C0500B595
:1004000081B0804701B000BDFEE7DFF8800500B590
:1004100081B0804701B000BDFEE7DFF8740500B58C
:1004200081B0804701B000BDFEE7DFF8680500B588
:1004300081B0804701B000BDFEE7DFF85C0500B584
:1004400081B0804701B000BDFEE7DFF8500500B580
:1004500081B0804701B000BDFEE7DFF8440500B57C
:1004600081B0804701B000BDFEE7DFF8380500B578
:1004700081B0804701B000BDFEE7DFF82C0500B574
:1004800081B0804701B000BDFEE7DFF8200500B570
:1004900081B0804701B000BDFEE7DFF8140500B56C
:1004A00081B0804701B000BDFEE7DFF8080500B568
:1004B00081B0804701B000BDFEE7DFF8FC0400B565
:1004C00081B0804701B000BDFEE7DFF8F00400B561
:1004D00081B0804701B000BDFEE7DFF8E40400B55D
:1004E00081B0804701B000BDFEE7DFF8D80400B559
:1004F00081B0804701B000BDFEE7DFF8CC0400B555
:1005000081B0804701B000BDFEE7DFF8C00400B550
:1005100081B0804701B000BDFEE7DFF8B40400B54C
:1005200081B0804701B000BDFEE7DFF8A80400B548
:1005300081B0804701B000BDFEE7DFF89C0400B544
:1005400081B0804701B000BDFEE7DFF8900400B540
:1005500081B0804701B000BDFEE7DFF8840400B53C
:1005600081B0804701B000BDFEE7DFF8780400B538
:1005700081B0804701B000BDFEE7DFF86C0400B534
:1005800081B0804701B000BDFEE7DFF8600400B530
:1005900081B0804701B000BDFEE7DFF8540400B52C
:1005A00081B0804701B000BDFEE7DFF8480400B528
:1005B00081B0804701B000BDFEE7DFF83C0400B524
:1005C00081B0804701B000BDFEE7DFF8300400B520
:1005D00081B0804701B000BDFEE7DFF8240400B51C
:1005E00081B0804701B000BDFEE7DFF8180400B518
:1005F00081B0804701B000BDFEE7DFF80C0400B514
:1006000081B0804701B000BDFEE7DFF8000400B50F
:1006100081B0804701B000BDFEE7FD4800B581B064
:10062000804701B000BDFEE7FA4800B581B08047C1
:1006300001B000BDFEE7F84800B581B0804701B0C9
:1006400000BDFEE7F54800B581B0804701B000BDB0
:10065000FEE7F34800B581B0804701B000BDFEE77A
:10066000F04800B581B0804701B000BDFEE7EE481C
:1006700000B581B0804701B000BDFEE7EB4800B592
:1006800081B0804701B000BDFEE7E94800B581B008
:10069000804701B000BDFEE7E64800B581B0804765
:1006A00001B000BDFEE7E44800B581B0804701B06D
:1006B00000BDFEE7E14800B581B0804701B000BD54
:1006C000FEE7DF4800B581B0804701B000BDFEE71E
:1006D000DC4800B581B0804701B000BDFEE7DA48D4
:1006E00000B581B0804701B000BDFEE7D74800B536
:1006F00081B0804701B000BDFEE7D54800B581B0AC
:10070000804701B000BDFEE7D24800B581B0804708
:1007100001B000BDFEE7D04800B581B0804701B010
:1007200000BDFEE7CD4800B581B0804701B000BDF7
:10073000FEE7CB4800B581B0804701B000BDFEE7C1
:10074000C84800B581B0804701B000BDFEE7C6488B
:1007500000B581B0804701B000BDFEE7C34800B5D9
:1007600081B0804701B000BDFEE7C14800B581B04F
:10077000804701B000BDFEE7BE4800B581B08047AC
:1007800001B000BDFEE7BC4800B581B0804701B0B4
:1007900000BDFEE7B94800B581B0804701B000BD9B
:1007A000FEE7B74800B581B0804701B000BDFEE765
:1007B000B44800B581B0804701B000BDFEE7B24843
:1007C00000B581B0804701B000BDFEE7AF4800B57D
:1007D00081B0804701B000BDFEE7AD4800B581B0F3
:1007E000804701B000BDFEE7AA4800B581B0804750
:1007F00001B000BDFEE7A84800B581B0804701B058
:1008000000BDFEE7A54800B581B0804701B000BD3E
:10081000FEE7A34800B581B0804701B000BDFEE708
:10082000A04800B581B0804701B000BDFEE79E48FA
:1008300000B581B0804701B000BDFEE79B4800B520
:1008400081B0804701B000BDFEE7994800B581B096
:10085000804701B000BDFEE7964800B581B08047F3
:1008600001B000BDFEE7944800B581B0804701B0FB
:1008700000BDFEE7914800B581B0804701B000BDE2
:10088000FEE78F4800B581B0804701B000BDFEE7AC
:100890008C4800B581B0804701B000BDFEE78A48B2
:1008A00000B581B0804701B000BDFEE7874800B5C4
:1008B00081B0804701B000BDFEE7854800B581B03A
:1008C000804701B000BDFEE7824800B581B0804797
:1008D00001B000BDFEE7804800B581B0804701B09F
:1008E00000BDFEE77D4800B581B0804701B000BD86
:1008F000FEE77B4800B581B0804701B000BDFEE750
:10090000784800B581B0804701B000BDFEE7764869
:1009100000B581B0804701B000BDFEE7734800B567
:1009200081B0804701B000BDFEE7714800B581B0DD
:10093000804701B000BD4FF001007047C9020008B8
:10094000D9020008E9020008F902000809030008BA
:100950001903000829030008390300086110000882
:100960005903000869030008790300088903000897
:1009700099030008A9030008B9030008C903000887
:10098000D9030008E9030008F90300080904000876
:100990001904000829040008390400084904000863
:1009A0005904000869040008790400088904000853
:1009B00099040008A9040008B9040008C904000843
:1009C000D9040008E9040008F90400080905000832
:1009D000190500082905000839050008490500081F
:1009E000590500086905000879050008890500080F
:1009F00099050008A9050008B9050008C9050008FF
:100A0000D9050008E9050008F905000809060008ED
:100A100019060008270600083506000843060008E6
:100A2000510600085F0600086D0600087B060008F6
:100A30008906000897060008A5060008B306000806
:100A4000C1060008CF060008DD060008EB06000816
:100A5000F906000807070008150700082307000823
:100A6000310700083F0700084D0700085B07000832
:100A70006907000877070008850700089307000842
:100A8000A1070008AF070008BD070008CB07000852
:100A9000D9070008E7070008F50700080308000861
:100AA000110800081F0800082D0800083B0800086E
:100AB000490800085708000865080008730800087E
:100AC000810800088F0800089D080008AB0800088E
:100AD000B9080008C7080008D5080008E30800089E
:100AE000F1080008FF0800080D0900081B090008AC
:100AF00029090008164AD368B3F5803F30B522D1E2
:100B0000144B1868410721D59C689868C4F30361A9
:100B10004C1CC0F30621481C9968DB68D268C1F3FD
:100B20000641013113F0010F14BF0B4D0B4D0C4B5F
:100B3000B5FBF4F46043B0FBF1F0D1B24A1CB0FB5A
:100B4000F2F0186030BD04480549086030BD00BFB0
:100B5000004600501047005000366E01001BB700E1
:100B600000000020734BD3F8882042F4700010B5C9
:100B7000C3F88800596921F008025A616E4B586821
:100B800020F0010159606D4B5A6922F00F0040F0CE
:100B90000301596100F06EFD002800F0C780684B2A
:100BA000684A586802402AB1596821F4803020F020
:100BB00002025A60644B596811F0300F04D1604B47
:100BC0001868400731D5B1E0586820F0F0025A604B
:100BD000596841F400305860594BDA6822F001013D
:100BE000D9605868594920F400325A60584B0020A7
:100BF0000522596098601A60514B1968544B01F4F2
:100C00006070B0F5607F03D09A68B2F5FA7FF3D2D6
:100C1000196821F001001860494B1A6802F46071EC
:100C2000B1F5607F40F08280C9E74A4AD168C903C4
:100C300003D5D06820F48031D1605A6842F00100B9
:100C400058605968444841F010025A6098605968E9
:100C500041F040025A60586820F0100159605A680B
:100C60003A4942F480205860394B002205205960EF
:100C70009A601860324B1968354B11F0040F03D19C
:100C80009A68B2F5FA7FF5D21968314821F001026D
:100C90001A602B4B19684A0748D55C6824F001029A
:100CA0005A602C4A0021116151611162D46844F4E8
:100CB0008034D4605A6822F040025A6040F24553B2
:100CC000436081600521016021488268632AFBD866
:100CD00003681B4A23F00101204B016040F61B41D1
:100CE0009360416000230521836001601848836898
:100CF000632BFBD8016821F001031949036091605F
:100D0000002341F2233205214260836001601048D4
:100D10008268632AFBD8036823F00101084B016055
:100D20001048A3F5B66105229860CA60BDE810407E
:100D3000FFF7E0BE00ED00E000800050002000580A
:100D4000104700500200010000470050A34B4C0028
:100D500010E000E000460050014F1301014F070171
:100D6000014F0401014F0301024B1A68501C186027
:100D7000704700BF100000201749184B91ED006A22
:100D8000DFED176ADFED170A26EE260A0CCB80EEA0
:100D9000201AD01A07EE100AF8EE477AF4EEC17A5C
:100DA000F1EE10FA05DB104B4FF480315A68587899
:100DB0000EE0D1ED011A21EEA62AC2EE202AF4EEB1
:100DC000E27AF1EE10FA06DB074B5A6858780121F7
:100DD00001FA00F05060704704000020100000206D
:100DE00000007A440000C8422C1B000808B56420AB
:100DF0000121054A002300F097F918B1BDE8084029
:100E000000F0D4B908BD00BF690D00080000000063
:100E100010B500F017FB2C4B00221A605A60FFF748
:100E2000E5FF2A4844684378616A21FA03F1C8075C
:100E30001CD4012202FA03F0616A0842FCD0244C5F
:100E4000206800F07DFD1EA3D3E9002300F01AFC0A
:100E500000F0CAFD07EE100AF0EE007AB4EEE77A71
:100E6000F1EE10FA2060C8BFC4ED007A194A536849
:100E70005478586A20FA04F0C1071CD4012101FA01
:100E800004F2586A0242FCD0114C206800F058FD70
:100E90000BA3D3E9002300F0F3FB00F0A5FD00EE67
:100EA000100AF7EE000AB4EEE00AF1EE10FA206044
:100EB00048BFC4ED000AFFF75FFFB2E7AFF3008061
:100EC0009A9999999999B93F100000203C1B000804
:100ED00004000020341B0008632803D8024B0022C2
:100EE0001A607047FEE700BF100000204FF47A73CD
:100EF0005843FFF7F1BF4FF0FF3070474FF0FF301E
:100F00007047002070474FF0FF3070474FF0FF30C0
:100F1000704700290CBF6FF001004FF0FF307047A1
:100F2000814214BF6FF001004FF0FF3070474FF067
:100F3000FF3070470A4B1A6822B90A4A0A491A60F8
:100F400052185A601A685B68D11D081820F0070112
:100F500099423ABF024B196000221046704700BF09
:100F60001800002038040020C8FB00004FF0FF30BC
:100F700070474FF0FF3070474FF0FF3070474FF031
:100F8000FF3070474FF0FF307047FEE770474FF07B
:100F9000FF30704737B51F4B1F491A6801EB4011EE
:100FA0008C680AB9196033E001941346019C996872
:100FB000611A0191019900291ADAD969164D440183
:100FC00029B12A198A61D1619361DA6104E02B1990
:100FD000D3619A610F4A13600F4B019903EB4010E4
:100FE00083699A688A1882609968881A98600FE005
:100FF00001990029996908DB39B9074A019902EB7F
:1010000040109861C361816002E00B460029CDD198
:101010003EBD00BF24000020380000200E4B03EB33
:10102000401010B5C269836952B90C490B6003B90D
:1010300010BD9C688168DA6161189960826110BD99
:1010400093613BB183699968DA6182688918996014
:1010500000238361C36110BD3800002024000020FC
:10106000154B5A6810B51C68501C586014B3A16821
:10107000012902D9481EA06010BD0023A360A26808
:10108000C2B9207928B92068FFF7C8FF012363712E
:1010900009E001280ED12068FFF7C0FFE168206851
:1010A000A160FFF777FF22696069034C90472468CD
:1010B000002CE4D110BD00BF24000020174A0023FB
:1010C000136082B0164A019342F6DF615160154900
:1010D000FC2081F823000720936010600193019B9E
:1010E000012B18D0CA68C2F30223C01A062828BFF1
:1010F000062003B1013B012101FA00F2501E00F06D
:101100000A0101FA03F39A000649044BD0B2002207
:1011100081F823009A6002B0704700BF24000020CD
:1011200010E000E000ED00E063282DE9F04104D973
:10113000012994BF0024012402E0002830D00124BA
:1011400052B364BB174EB568B44625FA04F616F0E0
:1011500001061DD1012707FA04F848EA0505DFF862
:101160004880CCF808504FEA441C08EB0C0548F8BE
:101170000C4029716421B0FBF1F0C119E8606F7176
:10118000A9602A616B61EE61AE61E019BDE8F08192
:101190000134202CD9D102E01046BDE8F0810020B6
:1011A000BDE8F08124000020380000200E4A91683C
:1011B000431E21FA03F1CA0710B504D5202894BFB5
:1011C0000024012400E00124084800EB4312916848
:1011D00039B134B9507928B154711846FFF7DAFEA5
:1011E00000E00124204610BD24000020380000202B
:1011F0000C4A9168431E21FA03F1C90710B50DD5B9
:1012000020280BD8084C04EB43146079012807D040
:101210001846FFF703FF0123637101E0012010BDB1
:10122000002010BD24000020380000200E4B9968DB
:1012300010B5441E21FA04F1CB0713D5202811D88C
:101240000A4800EB4412537913B92046FFF7E6FE33
:10125000054901208A6800FA04F422EA04028A603F
:10126000002010BD012010BD240000203800002007
:10127000024B596864204843704700BF2400002097
:10128000144B586800224260416C21F0E0634364D3
:10129000416C41F080634364C169C1610E48436899
:1012A0005A60596C21F0E0405864596C41F080401C
:1012B0005864D969D961094B58684260026C22F4BC
:1012C000E0210164036C43F48022026441694161BE
:1012D000704700BF3C1B0008341B00082C1B000893
:1012E00010B54378032B11D84268DB00146903332F
:1012F0001F2000FA03F024EA00001061106901F0D9
:101300001F0101FA03F30343136110BD1A1FD2B288
:10131000032A11D84368D0005C69C21C1F2000FA60
:1013200002F024EA00005861586901F01F0101FA37
:1013300002F202435A6110BDA3F10802D2B2032A9D
:1013400011D84368D2009C6903321F2000FA02F0D2
:1013500024EA00009861986901F01F0101FA02F285
:1013600002439A6110BD0C3BDBB2032B10D84268DC
:10137000D800D469C31C1F2000FA03F024EA00003F
:10138000D061D06901F01F0101FA03F30343D36177
:1013900010BD10B54378032B11D84268DB001469E7
:1013A00003331F2000FA03F024EA000010611069E3
:1013B00001F01F0101FA03F30343136110BD1A1F6B
:1013C000D2B2032A11D84368D0005C69C21C1F2026
:1013D00000FA02F024EA00005861586901F01F0188
:1013E00001FA02F202435A6110BDA3F10802D2B21F
:1013F000032A11D84368D2009C6903321F2000FAE7
:1014000002F024EA00009861986901F01F0101FAD6
:1014100002F202439A6110BD0C3BDBB2032B10D8E1
:101420004268D800D469C31C1F2000FA03F024EAE4
:101430000000D061D06901F01F0101FA03F30343FA
:10144000D36110BD0A490B4808B5CB684FF6FF02BF
:101450001A4042EA0003CB6000F018F800F026F8CA
:10146000FFF72CFEFFF70CFFBDE8084000F006B8C0
:1014700000ED00E00001FA0500F018B8024B5A69CF
:1014800042F080005861704700800248704782B087
:1014900000220192019B834206D200BF00BF00BF21
:1014A00000BF01994A1CF4E702B0704738B5644B9D
:1014B00064485A681040002800F0AB8062490C680C
:1014C000E20703D44D6845F001034B605F480268B2
:1014D000910503D5816841F400748460584D6B68B0
:1014E00023F4801068606420FFF7D1FF6A6842F43B
:1014F000002164206960FFF7CAFF6C68544924F436
:10150000803323F0020068604A6812F0300F1CD06C
:101510004C6824F030034B60486840F440324A6025
:10152000E96821F00104EC606B6823F40030686026
:1015300044F25064424D0A20FFF7A9FF2A6802F4E2
:101540006071B1F5607F68D12B683D4B1868420728
:101550002DD4404A4049132582E822005D683F4A65
:1015600045F0010159605C6844F0100058609A60D1
:101570005D6845F0400159605C6824F010005860D7
:101580005A6842F480255D6044F250640A20FFF7F7
:101590007EFF2B4B196811F0040F184640D00268EB
:1015A000274D540703D56B6823F0010169602C486F
:1015B0002949C46844F48035214CC5606268254DD2
:1015C00022F04003636064202960FFF760FF254834
:1015D000A0606420FFF75BFF234B04226A60962023
:1015E000A360FFF754FF2149A160A068C0F3036323
:1015F000002B23D1A268C2F30621272913D01C4A4D
:101600000521012BD16004D11548436843F0100136
:101610004160BDE83840FFF76DBA013C8AD193E7DD
:10162000013CB3D1BBE7A0684006E8D1A368C3F38F
:101630000642D11E484250EB0103E0E70023DEE7FB
:1016400010470050020001000042005000440050CA
:10165000004700503000002000389C1C0027130079
:101660000046005000270700002704000027030061
:10167000604100500020704781F0004102E000BF4F
:1016800083F0004330B54FEA41044FEA430594EA42
:10169000050F08BF90EA020F1FBF54EA000C55EA7D
:1016A000020C7FEA645C7FEA655C00F0E2804FEA4E
:1016B0005454D4EB5555B8BF6D420CDD2C4480EA30
:1016C000020281EA030382EA000083EA010180EA60
:1016D000020281EA0303362D88BF30BD11F0004FAE
:1016E0004FEA01314FF4801C4CEA113102D04042E4
:1016F00061EB410113F0004F4FEA03334CEA13331F
:1017000002D0524263EB430394EA050F00F0A78036
:10171000A4F10104D5F1200E0DDB02FA0EFC22FA31
:1017200005F2801841F1000103FA0EF2801843FA25
:1017300005F359410EE0A5F120050EF1200E012A16
:1017400003FA0EFC28BF4CF0020C43FA05F3C01854
:1017500051EBE37101F0004507D54FF0000EDCF1CD
:10176000000C7EEB00006EEB0101B1F5801F1BD376
:10177000B1F5001F0CD349085FEA30004FEA3C0C7A
:1017800004F101044FEA445212F5800F80F09A8070
:10179000BCF1004F08BF5FEA500C50F1000041EB74
:1017A000045141EA050130BD5FEA4C0C404141EB78
:1017B000010111F4801FA4F10104E9D191F0000F9F
:1017C00004BF01460020B1FA81F308BF2033A3F122
:1017D0000B03B3F120020CDA0C3208DD02F1140C19
:1017E000C2F10C0201FA0CF021FA02F10CE002F154
:1017F0001402D8BFC2F1200C01FA02F120FA0CFC4D
:10180000DCBF41EA0C019040E41AA2BF01EB045195
:10181000294330BD6FEA04041F3C1CDA0C340EDC93
:1018200004F11404C4F1200220FA04F001FA02F3D6
:1018300040EA030021FA04F345EA030130BDC4F194
:101840000C04C4F1200220FA02F001FA04F340EA89
:101850000300294630BD21FA04F0294630BD94F03A
:10186000000F83F4801306BF81F480110134013D21
:101870004EE77FEA645C18BF7FEA655C29D094EA92
:10188000050F08BF90EA020F05D054EA000C04BF10
:101890001946104630BD91EA030F1EBF00210020FB
:1018A00030BD5FEA545C05D14000494128BF41F09A
:1018B000004130BD14F580043CBF01F5801130BDFE
:1018C00001F0004545F0FE4141F470014FF0000089
:1018D00030BD7FEA645C1ABF194610467FEA655C3A
:1018E0001CBF0B46024650EA013406BF52EA0335DC
:1018F00091EA030F41F4002130BD00BF90F0000FCA
:1019000004BF0021704730B54FF4806404F1320405
:101910004FF000054FF0000150E700BF90F0000FBE
:1019200004BF0021704730B54FF4806404F13204E5
:1019300010F0004548BF40424FF000013EE700BFB5
:1019400042004FEAE2014FEA31014FEA02701FBF45
:1019500012F07F4393F07F4F81F06051704792F017
:10196000000F14BF93F07F4F704730B54FF4607491
:1019700001F0004521F0004120E700BF50EA0102DC
:1019800008BF704730B54FF000050AE050EA010289
:1019900008BF704730B511F0004502D5404261EBF9
:1019A00041014FF4806404F132045FEA915C3FF43A
:1019B000DCAE4FF003025FEADC0C18BF03325FEAD3
:1019C000DC0C18BF033202EBDC02C2F1200300FA88
:1019D00003FC20FA02F001FA03FE40EA0E0021FAAD
:1019E00002F11444C1E600BF4FEA4102B2F1E04304
:1019F00024BFB3F5001CDCF1FE5C0DD901F0004CF6
:101A00004FEAC0024CEA5070B2F1004F40EB830045
:101A100008BF20F00100704711F0804F21D113F171
:101A20003872BCBF01F00040704741F480114FEAAA
:101A30005252C2F11802C2F1200C10FA0CF320FA33
:101A400002F018BF40F001004FEAC1234FEAD32350
:101A500003FA0CFC40EA0C0023FA02F34FEA4303BA
:101A6000CCE77FEA625307D150EA01331EBF4FF043
:101A7000FE4040F44000704701F0004040F0FE405E
:101A800040F40000704700BFF8B5204F204C381BD1
:101A9000871017D07A1E2368012502F001069847A7
:101AA000AF420FD02EB154F8041F02258847AF4231
:101AB00008D0606880470235A268261D9047083428
:101AC000AF42F6D1134F144CFFF760FA3B1B9F1047
:101AD00018D07D1E216805F0010601258847AF4218
:101AE00011D02EB154F8040F02258047AF420BD01D
:101AF000626890470235A368261D98470834AF42B4
:101B0000F6D1F8BDF8BDF8BDF8BD00BF1C1B00083C
:0C1B10001C1B00081C1B00081C1B00080C
:101B1C00E4E6FF7F010000001AE7FF7F01000000F0
:101B2C000004000000800248010F00000081024800
:081B3C00010E000000810248C7
:101B5000000E27070000803F0000884101000000C0
:0400000508000201EC
:00000001FF
