:020000040C00EE
:100000000008001001020008CB020008DB02000813
:10001000EB020008FB0200080B03000800000000D0
:100020000000000000000000000000001B030008AA
:100030002B030008000000003B0300084B030008EE
:100040005B0300086B0300087B0300088B030008B8
:100050009B030008AB030008BB030008CB030008A8
:10006000DB030008000000000000000000000000AA
:10007000EB03000800000000FB0300080B0400086D
:100080001B0400082B0400083B0400084B04000874
:100090005B0400086B0400087B0400088B04000864
:1000A0009B040008AB040008BB040008CB04000854
:1000B000DB040008EB040008FB0400080B05000843
:1000C0001B0500082B0500083B0500084B05000830
:1000D0005B0500086B0500087B0500088B05000820
:1000E0009B050008AB050008BB050008CB05000810
:1000F000DB050008EB050008FB0500080B060008FF
:100100001B060008290600083706000845060008F7
:1001100053060008610600086F0600087D06000807
:100120008B06000899060008A7060008B506000817
:10013000C3060008D1060008DF060008ED06000827
:10014000FB06000809070008170700082507000834
:1001500033070008410700084F0700085D07000843
:10016000000000000000000000000000000000008F
:100170006B07000879070008870700089507000843
:10018000A3070008B1070008BF070008CD07000853
:10019000DB070008E9070008F70700080508000862
:1001A00013080008210800082F0800083D0800086F
:1001B0004B0800085908000867080008750800087F
:1001C00083080008910800089F080008AD0800088F
:1001D000BB080008C9080008D70800080000000094
:1001E000E5080008F3080008010900080F090008E5
:1001F0001D090008000000002B0900080000000095
:10020000DFF80CD0034880470348804700F017B858
:1002100000080010F50A0008DD5C0008002A00F064
:100220000D804FEA920203680B60013A00F00680ED
:1002300000F1040001F10401FFF7F5BF7047144815
:100240001449154AFFF7EAFF14481549154AFFF704
:10025000E5FF15481549002900F00C804FEA91018F
:100260004FF000020260013900F0048000F1040048
:10027000FFF7F8BF0E480F4908600F488047DFF8C6
:100280003CD04FF000004FF00001DFF834F00000E8
:10029000B06E000C0000002030000000E06E000C8A
:1002A000000800100000000030000020FC040000E6
:1002B0000000000808ED00E0E96B000800080010ED
:1002C000A511000800BF7047FEE7DFF8700600B513
:1002D00081B0804701B000BDFEE7DFF8640600B5DD
:1002E00081B0804701B000BDFEE7DFF8580600B5D9
:1002F00081B0804701B000BDFEE7DFF84C0600B5D5
:1003000081B0804701B000BDFEE7DFF8400600B5D0
:1003100081B0804701B000BDFEE7DFF8340600B5CC
:1003200081B0804701B000BDFEE7DFF8280600B5C8
:1003300081B0804701B000BDFEE7DFF81C0600B5C4
:1003400081B0804701B000BDFEE7DFF8100600B5C0
:1003500081B0804701B000BDFEE7DFF8040600B5BC
:1003600081B0804701B000BDFEE7DFF8F80500B5B9
:1003700081B0804701B000BDFEE7DFF8EC0500B5B5
:1003800081B0804701B000BDFEE7DFF8E00500B5B1
:1003900081B0804701B000BDFEE7DFF8D40500B5AD
:1003A00081B0804701B000BDFEE7DFF8C80500B5A9
:1003B00081B0804701B000BDFEE7DFF8BC0500B5A5
:1003C00081B0804701B000BDFEE7DFF8B00500B5A1
:1003D00081B0804701B000BDFEE7DFF8A40500B59D
:1003E00081B0804701B000BDFEE7DFF8980500B599
:1003F00081B0804701B000BDFEE7DFF88C0500B595
:1004000081B0804701B000BDFEE7DFF8800500B590
:1004100081B0804701B000BDFEE7DFF8740500B58C
:1004200081B0804701B000BDFEE7DFF8680500B588
:1004300081B0804701B000BDFEE7DFF85C0500B584
:1004400081B0804701B000BDFEE7DFF8500500B580
:1004500081B0804701B000BDFEE7DFF8440500B57C
:1004600081B0804701B000BDFEE7DFF8380500B578
:1004700081B0804701B000BDFEE7DFF82C0500B574
:1004800081B0804701B000BDFEE7DFF8200500B570
:1004900081B0804701B000BDFEE7DFF8140500B56C
:1004A00081B0804701B000BDFEE7DFF8080500B568
:1004B00081B0804701B000BDFEE7DFF8FC0400B565
:1004C00081B0804701B000BDFEE7DFF8F00400B561
:1004D00081B0804701B000BDFEE7DFF8E40400B55D
:1004E00081B0804701B000BDFEE7DFF8D80400B559
:1004F00081B0804701B000BDFEE7DFF8CC0400B555
:1005000081B0804701B000BDFEE7DFF8C00400B550
:1005100081B0804701B000BDFEE7DFF8B40400B54C
:1005200081B0804701B000BDFEE7DFF8A80400B548
:1005300081B0804701B000BDFEE7DFF89C0400B544
:1005400081B0804701B000BDFEE7DFF8900400B540
:1005500081B0804701B000BDFEE7DFF8840400B53C
:1005600081B0804701B000BDFEE7DFF8780400B538
:1005700081B0804701B000BDFEE7DFF86C0400B534
:1005800081B0804701B000BDFEE7DFF8600400B530
:1005900081B0804701B000BDFEE7DFF8540400B52C
:1005A00081B0804701B000BDFEE7DFF8480400B528
:1005B00081B0804701B000BDFEE7DFF83C0400B524
:1005C00081B0804701B000BDFEE7DFF8300400B520
:1005D00081B0804701B000BDFEE7DFF8240400B51C
:1005E00081B0804701B000BDFEE7DFF8180400B518
:1005F00081B0804701B000BDFEE7DFF80C0400B514
:1006000081B0804701B000BDFEE7DFF8000400B50F
:1006100081B0804701B000BDFEE7FD4800B581B064
:10062000804701B000BDFEE7FA4800B581B08047C1
:1006300001B000BDFEE7F84800B581B0804701B0C9
:1006400000BDFEE7F54800B581B0804701B000BDB0
:10065000FEE7F34800B581B0804701B000BDFEE77A
:10066000F04800B581B0804701B000BDFEE7EE481C
:1006700000B581B0804701B000BDFEE7EB4800B592
:1006800081B0804701B000BDFEE7E94800B581B008
:10069000804701B000BDFEE7E64800B581B0804765
:1006A00001B000BDFEE7E44800B581B0804701B06D
:1006B00000BDFEE7E14800B581B0804701B000BD54
:1006C000FEE7DF4800B581B0804701B000BDFEE71E
:1006D000DC4800B581B0804701B000BDFEE7DA48D4
:1006E00000B581B0804701B000BDFEE7D74800B536
:1006F00081B0804701B000BDFEE7D54800B581B0AC
:10070000804701B000BDFEE7D24800B581B0804708
:1007100001B000BDFEE7D04800B581B0804701B010
:1007200000BDFEE7CD4800B581B0804701B000BDF7
:10073000FEE7CB4800B581B0804701B000BDFEE7C1
:10074000C84800B581B0804701B000BDFEE7C6488B
:1007500000B581B0804701B000BDFEE7C34800B5D9
:1007600081B0804701B000BDFEE7C14800B581B04F
:10077000804701B000BDFEE7BE4800B581B08047AC
:1007800001B000BDFEE7BC4800B581B0804701B0B4
:1007900000BDFEE7B94800B581B0804701B000BD9B
:1007A000FEE7B74800B581B0804701B000BDFEE765
:1007B000B44800B581B0804701B000BDFEE7B24843
:1007C00000B581B0804701B000BDFEE7AF4800B57D
:1007D00081B0804701B000BDFEE7AD4800B581B0F3
:1007E000804701B000BDFEE7AA4800B581B0804750
:1007F00001B000BDFEE7A84800B581B0804701B058
:1008000000BDFEE7A54800B581B0804701B000BD3E
:10081000FEE7A34800B581B0804701B000BDFEE708
:10082000A04800B581B0804701B000BDFEE79E48FA
:1008300000B581B0804701B000BDFEE79B4800B520
:1008400081B0804701B000BDFEE7994800B581B096
:10085000804701B000BDFEE7964800B581B08047F3
:1008600001B000BDFEE7944800B581B0804701B0FB
:1008700000BDFEE7914800B581B0804701B000BDE2
:10088000FEE78F4800B581B0804701B000BDFEE7AC
:100890008C4800B581B0804701B000BDFEE78A48B2
:1008A00000B581B0804701B000BDFEE7874800B5C4
:1008B00081B0804701B000BDFEE7854800B581B03A
:1008C000804701B000BDFEE7824800B581B0804797
:1008D00001B000BDFEE7804800B581B0804701B09F
:1008E00000BDFEE77D4800B581B0804701B000BD86
:1008F000FEE77B4800B581B0804701B000BDFEE750
:10090000784800B581B0804701B000BDFEE7764869
:1009100000B581B0804701B000BDFEE7734800B567
:1009200081B0804701B000BDFEE7714800B581B0DD
:10093000804701B000BD4FF001007047C9020008B8
:10094000D9020008E9020008F902000809030008BA
:100950001903000829030008390300084925000885
:10096000F9450008690300087903000889030008B5
:100970002518000831180008B9030008C903000849
:10098000D9030008E9030008F90300080904000876
:100990001904000829040008390400084904000863
:1009A0005904000869040008790400088904000853
:1009B00099040008A9040008B9040008C904000843
:1009C000D9040008E9040008F90400080905000832
:1009D000190500082905000839050008490500081F
:1009E000590500086905000879050008890500080F
:1009F00099050008A9050008B9050008C9050008FF
:100A0000D9050008E9050008F905000809060008ED
:100A100019060008270600083506000843060008E6
:100A2000510600085F0600086D0600087B060008F6
:100A30008906000897060008A5060008B306000806
:100A4000C1060008CF060008DD060008EB06000816
:100A5000F906000807070008150700082307000823
:100A6000310700083F0700084D0700085B07000832
:100A70006907000877070008850700089307000842
:100A8000A1070008AF070008BD070008CB07000852
:100A9000D9070008E7070008F50700080308000861
:100AA000110800081F0800082D0800083B0800086E
:100AB000490800085708000865080008730800087E
:100AC000810800088F0800089D080008AB0800088E
:100AD000B9080008C7080008D5080008E30800089E
:100AE000F1080008FF0800080D0900081B090008AC
:100AF0002909000880B582B000AF4FF46D43CEF2F3
:100B000000034FF46D42CEF20002D2F8882042F486
:100B10007002C3F888204FF46D43CEF200034FF407
:100B20006D42CEF20002526922F008025A614FF47F
:100B30000043C5F200034FF40042C5F200025268C0
:100B400022F001025A604FF48053C5F6000303F50A
:100B5000805303F114031B687B607B6823F00F0351
:100B60007B607B6843F003037B604FF48053C5F6E2
:100B700000037A6803F5805303F114031A6000F050
:100B8000ABF800F005F807F10807BD4680BD00BFCF
:100B900080B485B000AF4FF48C43C5F20003DB682E
:100BA000B3F5803F40F0898044F21073C5F2000332
:100BB0001B6803F00403002B00F0888044F21073DC
:100BC000C5F200039B6803F070634FEA136303F1FF
:100BD0000103FB6044F21073C5F200039B6803F449
:100BE000FE434FEA132303F10103BB6044F2107389
:100BF000C5F200039B6803F4FE034FEA134303F1BD
:100C000001037B6044F21073C5F20003DB6803F05C
:100C10000103002B28D04FF45853C0F26E13FA682A
:100C2000B3FBF2F3BA6802FB03F33B603A687B68FC
:100C3000B2FBF3F240F20003C2F200031A6040F28A
:100C40000003C2F200031A684FF48C43C5F200039C
:100C5000DB68DBB203F10103B2FBF3F240F2000305
:100C6000C2F200031A6031E04FF4D853C0F2B70368
:100C7000FA68B3FBF2F3BA6802FB03F33B603A682D
:100C80007B68B2FBF3F240F20003C2F200031A6089
:100C900040F20003C2F200031A684FF48C43C5F21D
:100CA0000003DB68DBB203F10103B2FBF3F240F2B5
:100CB0000003C2F200031A6008E040F20003C2F22F
:100CC00000034FF45852C0F26E121A6007F1140775
:100CD000BD4680BC704700BF80B582B000AF05F054
:100CE00037FF0346002B00F0558244F21073C5F223
:100CF00000035A684FF00203C0F201031340002BB7
:100D00000DD044F21073C5F2000344F21072C5F224
:100D10000002526822F4803222F002025A604FF43C
:100D20008E43C5F200035B6803F03003002B72D0E2
:100D30004FF48E43C5F200034FF48E42C5F2000219
:100D4000526822F0F0025A604FF48E43C5F200035D
:100D50004FF48E42C5F20002526842F400325A60EB
:100D600044F21073C5F2000344F21072C5F200029F
:100D7000D26822F00102DA6044F21073C5F2000377
:100D800044F21072C5F20002526822F400325A6036
:100D90004EF21003CEF2000344F6A332C0F24C022E
:100DA0005A604EF21003CEF200034FF000029A6038
:100DB0004EF21003CEF200034FF005021A6044F227
:100DC0001073C5F200031B6803F46073B3F5607F12
:100DD00008D04EF21003CEF200039A6840F2F313EB
:100DE0009A42ECD84EF21003CEF200034EF21002FB
:100DF000CEF20002126822F001021A6044F210736F
:100E0000C5F200031B6803F46073B3F5607F02D082
:100E10004FF00003C0E144F21073C5F200031B68F9
:100E200003F00403002B40F0B5814FF48C43C5F26E
:100E30000003DB6803F48033002B0BD04FF48C43AA
:100E4000C5F200034FF48C42C5F20002D26822F4CE
:100E50008032DA604FF46053C1F69C437B607A685D
:100E600049F68173C1F25E63A3FB02134FEA535349
:100E700003F1FF333B6044F21073C5F2000344F208
:100E80001072C5F20002526842F001025A6044F248
:100E90001073C5F2000344F21072C5F200025268EA
:100EA00042F010025A6044F21072C5F200023B6830
:100EB0004FEA034144F60173C0F200130B43936001
:100EC00044F21073C5F2000344F21072C5F200023E
:100ED000526842F040025A6044F21073C5F20003B7
:100EE00044F21072C5F20002526822F010025A60F9
:100EF00044F21073C5F2000344F21072C5F200020E
:100F0000526842F480225A604EF21003CEF200037F
:100F100044F6A332C0F24C025A604EF21003CEF2F5
:100F200000034FF000029A604EF21003CEF200036D
:100F30004FF005021A6000BF44F21073C5F20003BF
:100F40001B6803F00403002B08D14EF21003CEF20D
:100F500000039A6840F2F3139A42EDD84EF2100360
:100F6000CEF200034EF21002CEF20002126822F01E
:100F700001021A6044F21073C5F200031B6803F00B
:100F80000403002B4ED044F21073C5F2000344F268
:100F90001072C5F20002526822F001025A604FF44A
:100FA0008C43C5F200034FF000021A614FF48C43EA
:100FB000C5F200034FF000025A614FF48C43C5F2B2
:100FC00000034FF000021A624FF48C43C5F2000395
:100FD0004FF48C42C5F20002D26842F48032DA60EB
:100FE00044F21073C5F2000344F21072C5F200021D
:100FF000526822F040025A604EF21003CEF2000313
:1010000040F245525A604EF21003CEF200034FF008
:1010100000029A604EF21003CEF200034FF0050278
:101020001A6002E04FF00003B6E04EF21003CEF279
:1010300000039B68632BF8D84EF21003CEF2000336
:101040004EF21002CEF20002126822F001021A6083
:101050004FF46053C1F69C437B607B684FEA1322D8
:1010600045F2C743C0F21E13A3FB02134FEA9323BA
:1010700003F1FF333B6044F21072C5F200023B689B
:101080004FEA034144F60173C0F200130B4393602F
:101090004EF21003CEF2000340F61B425A604EF2AD
:1010A0001003CEF200034FF000029A604EF21003DC
:1010B000CEF200034FF005021A6000BF4EF210039B
:1010C000CEF200039B68632BF8D84EF21003CEF2E9
:1010D00000034EF21002CEF20002126822F001026A
:1010E0001A604FF46053C1F69C437B607B684FEA03
:1010F000D3124EF22F33C0F2BE03A3FB02134FEA0A
:10110000D32303F1FF333B6044F21072C5F20002B7
:101110003B684FEA034144F60173C0F200130B43EE
:1011200093604EF21003CEF2000341F223325A6074
:101130004EF21003CEF200034FF000029A604EF21E
:101140001003CEF200034FF005021A6000BF4EF20A
:101150001003CEF200039B68632BF8D84EF2100305
:10116000CEF200034EF21002CEF20002126822F01C
:1011700001021A6044F21073C5F2000344F60172D2
:10118000C0F203129A6044F26013C5F200034FF0FC
:101190000502DA604FF00103184607F10807BD4663
:1011A00080BD00BF80B582B000AF04F073FD00F0D9
:1011B000DDFC00F0B3F800F0D9FB40F23003C2F2DE
:1011C00000034FF000021A6040F23403C2F2000341
:1011D0004FF000021A604FF00103FB7100F0A4F819
:1011E00046F68453C0F600035A6846F68453C0F6A8
:1011F00000035B784FF0010101FA03F353604FF4F1
:101200000043C5F200034FF40042C5F200025268E9
:1012100042F001025A6001F029FC0346BB71BB7920
:1012200003F02003BB7100E000BF46F64C53C0F64C
:1012300000035B685A6A46F64C53C0F600035B78BD
:1012400022FA03F303F00103002B39D0FB79002BC2
:101250002AD146F68453C0F600035A6846F68453F2
:10126000C0F600035B784FF0010101FA03F353600D
:1012700046F62C53C0F600035A6846F62C53C0F6C7
:1012800000035B784FF0010101FA03F353604FF460
:101290000043C5F2000340F20402C2F200021268E9
:1012A0009A604FF00103FB7140F23403C2F2000375
:1012B0004FF000021A6000F0C1FA00F069F8B3E7DD
:1012C00040F23403C2F200031A6841F288339A42B2
:1012D000AAD946F68453C0F600035A6846F68453EA
:1012E000C0F600035B784FF4803101FA03F35360DA
:1012F00046F62C53C0F600035A6846F62C53C0F647
:1013000000035B784FF4803101FA03F353604FF030
:101310000003FB7100F008F886E700BF80B400AF5F
:10132000BD4680BC704700BF80B500AF46F68C401C
:10133000C0F6000001F0D4FE46F68C40C0F6000076
:101340004FF4C041C4F2EA6102F078FB46F68C40EB
:10135000C0F600004FF0000102F0C2F846F6D4409B
:10136000C0F6000001F0BCFE46F6D440C0F6000016
:101370004FF4C041C4F2EA6102F060FB46F6D4408B
:10138000C0F600004FF0000102F0AAF880BD00BFD7
:1013900080B586B000AF40F29C03C2F20003DB7858
:1013A000BB714FF000037B614FF000033B614FF0D6
:1013B0000003FB604FF00003BB604FF00203FB71C2
:1013C000BB7903F00403002B0BD1BB7903F00203BC
:1013D000002B03D04FF00103FB7102E04FF000033C
:1013E000FB71BB7903F00803002B15D040F29C037E
:1013F000C2F200035B78322B0AD940F29C03C2F29E
:1014000000035B78FA791046194600F0B3F878616A
:101410004FF00003FB6019E0BB7903F00103002BE0
:1014200014D040F29C03C2F200035B78322B0AD93D
:1014300040F29C03C2F200035B78FA791046194629
:1014400000F098F878614FF07E53FB60BB7903F0B1
:101450002003002B15D040F29C03C2F200039B78BE
:10146000322B0AD940F29C03C2F200039B78FA792E
:101470001046194600F07EF838614FF00003BB605B
:1014800019E0BB7903F01003002B14D040F29C0349
:10149000C2F200039B78322B0AD940F29C03C2F2BD
:1014A00000039B78FA791046194600F063F838611A
:1014B0004FF07E53BB60D7ED037AF5EE407AF1EE44
:1014C00010FA0FD046F67C53C0F600035A6846F671
:1014D0007C53C0F600035B784FF4803101FA03F3CC
:1014E00053600EE046F67C53C0F600035A6846F699
:1014F0007C53C0F600035B784FF0010101FA03F35F
:101500005360D7ED027AF5EE407AF1EE10FA0FD083
:1015100046F62453C0F600035A6846F62453C0F634
:1015200000035B784FF4803101FA03F353600EE05F
:1015300046F62453C0F600035A6846F62453C0F614
:1015400000035B784FF0010101FA03F3536046F6A4
:101550008C40C0F60000396901F0C2FF46F6D44065
:10156000C0F60000796901F0BBFF07F11807BD461E
:1015700080BD00BF80B58AB000AF02460B46FA714D
:10158000BB714FF0CD0387F8233040F29C03C2F2C9
:1015900000031B7887F82230FB79022B19D1BB7925
:1015A00006EE903AB8EE667ADFED927A37EE677A19
:1015B000DFED917A27EE277A97F8233006EE903AFE
:1015C000F8EEE67A87EE277AF2EE007A77EE277A5F
:1015D00009E1FB79012B40F0C180BB7907EE903A1D
:1015E000B8EEE77ADFED857A27EE277A97F8223092
:1015F00007EE903AF8EEE76ADFED807AC6EEA76A6A
:10160000DFED7F7A66EEA77AC7EE277AC7ED077A15
:1016100097ED077AF2EE047AB4EEE77AF1EE10FA7B
:1016200003D54FF000037B6293E097ED077ADFED7F
:10163000757AB4EEE77AF1EE10FA24D597ED077AD1
:10164000F2EE047A37EE677AF3EE097A27EE277A1C
:1016500097F8223007EE903AF8EEE76ADFED677A06
:10166000C6EEA77A27EE277ADFED677AC7EE277AEC
:10167000FDEEE77AC7ED097A7B6A072B69DC4FF04C
:1016800000037B6265E097ED077ADFED607AB4EEE8
:10169000E77AF1EE10FA2ED597ED077ADFED597A59
:1016A00037EE677ADFED5A7A27EE277A97F82230FD
:1016B00007EE903AF8EEE76ADFED507AC6EEA77AC9
:1016C00027EE277AF3EE097A87EE277A97F8223009
:1016D00007EE903AF8EEE76ADFED487AC6EEA76AC1
:1016E000DFED4B7A66EEA77A77EE277AFDEEE77AA2
:1016F000C7ED097A2DE097ED077ADFED447A37EEF2
:10170000677ADFED437A27EE277A97F8223007EEE3
:10171000903AF8EEE76ADFED397AC6EEA77A27EE5F
:10172000277AF2EE047A87EE277A97F8223007EECE
:10173000903AF8EEE76ADFED317AC6EEA76ADFEDA0
:10174000357A66EEA77A77EE277AFDEEE77AC7ED6F
:10175000097AD7ED097AF8EEE77A44E04FF004030E
:10176000BB6197F82320BB6992FBF3F306EE903A36
:10177000F8EEE67AC7ED057A97F822304FF064026A
:1017800002FB03F307EE903AB8EEE77ABB6903F188
:10179000FF3307EE903AF8EEE76ADFED187A66EE6F
:1017A000A77AC7EE277AC7ED047ABB7906EE903A9E
:1017B000B8EEE67AD7ED057AC7EE277A17EE900AEB
:1017C00000F098FA034607EE903AB8EEE77AD7EDC4
:1017D000047A67EE277AFDEEE77AC7ED037AD7ED54
:1017E000037AF8EEE77A17EE903A184607F12807E1
:1017F000BD4680BD000048420000B8420000C8421B
:1018000000007F4300009642000082420000B44284
:10181000000004420000844280B400AFBD4680BC9A
:10182000704700BF80B400AFBD4680BC704700BFAA
:1018300080B400AFBD4680BC704700BF80B584B0A7
:1018400000AF46F65453C0F600035A6846F65453A8
:10185000C0F600035B784FF4803101FA03F3536064
:101860004CF2503000F02EFA4FF00003FB714FF0B5
:101870000003BB6036E04FF00703FB6020E046F654
:101880004453C0F600035B685A6A46F64453C0F6F8
:1018900000035B7822FA03F303F00103002B09D065
:1018A0004FF00102FB6802FA03F3DAB2FB7913434B
:1018B000DBB2FB7100F030F8FB6803F1FF33FB6033
:1018C000FB68002BDBDA40F29C03C2F20003BA682B
:1018D0009B18FA791A704FF00003FB71BB6803F193
:1018E0000103BB60BB68042BC5DD46F65453C0F64C
:1018F00000035A6846F65453C0F600035B784FF075
:10190000010101FA03F353604CF2503000F0DAF9B0
:1019100007F11007BD4680BD80B500AF4FF496704B
:1019200000F0D0F946F63C53C0F600035A6846F67C
:101930003C53C0F600035B784FF0010101FA03F35A
:1019400053604FF4967000F0BDF946F63C53C0F674
:1019500000035A6846F63C53C0F600035B784FF428
:10196000803101FA03F3536080BD00BF80B582B0BF
:1019700000AF40F28C03C2F200034FF0C5021A70B0
:1019800040F28C03C2F200034FF04F025A7040F253
:101990008C03C2F200034FF0A3029A7040F28C0352
:1019A000C2F200034FF0EE02DA7040F28C03C2F292
:1019B00000034FF0DD021A7140F28C03C2F2000303
:1019C0004FF0CC025A7140F28C03C2F200034FF088
:1019D000BB029A7140F28C03C2F200034FF0AA02DC
:1019E000DA7140F28C03C2F200034FF000021A7267
:1019F00040F28C03C2F200034FF000025A7240F230
:101A00008C03C2F200034FF000029A7240F28C0382
:101A1000C2F200034FF00002DA7240F28C03C2F20D
:101A200000034FF000021A7340F28C03C2F200036D
:101A30004FF028025A7340F28C03C2F200034FF0B9
:101A400000029A7346F65453C0F600035A6846F6ED
:101A50005453C0F600035B784FF4803101FA03F36E
:101A6000536046F63453C0F600035A6846F63453C2
:101A7000C0F600035B784FF0010101FA03F35360F5
:101A80004FF00E037B603FE04FF007033B6034E014
:101A900040F28C03C2F200037A689B181B781A4646
:101AA0004FF001013B6801FA03F31340002B0FDDF7
:101AB00046F64453C0F600035A6846F64453C0F64F
:101AC00000035B784FF0010101FA03F353600EE06D
:101AD00046F64453C0F600035A6846F64453C0F62F
:101AE00000035B784FF4803101FA03F35360FFF792
:101AF00013FF3B6803F1FF333B603B68002BC7DA01
:101B00007B6803F1FF337B607B68002BBCDA46F611
:101B10004450C0F600004FF0030103F073FB46F69B
:101B20003453C0F600035A6846F63453C0F6000337
:101B30005B784FF4803101FA03F3536046F6545357
:101B4000C0F600035A6846F65453C0F600035B78AB
:101B50004FF0010101FA03F353604CF2503000F0F2
:101B6000B1F807F10807BD4680BD00BF80B582B05F
:101B700000AF4FF064004FF0010141F61542C0F68E
:101B800000024FF0000300F03FFD78607B68002BFF
:101B900002D0786800F016FE07F10807BD4680BD48
:101BA00080B485B000AF786040F23003C2F2000329
:101BB0001B68FB6000BF40F23003C2F200031A68EA
:101BC000FB68D21A796848F21F53C5F2EB13A3FBE6
:101BD00001034FEA53139A42EDD340F23003C2F2AD
:101BE00000034FF000021A6007F11407BD4680BCE5
:101BF000704700BF80B582B000AF78607B684FF45B
:101C00007A7202FB03F31846FFF7CAFF07F10807D1
:101C1000BD4680BD80B400AF40F23403C2F2000381
:101C20001B6803F1010240F23403C2F200031A60A0
:101C300040F23C03C2F200031B6803F1010240F2D0
:101C40003C03C2F200031A60BD4680BC704700BF6F
:101C500080B400AF40F24C03C2F200031B78002BAB
:101C600016D040F24C03C2F200034FF000021A708B
:101C700046F68453C0F600035A6846F68453C0F60D
:101C800000035B784FF0010101FA03F3536015E0A4
:101C900040F24D03C2F200034FF000021A7046F604
:101CA0002C53C0F600035A6846F62C53C0F60003C6
:101CB0005B784FF0010101FA03F35360BD4680BC2D
:101CC000704700BF80B483B000AF786000E000BF11
:101CD0007B68002B0CBF00230123DBB27A6802F182
:101CE000FF327A60002BF2D107F10C07BD4680BCB1
:101CF000704700BF80B485B000AF7860D7ED017A3F
:101D0000FDEEE77AC7ED037AFB68184607F1140782
:101D1000BD4680BC704700BF80B400AF46F65C5340
:101D2000C0F600035B685A6A46F65C53C0F60003CF
:101D30005B7822FA03F303F00103002B15D146F67A
:101D40008453C0F600035A6846F68453C0F6000375
:101D50005B784FF4803101FA03F3536040F24C0397
:101D6000C2F200034FF001021A7046F66C53C0F63F
:101D700000035B685A6A46F66C53C0F600035B7852
:101D800022FA03F303F00103002B15D146F62C537E
:101D9000C0F600035A6846F62C53C0F600035B7881
:101DA0004FF4803101FA03F3536040F24D03C2F265
:101DB00000034FF001021A70BD4680BC704700BF9F
:101DC00080B400AF40F23403C2F200031A6842F25A
:101DD00010739A4215D94FF40043C5F2000340F244
:101DE0000402C2F2000212689A6040F25003C2F28A
:101DF00000031B6803F1010240F25003C2F200032A
:101E00001A60BD4680BC704780B485B000AFF860F2
:101E1000B9607A604FF0FF33184607F11407BD46EA
:101E200080BC704780B485B000AFF860B9607A605C
:101E30004FF0FF33184607F11407BD4680BC7047CA
:101E400080B485B000AFF860B9607A604FF00003ED
:101E5000184607F11407BD4680BC704780B485B0B2
:101E600000AFF860B9607A604FF0FF33184607F1B1
:101E70001407BD4680BC704780B400AF4FF0FF33FD
:101E80001846BD4680BC704780B483B000AF786010
:101E900039603B68002B02D04FF0FF3301E06FF058
:101EA0000103184607F10C07BD4680BC704700BF10
:101EB00080B483B000AF786039607A683B689A423A
:101EC00002D14FF0FF3301E06FF00103184607F134
:101ED0000C07BD4680BC704780B483B000AF78600B
:101EE0004FF0FF33184607F10C07BD4680BC704722
:101EF00080B487B000AF78604FF6D423C0F20003FF
:101F00007B6140F25803C2F200031B68002B14D11E
:101F100040F25803C2F2000340F22C52C2F2000217
:101F20001A6040F25803C2F200031A687B69D218A3
:101F300040F25C03C2F200031A6040F25803C2F29E
:101F400000031B683B6140F25803C2F200031B68A8
:101F50001A467B68D31803F1070323F00703FB60DD
:101F600040F25C03C2F200031B68FA689A4202D393
:101F70004FF0000306E040F25803C2F20003FA6893
:101F80001A603B69184607F11C07BD4680BC7047C4
:101F900080B483B000AF78604FF0FF33184607F18C
:101FA0000C07BD4680BC704780B483B000AF78603A
:101FB0004FF0FF33184607F10C07BD4680BC704751
:101FC00080B483B000AF786039604FF0FF331846BB
:101FD00007F10C07BD4680BC704700BF80B400AF5E
:101FE0004FF0FF331846BD4680BC704780B400AF49
:101FF0004FF0FF331846BD4680BC704780B483B0B5
:1020000000AF7860FEE700BF80B400AFBD4680BC83
:10201000704700BF80B483B000AF78604FF0FF33EB
:10202000184607F10C07BD4680BC704780B500AF6D
:102030004FF00200C2F2000000F0EEFC4FF400434B
:10204000C5F200034FF000021A614FF40043C5F2DD
:1020500000034FF0FF325A614FF40043C5F2000312
:102060004FF40042C5F2000252685A6080BD00BFC2
:1020700080B400AF4FF46D43CEF20003DB6803F48D
:10208000E0634FEA13231846BD4680BC704700BF8B
:1020900080B483B000AF03463960FB7197F9073015
:1020A000002B10DA4FF46D43CEF20003FA7902F000
:1020B0000F02A2F104013A68D2B24FEA8202D2B210
:1020C0005B181A760DE04FF46143CEF2000397F9E6
:1020D00007103A68D2B24FEA8202D2B25B1883F894
:1020E000002307F10C07BD4680BC704780B489B05F
:1020F00000AFF860B9607A60FB6803F00703FB612A
:10210000FB69C3F10703062B28BF0623BB61FB69EC
:1021100003F10603062B03D9FB6903F1FF3301E04A
:102120004FF000037B61BB694FF0010202FA03F339
:1021300003F1FF331A46BB681A407B6902FA03F2C7
:102140007B694FF0010101FA03F303F1FF331946F4
:102150007B680B401343184607F12407BD4680BC3B
:10216000704700BF80B582B000AF78607B6803F134
:10217000FF326FF07F439A4202D94FF001031DE016
:102180004EF21003CEF200037A6802F1FF325A6079
:102190004FF0FF304FF03F01FFF77AFF4EF2100390
:1021A000CEF200034FF000029A604EF21003CEF21E
:1021B00000034FF007021A604FF00003184607F1C2
:1021C0000807BD4680BD00BF80B487B000AF78600F
:1021D00040F2A403C2F200037A684FEA42129B184D
:1021E00003F108031B683B6140F26003C2F2000385
:1021F0001B68002B0DD17B684FEA431240F2A40309
:10220000C2F20003D21840F26003C2F200031A6067
:10221000DFE040F26003C2F200031B687B613B69B0
:10222000FB60D2E0FA687B699B68D31AFB60FB68AD
:10223000002B80F29C807B69DB69002B2ED07B69B0
:10224000DA697B684FEA431140F2A403C2F200034B
:10225000CB1893617B69DA6940F2A403C2F20003F0
:1022600079684FEA41115B1803F11C031A6040F2D0
:10227000A403C2F200037A684FEA42129B1803F1EA
:1022800018037A691A607B684FEA431240F2A4038C
:10229000C2F20003D2187B69DA612AE040F26003DF
:1022A000C2F200031A6840F2A403C2F20003796884
:1022B0004FEA41115B1803F118031A6040F2600302
:1022C000C2F200031A687B684FEA431140F2A4038C
:1022D000C2F20003CB18D3617B684FEA431240F28D
:1022E000A403C2F20003D21840F26003C2F200035A
:1022F0001A6040F2A403C2F200037A684FEA421265
:102300009B1803F118031B689A68FB68D21840F207
:10231000A403C2F2000379684FEA41115B1803F18C
:1023200008031A6040F2A403C2F200037A684FEA7D
:1023300042129B1803F118031A6840F2A403C2F278
:10234000000379684FEA41115B1803F118031B6819
:10235000996840F2A403C2F2000378684FEA401083
:102360001B1803F108031B68CB1A936031E0FB686C
:10237000002B27DB7B699B69002B23D140F2A40350
:10238000C2F200037A684FEA42129B1803F11C0361
:102390007A691A607B684FEA431240F2A403C2F2E2
:1023A0000003D2187B699A61FB681A4640F2A403C5
:1023B000C2F2000379684FEA41115B1803F1080388
:1023C0001A6006E07B699B697B617B69002B7FF467
:1023D00029AF07F11C07BD4680BC704780B485B0AB
:1023E00000AF78607B684FEA431240F2A403C2F268
:1023F0000003D318FB60FB68DB69002B0BD1FB6883
:102400009B69002B07D140F26003C2F200034FF03A
:1024100000021A6049E0FB68DB69002B1CD1FB68F5
:102420009A6940F26003C2F200031A6040F260034E
:10243000C2F200031B684FF00002DA61FB689B697F
:10244000FA6892699168FA6892688A189A60FB68DB
:102450004FF000029A6128E0FB689B69002B09D1CC
:10246000FB68DB694FF000029A61FB684FF00002E5
:10247000DA611AE0FB68DB69FA6892699A61FB68C5
:102480009B69FA68D269DA61FB689B69FA689269AC
:102490009168FA6892688A189A60FB684FF00002A7
:1024A0009A61FB684FF00002DA6107F11407BD463C
:1024B00080BC704780B582B000AF40F26003C2F2CA
:1024C00000031B687B6031E07B681B79002B0FD118
:1024D0007B681B681846FFF781FF7B684FF001029D
:1024E0005A717B681B697A6852691046984717E0F1
:1024F0007B681B79012B21D17B681B681846FFF78D
:102500006DFF7B68DA687B689A607B681B68184699
:10251000FFF75AFE7B681B697A6852691046984734
:1025200040F26003C2F200031B687B607B68002BF3
:1025300005D07B689B68002BC6D000E000BF07F188
:102540000807BD4680BD00BF80B582B000AF40F235
:102550006003C2F200031B687B6040F26803C2F2B2
:1025600000031B6803F1010240F26803C2F200039A
:102570001A607B68002B10D07B689B68012B06D902
:102580007B689B6803F1FF327B689A6005E07B689B
:102590004FF000029A60FFF78DFF07F10807BD4674
:1025A00080BD00BF80B582B000AF4FF000037B60FC
:1025B00040F26003C2F200034FF000021A6042F6DC
:1025C000E060FFF7CFFD03467B607B68012B16D0F0
:1025D000FFF74EFD034618464FF00A014FF0000288
:1025E000FFF784FD03464FF0FF301946FFF750FD1B
:1025F00040F26403C2F200034FF000021A6007F1D8
:102600000807BD4680BD00BF80B489B000AFF86048
:102610007A603B600B46FB724FF00003FB614FF0AA
:102620000003BB614FF000037B614FF000033B618F
:10263000FB7A002B05D0FB7A012B02D04FF001036F
:102640007B61FB68632B02D84FF001037B61FB6861
:10265000002B02D14FF001037B617B68002B02D17C
:102660004FF001037B617B69002B40F0A3804FF0AA
:102670000003BB619AE040F26403C2F200031A68EF
:10268000BB6922FA03F303F00103002B40F08A80B8
:10269000BB694FF0010202FA03F240F26403C2F296
:1026A00000031B681A4340F26403C2F200031A607D
:1026B00040F2A403C2F20003BA694FEA42129B1827
:1026C000BA691A6040F2A403C2F20003BA694FEA81
:1026D00042129B18FA7A1A7140F2A403C2F2000364
:1026E000BA694FEA42129B184FF001025A71FA6818
:1026F00048F21F53C5F2EB13A3FB02134FEA531327
:102700003B613B6903F1010240F2A403C2F2000302
:10271000B9694FEA41115B1803F108031A6040F2EE
:10272000A403C2F20003BA694FEA42129B1803F1F4
:102730000C033A691A6040F2A403C2F20003BA69BA
:102740004FEA42129B1803F110037A681A6040F2B4
:10275000A403C2F20003BA694FEA42129B1803F1C4
:1027600014033A681A6040F2A403C2F20003BA6983
:102770004FEA42129B1803F11C034FF000021A604B
:1027800040F2A403C2F20003BA694FEA42129B1856
:1027900003F118034FF000021A60BB6903F1010353
:1027A000FB6107E0BB6903F10103BB61BB691F2B40
:1027B0007FF661AFFB69184607F12407BD4680BC70
:1027C000704700BF80B584B000AF78604FF0000361
:1027D000FB607B68202B02D94FF00103FB6040F2C5
:1027E0006403C2F200031A687B6803F1FF3322FA24
:1027F00003F303F00103002B02D14FF00103FB6050
:102800007B6803F1FF3240F2A403C2F200034FEAF7
:1028100042129B1803F108031B68002B02D14FF0F2
:102820000103FB60FB68002B1FD17B6803F1FF32C3
:1028300040F2A403C2F200034FEA42129B185B79F4
:10284000002B12D07B6803F1FF3240F2A403C2F2E6
:1028500000034FEA42129B184FF000025A717B6846
:1028600003F1FF331846FFF7AFFCFB68184607F18A
:102870001007BD4680BD00BF80B584B000AF786052
:102880004FF00003FB607B68202B02D94FF001035F
:10289000FB6040F26403C2F200031A687B6803F134
:1028A000FF3322FA03F303F00103002B02D14FF0B0
:1028B0000103FB60FB68002B1FD17B6803F1FF3233
:1028C00040F2A403C2F200034FEA42129B185B7964
:1028D000012B12D07B6803F1FF331846FFF77EFD12
:1028E0007B6803F1FF3240F2A403C2F200034FEA17
:1028F00042129B184FF001025A71FB68184607F10B
:102900001007BD4680BD00BF80B584B000AF7860C1
:102910004FF00003FB607B68202B02D94FF00103CE
:10292000FB6040F26403C2F200031A687B6803F1A3
:10293000FF3322FA03F303F00103002B02D14FF01F
:102940000103FB60FB68002B26D17B6803F1FF329B
:1029500040F2A403C2F200034FEA42129B185B79D3
:10296000002B05D17B6803F1FF331846FFF736FDD6
:102970007B6803F1FF334FF0010202FA03F36FEAC1
:10298000030240F26403C2F200031B681A4040F2E3
:102990006403C2F200031A60FB68184607F11007CF
:1029A000BD4680BD80B400AF40F26803C2F20003B0
:1029B0001B684FF0640202FB03F31846BD4680BC5F
:1029C000704700BF80B487B000AF78604FF000035D
:1029D0007B614FF000033B614FF48843C5F2000375
:1029E000FB607B684FEA13737B61FB6803F11003A4
:1029F00019467A6913464FEA43039B184FEA83034B
:102A0000CB183B617B6823F070423B691A6007F189
:102A10001C07BD4680BC704780B487B000AF7860AB
:102A20004FF000037B614FF000033B614FF488439C
:102A3000C5F20003FB607B684FEA13737B61FB68A0
:102A400003F1140319467A6913464FEA43039B18AE
:102A50004FEA8303CB183B617B6823F070423B69EC
:102A60001A6007F11C07BD4680BC704780B483B074
:102A700000AF4FF48843C5F200037B604FF00003C2
:102A8000FB707B681B68FB70FB78184607F10C072E
:102A9000BD4680BC704700BF80B489B000AF78608D
:102AA0004FF00F03FB614FF00003BB614FF00003D9
:102AB0007B614FF000033B614FF48843C5F2000394
:102AC000FB607B684FEA1373BB61FB6803F10C0387
:102AD0001946BA6913464FEA43039B184FEA83032A
:102AE000CB187B617B691A687B68134023F07043C5
:102AF0003B613B69002B03D04FF00103FB6102E017
:102B00004FF00003FB61FB69184607F12407BD463F
:102B100080BC704780B483B000AF4FF48843C5F2E7
:102B200000037B607B689B6843F001027B689A60CE
:102B300007F10C07BD4680BC704700BF80B582B06E
:102B400000AF4FF001037B6004F00AF846F68C40BA
:102B5000C0F6000000F086F878607B68002B0DD18D
:102B600046F68C43C0F600035B78012B06D146F68F
:102B70008C40C0F6000000F0B3FA78604FF40143D7
:102B8000C4F602034FF40142C4F60202126C22F0B2
:102B900070021A644FF40143C4F602034FF4014279
:102BA000C4F60202126C1A644FF40143C4F6020325
:102BB0004FF40142C4F60202126922F480421A6103
:102BC0004FF40143C4F602034FF40142C4F602027B
:102BD00012691A6146F6D440C0F6000000F042F8CF
:102BE00078607B68002B0DD146F6D443C0F6000315
:102BF0005B78012B06D146F6D440C0F6000000F009
:102C00006FFA78604FF40343C4F602034FF40342B3
:102C1000C4F60202126C22F4E0221A644FF4034359
:102C2000C4F602034FF40342C4F60202126C1A64A3
:102C30004FF40343C4F602034FF40342C4F6020206
:102C4000526922F040025A614FF40343C4F6020372
:102C50004FF40342C4F6020252695A6107F10807B1
:102C6000BD4680BD90B585B000AF78604FF00103E0
:102C7000FB607B68DB6B1B78002B40F069817B6815
:102C80009B694FF007021A617B68DB7B012B27D120
:102C90007B689A697B689B691B6823F0C05323F4A7
:102CA000402313607B689B697A689269526822F0BE
:102CB0000C025A607B689B697A68926911687A682D
:102CC00092F824204FEA824202F440220A431A601A
:102CD0007B689B697A689269526842F008025A6080
:102CE0007B685B7C012B2BD17B6893F82030012B18
:102CF00026D07B689A697B689B691B6823F0C24376
:102D000023F4401313607B689B697A689269526868
:102D100022F400325A607B689B697A689269116874
:102D20007A6812784FEA026202F080720A431A60EF
:102D30007B689B697A689269526842F400325A60F3
:102D40007B689A697B689B695B6923F4CE4323F0B7
:102D5000090353617B689B697A68926951697A6853
:102D600092F8362002F001007A6892F834204FEA97
:102D7000822202F4806210437A6892F835204FEA8A
:102D8000022202F4407202430A435A617B6893F8BC
:102D90002030012B0ED07B689B697A68127B4FEA4A
:102DA000420202F002017A689269526922F002023C
:102DB0000A435A617B689B697A68926951697A68AB
:102DC00092F821204FEA423202F4C0420A435A618B
:102DD0007B689B697A68527B02F00F017A6892697E
:102DE000126A22F00F020A431A627B6893F82030BD
:102DF000012B2CD07B689B697A68927C4FEA425207
:102E000002F400117A689269526922F400120A43AE
:102E10005A617B689B697A68D27C4FEA825202F4DD
:102E200080017A689269526922F480020A435A61E9
:102E30007B689B697A68527C4FEA424202F4003117
:102E40007A689269526922F400320A435A617B68B7
:102E50009B697A6892F8222002F00F017A689269E1
:102E6000526A22F00F020A435A627B689B697A68B1
:102E7000127C9A617B689A697B689B6A4FEA03437C
:102E80004FEA134353637B689A697B689B684FEAF8
:102E900003434FEA1343D3637B689A697B689B695A
:102EA000D3F8B03043F4706343F00F03C2F8B0308E
:102EB0007B6893F82030012B0ED1786801F058F828
:102EC0007B68DB697A68D269D2F8A4107A68126BE1
:102ED0000A43C3F8A4200AE07B689B697A68926978
:102EE000D2F8A4107A68126B0A43C3F8A4207B6856
:102EF0005B697A68526911697A6892F837204FEAFB
:102F000082024FF0010000FA02F07A6892F837204E
:102F10004FEA820202F101024FF0010404FA02F2C8
:102F200010437A6892F837204FEA820202F10202D7
:102F30004FF0010404FA02F202430A431A614FF00F
:102F40000003FB607B68DB6B4FF001021A7000E04E
:102F500000BFFB68184607F11407BD4690BD00BFCF
:102F600080B489B000AF78604FF00103FB617B68EB
:102F7000DB6B1B78002B00F0AB807B689B694FF00C
:102F800007021A617B689B6940F60F72C3F8B02094
:102F90007B689B694FF00002C3F8A4207B685B69E3
:102FA0007A68526991687A6892F837204FF0010088
:102FB00000FA02F20A4342F440729A607B689B690D
:102FC0004FF000021A607B689B694FF000025A6064
:102FD0007B689B694FF000025A617B689B694FF0E8
:102FE00000025A627B689B694FF000029A617B681D
:102FF0009B694FF000021A627B689B694FF00002E8
:10300000DA637B689B694FF000025A637B6893F830
:103010002030012B54D17B68DB694FF007021A6125
:103020007B68DB6940F60F72C3F8B0207B68DB6910
:103030004FF00002C3F8A4204FF40073BB614FF4BB
:1030400080737B617B6893F838303B617A69BB6938
:103050001343FB607B685B697A68526991683A69DF
:103060004FF0010000FA02F0FA6802430A439A6046
:103070007B68DB694FF000021A607B68DB694FF008
:1030800000025A607B68DB694FF000025A617B687E
:10309000DB694FF000025A627B68DB694FF0000287
:1030A0009A617B68DB694FF000021A627B68DB691A
:1030B0004FF00002DA637B68DB694FF000025A636D
:1030C0007B68DB6B4FF000021A704FF00003FB616E
:1030D000FB69184607F12407BD4680BC704700BF56
:1030E00080B485B000AF78604FF00103FB607B686F
:1030F000DB6B1B78012B05D07B68DB6B1B78032B0C
:1031000040F0A7807B689B6940F60F72C3F8B0203F
:103110007B685B697A685269D1687A6892F837206F
:103120004FF0010000FA02F20A43DA607B6893F87C
:103130002030012B0DD17B685B697A685269D168B8
:103140007A6892F838204FF0010000FA02F20A4340
:10315000DA607B689B7B002B15D17B689B697A6862
:103160009269D26842F00102DA607B6893F82030FD
:10317000012B65D17B68DB697A68D269D26842F03D
:103180000102DA605CE07B689B7B012B27D17B68C6
:103190009A697B689B691B6823F0C06323F4403302
:1031A00013607B689B697A689269526822F0030217
:1031B0005A607B689B697A68926911687A6892F8AC
:1031C00023204FEA024202F440320A431A607B682D
:1031D0009B697A689269526842F001025A607B6882
:1031E0009B7B012B2CD17B6893F82030012B27D1BE
:1031F0007B68DA697B68DB691B6823F0C06323F4B2
:10320000403313607B68DB697A68D269526822F0C8
:1032100003025A607B68DB697A68D26911687A6850
:1032200092F823204FEA024202F440320A431A6025
:103230007B68DB697A68D269526842F001025A60A1
:103240007B68DB6B4FF002021A704FF00003FB60EB
:1032500000E000BFFB68184607F11407BD4680BCBC
:10326000704700BF80B487B000AF78604FF00103B3
:103270007B617B68DB6B1B78022B41D17B6893F809
:1032800037303B614FF40073FB607B689B694FF004
:1032900007021A617B685B697A68526991683A69CA
:1032A0004FF0010000FA02F0FA6802430A439A6004
:1032B0007B6893F82030012B19D17B68DB694FF0D4
:1032C00007021A617B6893F838303B614FF4007352
:1032D000FB607B685B697A68526991683A694FF074
:1032E000010000FA02F0FA6802430A439A607B6820
:1032F000DB6B4FF003021A704FF000037B6100E0BC
:1033000000BF7B69184607F11C07BD4680BC7047AB
:1033100080B584B000AF786039604FF00103FB6086
:103320007B6893F82030012B0AD17B68DB695B6BEB
:103330004FEA03427B689B695B6B1343BB6003E00E
:103340007B689B695B6BBB607B68DB6B1B78002BCE
:103350001DD07B68DA6A3B689A4208D27B6893F892
:103360002030002B03D14FF00203FB600FE03A68DE
:10337000BB689A4203D3BB6803F101033B607B68DF
:103380001B6C7868396898474FF00003FB60FB6856
:10339000184607F11007BD4680BD00BF80B487B056
:1033A00000AF786039607B687B617B699A693B68B4
:1033B0004FEA03434FEA1343D3637B6993F83730F3
:1033C0004FEA83033B613B69FB607B695B697A6918
:1033D00052691169FA684FF0010000FA02F20A43DB
:1033E0001A6107F11C07BD4680BC704790B488B0D5
:1033F00000AF786039604FF00003FB614FF00003CD
:10340000BB617B687B617B699B695B6B9BB21A4686
:103410003B68B3FBF2F102FB01F29B1AFB617B6993
:103420009B695B6B9BB23A68B2FBF3F3BB617B6950
:103430009A69FB694FEA03434FEA1343D3637B69FD
:10344000DA69BB694FEA03434FEA1343D3637B69ED
:1034500093F838304FEA83033B617B6993F8373048
:103460004FEA8303FB607B695B697A695269116982
:10347000FA684FF0010000FA02F03A694FF00104D7
:1034800004FA02F202430A431A6107F12007BD461B
:1034900090BC704780B485B000AF786039607B68BD
:1034A000FB60FB689A693B684FEA03434FEA1343AA
:1034B000D363FB6893F837304FEA8303BB60FB6844
:1034C0005B69FA6852691169BA684FF0010000FA45
:1034D00002F20A431A6107F11407BD4680BC704727
:1034E00080B584B000AF786039604FF00103FB60B5
:1034F0007B68DB6B1B78002B1BD097ED007ADFED30
:10350000107AB4EEE77AF1EE10FA06DCD7ED007A25
:10351000F5EEC07AF1EE10FA03D54FF00203FB602E
:1035200007E07B685B6C7868396898474FF0000368
:10353000FB60FB68184607F11007BD4680BD00BF61
:103540000000C84280B489B000AF786039604FF0A5
:103550000003FB617B68BB613B687B619FED1F7A69
:10356000D7ED057A37EE677ADFED1C7AC7EE277A5A
:10357000C7ED057ABB699B695B6B03F1010307EE3D
:10358000103AF8EE477AC7ED047A97ED047AD7ED52
:10359000057A67EE277AFCEEE77AC7ED077ABB6912
:1035A0009A69FB694FEA03434FEA1343D363BB694C
:1035B00093F837304FEA8303FB60BB695B69BA69F4
:1035C00052691169FA684FF0010000FA02F20A43E9
:1035D0001A6107F12407BD4680BC70470000C8424D
:1035E00090B48AB000AF786039604FF000037B621E
:1035F0004FF000033B624FF00003FB617B68BB614F
:103600003B687B61BB69DB695B6B03F101037B6238
:10361000BB699B695B6B4FEA03434FEA134303F1BA
:1036200001027B6A02FB03F37B627B6A03F1010305
:103630007B629FED347AD7ED057A37EE677ADFED5E
:10364000317AC7EE277AC7ED057AD7ED097AF8EE19
:10365000677AC7ED047A97ED047AD7ED057A67EEBD
:10366000277AFCEEE77AC7ED097ABB699B695B6B49
:103670004FEA03434FEA13437A6AB2FBF3F103FBC9
:1036800001F3D31A3B62BB699A693B6A4FEA034371
:103690004FEA1343D363BB699B695B6B4FEA0343F8
:1036A0004FEA13437A6AB2FBF3F3FB61BB69DA6951
:1036B000FB694FEA03434FEA1343D363BB6993F8B3
:1036C00037304FEA8303FB60BB6993F838304FEA29
:1036D0008303BB60BB695B69BA6952691169FA68A7
:1036E0004FF0010000FA02F0BA684FF0010404FA4A
:1036F00002F202430A431A6107F12807BD4690BC53
:10370000704700BF0000C84280B489B000AF786045
:1037100039604FF00003FB617B68BB613B687B61F4
:103720009FED1E7AD7ED057A37EE677ADFED1B7ACB
:10373000C7EE277AC7ED057ABB699B69D3ED0D7A91
:10374000F8EE677AC7ED047A97ED047AD7ED057A3B
:1037500067EE277AFCEEE77AC7ED077ABB699A69CC
:10376000FB694FEA03434FEA1343D363BB6993F802
:1037700037304FEA8303FB60BB695B69BA69526902
:103780001169FA684FF0010000FA02F20A431A6167
:1037900007F12407BD4680BC704700BF0000C84247
:1037A00080B586B000AFF860B9607A604FF0010371
:1037B0007B614FF000033B61FB68DB6B1B78002BE8
:1037C0003BD0BB68002B09D0FB68DA6A7B689A4261
:1037D00008D2FB6893F82030002B03D14FF002038E
:1037E0007B612AE0FB68DA6ABB689A4208D2FB6810
:1037F00093F82030012B03D04FF002037B611CE0D3
:10380000BB683B61FB6893F82030012B05D1FB6856
:10381000DB693A694FEA12425A63FB689A693B696D
:103820004FEA03434FEA13435363FB681B6CF8688A
:10383000796898474FF000037B617B69184607F170
:103840001807BD4680BD00BF80B487B000AF786068
:1038500039604FF001037B614FF000033B617B68EF
:10386000DB6B1B78002B55D03B68002B03D14FF04E
:1038700002037B614EE07B68DA6A3B689A4208D2B9
:103880007B6893F82030012B03D04FF002037B615B
:1038900040E03B683B617B6893F82030012B05D109
:1038A0007B68DB693A694FEA12425A637B689A691E
:1038B0003B694FEA03434FEA134353637B6893F832
:1038C00037304FEA8303FB607B685B697A68526933
:1038D0001169FA684FF0010000FA02F20A431A6116
:1038E0007B6893F82030012B11D17B6893F8383036
:1038F0004FEA8303FB607B685B697A6852691169F0
:10390000FA684FF0010000FA02F20A431A614FF020
:1039100000037B617B69184607F11C07BD4680BC2C
:10392000704700BF80B588B000AFF860B9607A60BA
:103930004FF00103FB614FF00003BB61FB68DB6BE1
:103940001B78002B70D0D7ED027AF5EE407AF1EEBD
:1039500010FA0FD097ED017ADFED367AB4EEE77A00
:10396000F1EE10FA06DCD7ED017AF5EEC07AF1EE51
:1039700010FA03D54FF00203FB6155E0FB685B686A
:103980007B6197ED057AD7ED027A67EE277AC7ED6E
:10399000057A9FED297AD7ED057AC7EE277AFCEEF6
:1039A000E77AC7ED067AFB6893F82030002B20D128
:1039B000BA694FF6FF739A4203D94FF00203FB61D5
:1039C0002AE0FB6893F83630002B06D1FB689B6930
:1039D000BA6902F1FF325A6307E0FB689B69BA6972
:1039E00002F1FF324FEA52025A634FF00003FB61CB
:1039F00012E0FB6893F82030012B08D1BA694FF62A
:103A0000FF739A4203D84FF00203FB6104E0F868A9
:103A1000B96900F0A9F8F861FB69002B04D1FB68D3
:103A20005B6CF86879689847FB69184607F12007CE
:103A3000BD4680BD0000C842286B6E4E90B589B06F
:103A400000AF786039604FF00103FB614FF0000375
:103A5000BB617B68DB6B1B78002B7DD0D7ED007AD8
:103A6000F5EE407AF1EE10FA03D14FF00203FB615C
:103A700072E07B685B687B6197ED057AD7ED007A31
:103A800067EE277AC7ED057A9FED367AD7ED057A8E
:103A9000C7EE277AFCEEE77AC7ED067A7B6893F8E3
:103AA0002030002B32D1BA694FF6FF739A4203D906
:103AB0004FF00203FB614FE07B6893F83630002B38
:103AC00006D17B689B69BA6902F1FF325A6307E04D
:103AD0007B689B69BA6902F1FF324FEA52025A636E
:103AE0007B6893F837304FEA83033B617B685B69FF
:103AF0007A68526911693A694FF0010000FA02F2DE
:103B00000A431A614FF00003FB6125E07868B96948
:103B100000F02AF8F861FB69002B1DD17B6893F84F
:103B200037304FEA8303FB607B6893F838304FEA05
:103B30008303BB607B685B697A6852691169FA68C4
:103B40004FF0010000FA02F0BA684FF0010404FAE5
:103B500002F202430A431A61FB69184607F124077F
:103B6000BD4690BD286B6E4E80B489B000AF7860C2
:103B700039603B68FB614FF00003FB744FF00103B9
:103B8000FB603B68B3F1FF3F03D14FF00203FB60E2
:103B900041E03A684FF6FF739A4217D9FB694FEA42
:103BA0005303FB61FB7C03F10103FB74FA694FF6DD
:103BB000FE739A42F2D8FB7C4FF0010202FA03F343
:103BC00003F1FF33BB61FB697B6104E03B687B6110
:103BD0004FF00003BB617B6893F83630012B07D1AF
:103BE000BB694FEA5303BB617B694FEA53037B61B7
:103BF0007B689A697B694FEA03434FEA1343536337
:103C00007B68DA69BB694FEA03434FEA13435363A6
:103C10004FF00003FB60FB68184607F12407BD4620
:103C200080BC704780B485B000AF786039604FF0D9
:103C30000103FB607B68DB6B1B78012B04D07B6886
:103C4000DB6B1B78032B15D17B689A693B684FEAC5
:103C500003434FEA134313677B6893F82030012B2B
:103C600005D17B68DB693A684FEA12421A674FF068
:103C70000003FB60FB68184607F11407BD4680BCD3
:103C8000704700BF80B485B000AF786039604FF0F6
:103C90000103FB604FF00003BB607B68DB6B1B78AC
:103CA000002B1ED07B6893F82030012B0FD17B684E
:103CB000DB699B6803F00103BB607B689B699A68C2
:103CC000BB68134003F001023B681A6006E07B68A2
:103CD0009B699B6803F001023B681A604FF0000388
:103CE000FB60FB68184607F11407BD4680BC7047AF
:103CF00080B485B000AF786039604FF00103FB609D
:103D00004FF00003BB607B68DB6B1B78002B5ED041
:103D10007B6893F82030012B43D17B68DB691B6FF4
:103D20004FEA0343BB607B689B691B6F4FEA034309
:103D30004FEA1343BA681A433B689A607B68DB69B1
:103D4000DA6B3B681A603B681B687A689269526B51
:103D500002FB03F23B681A603B681A687B689B6948
:103D6000DB6BD2183B681A607B68DB695B6B03F125
:103D700001023B685A603B685A687B689B695B6BD1
:103D80004FEA03434FEA134303F1010303FB02F23B
:103D90003B685A603B685B6803F101023B685A600C
:103DA00012E07B689B691B6F4FEA03434FEA1343A2
:103DB0003A6893607B689B69DA6B3B681A607B6842
:103DC0009B695A6B3B685A604FF00003FB60FB68CD
:103DD000184607F11407BD4680BC704780B485B013
:103DE00000AF786039604FF00103FB607B68DB6BEC
:103DF0001B78002B29D07B6893F82030012B1CD135
:103E00007B68DB695B6B03F101023B681A603B680E
:103E10001A687B689B695B6B4FEA03434FEA134365
:103E200003F1010303FB02F23B681A603B681B6865
:103E300003F101023B681A6004E07B689B695A6BDE
:103E40003B681A604FF00003FB60FB68184607F1FF
:103E50001407BD4680BC704790B486B000AF786050
:103E60004FF001037B617B68DB6B1B78002B38D044
:103E70007B6893F82030012B1ED17B6893F8373094
:103E80004FEA83033B617B6893F838304FEA830342
:103E9000FB607B685B697A68526911693A694FF027
:103EA000010000FA02F0FA684FF0010404FA02F28D
:103EB00002430A431A6111E07B6893F837304FEAF6
:103EC0008303BB607B685B697A6852691169BA6871
:103ED0004FF0010000FA02F20A431A614FF00003AA
:103EE0007B617B69184607F11807BD4690BC704797
:103EF00080B483B000AF78607B68DB7C012B18D185
:103F00007B689B697A689269D2F8B02042F480623B
:103F1000C3F8B0207B6893F82030012B09D17B686F
:103F2000DB697A68D269D2F8B02042F48062C3F8C3
:103F3000B0207B689B697A689269D2F8B02042F41D
:103F40000062C3F8B0207B6893F82030012B09D1C0
:103F50007B68DB697A68D269D2F8B02042F40062EB
:103F6000C3F8B02007F10C07BD4680BC704700BF06
:103F700090B482B000AF78607B68DB694FF00702D5
:103F80001A617B68DB697A68926A4FEA12425A6367
:103F90007B68DB697A6892684FEA1242DA637B6871
:103FA000DB697A68D269526842F480125A607B6891
:103FB000DB7B012B27D17B68DA697B68DB691B68B7
:103FC00023F0C05323F4402313607B68DB697A68D5
:103FD000D269526822F00C025A607B68DB697A6809
:103FE000D26911687A6892F824204FEA824202F47A
:103FF00040220A431A607B68DB697A68D26952689A
:1040000042F008025A607B685B7C012B26D17B68FA
:10401000DA697B68DB691B6823F0C24323F4401331
:1040200013607B68DB697A68D269526822F40032D7
:104030005A607B68DB697A68D26911687A6812789D
:104040004FEA026202F080720A431A607B68DB6901
:104050007A68D269526842F400325A607B68DA6941
:104060007B68DB695B6923F4CE4323F00B03536168
:104070007B68DB697A6892F8362002F001017A6881
:10408000127B4FEA420202F0020211437A6892F870
:1040900034204FEA822202F4806211437A6892F857
:1040A00035204FEA022202F440720A435A617B68CB
:1040B000DB697A68D26951697A6892F821204FEAFF
:1040C000423202F4C0420A435A617B68DB697A6873
:1040D000527B02F00F017A68D269126A22F00F0255
:1040E0000A431A627B68DB697A68927C4FEA425223
:1040F00002F400117A68D269526922F400120A436C
:104100005A617B68DB697A68D27C4FEA825202F49A
:1041100080017A68D269526922F480020A435A61A6
:104120007B68DB697A68527C4FEA424202F40031D4
:104130007A68D269526922F400320A435A617B6874
:10414000DB697A6892F8222002F00F017A68D2695E
:10415000526A22F00F020A435A627B68DB697A686E
:10416000127C9A617B685B697A68526911697A6826
:1041700092F838204FEA82024FF0010000FA02F074
:104180007A6892F838204FEA820202F101024FF079
:10419000010404FA02F210437A6892F838204FEAD8
:1041A000820202F102024FF0010404FA02F2024319
:1041B0000A431A6107F10807BD4690BC704700BF6B
:1041C00080B485B000AF78600B46FB704FF0010300
:1041D000FB607B68DB6B1B78002B03D14FF0010386
:1041E000FB6024E07B6893F82030012B0ED17B68C4
:1041F000DB697A68D269D2F8A410FA784FF001002E
:1042000000FA02F20A43C3F8A4200DE07B689B6920
:104210007A689269D2F8A410FA784FF0010000FA97
:1042200002F20A43C3F8A4204FF00003FB60FB68CE
:10423000184607F11407BD4680BC704780B485B0AE
:1042400000AF78600B46FB704FF00103FB607B68AA
:10425000DB6B1B78002B03D14FF00103FB6028E0E0
:104260007B6893F82030012B10D17B68DB697A687A
:10427000D269D2F8A410FA784FF0010000FA02F2E5
:104280006FEA02020A40C3F8A4200FE07B689B6932
:104290007A689269D2F8A410FA784FF0010000FA17
:1042A00002F26FEA02020A40C3F8A4204FF00003B2
:1042B000FB60FB68184607F11407BD4680BC7047D9
:1042C00080B485B000AF78600B46FB704FF00103FF
:1042D000FB607B68DB6B1B78002B03D14FF0010385
:1042E000FB6024E07B6893F82030012B0ED17B68C3
:1042F000DB697A68D269D2F8B010FA784FF0010021
:1043000000FA02F20A43C3F8B0200DE07B689B6913
:104310007A689269D2F8B010FA784FF0010000FA8A
:1043200002F20A43C3F8B0204FF00003FB60FB68C1
:10433000184607F11407BD4680BC704780B485B0AD
:1043400000AF78600B46FB704FF00103FB607B68A9
:10435000DB6B1B78002B03D14FF00103FB6024E0E3
:104360007B6893F82030012B0ED17B68DB697A687B
:10437000D269D2F8AC10FA784FF0010000FA02F2DC
:104380000A43C3F8AC200DE07B689B697A689269A8
:10439000D2F8AC10FA784FF0010000FA02F20A43AA
:1043A000C3F8AC204FF00003FB60FB68184607F130
:1043B0001407BD4680BC704780B487B000AFF8607A
:1043C0000B467A60FB724FF001037B61FB68DB6B8D
:1043D0001B78002B03D14FF001037B6138E0FB68B1
:1043E00093F82030012B18D1FB68DB69D3F8A020AB
:1043F000FB7A4FF0010101FA03F31A40FB7A22FA2B
:1044000003F3002B04D07B684FF001021A701CE00C
:104410007B684FF000021A7017E0FB689B69D3F8C5
:10442000A020FB7A4FF0010101FA03F31A40FB7A56
:1044300022FA03F3002B04D07B684FF001021A70BC
:1044400003E07B684FF000021A704FF000037B61BD
:104450007B69184607F11C07BD4680BC704700BF4A
:1044600080B400AF4FF46D43CEF20003DB6803F479
:10447000E0634FEA13231846BD4680BC704700BF77
:1044800080B483B000AF0346FB714FF46143CEF2BA
:10449000000397F907204FEA5212F97901F01F0142
:1044A0004FF0010000FA01F143F8221007F10C0768
:1044B000BD4680BC704700BF80B483B000AF0346E8
:1044C0003960FB7197F90730002B10DA4FF46D4318
:1044D000CEF20003FA7902F00F02A2F104013A6869
:1044E000D2B24FEA8202D2B25B181A760DE04FF4D4
:1044F0006143CEF2000397F907103A68D2B24FEA4F
:104500008202D2B25B1883F8002307F10C07BD4684
:1045100080BC704780B489B000AFF860B9607A6041
:10452000FB6803F00703FB61FB69C3F10703062B7C
:1045300028BF0623BB61FB6903F10603062B03D9E1
:10454000FB6903F1FF3301E04FF000037B61BB69BE
:104550004FF0010202FA03F303F1FF331A46BB687E
:104560001A407B6902FA03F27B694FF0010101FAFC
:1045700003F303F1FF3319467B680B4013431846DE
:1045800007F12407BD4680BC704700BF80B500AF6F
:10459000FFF766FF034618464FF03F014FF0000259
:1045A000FFF7B8FF03464FF000001946FFF784FFFE
:1045B0004FF00000FFF764FF80BD00BF80B487B0FC
:1045C00000AF0346B9607A60FB7340F2A443C2F2C5
:1045D00000037B61FA7B7B69B96843F83210FB7B8F
:1045E0007A694FEAC303D3187A685A6007F11C0747
:1045F000BD4680BC704700BF80B584B000AF40F2BC
:10460000A443C2F20003FB604FF00003BB604FF015
:1046100000037B6044F27403C5F200031B687B60F7
:104620007B6803F00103002B19D0FB681B68002B8B
:1046300008D0FB681B683B60FB685B68BB603B683D
:10464000B868984744F27403C5F2000344F2740258
:10465000C5F20002D26842F00102DA6011E27B6822
:1046600003F002034FEA5303002B19D0FB689B6849
:10467000002B08D0FB689B683B60FB68DB68BB6075
:104680003B68B868984744F27403C5F2000344F2EB
:104690007402C5F20002D26842F00202DA60F0E170
:1046A0007B6803F004034FEA9303002B19D0FB68E7
:1046B0001B69002B08D0FB681B693B60FB685B69CA
:1046C000BB603B68B868984744F27403C5F20003C6
:1046D00044F27402C5F20002D26842F00402DA60C9
:1046E000CFE17B6803F008034FEAD303002B19D016
:1046F000FB689B69002B08D0FB689B693B60FB68EB
:10470000DB69BB603B68B868984744F27403C5F244
:10471000000344F27402C5F20002D26842F00802BB
:10472000DA60AEE17B6803F480334FEA1343002B79
:1047300019D0FB681B6A002B08D0FB681B6A3B6022
:10474000FB685B6ABB603B68B868984744F27403D7
:10475000C5F2000344F27402C5F20002D26842F4CA
:104760008032DA608DE17B6803F400334FEA534313
:10477000002B19D0FB689B6A002B08D0FB689B6A52
:104780003B60FB68DB6ABB603B68B868984744F2F3
:104790007403C5F2000344F27402C5F20002D26849
:1047A00042F40032DA606CE17B6803F480234FEA64
:1047B0009343002B19D0FB681B6B002B08D0FB68C0
:1047C0001B6B3B60FB685B6BBB603B68B8689847E2
:1047D00044F27403C5F2000344F27402C5F200020D
:1047E000D26842F48022DA604BE17B6803F4002354
:1047F0004FEAD343002B19D0FB689B6B002B08D0EA
:10480000FB689B6B3B60FB68DB6BBB603B68B8681D
:10481000984744F27403C5F2000344F27402C5F2EF
:104820000002D26842F40022DA602AE17B6803F4D5
:1048300000134FEA5353002B19D0FB681B6C002B5D
:1048400008D0FB681B6C3B60FB685B6CBB603B6823
:10485000B868984744F27403C5F2000344F2740246
:10486000C5F20002D26842F40012DA6009E17B6806
:1048700003F480034FEA9353002B19D0FB689B6C21
:10488000002B08D0FB689B6C3B60FB68DB6CBB605B
:104890003B68B868984744F27403C5F2000344F2D9
:1048A0007402C5F20002D26842F48002DA60E8E0E5
:1048B0007B6803F400034FEAD353002B19D0FB6845
:1048C0001B6D002B08D0FB681B6D3B60FB685B6DAC
:1048D000BB603B68B868984744F27403C5F20003B4
:1048E00044F27402C5F20002D26842F40002DA60B7
:1048F000C7E07B6803F080734FEA1363002B19D085
:10490000FB689B6D002B08D0FB689B6D3B60FB68D0
:10491000DB6DBB603B68B868984744F27403C5F22E
:10492000000344F27402C5F20002D26842F08072C1
:10493000DA60A6E07B6803F000734FEA5363002B54
:1049400019D0FB681B6E002B08D0FB681B6E3B6008
:10495000FB685B6EBB603B68B868984744F27403C1
:10496000C5F2000344F27402C5F20002D26842F0BC
:104970000072DA6085E07B6803F080634FEA93633E
:10498000002B19D0FB689B6E002B08D0FB689B6E38
:104990003B60FB68DB6EBB603B68B868984744F2DD
:1049A0007403C5F2000344F27402C5F20002D26837
:1049B00042F08062DA6064E07B6803F000634FEAF3
:1049C000D363002B19D0FB681B6F002B08D0FB684A
:1049D0001B6F3B60FB685B6FBB603B68B8689847C8
:1049E00044F27403C5F2000344F27402C5F20002FB
:1049F000D26842F00062DA6043E07B6803F08053E3
:104A00004FEA1373002B19D0FB689B6F002B08D063
:104A1000FB689B6F3B60FB68DB6FBB603B68B86803
:104A2000984744F27403C5F2000344F27402C5F2DD
:104A30000002D26842F08052DA6022E07B6803F024
:104A400000534FEA5373002B1BD0FB68D3F8803020
:104A5000002B0AD0FB68D3F880303B60FB68D3F8AA
:104A60008430BB603B68B868984744F27403C5F271
:104A7000000344F27402C5F20002D26842F0005210
:104A8000DA6007F11007BD4680BD00BF80B400AFFB
:104A90004FF46D43CEF20003DB6803F4E0634FEAAA
:104AA00013231846BD4680BC704700BF80B483B056
:104AB00000AF0346FB714FF46143CEF2000397F958
:104AC00007204FEA5212F97901F01F014FF001005F
:104AD00000FA01F143F8221007F10C07BD4680BC33
:104AE000704700BF80B483B000AF03463960FB71EC
:104AF00097F90730002B10DA4FF46D43CEF2000324
:104B0000FA7902F00F02A2F104013A68D2B24FEA38
:104B10008202D2B25B181A760DE04FF46143CEF2F6
:104B2000000397F907103A68D2B24FEA8202D2B274
:104B30005B1883F8002307F10C07BD4680BC704763
:104B400080B489B000AFF860B9607A60FB6803F0A8
:104B50000703FB61FB69C3F10703062B28BF06238C
:104B6000BB61FB6903F10603062B03D9FB6903F163
:104B7000FF3301E04FF000037B61BB694FF001029E
:104B800002FA03F303F1FF331A46BB681A407B694C
:104B900002FA03F27B694FF0010101FA03F303F11A
:104BA000FF3319467B680B401343184607F124076F
:104BB000BD4680BC704700BF80B582B000AF786052
:104BC0007B681B78DBB25BB21846FFF76FFF07F11B
:104BD0000807BD4680BD00BF80B582B000AF4FF072
:104BE00000037B600DE040F20803C2F200037A6824
:104BF00053F82230184600F00BF87B6803F10103EC
:104C00007B607B68012BEED907F10807BD4680BDAC
:104C100090B583B000AF78607B681B78DCB2FFF79B
:104C200035FF01467B685B781A467B689B780846AF
:104C300011461A46FFF784FF034662B21046194632
:104C4000FFF750FF7B68DB78012B02D17868FFF714
:104C5000B3FF07F10C07BD4690BD00BF80B400AFA5
:104C600046F62453C0F600035B684FF000025A601A
:104C700046F62453C0F600035A6846F62453C0F69D
:104C800000035B681B6C23F00703136446F6245390
:104C9000C0F600035A6846F62453C0F600035B686A
:104CA0001B6C43F00403136446F62453C0F6000360
:104CB0005A6846F62453C0F600035B681B6913610B
:104CC00046F62C53C0F600035B684FF008025A60AA
:104CD00046F62C53C0F600035A6846F62C53C0F62D
:104CE00000035B681B6C23F4E043136446F62C530B
:104CF000C0F600035A6846F62C53C0F600035B6802
:104D00001B6C43F48043136446F62C53C0F6000337
:104D10005A6846F62C53C0F600035B681B691361A2
:104D200046F63453C0F600035B684FF000025A6049
:104D300046F63453C0F600035A6846F63453C0F6BC
:104D400000035B685B6C23F00703536446F634533F
:104D5000C0F600035A6846F63453C0F600035B6899
:104D60005B6C43F00403536446F63453C0F600030F
:104D70005A6846F63453C0F600035B689B6993613A
:104D800046F63C53C0F600035B684FF000025A60E1
:104D900046F63C53C0F600035A6846F63C53C0F64C
:104DA00000035B681B6C23F4E003136446F63C537A
:104DB000C0F600035A6846F63C53C0F600035B6831
:104DC0001B6C43F48003136446F63C53C0F60003A7
:104DD0005A6846F63C53C0F600035B685B69536152
:104DE00046F64453C0F600035B684FF000025A6079
:104DF00046F64453C0F600035A6846F64453C0F6DC
:104E000000035B681B6C23F4E023136446F64453F1
:104E1000C0F600035A6846F64453C0F600035B68C8
:104E20001B6C43F48023136446F64453C0F600031E
:104E30005A6846F64453C0F600035B685B695361E9
:104E400046F64C53C0F600035B684FF000025A6010
:104E500046F64C53C0F600035A6846F64C53C0F66B
:104E600000035B681B6C23F4E043136446F64C5369
:104E7000C0F600035A6846F64C53C0F600035B6860
:104E80001B6C43F48043136446F64C53C0F6000396
:104E90005A6846F64C53C0F600035B681B69136101
:104EA00046F65453C0F600035B684FF000025A60A8
:104EB00046F65453C0F600035A6846F65453C0F6FB
:104EC00000035B681B6C23F4E063136446F65453E1
:104ED000C0F600035A6846F65453C0F600035B68F8
:104EE0001B6C43F48063136446F65453C0F600030E
:104EF0005A6846F65453C0F600035B681B69136199
:104F000046F65C53C0F600035B684FF000025A603F
:104F100046F65C53C0F600035A6846F65C53C0F68A
:104F200000035B685B6C23F4E023536446F65C5338
:104F3000C0F600035A6846F65C53C0F600035B688F
:104F40005B6C43F48023536446F65C53C0F6000365
:104F50005A6846F65C53C0F600035B68DB69D361B0
:104F600046F66453C0F600035B684FF000025A60D7
:104F700046F66453C0F600035A6846F66453C0F61A
:104F800000035B681B6C23F4E063136446F6645310
:104F9000C0F600035A6846F66453C0F600035B6827
:104FA0001B6C43F48063136446F66453C0F600033D
:104FB0005A6846F66453C0F600035B681B691361C8
:104FC00046F66C53C0F600035B684FF000025A606F
:104FD00046F66C53C0F600035A6846F66C53C0F6AA
:104FE00000035B685B6C23F07003536446F66C53FC
:104FF000C0F600035A6846F66C53C0F600035B68BF
:105000005B6C43F04003536446F66C53C0F60003F8
:105010005A6846F66C53C0F600035B689B6993615F
:1050200046F67453C0F600035B684FF000025A6006
:1050300046F67453C0F600035A6846F67453C0F639
:1050400000035B681B6C23F0E043136446F6745363
:10505000C0F600035A6846F67453C0F600035B6856
:105060001B6C43F08043136446F67453C0F6000390
:105070005A6846F67453C0F600035B685B69536177
:1050800046F67C53C0F600035B684FF000025A609E
:1050900046F67C53C0F600035A6846F67C53C0F6C9
:1050A00000035B681B6C23F4E043136446F67C53F7
:1050B000C0F600035A6846F67C53C0F600035B68EE
:1050C0001B6C43F48043136446F67C53C0F6000324
:1050D0005A6846F67C53C0F600035B681B6913618F
:1050E00046F68453C0F600035B684FF480725A6042
:1050F00046F68453C0F600035A6846F68453C0F659
:1051000000035B685B6C23F00703536446F684532B
:10511000C0F600035A6846F68453C0F600035B6885
:105120005B6C43F00403536446F68453C0F60003FB
:105130005A6846F68453C0F600035B689B69936126
:1051400046F68C53C0F600035B684FF000025A60CD
:1051500046F68C53C0F600035A6846F68C53C0F6E8
:1051600000035B681B6C23F0E043136446F68C532A
:10517000C0F600035A6846F68C53C0F600035B681D
:105180001B6C136446F68C53C0F600035A6846F64F
:105190008C53C0F600035B685B69536146F6945319
:1051A000C0F600035B684FF000025A6046F6945365
:1051B000C0F600035A6846F69453C0F600035B68D5
:1051C0001B6C23F0E063136446F69453C0F60003AF
:1051D0005A6846F69453C0F600035B681B6C43F0B4
:1051E0008063136446F69453C0F600035A6846F68B
:1051F0009453C0F600035B685B695361BD4680BC95
:10520000704700BF80B485B000AF78600B46FB707C
:105210007B685B78FB73FB7B032B23D87B685B6825
:105220007A6852681169FA7B4FEAC20202F10302FE
:105230004FF01F0000FA02F26FEA02020A401A6100
:105240007B685B687A6852681169FA7802F01F001F
:10525000FA7B4FEAC20202F1030200FA02F20A43A9
:105260001A6188E0FB7B032B2AD9FB7B072B27D80D
:10527000FB7BA3F10403FB737B685B687A6852686D
:105280005169FA7B4FEAC20202F103024FF01F009C
:1052900000FA02F26FEA02020A405A617B685B6818
:1052A0007A6852685169FA7802F01F00FA7B4FEA77
:1052B000C20202F1030200FA02F20A435A615AE002
:1052C000FB7B072B2AD9FB7B0B2B27D8FB7BA3F17E
:1052D0000803FB737B685B687A6852689169FA7BA4
:1052E0004FEAC20202F103024FF01F0000FA02F27D
:1052F0006FEA02020A409A617B685B687A685268CA
:105300009169FA7802F01F00FA7B4FEAC20202F1BB
:10531000030200FA02F20A439A612CE0FB7B0B2B9A
:1053200029D9FB7B0F2B26D8FB7BA3F10C03FB7346
:105330007B685B687A685268D169FA7B4FEAC2027F
:1053400002F103024FF01F0000FA02F26FEA0202BC
:105350000A40DA617B685B687A685268D169FA78DA
:1053600002F01F00FA7B4FEAC20202F1030200FAC8
:1053700002F20A43DA6107F11407BD4680BC7047A8
:1053800080B485B000AF78600B46FB707B685B78BB
:10539000FB73FB7B032B23D87B685B687A685268BE
:1053A0001169FA7B4FEAC20202F103024FF01F00BB
:1053B00000FA02F26FEA02020A401A617B685B6837
:1053C0007A6852681169FA7802F01F00FA7B4FEA96
:1053D000C20202F1030200FA02F20A431A6188E0F3
:1053E000FB7B032B2AD9FB7B072B27D8FB7BA3F165
:1053F0000403FB737B685B687A6852685169FA7BC7
:105400004FEAC20202F103024FF01F0000FA02F25B
:105410006FEA02020A405A617B685B687A685268E8
:105420005169FA7802F01F00FA7B4FEAC20202F1DA
:10543000030200FA02F20A435A615AE0FB7B072B8F
:105440002AD9FB7B0B2B27D8FB7BA3F10803FB732B
:105450007B685B687A6852689169FA7B4FEAC2029E
:1054600002F103024FF01F0000FA02F26FEA02029B
:105470000A409A617B685B687A6852689169FA7839
:1054800002F01F00FA7B4FEAC20202F1030200FAA7
:1054900002F20A439A612CE0FB7B0B2B29D9FB7BA0
:1054A0000F2B26D8FB7BA3F10C03FB737B685B6897
:1054B0007A685268D169FA7B4FEAC20202F10302AC
:1054C0004FF01F0000FA02F26FEA02020A40DA61AE
:1054D0007B685B687A685268D169FA7802F01F00CD
:1054E000FA7B4FEAC20202F1030200FA02F20A4317
:1054F000DA6107F11407BD4680BC704780B584B0FF
:1055000000AF78607B685B78FB607B68DB69012BB0
:1055100007D17B681B6C7A685168FA6801FA02F25D
:105520005A607868F96800F025F87B68DB68012B21
:105530000BD17B681B6C7A68126C516FFA684FF064
:10554000020000FA02F20A435A677B68DB69012B0A
:1055500003D17868F96800F05DF87B68DB69002B9F
:1055600003D17868F96800F0C3F807F11007BD4669
:1055700080BD00BF80B483B000AF786039607B68C5
:10558000DB69012B41D13B68072B1FD87B685B6C23
:10559000002B3AD07B685B6C7A68526C11687A6831
:1055A000926A6FEA02020A401A607B685B6C7A6852
:1055B000526C11687A6890687A68D26A00FA02F0D0
:1055C0007A68926A02400A431A601EE07B689B6C0C
:1055D000002B1AD07B689B6C7A68926C11687A6891
:1055E000126B6FEA02020A401A607B689B6C7A6851
:1055F000926C11687A6890687A68526B00FA02F0CF
:105600007A68126B02400A431A6007F10C07BD4624
:1056100080BC704780B483B000AF786039603B686D
:10562000032B10D87B681B6C7A68126C11697A683E
:10563000506A3A684FEAC20202F1030200FA02F22B
:105640000A431A614FE03B68032B17D93B68072BCD
:1056500014D83B68A3F104033B607B681B6C7A6839
:10566000126C51697A68506A3A684FEAC20202F1D4
:10567000030200FA02F20A435A6134E03B68072B46
:1056800017D93B680B2B14D83B68A3F108033B6088
:105690007B681B6C7A68126C91697A68506A3A6808
:1056A0004FEAC20202F1030200FA02F20A439A61CF
:1056B00019E03B680B2B16D93B680F2B13D83B68BE
:1056C000A3F10C033B607B681B6C7A68126CD16998
:1056D0007A68506A3A684FEAC20202F1030200FA9D
:1056E00002F20A43DA6107F10C07BD4680BC70473D
:1056F00080B483B000AF786039603B68032B10D86A
:105700007B681B6C7A68126C11697A6850693A6818
:105710004FEAC20202F1030200FA02F20A431A61DE
:105720004FE03B68032B17D93B68072B14D83B6825
:10573000A3F104033B607B681B6C7A68126C5169AF
:105740007A6850693A684FEAC20202F1030200FA2D
:1057500002F20A435A6134E03B68072B17D93B68D1
:105760000B2B14D83B68A3F108033B607B681B6CD0
:105770007A68126C91697A6850693A684FEAC20295
:1057800002F1030200FA02F20A439A6119E03B684F
:105790000B2B16D93B680F2B13D83B68A3F10C03D6
:1057A0003B607B681B6C7A68126CD1697A685069BF
:1057B0003A684FEAC20202F1030200FA02F20A4317
:1057C000DA6107F10C07BD4680BC704780B582B036
:1057D00000AF4FF000037B600DE040F21003C2F217
:1057E00000037A6853F822301846FFF787FE7B687B
:1057F00003F101037B607B68012BEED907F10807F9
:10580000BD4680BD84B080B400AF07F1040C8CE8C5
:105810000F007B6C5A6A7B7922FA03F303F00103D1
:105820001846BD4680BC04B0704700BF84B080B449
:1058300000AF07F1040C8CE80F007B6C7A794FF015
:10584000010101FA02F25A60BD4680BC04B0704703
:1058500084B080B400AF07F1040C8CE80F007B6CBF
:105860007A794FF4803101FA02F25A60BD4680BC69
:1058700004B0704784B080B400AF07F1040C8CE82A
:105880000F003B6D002B07D07B6C7A794FF0010144
:1058900001FA02F25A6006E07B6C7A794FF48031AB
:1058A00001FA02F25A60BD4680BC04B0704700BFE6
:1058B00084B080B400AF07F1040C8CE80F007B6C5F
:1058C0007A794FF0011101FA02F25A60BD4680BCAC
:1058D00004B0704780B483B000AF78600B46FB70B3
:1058E00007F10C07BD4680BC704700BF80B483B091
:1058F00000AF78600B46FB7007F10C07BD4680BC1B
:10590000704700BF80B582B000AF4FF000037B60EE
:105910000DE040F21803C2F200037A6853F8223017
:10592000184600F00BF87B6803F101037B607B688D
:10593000012BEED907F10807BD4680BD90B583B0B5
:1059400000AF78607B681A684FF48043C4F20403A8
:105950009A420AD14FF48030FDF79EF80346012B9E
:1059600003D14FF48030FDF757F87B681B687A68E5
:105970005268796809687868406800F1080051F851
:105980002000796889684FEA011101F030047968D4
:10599000C9684FEA810101F004012143014302F18A
:1059A000080243F8221007F10C07BD4690BD00BF66
:1059B00080B485B000AF786039604FF00003FB60C1
:1059C0007B681B68BB603B68032B1AD8BB68002B45
:1059D00017D07B685A683B6803F003017B685868FE
:1059E000BB6800F1080053F8203023F0030319438B
:1059F000BB6802F1080243F822104FF00103FB607C
:105A000002E04FF00F03FB60FB68184607F1140734
:105A1000BD4680BC704700BF90B486B000AF3C4626
:105A200084E80F003B687A6802F1080253F82230DC
:105A300003F008034FEAD3037B617B69184607F143
:105A40001807BD4690BC704780B483B000AF786043
:105A50007B68002B11D07B681B687A685268796874
:105A600009687868406800F1080051F8201041F09A
:105A7000040102F1080243F8221007F10C07BD46A9
:105A800080BC704780B483B000AF78607B68002B27
:105A900011D07B681B687A685268796809687868F1
:105AA000406800F1080051F8201021F0040102F1D3
:105AB000080243F8221007F10C07BD4680BC70476E
:105AC00090B482B000AF78600B46FB707B68002B0F
:105AD00017D07B681B687A685268F9784FEA011121
