:020000040C00EE
:100000000008001001020008C9020008CB02000825
:10001000CD020008CF020008D10200080000000055
:10002000000000000000000000000000D3020008F3
:10003000D502000800000000D7020008D90200081D
:10004000DB020008DD020008DF020008E102000810
:10005000E3020008E5020008E7020008E9020008E0
:10006000EB0200080000000000000000000000009B
:10007000ED02000800000000EF020008F102000895
:10008000F3020008F5020008F7020008F902000870
:10009000FB020008FD020008FF020008010300083F
:1000A000030300080503000807030008090300080C
:1000B0000B0300080D0300080F03000811030008DC
:1000C00013030008150300081703000819030008AC
:1000D0001B0300081D0300081F030008210300087C
:1000E000230300082503000827030008290300084C
:1000F0002B0300082D0300082F030008310300081C
:1001000033030008350300083703000839030008EB
:100110003B0300083D0300083F03000841030008BB
:10012000430300084503000847030008490300088B
:100130004B0300084D0300084F030008510300085B
:10014000530300085503000857030008590300082B
:100150005B0300085D0300085F03000861030008FB
:10016000000000000000000000000000000000008F
:1001700063030008650300086703000869030008BB
:100180006B0300086D0300086F030008710300088B
:10019000730300087503000877030008790300085B
:1001A0007B0300087D0300087F030008810300082B
:1001B00083030008850300088703000889030008FB
:1001C0008B0300088D0300088F03000891030008CB
:1001D000930300089503000897030008000000003F
:1001E000990300089B0300089D0300089F03000873
:1001F000A103000800000000A303000800000000A5
:10020000DFF80CD0034880470348804700F017B858
:10021000000800101D04000835180008002A00F02E
:100220000D804FEA920203680B60013A00F00680ED
:1002300000F1040001F10401FFF7F5BF7047144815
:100240001449154AFFF7EAFF14481549154AFFF704
:10025000E5FF15481549002900F00C804FEA91018F
:100260004FF000020260013900F0048000F1040048
:10027000FFF7F8BF0E480F4908600F488047DFF8C6
:100280003CD04FF000004FF00001DFF834F00000E8
:10029000601C000C0000002008000000681C000C1E
:1002A00000080010000000000800002030000000DE
:1002B0000000000808ED00E0AD1A0008000800107A
:1002C000C508000800BF7047FEE7FEE7FEE7FEE74F
:1002D000FEE7FEE7FEE7FEE7FEE7FEE7FEE7FEE7F6
:1002E000FEE7FEE7FEE7FEE7FEE7FEE7FEE7FEE7E6
:1002F000FEE7FEE7FEE7FEE7FEE7FEE7FEE7FEE7D6
:10030000FEE7FEE7FEE7FEE7FEE7FEE7FEE7FEE7C5
:10031000FEE7FEE7FEE7FEE7FEE7FEE7FEE7FEE7B5
:10032000FEE7FEE7FEE7FEE7FEE7FEE7FEE7FEE7A5
:10033000FEE7FEE7FEE7FEE7FEE7FEE7FEE7FEE795
:10034000FEE7FEE7FEE7FEE7FEE7FEE7FEE7FEE785
:10035000FEE7FEE7FEE7FEE7FEE7FEE7FEE7FEE775
:10036000FEE7FEE7FEE7FEE7FEE7FEE7FEE7FEE765
:10037000FEE7FEE7FEE7FEE7FEE7FEE7FEE7FEE755
:10038000FEE7FEE7FEE7FEE7FEE7FEE7FEE7FEE745
:10039000FEE7FEE7FEE7FEE7FEE7FEE7FEE7FEE735
:1003A000FEE7FEE74FF0010070470000164AD368F1
:1003B000B3F5803F30B522D1144B1868410721D5E1
:1003C0009C689868C4F303614C1CC0F30621481C68
:1003D0009968DB68D268C1F30641013113F0010F5F
:1003E00014BF0B4D0B4D0C4BB5FBF4F46043B0FB4D
:1003F000F1F0D1B24A1CB0FBF2F0186030BD0448F5
:100400000549086030BD00BF00460050104700504D
:1004100000366E01001BB70000000020734BD3F8BC
:10042000882042F4700010B5C3F88800596921F0A3
:1004300008025A616E4B586820F0010159606D4BFB
:100440005A6922F00F0040F00301596101F016FBD8
:10045000002800F0C780684B684A586802402AB1FB
:10046000596821F4803020F002025A60644B5968C8
:1004700011F0300F04D1604B1868400731D5B1E05E
:10048000586820F0F0025A60596841F40030586012
:10049000594BDA6822F00101D9605868594920F4B3
:1004A00000325A60584B00200522596098601A604B
:1004B000514B1968544B01F46070B0F5607F03D064
:1004C0009A68B2F5FA7FF3D2196821F0010018603A
:1004D000494B1A6802F46071B1F5607F40F0828088
:1004E000C9E74A4AD168C90303D5D06820F48031EE
:1004F000D1605A6842F0010058605968444841F0A0
:1005000010025A609860596841F040025A60586879
:1005100020F0100159605A683A4942F4802058602E
:10052000394B0022052059609A601860324B1968D7
:10053000354B11F0040F03D19A68B2F5FA7FF5D26A
:100540001968314821F001021A602B4B19684A07DB
:1005500048D55C6824F001025A602C4A00211161E0
:1005600051611162D46844F48034D4605A6822F036
:1005700040025A6040F245534360816005210160AA
:1005800021488268632AFBD803681B4A23F00101D3
:10059000204B016040F61B41936041600023052120
:1005A0008360016018488368632BFBD8016821F0E1
:1005B0000103194903609160002341F223320521B0
:1005C00042608360016010488268632AFBD8036838
:1005D00023F00101084B01601048A3F5B661052224
:1005E0009860CA60BDE81040FFF7E0BE00ED00E093
:1005F0000080005000200058104700500200010009
:1006000000470050A34B4C0010E000E000460050B3
:10061000014F1301014F0701014F0401014F030175
:1006200070B5144C144D154E204600F02AFA294698
:10063000204600F02DFC2046114C314600F012FB04
:10064000204600F01EFA2946204600F021FC2046F4
:100650000C4C314600F006FB204600F012FA294609
:10066000204600F015FC08492046BDE8704000F027
:10067000F9BA00BFE01B00080000704299991941C7
:10068000981B0008501B00080000C04010B52DED5D
:10069000048B244C2448637807EE903A9FED238A1C
:1006A000B8EEE70ADFED229A60EE080A9FED219A84
:1006B00080EEA91ADFED208A71EE081A21EE892A50
:1006C000C2EE282A12EE901A00F0CCFAA07803EEBF
:1006D000100AF8EEC33A194823EE884AC4EE294AB4
:1006E00034EE885A65EE095A85EEA86A16EE101A9D
:1006F00000F0B8FA2479124806EE904AB8EEE67A8D
:1007000067EE087AC7EEA99A39EE888A28EE090AB8
:1007100080EE289A19EE101ABDEC048BBDE810404B
:1007200000F0A0BA33000020E01B00086F12833AEB
:1007300000007F430000C8428988883C981B00085D
:10074000501B000810F1FF3001D300BFFAE77047DB
:1007500038B54FF49670FFF7F5FF084B5D785C688D
:10076000012000FA05F060604FF49670FFF7EAFF91
:100770004FF4803101FA05F5656038BD401C000872
:100780002DE9F8432E4BC5224F20A3211A70587033
:1007900099700020EE24DD25CC26BB27AA22282133
:1007A000DC701D715E719F71DA71187258729872E7
:1007B000D872187398735973224D234B95F8019092
:1007C0005F78D5F804805E684FF48034012204FA23
:1007D00007F402FA09F074600E25C8F80400072433
:1007E000174B0121E85C194B01FA04F202425A68E6
:1007F000587803D001FA00F1516004E04FF48031E1
:1008000001FA00F35360FFF7A3FF14F1FF34E7D2BE
:1008100015F1FF35E3D203210C4800F03DFF4FF402
:10082000803202FA09F00121C8F8040001FA07F742
:100830004CF250307760BDE8F843FFF783BF00BF4C
:1008400024000020481C0008281C0008381C000850
:10085000194B2DE9F04193F801805F684FF4803027
:1008600000FA08F179604CF25030FFF76BFF002579
:1008700000260724114B5A685978506A20FA01F370
:10088000DB0704D5012202FA04F21643F6B2FFF7A1
:100890005FFF14F1FF34EDD209482E540135052DC8
:1008A000E6D1012101FA08F34CF250307B60BDE83B
:1008B000F041FFF747BF00BF281C0008381C0008A4
:1008C0003300002008B500F099FFFFF759FFFFF74C
:1008D000A7FE074B58785A68012101FA00F1536AC4
:1008E0001942FCD0FFF7B4FFFFF7D0FEF1E700BFDD
:1008F000301C00084FF0FF3070474FF0FF3070475A
:10090000002070474FF0FF3070474FF0FF307047C6
:1009100000290CBF6FF001004FF0FF30704781429B
:1009200014BF6FF001004FF0FF3070474FF0FF3001
:10093000704700000A4B1A6822B90A4A0A491A602D
:1009400052185A601A685B68D11D081820F0070118
:1009500099423ABF024B196000221046704700BF0F
:100960000800002038000020C8FF00004FF0FF30D2
:1009700070474FF0FF3070474FF0FF3070474FF037
:10098000FF3070474FF0FF307047FEE770474FF081
:10099000FF307047030F0C225A43024920F0704089
:1009A0005050704710440050030F0C225A43024924
:1009B00020F070405050704714440050014B1868AC
:1009C000C0B270470044005020F070420C23000F6A
:1009D00058430349405802420CBF00200120704791
:1009E0000C440050024B9A6842F001009860704736
:1009F000004400502DE9F041C46B2378002B3DD01A
:100A0000826941690023072740F60F761761C2F813
:100A1000B060C2F8A4308D6845F4407C90F837503F
:100A20004FF0010808FA05F54CEA05058D601360E2
:100A300053605361536293611362D363536390F8BD
:100A40002050454516D1C26990F838001761C2F8A8
:100A5000B060C2F8A4308E6805FA00F546F440761E
:100A600035438D6013605360536153629361136229
:100A7000D363536300202070BDE8F0810120BDE8FE
:100A8000F081C16B0B78012B70B501D0032B62D1C3
:100A9000836990F8374040F60F72C3F8B02042697E
:100AA0000126D56806FA04F42C43D46090F820405F
:100AB000B44206D190F83860D56804FA06F42C43A5
:100AC000D460827B6AB9DA6842F00102DA6090F899
:100AD0002030012B3BD1C069C26842F00103C360E2
:100AE00035E0012A15D11C6824F0C06222F440349C
:100AF0001C605A6822F0030490F823205C601C6894
:100B0000120402F4403222431A605A6842F0010291
:100B10005A60837B012B1AD190F82020012A16D12C
:100B2000C36990F823001C6824F0C06222F44034AA
:100B30001C605A6822F003045C601C68020402F422
:100B40004030204318605A6842F00100586002208B
:100B50000870002070BD012070BDC26B1378022B9D
:100B600070B520D18169436990F8376007240C6122
:100B70009D68012145F4007501FA06F12943996049
:100B800090F8201001290AD1C56990F838002C612D
:100B90009C6801FA00F144F4007421439960032336
:100BA0001370002070BD012070BD38B590F8202072
:100BB0008469012A05D1C5696D6B646B44EA0543FC
:100BC00000E0636BC46B247854B1C46AA14200D9BD
:100BD00042B1994228BF591C026C9047002038BD91
:100BE000012038BD022038BD836990F8372089B2D2
:100BF000D963436992001969012000FA02F20A439D
:100C00001A61704783695A6B92B230B55C6BB1FB65
:100C1000F2F502FB151292B2A4B2DA63B1FBF4F161
:100C2000C36990F837408AB2DA63436990F83800B4
:100C300019690122A400800002FA04F402FA00F209
:100C400022430A431A6130BD836990F8372089B284
:100C5000D963436992001969012000FA02F20A433C
:100C60001A617047C26B127808B507EE901A7AB114
:100C70009FED097AF4EEC77AF1EE10FA0ADCF5EE90
:100C8000C07AF1EE10FA05D4436C9847002008BDF5
:100C9000012008BD022008BD0000C842DFED107A27
:100CA00000EE101A77EEC06A8369C6EEA70A5A6B87
:100CB000013206EE102AB8EE467A27EE201AFCEE34
:100CC000C11A11EE901A8AB2DA63436990F83700BC
:100CD00019698200012000FA02F20A431A61704782
:100CE0000000C842DFED1D7A00EE101A77EEC06AF0
:100CF0008369C6EEA70A30B5C469656B5A6B596B38
:100D000092B2013501326A43551C06EE105AB8EE14
:100D1000467A89B227EE201AFCEEC11A11EE902A0B
:100D2000B2FBF1F501FB152189B2D9635B6B99B276
:100D3000B2FBF1F293B2E363436990F8374090F865
:100D4000380019690122A400800002FA04F402FAB2
:100D500000F222430A431A6130BD00BF0000C842BE
:100D6000DFED0F7A06EE101A77EEC66A8369C6EEDB
:100D7000A70A93ED0D7AB8EE470A20EE201AFCEE92
:100D8000C11A11EE902A91B2D963436990F83700E5
:100D900019698200012000FA02F20A431A617047C1
:100DA0000000C842C36B1B7810B5D3B1D9B1C36A78
:100DB0009A4202D990F82040ACB1994290F8203084
:100DC00002D9012B0FD101E0012B02D1C3690C0C18
:100DD0005C63836989B25963036C114698470020AC
:100DE00010BD012010BD022010BDC36B1A7810B5D4
:100DF0003AB341B3C36A90F82020994202D9012A3C
:100E000021D101E0012A02D1C4690B0C636382691C
:100E100090F83740436989B251631969A2000124EF
:100E200004FA02F20A431A6190F82020A2420CD17F
:100E300090F838001969800002FA00F20A431A613A
:100E400003E0012010BD022010BD002010BD4B1C8E
:100E50001BD00023B1F5803F0AD349084FF6FE723C
:100E600001339142DBB2F8D8012202FA03F3013BCD
:100E700090F83620012A01D15B0849088269C069CF
:100E8000516399B24163002070470220704700000F
:100E900038B5C36B07EE901A1978044600293DD087
:100EA000F5EE407AF1EE10FA3AD090ED017ADFEDEE
:100EB0001D0A27EE270A90F8202080EE801AFCEE0B
:100EC000C11A11EE901AAAB9B1F5803F28D290F854
:100ED0003600A369013900B14908596394F83720F5
:100EE000636901201969920000FA02F20A431A614B
:100EF000002038BDFFF7ABFF98B9636994F837500D
:100F000094F8384019690122AD00A40002FA05F5F1
:100F100002FA04F22A430A431A6138BD012038BD9F
:100F2000022038BD286B6E4E10B5C36B044618788E
:100F30002DED028B07EE901A08EE102A00283AD009
:100F4000F5EE407AF1EE10FA37D09FED1E7AB4EE4E
:100F5000C78AF1EE10FA30DCB5EEC08AF1EE10FA75
:100F60002BD494ED010A9FED181A60EE270A94F82D
:100F70002020C1EE201ABCEEE12A12EE101A52B95E
:100F8000B1F5803F19D294F83600A369013900B158
:100F90004908596308E0012A02D1B1F5803F0CD31A
:100FA0002046FFF754FF48B92046626C18EE101A2D
:100FB0009047002002E0012000E00220BDEC028BFF
:100FC00010BD00BF0000C842286B6E4EC36B1A787C
:100FD000012A01D0032A0AD183698AB21A6790F8DC
:100FE0002030012B05D1C069090C016701E0012007
:100FF000704700207047C36B1A787AB190F82030A0
:10100000012B836904D1C26992689868104000E09E
:10101000986800F001030B600020704701207047C2
:10102000C36B1A7830B512B390F82030012B836966
:1010300014D1C269146F1D6FA8B240EA0444D56B85
:101040008C60586BDC6B05FB00400860506B5B6B81
:101050009AB2013201305043431C05E0186F82B24E
:10106000D86B5B6B8A6008604B60002030BD01204C
:1010700030BDC36B1A789AB190F82030012B0AD199
:10108000C36980695A6B531C0B60426B90B2421C5F
:1010900053435A1C01E08069426B0A60002070478C
:1010A00001207047C36B197810B5E1B190F820208A
:1010B000436990F83710012A0CD190F838001C6968
:1010C0008900800002FA01F102FA00F20A43224389
:1010D0001A6106E01A698900012000FA01F1114342
:1010E0001961002010BD012010BDC37C012B11D15E
:1010F0008169D1F8B02042F48063C1F8B03090F833
:101100002010012906D1C369D3F8B02042F48061D0
:10111000C3F8B0108369D3F8B02042F40061C3F87B
:10112000B01090F82030012B06D1C069D0F8B02063
:1011300042F40061C0F8B010704710B5C369418D2A
:10114000448907221A615963DC635A6842F48011AA
:101150005960C47B012C15D11A6822F0C05121F4CA
:1011600040241C605A6822F00C0190F82420596039
:101170001C68910401F4402222431A605C6844F028
:1011800008015960427C012A14D11C6824F0C24134
:1011900021F440121A605C6824F40031596002782E
:1011A0001C68110601F0807222431A605C6844F4E6
:1011B000003159605A6922F4CE4424F00B01596180
:1011C000027B540090F8342004F00201940204F4ED
:1011D000806241EA020490F8361001F0010290F8B2
:1011E000351014430A0202F440710C435C6190F81C
:1011F00021205C69510301F4C04222435A611C6AF8
:10120000417B24F00F0201F00F0141EA02041C624D
:10121000827C5969540504F4001221F400110A4338
:101220005A61C27C5C69910501F4800224F4800457
:1012300022435A61427C5969540404F4003221F477
:1012400000310A435A615C6A90F8222024F00F04AE
:1012500002F00F0141EA04025A62017C996141697E
:1012600090F838000C690123820003FA02F0204351
:10127000D41803FA04F40232204303FA02F30343BE
:101280000B6110BD38B5C36B04461878002840F0D8
:10129000CB80A36907221A61E17B012915D11D6862
:1012A00025F0C05020F440221A60596894F8242098
:1012B00021F00C055D601868910401F44025054398
:1012C0001D60586840F008025A60617C012918D1FD
:1012D00094F82050012D14D0186820F0C24222F456
:1012E000401119605D6825F4003058602278196853
:1012F000150605F0807008431860596841F4003203
:101300005A605D6994F8362025F4CE4020F009013A
:1013100059615D6994F8341002F0010028438D0290
:1013200094F8351005F480620D02104305F4407204
:101330001043586194F82000012808D0257B596992
:101340006A0002F0020021F002010843586194F89B
:1013500021205D69500300F4C041294359611D6A91
:10136000627B25F00F0102F00F0040EA01051D62CB
:1013700094F82020012A1AD0A17C58694D0505F463
:10138000001220F4001002435A61E57C5969AA0555
:1013900002F4800021F4800108435861627C5D6999
:1013A000500400F4003225F400310A435A615D6AAA
:1013B00094F8220025F00F0200F00F0141EA020527
:1013C0005D62207C218D228998615963DA63D3F8AC
:1013D000B05045F4706040F00F01C3F8B01094F8BD
:1013E0002020012A03D12046FFF7A7FEE369D3F8A6
:1013F000A450206B94F8372045EA0001C3F8A410EC
:10140000616901230869920003FA02F52843D5189F
:1014100003FA05F50232284303FA02F21043086189
:10142000E16B00200B7038BD012038BD38B5254C6C
:1014300000F026FB2046FFF725FF28B96378012B33
:1014400002D12046FFF71DFB1F4C206C20F4E06109
:101450002164226C2264256925F4800323612069BC
:101460001A4D20612846FFF70DFF28B96978012938
:1014700002D12846FFF705FB226C22F0700323649B
:10148000206C2064216921F4804222612369236158
:101490000F4C2046FFF7F6FE28B96078012802D1EC
:1014A0002046FFF7EEFA08490A6C22F007030B64A6
:1014B000086C08640A6922F040030B61086908613E
:1014C00038BD00BFE01B000800810248981B0008DF
:1014D000501B0008C36B1A78BAB190F82020012A7B
:1014E00008D1C369D3F8A40002FA01F20243C3F899
:1014F000A42008E083690120D3F8A42000FA01F1B8
:101500001143C3F8A4100020704701207047C36B3B
:101510001A78CAB190F82020012A09D1C369D3F8FA
:10152000A40002FA01F220EA0201C3F8A41009E0C3
:1015300083690120D3F8A42000FA01F122EA010214
:10154000C3F8A4200020704701207047C36B1A78AD
:10155000BAB190F82020012A08D1C369D3F8B000AD
:1015600002FA01F20243C3F8B02008E083690120C7
:10157000D3F8B02000FA01F11143C3F8B0100020F5
:10158000704701207047C36B1A78BAB190F82020D9
:10159000012A08D1C369D3F8AC0002FA01F2024370
:1015A000C3F8AC2008E083690120D3F8AC2000FA2E
:1015B00001F11143C3F8AC100020704701207047BF
:1015C000C36B1B7810B5ABB190F82030012B03D161
:1015D000C469D4F8A00003E08069D0F8A00001231A
:1015E00003FA01F42040C84002D01370002010BD5F
:1015F000107010BD012010BD224B586800224260BF
:10160000416C21F007034364416C41F004034364DF
:10161000816981611C4843685A60196C21F4E000BB
:101620001864196C41F48000186459695961174BAA
:1016300058684260016C21F4E0230364016C41F4BA
:101640008023036441694161114843685A60196C01
:1016500021F4E0401864196C41F480401864196961
:1016600041F0C05018610B4B59684A600A6C22F473
:10167000E06008640B6C43F480620A6408690861E6
:10168000704700BF481C0008401C0008381C0008B8
:10169000301C0008281C000810B54378032B11D813
:1016A0004268DB00146903331F2000FA03F024EAC8
:1016B00000001061106901F01F0101FA03F30343F8
:1016C000136110BD1A1FD2B2032A11D84368D0008B
:1016D0005C69C21C1F2000FA02F024EA0000586175
:1016E000586901F01F0101FA02F202435A6110BD6C
:1016F000A3F10802D2B2032A11D84368D2009C6930
:1017000003321F2000FA02F024EA00009861986971
:1017100001F01F0101FA02F202439A6110BD0C3B75
:10172000DBB2032B10D84268D800D469C31C1F2039
:1017300000FA03F024EA0000D061D06901F01F0133
:1017400001FA03F30343D36110BD10B54378032BB3
:1017500011D84268DB00146903331F2000FA03F03C
:1017600024EA00001061106901F01F0101FA03F37F
:101770000343136110BD1A1FD2B2032A11D8436864
:10178000D0005C69C21C1F2000FA02F024EA0000AD
:101790005861586901F01F0101FA02F202435A61CF
:1017A00010BDA3F10802D2B2032A11D84368D200B7
:1017B0009C6903321F2000FA02F024EA00009861BD
:1017C000986901F01F0101FA02F202439A6110BD0B
:1017D0000C3BDBB2032B10D84268D800D469C31C81
:1017E0001F2000FA03F024EA0000D061D06901F064
:1017F0001F0101FA03F30343D36110BD0B490C48E9
:1018000008B5CB684FF6FF021A4042EA0003CB60EE
:1018100000F040F8FFF7F0FE00F04CF800F030F96F
:10182000FFF704FEBDE8084000F006B800ED00E058
:101830000001FA0500F03EB8154B1A6922F0B80015
:1018400040F0980119611A6922F4384040F41841B7
:1018500019611A6922F4380040F418011961D3F8AB
:10186000102142F40000C3F81001D3F8141141F024
:101870008002C3F81421D3F8140140F40041C3F8E6
:101880001411D3F8182142F08000C3F818017047F2
:1018900000810248704782B000220192019B83427E
:1018A00006D200BF00BF00BF00BF01994A1CF4E789
:1018B00002B0704738B5644B64485A68104000283D
:1018C00000F0AB8062490C68E20703D44D6845F034
:1018D00001034B605F480268910503D5816841F4BC
:1018E00000748460584D6B6823F480106860642035
:1018F000FFF7D1FF6A6842F4002164206960FFF7B6
:10190000CAFF6C68544924F4803323F002006860F5
:101910004A6812F0300F1CD04C6824F030034B6042
:10192000486840F440324A60E96821F00104EC6004
:101930006B6823F40030686044F25064424D0A2022
:10194000FFF7A9FF2A6802F46071B1F5607F68D1E2
:101950002B683D4B186842072DD4404A4049132557
:1019600082E822005D683F4A45F0010159605C68E9
:1019700044F0100058609A605D6845F0400159607D
:101980005C6824F0100058605A6842F480255D605D
:1019900044F250640A20FFF77EFF2B4B196811F0C8
:1019A000040F184640D00268274D540703D56B68D2
:1019B00023F0010169602C482949C46844F480354A
:1019C000214CC5606268254D22F0400363606420AD
:1019D0002960FFF760FF2548A0606420FFF75BFFE8
:1019E000234B04226A609620A360FFF754FF21492D
:1019F000A160A068C0F30363002B23D1A268C2F3E7
:101A00000621272913D01C4A0521012BD16004D1BE
:101A10001548436843F010014160BDE83840FEF7C7
:101A2000C5BC013C8AD193E7013CB3D1BBE7A068B8
:101A30004006E8D1A368C3F30642D11E484250EBEA
:101A40000103E0E70023DEE7104700500200010039
:101A50000042005000440050004700501800002091
:101A600000389C1C00271300004600500027070088
:101A70000027040000270300604100500020704749
:101A800038B5084C23685BB907480568A868FEF7B5
:101A90008BFF2968CA68012042F48073CB60206004
:101AA00038BD00BF2000002004000020F8B5204F02
:101AB000204C381B871017D07A1E2368012502F0AE
:101AC00001069847AF420FD02EB154F8041F0225EB
:101AD0008847AF4208D0606880470235A268261D5B
:101AE00090470834AF42F6D1134F144CFEF74EFF27
:101AF0003B1B9F1018D07D1E216805F001060125B3
:101B00008847AF4211D02EB154F8040F0225804708
:101B1000AF420BD0626890470235A368261D9847F4
:101B20000834AF42F6D1F8BDF8BDF8BDF8BD00BF2E
:101B3000401B0008401B0008401B0008401B000819
:101B4000C0E6FF7F01000000F6E6FF7F0100000015
:101B50000100000055550546A803000000000000E4
:101B60000000010000C0004000C4004000C400406C
:101B700000000A000000000092040000FFFF0000C7
:101B8000000000000000000303000000140000201B
:101B9000E90B00089D0C00080100000055550546A2
:101BA00049020000000000000000010000C00040E9
:101BB00000C3004000C3004000000A000000000015
:101BC00092040000FFFF000000000000000000027F
:101BD0000200000015000020E90B00089D0C000821
:101BE00001000000555505464902000000000000B4
:101BF0000000010000C0004000C2004000C20040E0
:101C000000000A000000000092040000FFFF000036
:101C1000000000000000000101000000160000208C
:101C2000E90B00089D0C0008020200000082024837
:101C30000203000000820248020400000082024801
:101C400002050000008202480208000000820248EB
:0C1C500000C00040000000000400000084
:081C6000000E2707501C0008CC
:0400000508000201EC
:00000001FF
