:020000040C00EE
:100000000008001001020008CB020008DB02000813
:10001000EB020008FB0200080B03000800000000D0
:100020000000000000000000000000001B030008AA
:100030002B030008000000003B0300084B030008EE
:100040005B0300086B0300087B0300088B030008B8
:100050009B030008AB030008BB030008CB030008A8
:10006000DB030008000000000000000000000000AA
:10007000EB03000800000000FB0300080B0400086D
:100080001B0400082B0400083B0400084B04000874
:100090005B0400086B0400087B0400088B04000864
:1000A0009B040008AB040008BB040008CB04000854
:1000B000DB040008EB040008FB0400080B05000843
:1000C0001B0500082B0500083B0500084B05000830
:1000D0005B0500086B0500087B0500088B05000820
:1000E0009B050008AB050008BB050008CB05000810
:1000F000DB050008EB050008FB0500080B060008FF
:100100001B060008290600083706000845060008F7
:1001100053060008610600086F0600087D06000807
:100120008B06000899060008A7060008B506000817
:10013000C3060008D1060008DF060008ED06000827
:10014000FB06000809070008170700082507000834
:1001500033070008410700084F0700085D07000843
:10016000000000000000000000000000000000008F
:100170006B07000879070008870700089507000843
:10018000A3070008B1070008BF070008CD07000853
:10019000DB070008E9070008F70700080508000862
:1001A00013080008210800082F0800083D0800086F
:1001B0004B0800085908000867080008750800087F
:1001C00083080008910800089F080008AD0800088F
:1001D000BB080008C9080008D70800080000000094
:1001E000E5080008F3080008010900080F090008E5
:1001F0001D090008000000002B0900080000000095
:10020000DFF80CD0034880470348804700F017B858
:1002100000080010F50A000839380008002A00F02C
:100220000D804FEA920203680B60013A00F00680ED
:1002300000F1040001F10401FFF7F5BF7047144815
:100240001449154AFFF7EAFF14481549154AFFF704
:10025000E5FF15481549002900F00C804FEA91018F
:100260004FF000020260013900F0048000F1040048
:10027000FFF7F8BF0E480F4908600F488047DFF8C6
:100280003CD04FF000004FF00001DFF834F00000E8
:10029000C040000C000000200C000000CC40000C0E
:1002A00000080010000000000C0000207800000092
:1002B0000000000808ED00E0893F00080008001079
:1002C000A511000800BF7047FEE7DFF8700600B513
:1002D00081B0804701B000BDFEE7DFF8640600B5DD
:1002E00081B0804701B000BDFEE7DFF8580600B5D9
:1002F00081B0804701B000BDFEE7DFF84C0600B5D5
:1003000081B0804701B000BDFEE7DFF8400600B5D0
:1003100081B0804701B000BDFEE7DFF8340600B5CC
:1003200081B0804701B000BDFEE7DFF8280600B5C8
:1003300081B0804701B000BDFEE7DFF81C0600B5C4
:1003400081B0804701B000BDFEE7DFF8100600B5C0
:1003500081B0804701B000BDFEE7DFF8040600B5BC
:1003600081B0804701B000BDFEE7DFF8F80500B5B9
:1003700081B0804701B000BDFEE7DFF8EC0500B5B5
:1003800081B0804701B000BDFEE7DFF8E00500B5B1
:1003900081B0804701B000BDFEE7DFF8D40500B5AD
:1003A00081B0804701B000BDFEE7DFF8C80500B5A9
:1003B00081B0804701B000BDFEE7DFF8BC0500B5A5
:1003C00081B0804701B000BDFEE7DFF8B00500B5A1
:1003D00081B0804701B000BDFEE7DFF8A40500B59D
:1003E00081B0804701B000BDFEE7DFF8980500B599
:1003F00081B0804701B000BDFEE7DFF88C0500B595
:1004000081B0804701B000BDFEE7DFF8800500B590
:1004100081B0804701B000BDFEE7DFF8740500B58C
:1004200081B0804701B000BDFEE7DFF8680500B588
:1004300081B0804701B000BDFEE7DFF85C0500B584
:1004400081B0804701B000BDFEE7DFF8500500B580
:1004500081B0804701B000BDFEE7DFF8440500B57C
:1004600081B0804701B000BDFEE7DFF8380500B578
:1004700081B0804701B000BDFEE7DFF82C0500B574
:1004800081B0804701B000BDFEE7DFF8200500B570
:1004900081B0804701B000BDFEE7DFF8140500B56C
:1004A00081B0804701B000BDFEE7DFF8080500B568
:1004B00081B0804701B000BDFEE7DFF8FC0400B565
:1004C00081B0804701B000BDFEE7DFF8F00400B561
:1004D00081B0804701B000BDFEE7DFF8E40400B55D
:1004E00081B0804701B000BDFEE7DFF8D80400B559
:1004F00081B0804701B000BDFEE7DFF8CC0400B555
:1005000081B0804701B000BDFEE7DFF8C00400B550
:1005100081B0804701B000BDFEE7DFF8B40400B54C
:1005200081B0804701B000BDFEE7DFF8A80400B548
:1005300081B0804701B000BDFEE7DFF89C0400B544
:1005400081B0804701B000BDFEE7DFF8900400B540
:1005500081B0804701B000BDFEE7DFF8840400B53C
:1005600081B0804701B000BDFEE7DFF8780400B538
:1005700081B0804701B000BDFEE7DFF86C0400B534
:1005800081B0804701B000BDFEE7DFF8600400B530
:1005900081B0804701B000BDFEE7DFF8540400B52C
:1005A00081B0804701B000BDFEE7DFF8480400B528
:1005B00081B0804701B000BDFEE7DFF83C0400B524
:1005C00081B0804701B000BDFEE7DFF8300400B520
:1005D00081B0804701B000BDFEE7DFF8240400B51C
:1005E00081B0804701B000BDFEE7DFF8180400B518
:1005F00081B0804701B000BDFEE7DFF80C0400B514
:1006000081B0804701B000BDFEE7DFF8000400B50F
:1006100081B0804701B000BDFEE7FD4800B581B064
:10062000804701B000BDFEE7FA4800B581B08047C1
:1006300001B000BDFEE7F84800B581B0804701B0C9
:1006400000BDFEE7F54800B581B0804701B000BDB0
:10065000FEE7F34800B581B0804701B000BDFEE77A
:10066000F04800B581B0804701B000BDFEE7EE481C
:1006700000B581B0804701B000BDFEE7EB4800B592
:1006800081B0804701B000BDFEE7E94800B581B008
:10069000804701B000BDFEE7E64800B581B0804765
:1006A00001B000BDFEE7E44800B581B0804701B06D
:1006B00000BDFEE7E14800B581B0804701B000BD54
:1006C000FEE7DF4800B581B0804701B000BDFEE71E
:1006D000DC4800B581B0804701B000BDFEE7DA48D4
:1006E00000B581B0804701B000BDFEE7D74800B536
:1006F00081B0804701B000BDFEE7D54800B581B0AC
:10070000804701B000BDFEE7D24800B581B0804708
:1007100001B000BDFEE7D04800B581B0804701B010
:1007200000BDFEE7CD4800B581B0804701B000BDF7
:10073000FEE7CB4800B581B0804701B000BDFEE7C1
:10074000C84800B581B0804701B000BDFEE7C6488B
:1007500000B581B0804701B000BDFEE7C34800B5D9
:1007600081B0804701B000BDFEE7C14800B581B04F
:10077000804701B000BDFEE7BE4800B581B08047AC
:1007800001B000BDFEE7BC4800B581B0804701B0B4
:1007900000BDFEE7B94800B581B0804701B000BD9B
:1007A000FEE7B74800B581B0804701B000BDFEE765
:1007B000B44800B581B0804701B000BDFEE7B24843
:1007C00000B581B0804701B000BDFEE7AF4800B57D
:1007D00081B0804701B000BDFEE7AD4800B581B0F3
:1007E000804701B000BDFEE7AA4800B581B0804750
:1007F00001B000BDFEE7A84800B581B0804701B058
:1008000000BDFEE7A54800B581B0804701B000BD3E
:10081000FEE7A34800B581B0804701B000BDFEE708
:10082000A04800B581B0804701B000BDFEE79E48FA
:1008300000B581B0804701B000BDFEE79B4800B520
:1008400081B0804701B000BDFEE7994800B581B096
:10085000804701B000BDFEE7964800B581B08047F3
:1008600001B000BDFEE7944800B581B0804701B0FB
:1008700000BDFEE7914800B581B0804701B000BDE2
:10088000FEE78F4800B581B0804701B000BDFEE7AC
:100890008C4800B581B0804701B000BDFEE78A48B2
:1008A00000B581B0804701B000BDFEE7874800B5C4
:1008B00081B0804701B000BDFEE7854800B581B03A
:1008C000804701B000BDFEE7824800B581B0804797
:1008D00001B000BDFEE7804800B581B0804701B09F
:1008E00000BDFEE77D4800B581B0804701B000BD86
:1008F000FEE77B4800B581B0804701B000BDFEE750
:10090000784800B581B0804701B000BDFEE7764869
:1009100000B581B0804701B000BDFEE7734800B567
:1009200081B0804701B000BDFEE7714800B581B0DD
:10093000804701B000BD4FF001007047C9020008B8
:10094000D9020008E9020008F902000809030008BA
:1009500019030008290300083903000849030008A7
:100960005903000869030008790300088903000897
:1009700099030008A9030008B9030008C903000887
:10098000D9030008E9030008F90300080904000876
:100990001904000829040008390400084904000863
:1009A0005904000869040008790400088904000853
:1009B00099040008A9040008B9040008C904000843
:1009C000D9040008E9040008F90400080905000832
:1009D000190500082905000839050008490500081F
:1009E000590500086905000879050008890500080F
:1009F00099050008A9050008B9050008C9050008FF
:100A0000D9050008E9050008F905000809060008ED
:100A100019060008270600083506000843060008E6
:100A2000510600085F0600086D0600087B060008F6
:100A30008906000897060008A5060008B306000806
:100A4000C1060008CF060008DD060008EB06000816
:100A5000F906000807070008150700082307000823
:100A6000310700083F0700084D0700085B07000832
:100A70006907000877070008850700089307000842
:100A8000A1070008AF070008BD070008CB07000852
:100A9000D9070008E7070008F50700080308000861
:100AA000110800081F0800082D0800083B0800086E
:100AB000490800085708000865080008730800087E
:100AC000810800088F0800089D080008AB0800088E
:100AD000B9080008C7080008D5080008E30800089E
:100AE000F1080008FF0800080D0900081B090008AC
:100AF0002909000880B582B000AF4FF46D43CEF2F3
:100B000000034FF46D42CEF20002D2F8882042F486
:100B10007002C3F888204FF46D43CEF200034FF407
:100B20006D42CEF20002526922F008025A614FF47F
:100B30000043C5F200034FF40042C5F200025268C0
:100B400022F001025A604FF48053C5F6000303F50A
:100B5000805303F114031B687B607B6823F00F0351
:100B60007B607B6843F003037B604FF48053C5F6E2
:100B700000037A6803F5805303F114031A6000F050
:100B8000ABF800F005F807F10807BD4680BD00BFCF
:100B900080B485B000AF4FF48C43C5F20003DB682E
:100BA000B3F5803F40F0898044F21073C5F2000332
:100BB0001B6803F00403002B00F0888044F21073DC
:100BC000C5F200039B6803F070634FEA136303F1FF
:100BD0000103FB6044F21073C5F200039B6803F449
:100BE000FE434FEA132303F10103BB6044F2107389
:100BF000C5F200039B6803F4FE034FEA134303F1BD
:100C000001037B6044F21073C5F20003DB6803F05C
:100C10000103002B28D04FF45853C0F26E13FA682A
:100C2000B3FBF2F3BA6802FB03F33B603A687B68FC
:100C3000B2FBF3F240F20003C2F200031A6040F28A
:100C40000003C2F200031A684FF48C43C5F200039C
:100C5000DB68DBB203F10103B2FBF3F240F2000305
:100C6000C2F200031A6031E04FF4D853C0F2B70368
:100C7000FA68B3FBF2F3BA6802FB03F33B603A682D
:100C80007B68B2FBF3F240F20003C2F200031A6089
:100C900040F20003C2F200031A684FF48C43C5F21D
:100CA0000003DB68DBB203F10103B2FBF3F240F2B5
:100CB0000003C2F200031A6008E040F20003C2F22F
:100CC00000034FF45852C0F26E121A6007F1140775
:100CD000BD4680BC704700BF80B582B000AF03F056
:100CE0004BF90346002B00F0558244F21073C5F215
:100CF00000035A684FF00203C0F201031340002BB7
:100D00000DD044F21073C5F2000344F21072C5F224
:100D10000002526822F4803222F002025A604FF43C
:100D20008E43C5F200035B6803F03003002B72D0E2
:100D30004FF48E43C5F200034FF48E42C5F2000219
:100D4000526822F0F0025A604FF48E43C5F200035D
:100D50004FF48E42C5F20002526842F400325A60EB
:100D600044F21073C5F2000344F21072C5F200029F
:100D7000D26822F00102DA6044F21073C5F2000377
:100D800044F21072C5F20002526822F400325A6036
:100D90004EF21003CEF2000344F6A332C0F24C022E
:100DA0005A604EF21003CEF200034FF000029A6038
:100DB0004EF21003CEF200034FF005021A6044F227
:100DC0001073C5F200031B6803F46073B3F5607F12
:100DD00008D04EF21003CEF200039A6840F2F313EB
:100DE0009A42ECD84EF21003CEF200034EF21002FB
:100DF000CEF20002126822F001021A6044F210736F
:100E0000C5F200031B6803F46073B3F5607F02D082
:100E10004FF00003C0E144F21073C5F200031B68F9
:100E200003F00403002B40F0B5814FF48C43C5F26E
:100E30000003DB6803F48033002B0BD04FF48C43AA
:100E4000C5F200034FF48C42C5F20002D26822F4CE
:100E50008032DA604FF46053C1F69C437B607A685D
:100E600049F68173C1F25E63A3FB02134FEA535349
:100E700003F1FF333B6044F21073C5F2000344F208
:100E80001072C5F20002526842F001025A6044F248
:100E90001073C5F2000344F21072C5F200025268EA
:100EA00042F010025A6044F21072C5F200023B6830
:100EB0004FEA034144F60173C0F200130B43936001
:100EC00044F21073C5F2000344F21072C5F200023E
:100ED000526842F040025A6044F21073C5F20003B7
:100EE00044F21072C5F20002526822F010025A60F9
:100EF00044F21073C5F2000344F21072C5F200020E
:100F0000526842F480225A604EF21003CEF200037F
:100F100044F6A332C0F24C025A604EF21003CEF2F5
:100F200000034FF000029A604EF21003CEF200036D
:100F30004FF005021A6000BF44F21073C5F20003BF
:100F40001B6803F00403002B08D14EF21003CEF20D
:100F500000039A6840F2F3139A42EDD84EF2100360
:100F6000CEF200034EF21002CEF20002126822F01E
:100F700001021A6044F21073C5F200031B6803F00B
:100F80000403002B4ED044F21073C5F2000344F268
:100F90001072C5F20002526822F001025A604FF44A
:100FA0008C43C5F200034FF000021A614FF48C43EA
:100FB000C5F200034FF000025A614FF48C43C5F2B2
:100FC00000034FF000021A624FF48C43C5F2000395
:100FD0004FF48C42C5F20002D26842F48032DA60EB
:100FE00044F21073C5F2000344F21072C5F200021D
:100FF000526822F040025A604EF21003CEF2000313
:1010000040F245525A604EF21003CEF200034FF008
:1010100000029A604EF21003CEF200034FF0050278
:101020001A6002E04FF00003B6E04EF21003CEF279
:1010300000039B68632BF8D84EF21003CEF2000336
:101040004EF21002CEF20002126822F001021A6083
:101050004FF46053C1F69C437B607B684FEA1322D8
:1010600045F2C743C0F21E13A3FB02134FEA9323BA
:1010700003F1FF333B6044F21072C5F200023B689B
:101080004FEA034144F60173C0F200130B4393602F
:101090004EF21003CEF2000340F61B425A604EF2AD
:1010A0001003CEF200034FF000029A604EF21003DC
:1010B000CEF200034FF005021A6000BF4EF210039B
:1010C000CEF200039B68632BF8D84EF21003CEF2E9
:1010D00000034EF21002CEF20002126822F001026A
:1010E0001A604FF46053C1F69C437B607B684FEA03
:1010F000D3124EF22F33C0F2BE03A3FB02134FEA0A
:10110000D32303F1FF333B6044F21072C5F20002B7
:101110003B684FEA034144F60173C0F200130B43EE
:1011200093604EF21003CEF2000341F223325A6074
:101130004EF21003CEF200034FF000029A604EF21E
:101140001003CEF200034FF005021A6000BF4EF20A
:101150001003CEF200039B68632BF8D84EF2100305
:10116000CEF200034EF21002CEF20002126822F01C
:1011700001021A6044F21073C5F2000344F60172D2
:10118000C0F203129A6044F26013C5F200034FF0FC
:101190000502DA604FF00103184607F10807BD4663
:1011A00080BD00BF80B584B000AF02F033FB00F01B
:1011B00045FA44F2A003C0F600035A6844F2A003C3
:1011C000C0F600035B784FF0010101FA03F35360AE
:1011D00044F2A803C0F600035A6844F2A803C0F61C
:1011E00000035B784FF0010101FA03F3536000F054
:1011F000B5FD00F0C7FB4FF00003FB734FF0000399
:10120000BB734FF000037B734FF001033B734FF050
:1012100001033B724FF00003FB714FF00103FB72BF
:101220004FF00103BB724FF001037B7200F01CFD15
:1012300040F26C03C2F200035B6803F00803002B6A
:1012400003D04FF00103BB7302E04FF00003BB7308
:101250007B7B002B09D1BB7B012B06D1FB7B002BB9
:1012600014BF00230123DBB2FB7340F26803C2F218
:1012700000034FF0AD021A7040F26C03C2F200039B
:101280005B69002B07D140F26C03C2F20003DB68FC
:10129000002B00F0498140F26C03C2F200035B694D
:1012A0009BB2A3F17F039BB2BB8040F26C03C2F2FE
:1012B0000003DB689BB2A3F17F039BB27B8040F20B
:1012C0006803C2F200034FF00002DA70FB7B002BD0
:1012D0007CD1B7F9043013F11E0F03DA4FF000038D
:1012E000FB7206E0B7F904301E2B02DD4FF000035D
:1012F0003B73B7F9023013F11E0F03DA4FF000030E
:101300007B7206E0B7F902301E2B02DD4FF00003BE
:10131000BB72B7F90430002B05DDBB884FEA4303ED
:101320009BB29BB208E0BB881A464FEAC232D31A7E
:101330004FEA43039BB29BB23B80B7F900201346B0
:101340004FEA03139B1A4FEA83031A4648F21F53CE
:10135000C5F2EB1383FB02134FEA63114FEAE2730A
:10136000CB1ADAB240F26803C2F200035A70B7F93E
:101370000230002B05DD7B884FEA43039BB29BB212
:1013800008E07B881A464FEAC232D31A4FEA430379
:101390009BB29BB23B80B7F9002013464FEA031380
:1013A0009B1A4FEA83031A4648F21F53C5F2EB1308
:1013B00083FB02134FEA63114FEAE273CB1ADAB2EE
:1013C00040F26803C2F200039A707BE0B7F9023082
:1013D0001E2B03DD4FF00003FB7207E0B7F902306C
:1013E00013F11E0F02DA4FF000033B73B7F904301C
:1013F0001E2B03DD4FF000037B7207E0B7F90430CA
:1014000013F11E0F02DA4FF00003BB72B7F904307C
:10141000002B05DDBB884FEA43039BB29BB208E07B
:10142000BB881A464FEAC232D31A4FEA43039BB233
:101430009BB23B80B7F9002013464FEA03139B1A77
:101440004FEA83031A4648F21F53C5F2EB1383FB9E
:1014500002134FEA63114FEAE273CB1ADAB240F299
:101460006803C2F200039A70B7F90230002B05DD61
:101470007B884FEA43039BB29BB208E07B881A4605
:101480004FEAC232D31A4FEA43039BB29BB23B806E
:10149000B7F9002013464FEA03139B1A4FEA830360
:1014A0001A4648F21F53C5F2EB1383FB02134FEAAF
:1014B00063114FEAE273CB1ADAB240F26803C2F268
:1014C00000035A7040F26803C2F20003DB78DAB21C
:1014D000BB7A4FEA0313DBB21343DAB23B7B13430D
:1014E000DAB27B7A4FEA4313DBB21343DAB2FB7A08
:1014F0004FEAC303DBB21343DAB2FB794FEA83034B
:10150000DBB21343DAB23B7A4FEA4303DBB2134355
:10151000DBB2DAB240F26803C2F20003DA7000F024
:1015200075F9BB7B7B736FE600BF6DE680B582B05B
:1015300000AF44F29803C0F600035A6844F29803DF
:10154000C0F600035B784FF4803101FA03F3536077
:101550004CF2503000F004FD4FF00003FB704FF0F0
:1015600007037B6020E044F28803C0F600035B6859
:101570005A6A44F28803C0F600035B7822FA03F348
:1015800003F00103002B09D04FF001027B6802FA3F
:1015900003F3DAB2FB781343DBB2FB7000F024F8FC
:1015A0007B6803F1FF337B607B68002BDBDA40F262
:1015B0000403C2F20003FA781A7044F29803C0F6EA
:1015C00000035A6844F29803C0F600035B784FF0BA
:1015D000010101FA03F353604CF2503000F0C0FCFB
:1015E00007F10807BD4680BD80B500AF4FF4967087
:1015F00000F0B6FC44F28003C0F600035A6844F2DF
:101600008003C0F600035B784FF0010101FA03F399
:1016100053604FF4967000F0A3FC44F28003C0F6D0
:1016200000035A6844F28003C0F600035B784FF46D
:10163000803101FA03F3536080BD00BF80B582B0F2
:1016400000AF40F25803C2F200034FF0C4021A7018
:1016500040F25803C2F200034FF04F025A7040F2BA
:101660005803C2F200034FF0A3029A7040F25803ED
:10167000C2F200034FF0EE02DA7040F25803C2F2F9
:1016800000034FF0DD021A7140F25803C2F200036A
:101690004FF0CC025A7140F25803C2F200034FF0EF
:1016A000BB029A7140F25803C2F200034FF0AA0243
:1016B000DA7140F25803C2F200034FF000021A72CE
:1016C00040F25803C2F200034FF000025A7240F297
:1016D0005803C2F200034FF000029A7240F258031E
:1016E000C2F200034FF00002DA7240F25803C2F275
:1016F00000034FF000021A7340F25803C2F20003D5
:101700004FF020025A7340F25803C2F200034FF028
:1017100000029A7344F29803C0F600035A6844F238
:101720009803C0F600035B784FF4803101FA03F3AD
:10173000536044F26003C0F600035A6844F2600349
:10174000C0F600035B784FF0010101FA03F3536028
:101750004FF00E037B603FE04FF007033B6034E047
:1017600040F25803C2F200037A689B181B781A46AD
:101770004FF001013B6801FA03F31340002B0FDD2A
:1017800044F28803C0F600035A6844F28803C0F6A6
:1017900000035B784FF0010101FA03F353600EE0A0
:1017A00044F28803C0F600035A6844F28803C0F686
:1017B00000035B784FF4803101FA03F35360FFF7C5
:1017C00013FF3B6803F1FF333B603B68002BC7DA34
:1017D0007B6803F1FF337B607B68002BBCDA44F24B
:1017E0006003C0F600035A6844F26003C0F60003C9
:1017F0005B784FF4803101FA03F353604CF25030C0
:1018000000F0AEFB07F10807BD4680BD80B582B091
:1018100000AF44F29803C0F600035A6844F29803FC
:10182000C0F600035B784FF0010101FA03F3536047
:101830004FF47A7000F094FB4FF007037B603FE0B9
:101840004FF007033B6034E040F25803C2F200035C
:101850007A689B181B781A464FF001013B6801FA21
:1018600003F31340002B0FDD44F28803C0F600039E
:101870005A6844F28803C0F600035B784FF0010118
:1018800001FA03F353600EE044F28803C0F600034C
:101890005A6844F28803C0F600035B784FF4803145
:1018A00001FA03F35360FFF79FFE3B6803F1FF3338
:1018B0003B603B68002BC7DA7B6803F1FF337B603A
:1018C0007B68022BBCDC4FF000037B603FE04FF0F5
:1018D00007033B6034E040F26803C2F200037A6819
:1018E0009B181B781A464FF001013B6801FA03F37D
:1018F0001340002B0FDD44F28803C0F600035A6842
:1019000044F28803C0F600035B784FF0010101FA4E
:1019100003F353600EE044F28803C0F600035A68F4
:1019200044F28803C0F600035B784FF4803101FA7B
:1019300003F35360FFF758FE3B6803F1FF333B604E
:101940003B68002BC7DA7B6803F101037B607B688F
:10195000032BBCDD44F29803C0F600035A6844F23E
:101960009803C0F600035B784FF4803101FA03F36B
:10197000536041F2883000F0F3FA07F10807BD46E2
:1019800080BD00BF80B500AF00F006F800F06CF835
:1019900000F0EAF880BD00BF80B582B000AF4FF024
:1019A00000037B6044F27803C0F600035A6844F2F7
:1019B0007803C0F600035B784FF0010101FA03F3EE
:1019C000536044F26803C0F600035A6844F26803A7
:1019D000C0F600035B784FF0010101FA03F3536096
:1019E00044F27003C0F600035A6844F27003C0F674
:1019F00000035B784FF4803101FA03F353604FF436
:101A0000967000F0ADFA4FF001037B60786800F04B
:101A100015FA4FF043037B60786800F00FFA4FF03F
:101A200000037B60786800F009FA4FF001037B60E7
:101A3000786800F003FA4FF000037B60786800F0EC
:101A4000FDF944F27003C0F600035A6844F27003D3
:101A5000C0F600035B784FF0010101FA03F3536015
:101A600007F10807BD4680BD80B582B000AF4FF0DA
:101A700000037B6044F27803C0F600035A6844F226
:101A80007803C0F600035B784FF0010101FA03F31D
:101A9000536044F26803C0F600035A6844F26803D6
:101AA000C0F600035B784FF0010101FA03F35360C5
:101AB00044F27003C0F600035A6844F27003C0F6A3
:101AC00000035B784FF4803101FA03F353604FF465
:101AD000967000F045FA4FF001037B60786800F0E3
:101AE000ADF94FF044037B60786800F0A7F94FF040
:101AF00000037B60786800F0A1F94FF001037B6080
:101B0000786800F09BF94FF003037B60786800F081
:101B100095F94FF000037B60786800F08FF94FF083
:101B200000037B60786800F089F94FF000037B6068
:101B3000786800F083F94FF000037B60786800F06C
:101B40007DF944F27003C0F600035A6844F2700352
:101B5000C0F600035B784FF0010101FA03F3536014
:101B600007F10807BD4680BD80B582B000AF4FF0D9
:101B700000037B6044F27803C0F600035A6844F225
:101B80007803C0F600035B784FF0010101FA03F31C
:101B9000536044F26803C0F600035A6844F26803D5
:101BA000C0F600035B784FF0010101FA03F35360C4
:101BB00044F27003C0F600035A6844F27003C0F6A2
:101BC00000035B784FF4803101FA03F353604FF464
:101BD000967000F0C5F94FF001037B60786800F063
:101BE0002DF94FF043037B60786800F027F94FF040
:101BF00000037B60786800F021F94FF000037B6000
:101C0000786800F01BF94FF05A037B60786800F0A9
:101C100015F94FF05A037B60786800F00FF94FF028
:101C20005A037B60786800F009F94FF05A037B6033
:101C3000786800F003F94FF05A037B60786800F091
:101C4000FDF844F27003C0F600035A6844F27003D2
:101C5000C0F600035B784FF0010101FA03F3536013
:101C600007F10807BD4680BD80B582B000AF4FF0D8
:101C700000033B6044F27803C0F600035A6844F264
:101C80007803C0F600035B784FF0010101FA03F31B
:101C9000536044F26803C0F600035A6844F26803D4
:101CA000C0F600035B784FF0010101FA03F35360C3
:101CB00044F27003C0F600035A6844F27003C0F6A1
:101CC00000035B784FF4803101FA03F353604FF463
:101CD000967000F045F94FF001033B60386800F062
:101CE000ADF84FF042033B60386800F0A7F80346B8
:101CF000DAB240F26703C2F200031A704FF0000339
:101D00003B60386800F09AF84FF000037B600FE00A
:101D10004FF0000000F092F8014640F26C03C2F26E
:101D200000037A6843F822107B6803F101037B60AB
:101D30007B68052BECDD44F27003C0F600035A68A3
:101D400044F27003C0F600035B784FF0010101FA22
:101D500003F3536007F10807BD4680BD80B582B02C
:101D600000AF4FF000037B6044F27803C0F600033D
:101D70005A6844F27803C0F600035B784FF0010123
:101D800001FA03F3536044F26803C0F600035A6893
:101D900044F26803C0F600035B784FF0010101FADA
:101DA00003F3536044F27003C0F600035A6844F230
:101DB0007003C0F600035B784FF4803101FA03F33F
:101DC00053604FF4967000F0CBF84FF001037B6046
:101DD000786800F033F84FF042037B60786800F0D9
:101DE0002DF80346DAB240F26703C2F200031A701C
:101DF0004FF000037B60786800F020F84FF000039C
:101E00007B60786800F01AF84FF000037B60786818
:101E100000F014F844F27003C0F600035A6844F26C
:101E20007003C0F600035B784FF0010101FA03F381
:101E3000536007F10807BD4680BD00BF80B584B080
:101E400000AF78604FF00003BB604FF00003FB6011
:101E500069E07A68FB6842FA03F303F00103002BA0
:101E60000FD044F27803C0F600035A6844F27803B6
:101E7000C0F600035B784FF0010101FA03F35360F1
:101E80000EE044F27803C0F600035A6844F2780387
:101E9000C0F600035B784FF4803101FA03F353601E
:101EA00044F26803C0F600035A6844F26803C0F6BF
:101EB00000035B784FF4803101FA03F353604FF471
:101EC000967000F04DF844F2B003C0F600035B6872
:101ED0005A6A44F2B003C0F600035B7822FA03F3B7
:101EE00003F00103002B07D14FF00102FB6802FA57
:101EF00003F3BA681343BB6044F26803C0F60003FF
:101F00005A6844F26803C0F600035B784FF00101A1
:101F100001FA03F353604FF4967000F021F8FB6868
:101F200003F10103FB60FB68072B92DD44F27803A9
:101F3000C0F600035A6844F27803C0F600035B78E9
:101F40004FF0010101FA03F353604FF0640000F019
:101F500007F8BB68184607F11007BD4680BD00BFF3
:101F600080B483B000AF786000E000BF7B68002BD6
:101F70000CBF00230123DBB27A6802F1FF327A60E2
:101F8000002BF2D107F10C07BD4680BC704700BFA3
:101F900080B485B000AF0346FB71FA794CF6CD43AF
:101FA000CCF6CC43A3FB02134FEAD3010B464FEA16
:101FB00083035B184FEA4303D31ADBB203F1300308
:101FC000FB73FA794CF6CD43CCF6CC43A3FB02135A
:101FD0004FEAD303FB71FA794CF6CD43CCF6CC43F0
:101FE000A3FB02134FEAD3010B464FEA83035B18AE
:101FF0004FEA4303D31ADBB203F13003BB73FA7920
:102000004CF6CD43CCF6CC43A3FB02134FEAD303EB
:10201000FB71FA794CF6CD43CCF6CC43A3FB02130B
:102020004FEAD3010B464FEA83035B184FEA4303A1
:10203000D31ADBB203F130037B7344F22C03C0F6F6
:1020400000031B687A7BC3F8802144F22C03C0F69E
:1020500000031B68BA7BC3F8802144F22C03C0F64E
:1020600000031B68FA7BC3F8802107F11407BD4603
:1020700080BC704780B485B000AFF860B9607A600A
:102080004FF0FF33184607F11407BD4680BC704778
:1020900080B485B000AFF860B9607A604FF0FF336C
:1020A000184607F11407BD4680BC704780B485B060
:1020B00000AFF860B9607A604FF00003184607F18E
:1020C0001407BD4680BC704780B485B000AFF8608F
:1020D000B9607A604FF0FF33184607F11407BD4628
:1020E00080BC704780B400AF4FF0FF331846BD4648
:1020F00080BC704780B483B000AF786039603B68C3
:10210000002B02D04FF0FF3301E06FF001031846BF
:1021100007F10C07BD4680BC704700BF80B483B098
:1021200000AF786039607A683B689A4202D14FF01C
:10213000FF3301E06FF00103184607F10C07BD46BD
:1021400080BC704780B483B000AF78604FF0FF333D
:10215000184607F10C07BD4680BC704780B487B0B5
:1021600000AF78604FF67C73C0F200037B6140F2F1
:102170004803C2F200031B68002B14D140F248034D
:10218000C2F2000340F28402C2F200021A6040F27E
:102190004803C2F200031A687B69D21840F24C036C
:1021A000C2F200031A6040F24803C2F200031B6847
:1021B0003B6140F24803C2F200031B681A467B6889
:1021C000D31803F1070323F00703FB6040F24C032D
:1021D000C2F200031B68FA689A4202D34FF0000370
:1021E00006E040F24803C2F20003FA681A603B6955
:1021F000184607F11C07BD4680BC704780B483B009
:1022000000AF78604FF0FF33184607F10C07BD466A
:1022100080BC704780B483B000AF78604FF0FF336C
:10222000184607F10C07BD4680BC704780B483B0E8
:1022300000AF786039604FF0FF33184607F10C07A4
:10224000BD4680BC704700BF80B400AF4FF0FF3385
:102250001846BD4680BC704780B400AF4FF0FF33D6
:102260001846BD4680BC704780B483B000AF78602C
:10227000FEE700BF80B400AFBD4680BC704700BF22
:1022800080B483B000AF78604FF0FF33184607F199
:102290000C07BD4680BC704780B485B000AF786045
:1022A0007B681B68FB60FB681B6C23F00202FB6809
:1022B0001A64FB68DB6843F00302FB68DA60FB68C2
:1022C0001B6943F40042FB681A61FB681A697B686A
:1022D0001B8D4FEA83534FEA93531A43FB681A61ED
:1022E000FB685A697B6893F830304FEA032303F4A4
:1022F00040717B689B8D4FEA832303F4F8431943B5
:102300007B685B8D4FEA03404FF00003C0F2FF3360
:1023100003400B431A43FB685A61FB685B6B43F451
:102320008172FB685A63FB685A6B7B689B8B4FEA30
:10233000034303F47C117B689B8B4FEA036303F038
:1023400070630B431A43FB685A63FB689B6B43F44F
:10235000A062FB689A63FB68DA6B7B685B7D4FEA7F
:10236000430303F002017B68DB8D4FEA032303F490
:10237000F8530B43134343F00102FB68DA637B68B5
:1023800093F82430002B05D0FB68DB6B43F0200270
:10239000FB68DA637B6893F82530002B05D0FB6877
:1023A000DB6B43F04002FB68DA637B6893F826300E
:1023B000002B05D0FB68DB6B43F08002FB68DA631F
:1023C0007B689B7F002B0ED0FB68D3F808217B68CD
:1023D00093F820304FEA032303F47C531A43FB683D
:1023E000C3F8082105E0FB689B6C43F40052FB68CE
:1023F0009A647B68DB7F002B0FD0FB68D3F80C213D
:102400007B6893F821304FEA032303F47C53134392
:1024100043F08052FB68C3F80C21FB681A6C7B68A0
:102420009B7D4FEA032303F44073134343F00202FE
:10243000FB681A6407F11407BD4680BC704700BFF3
:1024400080B485B000AF78607B685B687A6852685A
:1024500051687A68127A4FF0010000FA02F20A43DA
:102460005A607B681B7AFB60FB68032B10D87B6883
:102470005B687A6852681169FA684FEAC20202F131
:1024800003024FF0180000FA02F20A431A614FE00B
:10249000FB68032B17D9FB68072B14D8FB68A3F143
:1024A0000403FB607B685B687A6852685169FA686C
:1024B0004FEAC20202F103024FF0180000FA02F2E2
:1024C0000A435A6134E0FB68072B17D9FB680B2BD2
:1024D00014D8FB68A3F10803FB607B685B687A682B
:1024E00052689169FA684FEAC20202F103024FF0A2
:1024F000180000FA02F20A439A6119E0FB680B2BFC
:1025000016D9FB680F2B13D8FB68A3F10C03FB60F3
:102510007B685B687A685268D169FA684FEAC202E0
:1025200002F103024FF0180000FA02F20A43DA61E6
:1025300007F11407BD4680BC704700BF80B485B06A
:1025400000AF7860D7ED017AF5EEC07AF1EE10FABF
:1025500006D5D7ED017AF1EE677AC7ED037A01E08F
:102560007B68FB60FB68184607F11407BD4680BC1A
:10257000704700BF80B52DED028BAEB000AFF860A4
:10258000B9607A604FF00003C7F8B4304FF0000331
:10259000C7F8B030FB68C7F8AC304FF00003C7F89D
:1025A000A8304FF00003C7F888304FF00003FB67F6
:1025B00042F6C653C7F8A830D7ED2B7AB8EE677A43
:1025C000D7ED2A7AF8EE677AC7EE277AC7ED1E7A3A
:1025D00097ED1E7AF7EE007AB4EEE77AF1EE10FA94
:1025E00012DD4FF48063C7F8A4304FF0010387F881
:1025F0008330D7F8AC30FB67D7F8A830C7F8AC30D9
:10260000FB6FC7F8A83007E04FF0000387F883306E
:102610004FF48063C7F8A4304FF00003C7F884304C
:102620004FF00003C7F890304FF00003C7F88C302C
:10263000D7F8AC303B66D7F8A8303B644FF00103C5
:102640003B634FF000033B62D7F8843003F1010392
:10265000C7F88430D7F88C307B67D7F89030C7F84C
:102660008C30D7F8843003F00303C7F89030D7F8E4
:102670008C304FEA830307F1B801CB1853F8582C7C
:10268000D7F890304FEA830307F1B801CB1843F82D
:10269000682CD7F88C304FEA830307F1B802D318BF
:1026A00053F8782CD7F890304FEA830307F1B8013C
:1026B000CB1843F8582CD7F890304FEA830307F132
:1026C000B802D31853F8682CD7F890304FEA830338
:1026D00007F1B801CB1853F8583CB2FBF3F2D7F826
:1026E00090304FEA830307F1B801CB1843F8A82CC8
:1026F000D7F890304FEA830307F1B802D31853F8A4
:10270000682CD7F890304FEA830307F1B801CB1853
:1027100053F8583CB2FBF3F103FB01F3D21AD7F89C
:1027200090304FEA830307F1B801CB1843F8782CB7
:10273000D7F88430012B05D17B697B634FF001030F
:102740007B624BE0D7F890304FEA830307F1B80281
:10275000D31853F8A82CD7F88C304FEA830307F12D
:10276000B801CB1853F8883C03FB02F27B6F4FEAA9
:10277000830307F1B801CB1853F8883CD218D7F877
:1027800090304FEA830307F1B801CB1843F8882C47
:10279000D7F890304FEA830307F1B802D31853F803
:1027A000A82CD7F88C304FEA830307F1B801CB1877
:1027B00053F8983C03FB02F27B6F4FEA830307F167
:1027C000B801CB1853F8983CD218D7F890304FEA9C
:1027D000830307F1B801CB1843F8982CD7F8903051
:1027E0004FEA830307F1B802D31853F8982CD7F8AF
:1027F000A4309A4240F2DF80D7F88C304FEA83034E
:1028000007F1B801CB1853F8883CC7F8A030D7F8C7
:102810008C304FEA830307F1B802D31853F8983C81
:10282000C7F898307B6F4FEA830307F1B801CB18E4
:1028300053F8983CD7F8A420D21AD7F88C304FEA36
:10284000830307F1B801CB1853F8983CB2FBF3F3BC
:102850003B67D7F8903003F1FF334FEA830307F16A
:10286000B802D31853F8883C3A6F02FB03F2D7F84A
:102870009030A3F102034FEA830307F1B801CB18AC
:1028800053F8883CD318C7F89C30D7F8903003F140
:10289000FF334FEA830307F1B802D31853F8983C8B
:1028A0003A6F02FB03F27B6F4FEA830307F1B80133
:1028B000CB1853F8983CD318C7F8943097F8833066
:1028C000002B13D0D7F8A030FB67D7F89830C7F8A3
:1028D000A030FB6FC7F89830D7F89C30FB67D7F86B
:1028E0009430C7F89C30FB6FC7F89430D7F8983015
:1028F000002B03D0D7F8A030002B08D1D7F89C309C
:10290000C7F8B430D7F89430C7F8B0304EE0D7F8F5
:102910009430002B03D0D7F89C30002B08D1D7F887
:10292000A030C7F8B430D7F89830C7F8B0303DE0E1
:10293000D7ED287AB8EE677AD7ED267AF8EE677A7F
:10294000C7EE277A97ED1E7A77EE677A17EE900A30
:10295000FFF7F4FD08EE100AD7ED277AB8EE677A94
:10296000D7ED257AF8EE677AC7EE277A97ED1E7ACB
:1029700077EE677A17EE900AFFF7E0FD07EE900A10
:10298000B4EEE78AF1EE10FA08DDD7F89C30C7F80C
:10299000B430D7F89430C7F8B03007E0D7F8A0309B
:1029A000C7F8B430D7F89830C7F8B0304FF0050307
:1029B000C7F8883032E0D7F890304FEA830307F148
:1029C000B802D31853F8783C002B27D1D7F89030B1
:1029D0004FEA830307F1B801CB1853F8883CC7F8D6
:1029E000B430D7F890304FEA830307F1B802D31818
:1029F00053F8983CC7F8B03097F88330002B09D0D3
:102A0000D7F8B430FB67D7F8B030C7F8B430FB6FF5
:102A1000C7F8B0304FF00503C7F88830D7F88830D2
:102A2000052B7FF411AED7F8B42040F2FF339A4261
:102A300003D940F2FF33C7F8B4307B68D7F8B4202D
:102A40001A60D7F8B03003F1FF32BB681A6007F1A3
:102A5000B807BD46BDEC028B80BD00BF80B582B01B
:102A600000AF4FF08000C1F2000000F083FA4FF099
:102A700000037B6021E040F20803C2F200037A68A1
:102A800053F822301B7D012B09D140F20803C2F21A
:102A900000037A6853F822301846FFF7D1FC40F261
:102AA0000803C2F200037A6853F822301846FFF791
:102AB000F3FB7B6803F101037B607B68002BDAD0BA
:102AC00007F10807BD4680BD80B483B000AF7860D1
:102AD00007F10C07BD4680BC704700BF80B58AB0C7
:102AE00000AFF860B960FA71BB714FF000037B6111
:102AF0004FF000033B61FB681B683B624FF005032E
:102B00007B623B6A9B6C03F00103FB613B6A9B6C3D
:102B100003F002034FEA5303BB61FA69BB69134038
:102B2000012B5BD13B6A1B6C23F002023B6A1A64E7
:102B300007F1140207F11003B86811461A46FFF7AF
:102B400019FD3B6A1B6923F47F7323F003033A6A80
:102B500013613B6A1A693B694FEA83534FEA935307
:102B60001A433B6A1A613B6A5B6923F07F7323F463
:102B700040333A6A53613B6A5A697B694FEA0341C1
:102B80004FF00003C0F2FF330B401A433B6A5A6117
:102B90003B6ADB6B23F002023B6ADA633B6ADA6B67
:102BA000BB794FEA430303F002031A433B6ADA633B
:102BB0003B6A1B6C23F440723B6A1A643B6A1A6CD2
:102BC000FB794FEA032303F44073134343F00202FB
:102BD0003B6A1A644FF000037B6202E04FF003038C
:102BE0007B627B6A184607F12807BD4680BD00BF9F
:102BF00080B487B000AFF860B9607A604FF000032E
:102C00007B61FB681B683B61FB68DB7F002B1FD08F
:102C100011E03B69D3F81C319AB2BB681A807B681B
:102C200003F1FF337B607B6903F101037B61BB68C8
:102C300003F10203BB603B69D3F8143103F00803CE
:102C40004FEAD303002B0CD17B68002BE1D108E0C5
:102C50003B695B6D9AB2BB681A807B6903F1010323
:102C60007B617B69184607F11C07BD4680BC704735
:102C700080B487B000AFF860B9607A604FF00003AD
:102C80007B61FB681B683B61FB68DB7F002B1FD00F
:102C900011E03B69D3F81C31DAB2BB681A707B686B
:102CA00003F1FF337B607B6903F101037B61BB6848
:102CB00003F10103BB603B69D3F8143103F008034F
:102CC0004FEAD303002B0CD17B68002BE1D108E045
:102CD0003B695B6DDAB2BB681A707B6903F1010373
:102CE0007B617B69184607F11C07BD4680BC7047B5
:102CF00080B487B000AFF860B9607A604FF000032D
:102D00007B61FB681B683B61FB689B7F002B1FD0CE
:102D100011E0BB681B881A463B69C3F880217B68B9
:102D200003F1FF337B607B6903F101037B61BB68C7
:102D300003F10203BB603B69D3F8143103F4805301
:102D40004FEA1333002B13D17B68002BE1D10FE046
:102D50003B699B6B03F08003002B09D1BB681B8888
:102D60001A463B69C3F880207B6903F101037B614C
:102D70007B69184607F11C07BD4680BC704700BF41
:102D800080B487B000AFF860B9607A604FF000039C
:102D90007B61FB681B683B61FB689B7F002B1FD03E
:102DA00011E0BB681B781A463B69C3F880217B6839
:102DB00003F1FF337B607B6903F101037B61BB6837
:102DC00003F10103BB603B69D3F8143103F4805372
:102DD0004FEA1333002B13D17B68002BE1D10FE0B6
:102DE0003B699B6B03F08003002B09D1BB681B7808
:102DF0001A463B69C3F880207B6903F101037B61BC
:102E00007B69184607F11C07BD4680BC704700BFB0
:102E100080B487B000AF78600B46FB704FF00103C1
:102E20007B614FF000033B617B681B68FB60FB78B4
:102E30000F2B0BD8FB689B6C3B61FB784FF00102BA
:102E400002FA03F33A6913403B611FE0FB78122B4F
:102E50000ED8FB68D3F814313B61FB78A3F1100363
:102E60004FF0010202FA03F33A6913403B610DE0AF
:102E7000FB68D3F814313B61FB78A3F10B034FF0EF
:102E8000010202FA03F33A6913403B613B69002BEC
:102E900002D04FF002037B617B69184607F11C07E3
:102EA000BD4680BC704700BF80B485B000AF78607D
:102EB0000B46FB707B681B68FB60FB780F2B0AD806
:102EC000FB68DA6CFB784FF0010101FA03F31A4357
:102ED000FB68DA641FE0FB78122B0ED8FB68D3F88E
:102EE0001821FB78A3F110034FF0010101FA03F35D
:102EF0001A43FB68C3F818210DE0FB68D3F81821CA
:102F0000FB78A3F10B034FF0010101FA03F31A431D
:102F1000FB68C3F8182107F11407BD4680BC704751
:102F200080B487B000AF78604FF000037B614FF052
:102F300000033B614FF48843C5F20003FB607B68EC
:102F40004FEA13737B61FB6803F1100319467A693A
:102F500013464FEA43039B184FEA8303CB183B61A8
:102F60007B6823F070423B691A6007F11C07BD467D
:102F700080BC704780B487B000AF78604FF000032A
:102F80007B614FF000033B614FF48843C5F20003BF
:102F9000FB607B684FEA13737B61FB6803F11403EA
:102FA00019467A6913464FEA43039B184FEA830395
:102FB000CB183B617B6823F070423B691A6007F1D4
:102FC0001C07BD4680BC704780B483B000AF4FF48F
:102FD0008843C5F200037B604FF00003FB707B6801
:102FE0001B68FB70FB78184607F10C07BD4680BCD8
:102FF000704700BF80B489B000AF78604FF00F0316
:10300000FB614FF00003BB614FF000037B614FF0A9
:1030100000033B614FF48843C5F20003FB607B680B
:103020004FEA1373BB61FB6803F10C031946BA69DD
:1030300013464FEA43039B184FEA8303CB187B6187
:103040007B691A687B68134023F070433B613B69DE
:10305000002B03D04FF00103FB6102E04FF00003AF
:10306000FB61FB69184607F12407BD4680BC704729
:1030700080B483B000AF4FF48843C5F200037B6097
:103080007B689B6843F001027B689A6007F10C073C
:10309000BD4680BC704700BF80B400AF44F26003FF
:1030A000C0F600035B684FF000025A6044F2600310
:1030B000C0F600035A6844F26003C0F600035B6880
:1030C0001B6C23F4E023136444F26003C0F6000396
:1030D0005A6844F26003C0F600035B681B6C43F45B
:1030E0008023136444F26003C0F600035A6844F27C
:1030F0006003C0F600035B685B69536144F26803D8
:10310000C0F600035B684FF000025A6044F26803A7
:10311000C0F600035A6844F26803C0F600035B6817
:103120001B6C23F00703136444F26803C0F600032A
:103130005A6844F26803C0F600035B681B6C43F0F6
:103140000403136444F26803C0F600035A6844F2AF
:103150006803C0F600035B681B69136144F27003E7
:10316000C0F600035B684FF000025A6044F270033F
:10317000C0F600035A6844F27003C0F600035B68AF
:103180001B6C23F00703136444F27003C0F60003C2
:103190005A6844F27003C0F600035B681B6C43F08E
:1031A0000403136444F27003C0F600035A6844F247
:1031B0007003C0F600035B681B69136144F2780377
:1031C000C0F600035B684FF000025A6044F27803D7
:1031D000C0F600035A6844F27803C0F600035B6847
:1031E0001B6C23F07003136444F27803C0F60003F1
:1031F0005A6844F27803C0F600035B681B6C43F026
:103200004003136444F27803C0F600035A6844F2A2
:103210007803C0F600035B681B69136144F2800306
:10322000C0F600035B684FF000025A6044F280036E
:10323000C0F600035A6844F28003C0F600035B68DE
:103240001B6C23F4E063136444F28003C0F60003B4
:103250005A6844F28003C0F600035B681B6C43F4B9
:103260008063136444F28003C0F600035A6844F29A
:103270008003C0F600035B681B69136144F2880396
:10328000C0F600035B684FF000025A6044F2880306
:10329000C0F600035A6844F28803C0F600035B6876
:1032A0001B6C23F0E063136444F28803C0F6000350
:1032B0005A6844F28803C0F600035B681B6C43F055
:1032C0008063136444F28803C0F600035A6844F232
:1032D0008803C0F600035B685B69536144F29003A6
:1032E000C0F600035B684FF000025A6044F290039E
:1032F000C0F600035A6844F29003C0F600035B680E
:103300005B6C23F4E023536444F29003C0F60003A3
:103310005A6844F29003C0F600035B685B6C43F4A8
:103320008023536444F29003C0F600035A6844F2C9
:103330009003C0F600035B68DB6943F01803D361B8
:1033400044F29803C0F600035B684FF000025A6035
:1033500044F29803C0F600035A6844F29803C0F69A
:1033600000035B681B6C23F4E023136444F29803AE
:10337000C0F600035A6844F29803C0F600035B6885
:103380001B6C43F48023136444F29803C0F60003DB
:103390005A6844F29803C0F600035B685B695361A6
:1033A00044F2A003C0F600035B684FF000025A60CD
:1033B00044F2A003C0F600035A6844F2A003C0F62A
:1033C00000035B681B6C23F00703136444F2A00343
:1033D000C0F600035A6844F2A003C0F600035B681D
:1033E0001B6C43F00403136444F2A003C0F6000313
:1033F0005A6844F2A003C0F600035B681B691361BE
:1034000044F2A803C0F600035B684FF000025A6064
:1034100044F2A803C0F600035A6844F2A803C0F6B9
:1034200000035B681B6C23F07003136444F2A80371
:10343000C0F600035A6844F2A803C0F600035B68B4
:103440001B6C43F04003136444F2A803C0F600036E
:103450005A6844F2A803C0F600035B681B69136155
:1034600044F2B003C0F600035B684FF000025A60FC
:1034700044F2B003C0F600035A6844F2B003C0F649
:1034800000035B681B6C23F4E063136444F2B00335
:10349000C0F600035A6844F2B003C0F600035B684C
:1034A0001B6C43F48063136444F2B003C0F6000362
:1034B0005A6844F2B003C0F600035B681B6943F42A
:1034C00080131361BD4680BC704700BF80B485B0D7
:1034D00000AF78600B46FB707B685B78FB73FB7B0F
:1034E000032B23D87B685B687A6852681169FA7B82
:1034F0004FEAC20202F103024FF01F0000FA02F28B
:103500006FEA02020A401A617B685B687A68526857
:103510001169FA7802F01F00FA7B4FEAC20202F149
:10352000030200FA02F20A431A6188E0FB7B032BD4
:103530002AD9FB7B072B27D8FB7BA3F10403FB7362
:103540007B685B687A6852685169FA7B4FEAC2020D
:1035500002F103024FF01F0000FA02F26FEA0202CA
:103560000A405A617B685B687A6852685169FA78E8
:1035700002F01F00FA7B4FEAC20202F1030200FAD6
:1035800002F20A435A615AE0FB7B072B2AD9FB7BE4
:103590000B2B27D8FB7BA3F10803FB737B685B68CD
:1035A0007A6852689169FA7B4FEAC20202F103021B
:1035B0004FF01F0000FA02F26FEA02020A409A611D
:1035C0007B685B687A6852689169FA7802F01F003C
:1035D000FA7B4FEAC20202F1030200FA02F20A4346
:1035E0009A612CE0FB7B0B2B29D9FB7B0F2B26D878
:1035F000FB7BA3F10C03FB737B685B687A68526802
:10360000D169FA7B4FEAC20202F103024FF01F00B8
:1036100000FA02F26FEA02020A40DA617B685B6834
:103620007A685268D169FA7802F01F00FA7B4FEA93
:10363000C20202F1030200FA02F20A43DA6107F160
:103640001407BD4680BC704780B485B000AF786079
:103650000B46FB707B685B78FB73FB7B032B23D8EB
:103660007B685B687A6852681169FA7B4FEAC2022C
:1036700002F103024FF01F0000FA02F26FEA0202A9
:103680000A401A617B685B687A6852681169FA7847
:1036900002F01F00FA7B4FEAC20202F1030200FAB5
:1036A00002F20A431A6188E0FB7B032B2AD9FB7BD9
:1036B000072B27D8FB7BA3F10403FB737B685B68B4
:1036C0007A6852685169FA7B4FEAC20202F103023A
:1036D0004FF01F0000FA02F26FEA02020A405A613C
:1036E0007B685B687A6852685169FA7802F01F005B
:1036F000FA7B4FEAC20202F1030200FA02F20A4325
:103700005A615AE0FB7B072B2AD9FB7B0B2B27D86E
:10371000FB7BA3F10803FB737B685B687A685268E4
:103720009169FA7B4FEAC20202F103024FF01F00D7
:1037300000FA02F26FEA02020A409A617B685B6853
:103740007A6852689169FA7802F01F00FA7B4FEAB2
:10375000C20202F1030200FA02F20A439A612CE06B
:10376000FB7B0B2B29D9FB7B0F2B26D8FB7BA3F1F3
:103770000C03FB737B685B687A685268D169FA7BDB
:103780004FEAC20202F103024FF01F0000FA02F2F8
:103790006FEA02020A40DA617B685B687A68526805
:1037A000D169FA7802F01F00FA7B4FEAC20202F1F7
:1037B000030200FA02F20A43DA6107F11407BD4678
:1037C00080BC704780B485B000AF78607B6803F040
:1037D0000703FB604FF46D43CEF20003DB68BB6070
:1037E000BA684FF6FF031340BB60FB684FEA032241
:1037F000BB68134343F0BF6343F40033BB604FF433
:103800006D43CEF20003BA68DA6007F11407BD46D3
:1038100080BC704780B500AF4FF00100FFF7D2FFCA
:1038200000F00CF9FFF738FC00F08EFBFFF716F9FB
:1038300000F008F880BD00BF80B500AF00F084FB49
:1038400080BD00BF80B487B000AF3B464FF00002A0
:103850001A6003F104034FF000021A6003F104033D
:103860004FF000021A6003F104034FF000021A60E7
:1038700003F104034FF000021A6003F104034FF058
:1038800000021A6003F10403BA684FF00003C4F6A3
:1038900002031B6C03F00F031343BB604FF00003E4
:1038A000C4F602034FF00002C4F60202126C22F0CA
:1038B0000F021A644FF00003C4F602034FF0000237
:1038C000C4F60202D26922F0070242F00102DA6174
:1038D0004FF00003C4F602034FF00002C4F60202E8
:1038E000D2F8082122F0E06222F03F0242F080721A
:1038F00042F00202C3F808214FF00003C4F60203AD
:103900004FF00002C4F60202D2F80C2122F0E0626D
:1039100022F03F0242F08072C3F80C214FF0000306
:10392000C4F60203BA6802F00F014FF00002C4F6B9
:103930000202126C22F00F020A431A644FF4004391
:10394000C4F602034FF40042C4F60202126942F0C8
:1039500080021A614FF40043C4F602034FF40042A0
:10396000C4F60202126942F400421A614FF40043A5
:10397000C4F602034FF40042C4F60202126942F494
:1039800000021A614FF40043C4F602034FF40042F0
:10399000C4F60202526942F080025A614FF40043B9
:1039A000C4F602034FF40042C4F60202526942F424
:1039B00000025A614FF40143C4F602034FF401427E
:1039C000C4F60202126942F080021A614FF4014308
:1039D000C4F602034FF40142C4F60202126942F433
:1039E00000421A614FF40243C4F602034FF402424C
:1039F000C4F60202D26922F4380242F41002DA61FB
:103A00004FF40343C4F602034FF40342C4F6020228
:103A1000126942F080021A614FF40343C4F60203B4
:103A20004FF40342C4F60202526942F080025A6126
:103A300007F11C07BD4680BC704700BF80B400AFD3
:103A4000BD4680BC704700BF80B485B000AF7860D1
:103A50004FF00003FB6007E000BF00BF00BF00BFE6
:103A6000FB6803F10103FB60FA687B689A42F3D3B9
:103A700007F11407BD4680BC704700BF80B483B017
:103A800000AF4FF001037B6044F21073C5F20003F6
:103A90005A684FF00203C0F201031340002B02D01A
:103AA0004FF000037B607B68184607F10C07BD46AA
:103AB00080BC704780B500AF4FF48443C5F200036B
:103AC0001B6803F00103002B0BD14FF48443C5F2B4
:103AD00000034FF48442C5F20002526842F0010232
:103AE0005A604FF48843C5F200031B6803F4007367
:103AF000002B0BD04FF48843C5F200034FF48842EB
:103B0000C5F20002926842F400729A6044F21073A7
:103B1000C5F2000344F21072C5F20002526822F4AA
:103B200080125A604FF06400FFF78EFF44F210736A
:103B3000C5F2000344F21072C5F20002526842F46A
:103B400000225A6080BD00BF80B582B000AF4FF048
:103B500001037B6044F21073C5F2000344F210725B
:103B6000C5F20002526822F4803222F002025A604A
:103B70004FF48E43C5F200035B6803F03003002B63
:103B800054D04FF48E43C5F200034FF48E42C5F279
:103B90000002526822F030025A604FF48E43C5F2A0
:103BA00000034FF48E42C5F20002526842F44032E4
:103BB0005A6044F21073C5F2000344F21072C5F269
:103BC0000002D26822F00102DA6044F21073C5F2FA
:103BD000000344F21072C5F20002526822F400326F
:103BE0005A6044F250633B604FF00A00FFF72CFF2D
:103BF0003B6803F1FF333B6044F21073C5F20003EE
:103C00001B6803F46073B3F5607F02D03B68002B40
:103C1000EAD144F21073C5F200031B6803F4607329
:103C2000B3F5607F02D04FF000037B607B681846DD
:103C300007F10807BD4680BD80B582B000AF4FF0E8
:103C400001037B6044F21073C5F200031B6803F0AC
:103C50000403002B40F0978040F25003C2F20003AF
:103C60004FF46052C1F69C421A6040F25003C2F217
:103C700000031A6849F68173C1F25E63A3FB021365
:103C80004FEA535303F1FF3240F25403C2F20003F0
:103C90001A6044F21073C5F2000344F21072C5F2C8
:103CA0000002526842F001025A6044F21073C5F2F9
:103CB000000344F21072C5F20002526842F0100292
:103CC0005A6044F21073C5F2000340F25402C2F28B
:103CD000000212684FEA024242F41C529A6044F217
:103CE0001073C5F2000344F21072C5F2000252686C
:103CF00042F040025A6044F21073C5F2000344F2ED
:103D00001072C5F20002526822F010025A6044F2AA
:103D10001073C5F2000344F21072C5F2000252683B
:103D200042F480225A6044F250633B604FF00A0034
:103D3000FFF78AFE3B6803F1FF333B6044F21073E8
:103D4000C5F200031B6803F00403002B02D13B689B
:103D5000002BEBD144F21073C5F200031B6803F093
:103D60000403002B0CD044F21073C5F2000344F29C
:103D70001072C5F20002526822F001025A6002E09D
:103D80004FF000037B607B68184607F10807BD46CB
:103D900080BD00BF80B582B000AF4FF001037B60F3
:103DA00044F21073C5F2000344F21072C5F200022F
:103DB000526822F040025A6040F25003C2F20003FF
:103DC0004FF46052C1F69C421A604FF06400FFF756
:103DD0003BFE40F25003C2F200031B684FEA13227D
:103DE00045F2C743C0F21E13A3FB02134FEA93230D
:103DF00003F1FF3240F25403C2F200031A6044F2AE
:103E00001073C5F2000340F25402C2F200021268BD
:103E10004FEA024242F41C529A604FF06400FFF7EE
:103E200013FE40F25003C2F200031B684FEAD312A4
:103E30004EF22F33C0F2BE03A3FB02134FEAD3238B
:103E400003F1FF3240F25403C2F200031A6044F25D
:103E50001073C5F2000340F25402C2F2000212686D
:103E60004FEA024242F41C529A604FF09600FFF76C
:103E7000EBFD44F21073C5F200034FF41C52C0F284
:103E800003029A6044F21073C5F200039B6803F0CA
:103E900070634FEA1363002B1ED144F21073C5F216
:103EA00000039B6803F4FE434FEA1323272B13D12F
:103EB00044F21073C5F200039B6803F07F03002BEC
:103EC0000AD144F21073C5F200039B6803F4FE03A9
:103ED0004FEA1343032B02D04FF000037B6044F200
:103EE0006013C5F200034FF00502DA607B681846E4
:103EF00007F10807BD4680BD80B582B000AF4FF026
:103F000001037B60FFF7D6FD4FF06400FFF79CFDD7
:103F1000FFF71AFE7860FFF78FFE78604FF48C434E
:103F2000C5F200034FF48C42C5F20002D26842F49D
:103F30008032DA60FFF72EFF78607B68184607F161
:103F40000807BD4680BD00BF80B582B000AF4FF00E
:103F500000037B60FFF792FD0346002B05D1FFF7BE
:103F6000CBFF03467A6813437B60FCF711FE07F131
:103F70000807BD4680BD00BF80B400AF4FF000030E
:103F80001846BD4680BC7047F8B5204F204C381B02
:103F9000871017D07A1E2368012502F00106984782
:103FA000AF420FD02EB154F8041F02258847AF420C
:103FB00008D0606880470235A268261D9047083403
:103FC000AF42F6D1134F144CFEF754F93B1B9F1030
:103FD00018D07D1E216805F0010601258847AF42F3
:103FE00011D02EB154F8040F02258047AF420BD0F8
:103FF000626890470235A368261D98470834AF428F
:10400000F6D1F8BDF8BDF8BDF8BD00BF1C400008F2
:0C4010001C4000081C4000081C40000878
:10401C00E4C1FF7F010000001AC2FF7F0100000015
:10402C0000000248008202480E0000000080024896
:10403C0005000000000000008025000007000101C1
:10404C000100010100000000A101FC0109000600B3
:10405C000000000000040000008002480000000086
:10406C0000800248030000000083024800010000A9
:10407C000080024800020000008002480006000098
:10408C0000800248000C000000800248030400007D
:10409C000083024801000000008102480101000079
:0C40AC000081024803020000008302486B
:0C40C000000E2707300000002C40000814
:0400000508000201EC
:00000001FF
