:020000040C00EE
:100000000008001001020008CB020008DB02000813
:10001000EB020008FB0200080B03000800000000D0
:100020000000000000000000000000001B030008AA
:100030002B030008000000003B0300084B030008EE
:100040005B0300086B0300087B0300088B030008B8
:100050009B030008AB030008BB030008CB030008A8
:10006000DB030008000000000000000000000000AA
:10007000EB03000800000000FB0300080B0400086D
:100080001B0400082B0400083B0400084B04000874
:100090005B0400086B0400087B0400088B04000864
:1000A0009B040008AB040008BB040008CB04000854
:1000B000DB040008EB040008FB0400080B05000843
:1000C0001B0500082B0500083B0500084B05000830
:1000D0005B0500086B0500087B0500088B05000820
:1000E0009B050008AB050008BB050008CB05000810
:1000F000DB050008EB050008FB0500080B060008FF
:100100001B060008290600083706000845060008F7
:1001100053060008610600086F0600087D06000807
:100120008B06000899060008A7060008B506000817
:10013000C3060008D1060008DF060008ED06000827
:10014000FB06000809070008170700082507000834
:1001500033070008410700084F0700085D07000843
:10016000000000000000000000000000000000008F
:100170006B07000879070008870700089507000843
:10018000A3070008B1070008BF070008CD07000853
:10019000DB070008E9070008F70700080508000862
:1001A00013080008210800082F0800083D0800086F
:1001B0004B0800085908000867080008750800087F
:1001C00083080008910800089F080008AD0800088F
:1001D000BB080008C9080008D70800080000000094
:1001E000E5080008F3080008010900080F090008E5
:1001F0001D090008000000002B0900080000000095
:10020000DFF80CD0034880470348804700F017B858
:1002100000080010650B000861280008002A00F0A3
:100220000D804FEA920203680B60013A00F00680ED
:1002300000F1040001F10401FFF7F5BF7047144815
:100240001449154AFFF7EAFF14481549154AFFF704
:10025000E5FF15481549002900F00C804FEA91018F
:100260004FF000020260013900F0048000F1040048
:10027000FFF7F8BF0E480F4908600F488047DFF8C6
:100280003CD04FF000004FF00001DFF834F00000E8
:100290003031000C000000202C0000005C31000C0C
:1002A00000080010000000002C0000205404000092
:1002B0000000000808ED00E0712E000800080010A2
:1002C000E510000800BF7047FEE7DFF8700600B5D4
:1002D00081B0804701B000BDFEE7DFF8640600B5DD
:1002E00081B0804701B000BDFEE7DFF8580600B5D9
:1002F00081B0804701B000BDFEE7DFF84C0600B5D5
:1003000081B0804701B000BDFEE7DFF8400600B5D0
:1003100081B0804701B000BDFEE7DFF8340600B5CC
:1003200081B0804701B000BDFEE7DFF8280600B5C8
:1003300081B0804701B000BDFEE7DFF81C0600B5C4
:1003400081B0804701B000BDFEE7DFF8100600B5C0
:1003500081B0804701B000BDFEE7DFF8040600B5BC
:1003600081B0804701B000BDFEE7DFF8F80500B5B9
:1003700081B0804701B000BDFEE7DFF8EC0500B5B5
:1003800081B0804701B000BDFEE7DFF8E00500B5B1
:1003900081B0804701B000BDFEE7DFF8D40500B5AD
:1003A00081B0804701B000BDFEE7DFF8C80500B5A9
:1003B00081B0804701B000BDFEE7DFF8BC0500B5A5
:1003C00081B0804701B000BDFEE7DFF8B00500B5A1
:1003D00081B0804701B000BDFEE7DFF8A40500B59D
:1003E00081B0804701B000BDFEE7DFF8980500B599
:1003F00081B0804701B000BDFEE7DFF88C0500B595
:1004000081B0804701B000BDFEE7DFF8800500B590
:1004100081B0804701B000BDFEE7DFF8740500B58C
:1004200081B0804701B000BDFEE7DFF8680500B588
:1004300081B0804701B000BDFEE7DFF85C0500B584
:1004400081B0804701B000BDFEE7DFF8500500B580
:1004500081B0804701B000BDFEE7DFF8440500B57C
:1004600081B0804701B000BDFEE7DFF8380500B578
:1004700081B0804701B000BDFEE7DFF82C0500B574
:1004800081B0804701B000BDFEE7DFF8200500B570
:1004900081B0804701B000BDFEE7DFF8140500B56C
:1004A00081B0804701B000BDFEE7DFF8080500B568
:1004B00081B0804701B000BDFEE7DFF8FC0400B565
:1004C00081B0804701B000BDFEE7DFF8F00400B561
:1004D00081B0804701B000BDFEE7DFF8E40400B55D
:1004E00081B0804701B000BDFEE7DFF8D80400B559
:1004F00081B0804701B000BDFEE7DFF8CC0400B555
:1005000081B0804701B000BDFEE7DFF8C00400B550
:1005100081B0804701B000BDFEE7DFF8B40400B54C
:1005200081B0804701B000BDFEE7DFF8A80400B548
:1005300081B0804701B000BDFEE7DFF89C0400B544
:1005400081B0804701B000BDFEE7DFF8900400B540
:1005500081B0804701B000BDFEE7DFF8840400B53C
:1005600081B0804701B000BDFEE7DFF8780400B538
:1005700081B0804701B000BDFEE7DFF86C0400B534
:1005800081B0804701B000BDFEE7DFF8600400B530
:1005900081B0804701B000BDFEE7DFF8540400B52C
:1005A00081B0804701B000BDFEE7DFF8480400B528
:1005B00081B0804701B000BDFEE7DFF83C0400B524
:1005C00081B0804701B000BDFEE7DFF8300400B520
:1005D00081B0804701B000BDFEE7DFF8240400B51C
:1005E00081B0804701B000BDFEE7DFF8180400B518
:1005F00081B0804701B000BDFEE7DFF80C0400B514
:1006000081B0804701B000BDFEE7DFF8000400B50F
:1006100081B0804701B000BDFEE7FD4800B581B064
:10062000804701B000BDFEE7FA4800B581B08047C1
:1006300001B000BDFEE7F84800B581B0804701B0C9
:1006400000BDFEE7F54800B581B0804701B000BDB0
:10065000FEE7F34800B581B0804701B000BDFEE77A
:10066000F04800B581B0804701B000BDFEE7EE481C
:1006700000B581B0804701B000BDFEE7EB4800B592
:1006800081B0804701B000BDFEE7E94800B581B008
:10069000804701B000BDFEE7E64800B581B0804765
:1006A00001B000BDFEE7E44800B581B0804701B06D
:1006B00000BDFEE7E14800B581B0804701B000BD54
:1006C000FEE7DF4800B581B0804701B000BDFEE71E
:1006D000DC4800B581B0804701B000BDFEE7DA48D4
:1006E00000B581B0804701B000BDFEE7D74800B536
:1006F00081B0804701B000BDFEE7D54800B581B0AC
:10070000804701B000BDFEE7D24800B581B0804708
:1007100001B000BDFEE7D04800B581B0804701B010
:1007200000BDFEE7CD4800B581B0804701B000BDF7
:10073000FEE7CB4800B581B0804701B000BDFEE7C1
:10074000C84800B581B0804701B000BDFEE7C6488B
:1007500000B581B0804701B000BDFEE7C34800B5D9
:1007600081B0804701B000BDFEE7C14800B581B04F
:10077000804701B000BDFEE7BE4800B581B08047AC
:1007800001B000BDFEE7BC4800B581B0804701B0B4
:1007900000BDFEE7B94800B581B0804701B000BD9B
:1007A000FEE7B74800B581B0804701B000BDFEE765
:1007B000B44800B581B0804701B000BDFEE7B24843
:1007C00000B581B0804701B000BDFEE7AF4800B57D
:1007D00081B0804701B000BDFEE7AD4800B581B0F3
:1007E000804701B000BDFEE7AA4800B581B0804750
:1007F00001B000BDFEE7A84800B581B0804701B058
:1008000000BDFEE7A54800B581B0804701B000BD3E
:10081000FEE7A34800B581B0804701B000BDFEE708
:10082000A04800B581B0804701B000BDFEE79E48FA
:1008300000B581B0804701B000BDFEE79B4800B520
:1008400081B0804701B000BDFEE7994800B581B096
:10085000804701B000BDFEE7964800B581B08047F3
:1008600001B000BDFEE7944800B581B0804701B0FB
:1008700000BDFEE7914800B581B0804701B000BDE2
:10088000FEE78F4800B581B0804701B000BDFEE7AC
:100890008C4800B581B0804701B000BDFEE78A48B2
:1008A00000B581B0804701B000BDFEE7874800B5C4
:1008B00081B0804701B000BDFEE7854800B581B03A
:1008C000804701B000BDFEE7824800B581B0804797
:1008D00001B000BDFEE7804800B581B0804701B09F
:1008E00000BDFEE77D4800B581B0804701B000BD86
:1008F000FEE77B4800B581B0804701B000BDFEE750
:10090000784800B581B0804701B000BDFEE7764869
:1009100000B581B0804701B000BDFEE7734800B567
:1009200081B0804701B000BDFEE7714800B581B0DD
:10093000804701B000BD4FF001007047C9020008B8
:10094000D9020008E9020008F902000809030008BA
:10095000190300082903000839030008A112000840
:100960005903000869030008790300088903000897
:100970001F0F0008210F0008B9030008C903000871
:10098000D9030008E9030008F90300080904000876
:100990001904000829040008390400084904000863
:1009A0005904000869040008790400088904000853
:1009B00099040008A9040008B9040008C904000843
:1009C000D9040008E9040008F90400080905000832
:1009D000190500082905000839050008490500081F
:1009E000590500086905000879050008890500080F
:1009F00099050008A9050008B9050008C9050008FF
:100A0000D9050008E9050008F905000809060008ED
:100A100019060008270600083506000843060008E6
:100A2000510600085F0600086D0600087B060008F6
:100A30008906000897060008A5060008B306000806
:100A4000C1060008CF060008DD060008EB06000816
:100A5000F906000807070008150700082307000823
:100A6000310700083F0700084D0700085B07000832
:100A70006907000877070008850700089307000842
:100A8000A1070008AF070008BD070008CB07000852
:100A9000D9070008E7070008F50700080308000861
:100AA000110800081F0800082D0800083B0800086E
:100AB000490800085708000865080008730800087E
:100AC000810800088F0800089D080008AB0800088E
:100AD000B9080008C7080008D5080008E30800089E
:100AE000F1080008FF0800080D0900081B090008AC
:100AF00029090008164AD368B3F5803F30B522D1E2
:100B0000144B1868410721D59C689868C4F30361A9
:100B10004C1CC0F30621481C9968DB68D268C1F3FD
:100B20000641013113F0010F14BF0B4D0B4D0C4B5F
:100B3000B5FBF4F46043B0FBF1F0D1B24A1CB0FB5A
:100B4000F2F0186030BD04480549086030BD00BFB0
:100B5000004600501047005000366E01001BB700E1
:100B600000000020734BD3F8882042F4700010B5C9
:100B7000C3F88800596921F008025A616E4B586821
:100B800020F0010159606D4B5A6922F00F0040F0CE
:100B90000301596102F04CF9002800F0C780684B4E
:100BA000684A586802402AB1596821F4803020F020
:100BB00002025A60644B596811F0300F04D1604B47
:100BC0001868400731D5B1E0586820F0F0025A604B
:100BD000596841F400305860594BDA6822F001013D
:100BE000D9605868594920F400325A60584B0020A7
:100BF0000522596098601A60514B1968544B01F4F2
:100C00006070B0F5607F03D09A68B2F5FA7FF3D2D6
:100C1000196821F001001860494B1A6802F46071EC
:100C2000B1F5607F40F08280C9E74A4AD168C903C4
:100C300003D5D06820F48031D1605A6842F00100B9
:100C400058605968444841F010025A6098605968E9
:100C500041F040025A60586820F0100159605A680B
:100C60003A4942F480205860394B002205205960EF
:100C70009A601860324B1968354B11F0040F03D19C
:100C80009A68B2F5FA7FF5D21968314821F001026D
:100C90001A602B4B19684A0748D55C6824F001029A
:100CA0005A602C4A0021116151611162D46844F4E8
:100CB0008034D4605A6822F040025A6040F24553B2
:100CC000436081600521016021488268632AFBD866
:100CD00003681B4A23F00101204B016040F61B41D1
:100CE0009360416000230521836001601848836898
:100CF000632BFBD8016821F001031949036091605F
:100D0000002341F2233205214260836001601048D4
:100D10008268632AFBD8036823F00101084B016055
:100D20001048A3F5B66105229860CA60BDE810407E
:100D3000FFF7E0BE00ED00E000800050002000580A
:100D4000104700500200010000470050A34B4C0028
:100D500010E000E000460050014F1301014F070171
:100D6000014F0401014F0301034B1A685968501CDD
:100D70004A1C18605A6070472C0000207047000021
:100D800070B50E4C0E4E0F4D204600F010FC314653
:100D9000204600F013FE20460B4C294600F0F8FCDC
:100DA000204600F004FC3146204600F007FE2046B5
:100DB0002946BDE8704000F0EBBC00BF5C2F000886
:100DC00000409C4600002041142F000808B52DED7E
:100DD000028B4A4AD37803F00801C8B288B151782F
:100DE000142922D907EE101A9FED452AF8EE471A6A
:100DF0009FED443AC1EE822AF7EE006A22EE838A22
:100E00001AE0D90714D55278142A11D907EE902A7E
:100E10009FED3B0AB8EE678A9FED3A1AC8EE000ACA
:100E2000DFED396A20EE818A06E0F7EE006A01E024
:100E3000DFED356AB2EE048A03F02000C2B292B14F
:100E40002E4B9978142925D900EE101A9FED2C1AF3
:100E5000F8EE400A9FED2B7AC0EE811AF7EE003AC9
:100E600061EE877A1DE003F01003D9B2A9B12348DF
:100E70008278142A11D904EE102A9FED215AF8EE37
:100E8000444A9FED206AC4EE855ADFED1F3A65EEB5
:100E9000867A06E0F7EE003A01E0DFED1B3AF2EE6B
:100EA000047A1A48F5EE406AF1EE10FA4268437887
:100EB00001D0012101E04FF4803101FA03F0F5EE99
:100EC000403A134B5060F1EE10FA5A68587801D04E
:100ED000012101E04FF4803101FA00F3536017EE75
:100EE000901A0C4800F054FC0B4818EE101ABDEC98
:100EF000028BBDE8084000F04BBC00BF7B00002027
:100F000000007F430000C84200000000C42F00081A
:100F10001C3000085C2F0008142F00087047704731
:100F20007047000008B564200121054A002300F045
:100F30001BFA18B1BDE8084000F058BA08BD00BF60
:100F4000690D0008632803D8024B00221A6070471D
:100F5000FEE700BF2C0000204FF47A735843FFF7E0
:100F6000F1BF10F1FF3001D300BFFAE77047000076
:100F700038B54FF49670FFF7F4FF084B5D785C6866
:100F8000012000FA05F060604FF49670FFF7E9FF6A
:100F90004FF4803101FA05F5656038BD0430000872
:100FA0002DE9F8432E4BC5224F20A3211A7058700B
:100FB00099700020EE24DD25CC26BB27AA2228210B
:100FC000DC701D715E719F71DA71187258729872BF
:100FD000D872187398735973224D234B95F801906A
:100FE0005F78D5F804805E684FF48034012204FAFB
:100FF00007F402FA09F074600E25C8F8040007240B
:10100000174B0121E85C194B01FA04F202425A68BD
:10101000587803D001FA00F1516004E04FF48031B8
:1010200001FA00F35360FFF7A3FF14F1FF34E7D296
:1010300015F1FF35E3D203210C4801F08FF94FF48D
:10104000803202FA09F00121C8F8040001FA07F71A
:101050004CF250307760BDE8F843FFF782BF00BF25
:101060006C0000200C300008EC2F0008FC2F00085A
:10107000194B2DE9F04193F801805F684FF48030FF
:1010800000FA08F179604CF25030FFF76AFF002552
:1010900000260724114B5A685978506A20FA01F348
:1010A000D80704D5012202FA04F21643F6B2FFF77C
:1010B0005FFF14F1FF34EDD209482E540135052DA0
:1010C000E6D1012101FA08F34CF250307B60BDE813
:1010D000F041FFF746BF00BFEC2F0008FC2F0008CF
:1010E0007B00002008B501F093FBFFF71BFFFFF723
:1010F00057FF0E4B00221A605A60FFF741FE0C4862
:10110000416843784A6A094922FA03F010F0010F56
:1011100006D000204860FFF7ABFFFFF757FEEEE771
:101120004A6841F288339A42E9D9E6E72C00002068
:10113000F42F00084FF0FF3070474FF0FF3070473A
:10114000002070474FF0FF3070474FF0FF3070477E
:1011500000290CBF6FF001004FF0FF307047814253
:1011600014BF6FF001004FF0FF3070474FF0FF30B9
:10117000704700000A4B1A6822B90A4A0A491A60E5
:1011800052185A601A685B68D11D081820F00701D0
:1011900099423ABF024B196000221046704700BFC7
:1011A000380000208004002080FB00004FF0FF305A
:1011B00070474FF0FF3070474FF0FF3070474FF0EF
:1011C000FF3070474FF0FF307047FEE770474FF039
:1011D000FF30704737B51F4B1F491A6801EB4011AC
:1011E0008C680AB9196033E001941346019C996830
:1011F000611A0191019900291ADAD969164D440141
:1012000029B12A198A61D1619361DA6104E02B194D
:10121000D3619A610F4A13600F4B019903EB4010A1
:1012200083699A688A1882609968881A98600FE0C2
:1012300001990029996908DB39B9074A019902EB3C
:1012400040109861C361816002E00B460029CDD156
:101250003EBD00BF44000020800000200E4B03EB89
:10126000401010B5C269836952B90C490B6003B9CB
:1012700010BD9C688168DA6161189960826110BD57
:1012800093613BB183699968DA61826889189960D2
:1012900000238361C36110BD800000204400002052
:1012A000154B5A6810B51C68501C586014B3A168DF
:1012B000012902D9481EA06010BD0023A360A268C6
:1012C000C2B9207928B92068FFF7C8FF01236371EC
:1012D00009E001280ED12068FFF7C0FFE16820680F
:1012E000A160FFF777FF22696069034C904724688B
:1012F000002CE4D110BD00BF44000020174A002399
:10130000136082B0164A019342F6DF6151601549BD
:10131000FC2081F823000720936010600193019B5B
:10132000012B18D0CA68C2F30223C01A062828BFAE
:10133000062003B1013B012101FA00F2501E00F02A
:101340000A0101FA03F39A000649044BD0B20022C5
:1013500081F823009A6002B0704700BF440000206B
:1013600010E000E000ED00E063282DE9F04104D931
:10137000012994BF0024012402E0002830D0012478
:1013800052B364BB174EB568B44625FA04F616F09E
:1013900001061DD1012707FA04F848EA0505DFF820
:1013A0004880CCF808504FEA441C08EB0C0548F87C
:1013B0000C4029716421B0FBF1F0C119E8606F7134
:1013C000A9602A616B61EE61AE61E019BDE8F08150
:1013D0000134202CD9D102E01046BDE8F081002074
:1013E000BDE8F08144000020800000200E4A916892
:1013F000431E21FA03F1CA0710B504D5202894BF73
:101400000024012400E00124084800EB4312916805
:1014100039B134B9507928B154711846FFF7DAFE62
:1014200000E00124204610BD440000208000002080
:101430000C4A9168431E21FA03F1C90710B50DD576
:1014400020280BD8084C04EB43146079012807D0FE
:101450001846FFF703FF0123637101E0012010BD6F
:10146000002010BD44000020800000200E4B996831
:1014700010B5441E21FA04F1CB0713D5202811D84A
:101480000A4800EB4412537913B92046FFF7E6FEF1
:10149000054901208A6800FA04F422EA04028A60FD
:1014A000002010BD012010BD44000020800000205D
:1014B000024B596864204843704700BF4400002035
:1014C000030F0C225A43024920F0704050507047DD
:1014D00010440050030F0C225A43024920F0704080
:1014E0005050704714440050014B1868C0B2704708
:1014F0000044005020F070420C23000F5843034971
:10150000405802420CBF0020012070470C4400509C
:10151000024B9A6842F00100986070470044005006
:101520002DE9F041C46B2378002B3DD082694169DD
:101530000023072740F60F761761C2F8B060C2F8A3
:10154000A4308D6845F4407C90F837504FF0010886
:1015500008FA05F54CEA05058D6013605360536188
:10156000536293611362D363536390F820504545EF
:1015700016D1C26990F838001761C2F8B060C2F89D
:10158000A4308E6805FA00F546F4407635438D6048
:10159000136053605361536293611362D363536367
:1015A00000202070BDE8F0810120BDE8F081C16B12
:1015B0000B78012B70B501D0032B62D1836990F8B1
:1015C000374040F60F72C3F8B02042690126D56853
:1015D00006FA04F42C43D46090F82040B44206D1BB
:1015E00090F83860D56804FA06F42C43D460827B06
:1015F0006AB9DA6842F00102DA6090F82030012B13
:101600003BD1C069C26842F00103C36035E0012AE2
:1016100015D11C6824F0C06222F440341C605A6862
:1016200022F0030490F823205C601C68120402F48A
:10163000403222431A605A6842F001025A60837BAA
:10164000012B1AD190F82020012A16D1C36990F8F5
:1016500023001C6824F0C06222F440341C605A68E5
:1016600022F003045C601C68020402F44030204352
:1016700018605A6842F0010058600220087000208B
:1016800070BD012070BDC26B1378022B70B520D1E4
:101690008169436990F8376007240C619D680121D6
:1016A00045F4007501FA06F12943996090F820107D
:1016B00001290AD1C56990F838002C619C6801FAAB
:1016C00000F144F400742143996003231370002057
:1016D00070BD012070BD38B590F820208469012AC2
:1016E00005D1C5696D6B646B44EA054300E0636B2B
:1016F000C46B247854B1C46AA14200D942B1994262
:1017000028BF591C026C9047002038BD012038BD0D
:10171000022038BD836990F8372089B2D9634369C4
:1017200092001969012000FA02F20A431A61704717
:1017300083695A6B92B230B55C6BB1FBF2F502FB78
:10174000151292B2A4B2DA63B1FBF4F1C36990F856
:1017500037408AB2DA63436990F838001969012288
:10176000A400800002FA04F402FA00F222430A43C1
:101770001A6130BD836990F8372089B2D963436913
:1017800092001969012000FA02F20A431A617047B7
:10179000C26B127808B507EE901A7AB19FED097AFC
:1017A000F4EEC77AF1EE10FA0ADCF5EEC07AF1EE4B
:1017B00010FA05D4436C9847002008BD012008BDED
:1017C000022008BD0000C842DFED107A00EE101ABA
:1017D00077EEC06A8369C6EEA70A5A6B013206EE3D
:1017E000102AB8EE467A27EE201AFCEEC11A11EE46
:1017F000901A8AB2DA63436990F837001969820057
:10180000012000FA02F20A431A6170470000C84240
:10181000DFED1D7A00EE101A77EEC06A8369C6EE1E
:10182000A70A30B5C469656B5A6B596B92B2013522
:1018300001326A43551C06EE105AB8EE467A89B258
:1018400027EE201AFCEEC11A11EE902AB2FBF1F538
:1018500001FB152189B2D9635B6B99B2B2FBF1F23E
:1018600093B2E363436990F8374090F83800196900
:101870000122A400800002FA04F402FA00F22243DA
:101880000A431A6130BD00BF0000C842DFED0F7A85
:1018900006EE101A77EEC66A8369C6EEA70A93EDC4
:1018A0000D7AB8EE470A20EE201AFCEEC11A11EEAE
:1018B000902A91B2D963436990F837001969820080
:1018C000012000FA02F20A431A6170470000C84280
:1018D000C36B1B7810B5D3B1D9B1C36A9A4202D990
:1018E00090F82040ACB1994290F8203002D9012BF9
:1018F0000FD101E0012B02D1C3690C0C5C63836939
:1019000089B25963036C11469847002010BD01202D
:1019100010BD022010BDC36B1A7810B53AB341B3A5
:10192000C36A90F82020994202D9012A21D101E00E
:10193000012A02D1C4690B0C6363826990F83740B5
:10194000436989B251631969A200012404FA02F2C1
:101950000A431A6190F82020A2420CD190F8380076
:101960001969800002FA00F20A431A6103E00120BB
:1019700010BD022010BD002010BD4B1C1BD0002349
:10198000B1F5803F0AD349084FF6FE720133914208
:10199000DBB2F8D8012202FA03F3013B90F83620BB
:1019A000012A01D15B0849088269C069516399B273
:1019B00041630020704702207047000038B5C36BB8
:1019C00007EE901A1978044600293DD0F5EE407ACA
:1019D000F1EE10FA3AD090ED017ADFED1D0A27EE14
:1019E000270A90F8202080EE801AFCEEC11A11EE32
:1019F000901AAAB9B1F5803F28D290F83600A369B1
:101A0000013900B14908596394F83720636901200E
:101A10001969920000FA02F20A431A61002038BDE7
:101A2000FFF7ABFF98B9636994F8375094F83840E2
:101A300019690122AD00A40002FA05F502FA04F2C8
:101A40002A430A431A6138BD012038BD022038BD3F
:101A5000286B6E4E10B5C36B044618782DED028BC3
:101A600007EE901A08EE102A00283AD0F5EE407AD8
:101A7000F1EE10FA37D09FED1E7AB4EEC78AF1EE80
:101A800010FA30DCB5EEC08AF1EE10FA2BD494EDEA
:101A9000010A9FED181A60EE270A94F82020C1EE83
:101AA000201ABCEEE12A12EE101A52B9B1F5803FAD
:101AB00019D294F83600A369013900B14908596375
:101AC00008E0012A02D1B1F5803F0CD32046FFF790
:101AD00054FF48B92046626C18EE101A9047002057
:101AE00002E0012000E00220BDEC028B10BD00BF2F
:101AF0000000C842286B6E4EC36B1A78012A01D0D1
:101B0000032A0AD183698AB21A6790F82030012B20
:101B100005D1C069090C016701E001207047002070
:101B20007047C36B1A787AB190F82030012B836923
:101B300004D1C26992689868104000E0986800F08B
:101B400001030B600020704701207047C36B1A78B7
:101B500030B512B390F82030012B836914D1C269DB
:101B6000146F1D6FA8B240EA0444D56B8C60586BAB
:101B7000DC6B05FB00400860506B5B6B9AB2013276
:101B800001305043431C05E0186F82B2D86B5B6B89
:101B90008A6008604B60002030BD012030BDC36BFF
:101BA0001A789AB190F82030012B0AD1C369806964
:101BB0005A6B531C0B60426B90B2421C53435A1C2D
:101BC00001E08069426B0A60002070470120704785
:101BD000C36B197810B5E1B190F82020436990F8F3
:101BE0003710012A0CD190F838001C698900800058
:101BF00002FA01F102FA00F20A4322431A6106E0F6
:101C00001A698900012000FA01F1114319610020CD
:101C100010BD012010BDC37C012B11D18169D1F809
:101C2000B02042F48063C1F8B03090F82010012950
:101C300006D1C369D3F8B02042F48061C3F8B01074
:101C40008369D3F8B02042F40061C3F8B01090F873
:101C50002030012B06D1C069D0F8B02042F40061D9
:101C6000C0F8B010704710B5C369418D4489072290
:101C70001A615963DC635A6842F480115960C47B6D
:101C8000012C15D11A6822F0C05121F440241C60A7
:101C90005A6822F00C0190F8242059601C689104C5
:101CA00001F4402222431A605C6844F00801596044
:101CB000427C012A14D11C6824F0C24121F4401254
:101CC0001A605C6824F40031596002781C681106BF
:101CD00001F0807222431A605C6844F4003159605C
:101CE0005A6922F4CE4424F00B015961027B54005E
:101CF00090F8342004F00201940204F4806241EA76
:101D0000020490F8361001F0010290F835101443E7
:101D10000A0202F440710C435C6190F821205C6976
:101D2000510301F4C04222435A611C6A417B24F0F2
:101D30000F0201F00F0141EA02041C62827C596922
:101D4000540504F4001221F400110A435A61C27CC4
:101D50005C69910501F4800224F4800422435A61F5
:101D6000427C5969540404F4003221F400310A43DE
:101D70005A615C6A90F8222024F00F0402F00F01EF
:101D800041EA04025A62017C9961416990F8380085
:101D90000C690123820003FA02F02043D41803FAED
:101DA00004F40232204303FA02F303430B6110BD33
:101DB00038B5C36B04461878002840F0CB80A3697F
:101DC00007221A61E17B012915D11D6825F0C05059
:101DD00020F440221A60596894F8242021F00C0560
:101DE0005D601868910401F4402505431D60586842
:101DF00040F008025A60617C012918D194F8205003
:101E0000012D14D0186820F0C24222F4401119604C
:101E10005D6825F40030586022781968150605F0D1
:101E2000807008431860596841F400325A605D6957
:101E300094F8362025F4CE4020F0090159615D69FF
:101E400094F8341002F0010028438D0294F8351004
:101E500005F480620D02104305F44072104358618E
:101E600094F82000012808D0257B59696A0002F007
:101E7000020021F002010843586194F821205D69B5
:101E8000500300F4C041294359611D6A627B25F06B
:101E90000F0102F00F0040EA01051D6294F82020B6
:101EA000012A1AD0A17C58694D0505F4001220F4CE
:101EB000001002435A61E57C5969AA0502F48000CA
:101EC00021F4800108435861627C5D69500400F48C
:101ED000003225F400310A435A615D6A94F8220009
:101EE00025F00F0200F00F0141EA02055D62207C3F
:101EF000218D228998615963DA63D3F8B05045F493
:101F0000706040F00F01C3F8B01094F82020012A4F
:101F100003D12046FFF7A7FEE369D3F8A450206B56
:101F200094F8372045EA0001C3F8A4106169012341
:101F30000869920003FA02F52843D51803FA05F55B
:101F40000232284303FA02F210430861E16B0020D9
:101F50000B7038BD012038BD10B5194C00F06AFF78
:101F60002046FFF725FF28B96378012B02D12046D0
:101F7000FFF71DFB1348026C22F070010164046C32
:101F800004640369104C23F4804202610169016119
:101F90002046FFF70DFF28B96078012802D12046BE
:101FA000FFF705FB094B1A6C22F4E0211964186C49
:101FB00018645A6922F0400159615869586110BD8E
:101FC0005C2F000800810248142F0008008302489B
:101FD000C36B1A78BAB190F82020012A08D1C369DE
:101FE000D3F8A40002FA01F20243C3F8A42008E0E7
:101FF00083690120D3F8A42000FA01F11143C3F84A
:10200000A4100020704701207047C36B1A78CAB132
:1020100090F82020012A09D1C369D3F8A40002FA5C
:1020200001F220EA0201C3F8A41009E0836901204B
:10203000D3F8A42000FA01F122EA0102C3F8A42097
:102040000020704701207047C36B1A78BAB190F82E
:102050002020012A08D1C369D3F8B00002FA01F2A6
:102060000243C3F8B02008E083690120D3F8B02010
:1020700000FA01F11143C3F8B010002070470120AD
:102080007047C36B1A78BAB190F82020012A08D1A2
:10209000C369D3F8AC0002FA01F20243C3F8AC20E2
:1020A00008E083690120D3F8AC2000FA01F1114364
:1020B000C3F8AC100020704701207047C36B1B7839
:1020C00010B5ABB190F82030012B03D1C469D4F81E
:1020D000A00003E08069D0F8A000012303FA01F416
:1020E0002040C84002D01370002010BD107010BDF9
:1020F000012010BD2DE9F04100222349234BC8687F
:10210000D358C0F302211C785F7893F80280C1F1A4
:10211000070CE6B2BCF1060F28BF4FF0060C01B168
:102120000139012505FA01F005FA0CF5013D0138E8
:102130003D4005FA01F100EA0800084371B20029A8
:102140004FEA800006DA124904F00F046118C0B2A9
:10215000087606E001F1604101F56141C0B281F805
:102160000003D978012909D11B785CB203F01F0064
:102170006409084B01FA00F143F824100432082ADC
:10218000BBD1BDE8F08100BF00ED00E004000020FD
:10219000FCEC00E000E100E0614B5A680020506078
:1021A000116C21F007031364116C41F004031364F4
:1021B000116911615B4A5368082159601A6C22F455
:1021C000E04119641A6C42F4804119641A691A6179
:1021D000554B5A685060516C21F007035364516CA1
:1021E00041F00403536491699161504A5368586007
:1021F000196C21F4E0021A64196C41F480021A642B
:10220000596959614A4B5A685060116C21F4E023B6
:102210001364116C41F48023136451695161454A80
:1022200053685860196C21F4E0421A64196C41F447
:1022300080421A64196919613F4B5A685060116CE9
:1022400021F4E0631364116C41F480631364116939
:1022500011613A4A53685860196C21F4E0621A64BB
:10226000196C41F480621A6419691961344B5A6817
:102270005060116C21F0E0431364116C41F0804315
:102280001364516951612F4A53685860196C21F0E9
:10229000E0621A64196C41F080621A6459695961EC
:1022A000294B5A685060516C21F070035364516C93
:1022B00041F04003536491699161244A5368586026
:1022C000196C21F4E0421A64196C41F480421A64DA
:1022D000196919611E4B5A685060516C21F007034F
:1022E0005364516C41F00403536491699161194A3C
:1022F00053685860196C21F0E0421A64196C196433
:102300005A695A61144B59684860486C20F00702BA
:102310004A644B6C43F0040048648A698A617047E0
:102320001C300008143000080C300008043000088D
:10233000FC2F0008F42F0008EC2F0008E42F000801
:10234000DC2F0008D42F0008CC2F0008C42F000871
:10235000BC2F0008B42F0008AC2F000810B543783C
:10236000032B11D84268DB00146903331F2000FAE5
:1023700003F024EA00001061106901F01F0101FA66
:1023800003F30343136110BD1A1FD2B2032A11D8FD
:102390004368D0005C69C21C1F2000FA02F024EAE6
:1023A00000005861586901F01F0101FA02F202436E
:1023B0005A6110BDA3F10802D2B2032A11D84368B2
:1023C000D2009C6903321F2000FA02F024EA0000C8
:1023D0009861986901F01F0101FA02F202439A61C3
:1023E00010BD0C3BDBB2032B10D84268D800D46977
:1023F000C31C1F2000FA03F024EA0000D061D0695A
:1024000001F01F0101FA03F30343D36110BD10B5BE
:102410004378032B11D84268DB00146903331F2073
:1024200000FA03F024EA00001061106901F01F01B6
:1024300001FA03F30343136110BD1A1FD2B2032A3A
:1024400011D84368D0005C69C21C1F2000FA02F05A
:1024500024EA00005861586901F01F0101FA02F2F4
:1024600002435A6110BDA3F10802D2B2032A11D867
:102470004368D2009C6903321F2000FA02F024EA6C
:1024800000009861986901F01F0101FA02F202430D
:102490009A6110BD0C3BDBB2032B10D84268D80008
:1024A000D469C31C1F2000FA03F024EA0000D061A5
:1024B000D06901F01F0101FA03F30343D36110BD9A
:1024C00070B500204A4BC358D9695A78012924D1E4
:1024D0005C68196C04FA02F4072A4C600DD8596C38
:1024E000D9B10E689C6A26EA04050D609C68DD6A15
:1024F0000E6804FA05F59C6A0CE0996C69B10D68E8
:102500001C6B25EA04060E609C685D6B0E6804FA7D
:1025100005F51C6B2C4034430C60D968012906D1A9
:10252000196C02244D6F04FA02F42C434C67D969EC
:10253000012923D1032A05D8196C5B6A0C69D200E2
:10254000033224E0111F032905D81A6C5B6A546911
:10255000C900033128E0A2F10801032905D81A6C4B
:102560005B6A9469C90003312CE00C3A032A3AD81B
:10257000196C5B6ACC69D200033230E0002932D199
:10258000032A09D8196C5B690C69D200033203FA7B
:1025900002F323430B6126E0111F032909D81A6CAB
:1025A0005B695469C900033103FA01F323435361A2
:1025B00019E0A2F10801032909D81A6C5B69946932
:1025C000C900033103FA01F3234393610BE00C3A92
:1025D000032A08D8196C5B69CC69D200033203FA6C
:1025E00002F32343CB61043008287FF46BAF70BD46
:1025F0000C00002084B08DE80F00109B9DF80110A6
:10260000586A20FA01F000F0010004B0704784B06D
:102610008DE80F009DF801301098012202FA03F2B4
:10262000426004B0704784B08DE80F009DF801301F
:1026300010984FF4803202FA03F2426004B07047FF
:1026400084B08DE80F0013999DF80120109B09B10B
:10265000012001E04FF4803000FA02F25A6004B029
:10266000704784B08DE80F009DF8013010984FF04E
:10267000011202FA03F2426004B0704770477047DB
:102680000368104A934210B5044609D14FF48030D4
:10269000FEF730FF012803D14FF48030FEF71AFF18
:1026A00062682368A168E46808320901A40053F84D
:1026B000220001F0300104F004042143014343F8F7
:1026C000221010BD0040044010B5044C2068FFF7F4
:1026D000D7FF6068BDE81040FFF7D2BF14000020AC
:1026E000032903680BD853B14268083253F822001B
:1026F00020F00300014343F82210012070470F200F
:1027000070471FB504AC04E90F00019B009803F16A
:10271000080250F82210C1F3C00004B010BD40B14F
:1027200042680368083253F8221041F0040043F86D
:102730002200704740B142680368083253F8221003
:1027400021F0040043F82200704760B1426803683A
:102750000832090153F8220001F0300120F0300066
:10276000014343F82210704738B51A4A0368934270
:10277000044609D14FF48030FEF7BCFE012803D196
:102780004FF48030FEF7A6FE657920792368690052
:1027900001F00205A179021D890053F8220001F021
:1027A000040129430143E079C00000F0080001431F
:1027B000207A000200F440700143607A800200F445
:1027C00080600143A07AC00200F40060014343F836
:1027D000221038BD0040044010B5044C2068FFF7BB
:1027E000C3FF6068BDE81040FFF7BEBF1C000020BB
:1027F00084B004AB03E907009DF808200198131D7D
:1028000050F8231021F0800240F8232004B07047D4
:102810001149124808B5CB684FF6FF021A4042EA48
:102820000003CB6000F092F800F01EFA00F002FB0B
:10283000FFF792FBFFF7B0FC00F040F9FEF75EFDFA
:10284000FFF73EFEFFF7C8FFFFF73EFFFFF752FC22
:10285000BDE8084000F006B800ED00E00001FA0510
:1028600000F002BA354B1A6822F4407040F48071CF
:1028700019609A6942F001009861996921F070022B
:1028800042F0300098612E4B2E48196941F0010248
:102890001A61036823F00F0141F00E0202602A481A
:1028A000436F23F440414167426942F00043436172
:1028B000C16921F0384242F01843C36100F58070CD
:1028C000016941F080020261036923F4384141F457
:1028D00018420261036943F400010161026942F098
:1028E00000430361816941F080028261D0F81031B8
:1028F00043F40001C0F81011D0F8142142F0800315
:10290000C0F81431D0F8141141F40042C0F8142179
:10291000D0F8183143F08001C0F81811D0F8102217
:1029200042F00043C0F81032D0F8141221F0B8027F
:1029300042F09803C0F81432704700BF00480050BE
:102940000040044000C2004000800248034B5A6F20
:1029500022F4403040F4003159677047008002484B
:10296000C2684369117AF0B50669002964D11C6810
:10297000017824F0C06525F440371F600D04817A8A
:102980001C6805F440374D0605F0C0610F4327432E
:102990001F605C6824F4404545F480415960077A23
:1029A0009FB1417A1D68CC0504F400072F431F60D6
:1029B0005D6845F400745C6019B91D6845F48027B2
:1029C00002E0196841F400271F601C6944F0070108
:1029D00019615F6927F001055D61DC6B4568210CB9
:1029E0000F04ACB22743DF63596B6FEA11476FEAFC
:1029F0000744C17A5C633769C0698C00012101FA20
:102A000004FC4CEA070704EB010C01FA0CFC02344D
:102A100047EA0C0701FA04F43C43346140F60F74B2
:102A2000C3F8B040D3F8A4402043C3F8A40000206A
:102A300082E821001172F0BD0120F0BDC168426939
:102A40000B7A70B50469E3B11569C07A45F00706E1
:102A500040F60F731661C2F8B0300023C2F8A430FC
:102A6000A568012606FA00F02843A0600648106019
:102A7000536018465361D36353630B604B600B7212
:102A800070BD012070BD00BF0000FFFFC368426938
:102A9000016930B51C7A012C0DD1C07ACD6804FAD9
:102AA00000F42C43CC60D16841F00100D0600222D8
:102AB0001A72002030BD012030BD000010B5084C56
:102AC00000F0B8F92046FFF74BFF38B9237E012B01
:102AD00004D12046BDE81040FFF7D8BF10BD00BFAD
:102AE000F4300008C3684269016910B51C7A022CF1
:102AF00013D11469C07A44F00704146140F60F74CE
:102B0000C2F8B0408C68012202FA00F020438860CD
:102B10000020186058601A7210BD012010BDC268F4
:102B20004369107A20B11B6F9AB20A600020704787
:102B300001207047C3681A7A1AB1586808600020EB
:102B400070470120704700F10C0270B554CA157A25
:102B5000012D11D1B1F5803F10D2F36BC07A1B0C5F
:102B60001B040B43F3632369800005FA00F51D4342
:102B700025610020516070BD012070BD032070BD33
:102B8000C2684369107A28B19B6803F001020A60A9
:102B90000020704701207047C2684369127A012003
:102BA0003AB1D3F8A42000FA01F01043C3F8A4000E
:102BB00000207047C2684369127A012042B1D3F8FD
:102BC000A42000FA01F022EA0000C3F8A4000020CB
:102BD0007047C2684369127A01203AB1D3F8B02035
:102BE00000FA01F01043C3F8B00000207047C2683B
:102BF0004369127A01203AB1D3F8AC2000FA01F00F
:102C00001043C3F8AC0000207047C36810B5446996
:102C1000187A012358B1D4F8A00003FA01F4204037
:102C2000C84002D01370002010BD107010BD1846AF
:102C300010BDC2684369107A28B1196941F00202D7
:102C40001A61002070470120704782B00022019273
:102C5000019B834206D200BF00BF00BF00BF0199A5
:102C60004A1CF4E702B0704738B5644B64485A68B0
:102C70001040002800F0AB8062490C68E20703D4E2
:102C80004D6845F001034B605F480268910503D52C
:102C9000816841F400748460584D6B6823F480109F
:102CA00068606420FFF7D1FF6A6842F40021642065
:102CB0006960FFF7CAFF6C68544924F4803323F03D
:102CC000020068604A6812F0300F1CD04C6824F093
:102CD00030034B60486840F440324A60E96821F0B4
:102CE0000104EC606B6823F40030686044F25064C7
:102CF000424D0A20FFF7A9FF2A6802F46071B1F57E
:102D0000607F68D12B683D4B186842072DD4404A3C
:102D10004049132582E822005D683F4A45F00101E1
:102D200059605C6844F0100058609A605D6845F036
:102D3000400159605C6824F0100058605A6842F401
:102D400080255D6044F250640A20FFF77EFF2B4B24
:102D5000196811F0040F184640D00268274D540737
:102D600003D56B6823F0010169602C482949C468C8
:102D700044F48035214CC5606268254D22F0400343
:102D8000636064202960FFF760FF2548A06064202D
:102D9000FFF75BFF234B04226A609620A360FFF7D6
:102DA00054FF2149A160A068C0F30363002B23D125
:102DB000A268C2F30621272913D01C4A0521012B42
:102DC000D16004D11548436843F010014160BDE86B
:102DD0003840FDF78FBE013C8AD193E7013CB3D167
:102DE000BBE7A0684006E8D1A368C3F30642D11E42
:102DF000484250EB0103E0E70023DEE710470050B4
:102E00000200010000420050004400500047005002
:102E10006000002000389C1C002713000046005072
:102E2000002707000027040000270300604100502E
:102E30000020704770B50C4C2368A3B90B4D2E6869
:102E4000B068FEF747FB30686D68C26842F4807175
:102E5000C160A868FEF73EFB2B68D868012140F4EA
:102E60008072DA60216070BD6800002024000020BC
:102E7000F8B5204F204C381B871017D07A1E2368D6
:102E8000012502F001069847AF420FD02EB154F849
:102E9000041F02258847AF4208D06068804702358A
:102EA000A268261D90470834AF42F6D1134F144C48
:102EB000FEF78CF93B1B9F1018D07D1E216805F092
:102EC000010601258847AF4211D02EB154F8040FF6
:102ED00002258047AF420BD0626890470235A36855
:102EE000261D98470834AF42F6D1F8BDF8BDF8BDAD
:102EF000F8BD00BF042F0008042F0008042F0008AD
:042F0000042F000892
:102F0400FCD2FF7F0100000032D3FF7F01000000EC
:102F140001000000045685411F4E0000000000001F
:102F24000000010000400140004301400043014013
:102F340000000100000000003E9C0000FFFF0000B4
:102F44000000000000000002020000005000002009
:102F540015170008C9170008010000000456854130
:102F6400DC050000000000000000010000C000407B
:102F740000C3004000C30040000001000000000046
:102F8400B70B0000FFFF000000000000000000027B
:102F9400020000005100002015170008C91700089E
:102FA400043F0001053F00010508000000850248B8
:102FB4000007000000800248010800000081024868
:102FC400030300000083024805090000008502484D
:102FD4000506000000850248050700000085024838
:102FE400010200000081024802020000008202483F
:102FF400020300000082024802040000008202482A
:103004000205000000820248020800000082024813
:103014000103000000810248010000000081024811
:103024000008000000000000000000000000000094
:10303400000000000000000000000000000000008C
:10304400000000000000000000000000000000007C
:103054000700000000000000000000000000000065
:10306400008002480000000044800248010500007E
:10307400000000000000000000000000000000004C
:10308400000000000000000000000000000000003C
:1030940000000000000070001400000000000000A8
:1030A4000000000000000000000000000081024851
:1030B4004081024800000000004800500300000066
:1030C4000000000000000000004004400000000078
:1030D4000000000000000000004800500201000051
:1030E4000100010000400440000101000100010052
:1030F400010000001E000000000000015400002038
:1031040000C0004000C200400000000004010000B4
:1031140000400140020000001000000000C0004018
:0831240000000000040000009F
:10313000000E2707A82F0008A42F000870300008F1
:1031400024300008CC300008BC300008E83000080B
:0C315000DC3000082031000814310008B9
:0400000508000201EC
:00000001FF
